:020000040800F2
:1000000000C00020F17C00085173000859730008FB
:100010006173000869730008717300080000000034
:1000200000000000000000000000000079730008DC
:100030008573000800000000917300089D7300089C
:10004000397D0008397D0008397D0008397D0008B8
:10005000397D0008397D0008A9730008397D000842
:10006000397D0008397D0008397D0008397D000898
:10007000397D0008397D0008397D0008397D000888
:10008000397D0008397D0008397D0008397D000878
:10009000397D0008397D0008397D0008B7730008F4
:1000A000397D0008397D0008397D0008397D000858
:1000B000397D0008C5730008397D0008397D0008C6
:1000C000397D0008397D0008397D0008397D000838
:1000D000397D0008D9730008397D0008397D000892
:1000E000F9730008397D0008397D0008397D000862
:1000F000397D0008397D0008397D0008397D000808
:10010000397D0008397D0008397D0008397D0008F7
:10011000397D0008397D0008397D0008397D0008E7
:10012000397D0008397D0008397D0008397D0008D7
:1001300000000000000000000000000000000000BF
:1001400000000000000000000000000000000000AF
:10015000000000000000000000000000000000009F
:10016000000000000000000000000000000000008F
:10017000000000000000000000000000000000007F
:10018000000000000000000000000000000000006F
:10019000000000000000000000000000000000005F
:1001A000000000000000000000000000000000004F
:1001B000000000000000000000000000000000003F
:1001C000000000000000000000000000000000002F
:1001D000000000000000000000000000000000001F
:0401E0005FF8E0F1F3
:1001E80010B5054C237833B9044B13B10448AFF369
:1001F80000800123237010BD6C0000200000000067
:1002080074AD000808B5034B1BB103490348AFF3AD
:10021800008008BD000000007000002074AD0008D8
:1002280070B54FF0FF0C4CF4E06C1CEA11541DBF84
:100238001CEA135594EA0C0F95EA0C0F00F0DEF84F
:100248002C4481EA030621EA4C5123EA4C5350EA34
:10025800013518BF52EA033541F4801143F4801385
:1002680038D0A0FB02CE4FF00005E1FB02E506F016
:100278000042E0FB03E54FF00006E1FB03569CF06B
:10028800000F18BF4EF0010EA4F1FF04B6F5007F71
:1002980064F5407404D25FEA4E0E6D4146EB0606E3
:1002A80042EAC62141EA55514FEAC52040EA5E506C
:1002B8004FEACE2EB4F1FD0C88BFBCF5E06F1ED816
:1002C800BEF1004F08BF5FEA500E50F1000041EB4D
:1002D800045170BD06F0004646EA010140EA0200FA
:1002E80081EA0301B4EB5C04C2BFD4EB0C0541EA1C
:1002F800045170BD41F480114FF0000E013C00F331
:10030800AB8014F1360FDEBF002001F0004170BD54
:10031800C4F10004203C35DA0C341BDC04F114046D
:10032800C4F1200500FA05F320FA04F001FA05F2F9
:1003380040EA020001F0004221F0004110EBD370C6
:1003480021FA04F642EB06015EEA430E08BF20EAF2
:10035800D37070BDC4F10C04C4F1200500FA04F395
:1003680020FA05F001FA04F240EA020001F0004127
:1003780010EBD37041F100015EEA430E08BF20EA9A
:10038800D37070BDC4F1200500FA05F24EEA020EE2
:1003980020FA04F301FA05F243EA020321FA04F011
:1003A80001F0004121FA04F220EA020000EBD370C8
:1003B8005EEA430E08BF20EAD37070BD94F0000FC8
:1003C8000FD101F00046400041EB010111F4801FFC
:1003D80008BF013CF7D041EA060195F0000F18BFAD
:1003E800704703F00046520043EB030313F4801FE9
:1003F80008BF013DF7D043EA0603704794EA0C0FA3
:100408000CEA135518BF95EA0C0F0CD050EA4106B8
:1004180018BF52EA4306D1D181EA030101F0004135
:100428004FF0000070BD50EA410606BF104619465D
:1004380052EA430619D094EA0C0F02D150EA013669
:1004480013D195EA0C0F05D152EA03361CBF1046AA
:1004580019460AD181EA030101F0004141F0FE4149
:1004680041F470014FF0000070BD41F0FE4141F4CD
:10047800780170BD81F0004102E000BF83F00043C5
:1004880030B54FEA41044FEA430594EA050F08BF27
:1004980090EA020F1FBF54EA000C55EA020C7FEAEB
:1004A800645C7FEA655C00F0E2804FEA5454D4EB68
:1004B8005555B8BF6D420CDD2C4480EA020281EA32
:1004C800030382EA000083EA010180EA020281EA6A
:1004D8000303362D88BF30BD11F0004F4FEA0131BC
:1004E8004FF4801C4CEA113102D0404261EB4101CB
:1004F80013F0004F4FEA03334CEA133302D0524251
:1005080063EB430394EA050F00F0A780A4F101040C
:10051800D5F1200E0DDB02FA0EFC22FA05F2801846
:1005280041F1000103FA0EF2801843FA05F359412C
:100538000EE0A5F120050EF1200E012A03FA0EFCAB
:1005480028BF4CF0020C43FA05F3C01851EBE371D5
:1005580001F0004507D54FF0000EDCF1000C7EEBF2
:1005680000006EEB0101B1F5801F1BD3B1F5001F30
:100578000CD349085FEA30004FEA3C0C04F101044F
:100588004FEA445212F5800F80F09A80BCF1004F78
:1005980008BF5FEA500C50F1000041EB045141EAFA
:1005A800050130BD5FEA4C0C404141EB0101013CC3
:1005B80028BFB1F5801FE9D291F0000F04BF0146B2
:1005C8000020B1FA81F308BF2033A3F10B03B3F184
:1005D80020020CDA0C3208DD02F1140CC2F10C0214
:1005E80001FA0CF021FA02F10CE002F11402D8BF72
:1005F800C2F1200C01FA02F120FA0CFCDCBF41EA3E
:100608000C019040E41AA2BF01EB0451294330BD0C
:100618006FEA04041F3C1CDA0C340EDC04F11404E9
:10062800C4F1200220FA04F001FA02F340EA0300C0
:1006380021FA04F345EA030130BDC4F10C04C4F106
:10064800200220FA02F001FA04F340EA03002946E6
:1006580030BD21FA04F0294630BD94F0000F83F430
:10066800801306BF81F480110134013D4EE77FEA13
:10067800645C18BF7FEA655C29D094EA050F08BF5F
:1006880090EA020F05D054EA000C04BF1946104640
:1006980030BD91EA030F1EBF0021002030BD5FEA84
:1006A800545C05D14000494128BF41F0004130BDAC
:1006B80014F580043CBF01F5801130BD01F0004500
:1006C80045F0FE4141F470014FF0000030BD7FEA73
:1006D800645C1ABF194610467FEA655C1CBF0B466E
:1006E800024650EA013406BF52EA033591EA030F85
:1006F80041F4002130BD00BF90F0000F04BF00217D
:10070800704730B54FF4806404F132044FF00005AF
:100718004FF0000150E700BF90F0000F04BF002128
:10072800704730B54FF4806404F1320410F000458E
:1007380048BF40424FF000013EE700BF42004FEA89
:10074800E2014FEA31014FEA02701FBF12F07F4306
:1007580093F07F4F81F06051704732F07F4208BFBD
:10076800704793F07F4F04BF41F40021704730B5C4
:100778004FF4607401F0004521F000411CE700BF10
:1007880050EA010208BF704730B54FF000050AE093
:1007980050EA010208BF704730B511F0004502D594
:1007A800404261EB41014FF4806404F132045FEA96
:1007B800915C3FF4D8AE4FF003025FEADC0C18BF3F
:1007C80003325FEADC0C18BF033202EBDC02C2F131
:1007D800200300FA03FC20FA02F001FA03FE40EAC3
:1007E8000E0021FA02F11444BDE600BF4A0011D2FE
:1007F80012F5001211D20DD56FF47873B3EB625273
:100808000ED44FEAC12343F0004343EA505323FA7E
:1008180002F070474FF00000704750EA013002D1F3
:100828004FF0FF3070474FF00000704780B588B038
:1008380000AF07F1100300221A605A609A60DA606C
:10084800464B9B69454A43F020039361434B9B69A0
:1008580003F02003FB60FB68404B9B693F4A43F071
:10086800040393613D4B9B6903F00403BB60BB68C1
:100878003A4B9B69394A43F010039361374B9B69A4
:1008880003F010037B607B6801224FF480713448C9
:1008980007F0D1FE01220421324807F0CCFE0123E3
:1008A8003B61314B7B610223BB6107F110031946A1
:1008B8002B4807F015FD20233B612C4B7B6101235E
:1008C800BB6107F110031946294807F009FD4FF4E9
:1008D80080733B6101237B610023BB610223FB61C1
:1008E80007F1100319461E4807F0FAFC4FF40043BD
:1008F8003B611E4B7B610123BB6107F11003194665
:10090800174807F0EDFC04233B6101237B610023BA
:10091800BB610223FB6107F110031946114807F078
:10092800DFFC00220221062007F061FB062007F009
:100938007AFB00220221172007F059FB172007F045
:1009480072FB00220221282007F051FB282007F023
:100958006AFB00BF2037BD4680BD00BF00100240C3
:10096800000801400014014000001110000021108F
:100978000010014080B483B000AF0346FB800D4BEC
:100988004FF480721A610B4B4FF000721A610A4AD9
:10099800FB88D360074B4FF400021A61054B802295
:1009A8001A61044B4FF400721A6100BF0C37BD4640
:1009B80080BC704700100140000C014080B485B035
:1009C80000AF03460A46FB801346BB80FB88FB81C9
:1009D800194B4FF080721A61174B4FF000721A6171
:1009E800FB899AB2154BDA60134B4FF400021A6177
:1009F800114B80221A61104B4FF400721A6100BF2C
:100A08000D4B4FF480721A610B4B4FF000721A6154
:100A18000A4ABB88D360084B4FF400021A61064BA0
:100A280080221A61044B4FF400721A6100BF143718
:100A3800BD4680BC704700BF00100140000C01405B
:100A480080B483B000AF786000BF7B685A1E7A60BC
:100A5800002BFAD100BF00BF0C37BD4680BC7047E1
:100A680080B586B000AF4FF6FF737B600023BB6094
:100A78000123FB6003233B613B1D1946184807F01F
:100A88002FFC184B4FF480721A61164B4FF000720E
:100A98001A61144B4FF480021A610220FFF7D0FF4D
:100AA8000F4B9B689BB2FB820E4B40221A610D4B89
:100AB8004FF400721A614FF6FF737B600123BB602D
:100AC8000123FB6003233B613B1D1946044807F0E3
:100AD80007FCFB8A9BB218461837BD4680BD00BF8D
:100AE800000C01400010014080B483B000AF204BDF
:100AF8009B8845F2105293421AD14FF42053BB8081
:100B08001C4B4FF080721A611A4B4FF000721A6139
:100B1800BB889AB2184BDA60164B4FF400021A6180
:100B2800144B80221A61134B4FF400721A6119E0BA
:100B38002823FB800F4B4FF080721A610D4B4FF04A
:100B480000721A61FB889AB20B4BDA60094B4FF4BA
:100B580000021A61074B80221A61064B4FF400729B
:100B68001A6100BF00BF0C37BD4680BC704700BF8C
:100B78008800002000100140000C014080B489B0BA
:100B880000AF03460A46FB801346BB80444B9B8854
:100B980041F66312934240F08981414B9B79002BC7
:100BA80040F084803E4B1A88FB88D31A9BB2013BE5
:100BB800FB803B4B5B89FB813A4B4FF080721A619B
:100BC800384B4FF000721A61FB899AB2364BDA60E3
:100BD800344B4FF400021A61324B80221A61314BB8
:100BE8004FF400721A6100BF2E4B4FF480721A61E5
:100BF8002C4B4FF000721A612B4B0022DA60294B04
:100C08004FF400021A61274B80221A61254B4FF4DA
:100C180000721A61234B4FF480721A61214B4FF016
:100C280000721A61204B0022DA601E4B4FF400025A
:100C38001A611C4B80221A611A4B4FF400721A6118
:100C4800184B4FF480721A61164B4FF000721A61FC
:100C5800FB881B0A9AB2144BDA60124B4FF400025D
:100C68001A61104B80221A610E4B4FF400721A6100
:100C78000C4B4FF480721A610A4B4FF000721A61E4
:100C8800FB88094ADBB2D360064B4FF400021A61B5
:100C9800044B80221A61034B4FF400721A6181E001
:100CA8008800002000100140000C01407C4B5B894B
:100CB8003B827C4B4FF080721A617A4B4FF0007286
:100CC8001A613B8A9AB2784BDA60764B4FF400028D
:100CD8001A61744B80221A61724B4FF400721A61C8
:100CE80000BF704B4FF480721A616E4B4FF0007268
:100CF8001A61FB881B0A9AB26B4BDA60694B4FF496
:100D080000021A61674B80221A61664B4FF4007229
:100D18001A61644B4FF480721A61624B4FF0007293
:100D28001A61FB88604ADBB2D3605E4B4FF4000265
:100D38001A615C4B80221A615A4B4FF400721A6197
:100D4800584B4FF480721A61564B4FF000721A617B
:100D5800534B1B88013B1A12534BDA60514B4FF42B
:100D680000021A614F4B80221A614E4B4FF40072F9
:100D78001A614C4B4FF480721A614A4B4FF0007263
:100D88001A61474B1B88013B474ADBB2D360454B8E
:100D98004FF400021A61434B80221A61414B4FF411
:100DA80000721A613E4B9B897B823E4B4FF08072EA
:100DB8001A613C4B4FF000721A617B8A9AB23A4B27
:100DC800DA60384B4FF400021A61364B80221A6100
:100DD800344B4FF400721A6100BF324B4FF48072EB
:100DE8001A61304B4FF000721A61BB881B0A9AB225
:100DF8002D4BDA602B4B4FF400021A61294B8022ED
:100E08001A61284B4FF400721A61264B4FF4807216
:100E18001A61244B4FF000721A61BB88224ADBB278
:100E2800D360204B4FF400021A611E4B80221A61D6
:100E38001C4B4FF400721A611A4B4FF480721A61FE
:100E4800184B4FF000721A61154B5B88013B1A1260
:100E5800154BDA60134B4FF400021A61114B8022D4
:100E68001A61104B4FF400721A610E4B4FF48072E6
:100E78001A610C4B4FF000721A61094B5B88013BF9
:100E8800094ADBB2D360074B4FF400021A61054BE5
:100E980080221A61034B4FF400721A6176E100BF99
:100EA8008800002000100140000C01406A4B9B881C
:100EB80045F21052934240F0D580674B5B897B83A3
:100EC800664B4FF080721A61644B4FF000721A61E2
:100ED8007B8B9AB2624BDA60604B4FF400021A6166
:100EE8005E4B80221A615D4B4FF400721A6100BF9D
:100EF8005A4B4FF480721A61584B4FF000721A61C6
:100F0800FB881B0A9AB2564BDA60544B4FF4000226
:100F18001A61524B80221A61504B4FF400721A61C9
:100F28004D4B5B8901339BB23B834C4B4FF0807236
:100F38001A614A4B4FF000721A613B8B9AB2484BC8
:100F4800DA60464B4FF400021A61444B80221A6162
:100F5800424B4FF400721A6100BF404B4FF480724D
:100F68001A613E4B4FF000721A61FB883C4ADBB2B3
:100F7800D3603A4B4FF400021A61384B80221A6151
:100F8800364B4FF400721A61334B9B89FB82334B0B
:100F98004FF080721A61314B4FF000721A61FB8A70
:100FA8009AB22F4BDA602D4B4FF400021A612B4B8B
:100FB80080221A61294B4FF400721A6100BF274B37
:100FC8004FF480721A61254B4FF000721A61BB888A
:100FD8001B0A9AB2224BDA60204B4FF400021A61C6
:100FE8001E4B80221A611D4B4FF400721A611A4B76
:100FF8009B8901339BB2BB82184B4FF080721A61F8
:10100800164B4FF000721A61BB8A9AB2144BDA6021
:10101800124B4FF400021A61104B80221A610F4BD9
:101028004FF400721A6100BF0C4B4FF480721A61C2
:101038000A4B4FF000721A61BB88094ADBB2D360D1
:10104800064B4FF400021A61044B80221A61034BCD
:101058004FF400721A6199E08800002000100140E6
:10106800000C01404C4B5B89FB834C4B4FF080726A
:101078001A614A4B4FF000721A61FB8B9AB2484BC7
:10108800DA60464B4FF400021A61444B80221A6121
:10109800424B4FF400721A6100BF404B4FF480720C
:1010A8001A613E4B4FF000721A61FB881B0A9AB214
:1010B8003B4BDA60394B4FF400021A61374B802200
:1010C8001A61364B4FF400721A61344B4FF4807238
:1010D8001A61324B4FF000721A61FB88304ADBB25A
:1010E800D3602E4B4FF400021A612C4B80221A61F8
:1010F8002A4B4FF400721A61274B9B89BB83274BFD
:101108004FF080721A61254B4FF000721A61BB8B49
:101118009AB2234BDA60214B4FF400021A611F4B3D
:1011280080221A611D4B4FF400721A6100BF1B4BDD
:101138004FF480721A61194B4FF000721A61BB8824
:101148001B0A9AB2164BDA60144B4FF400021A616C
:10115800124B80221A61114B4FF400721A610F4B27
:101168004FF480721A610D4B4FF000721A61BB8800
:101178000B4ADBB2D360094B4FF400021A61074BEC
:1011880080221A61054B4FF400721A6100BF2437A0
:10119800BD4680BC704700BF880000200010014099
:1011A800000C014080B58AB000AF0346FB710023F4
:1011B800FB840023BB845F4B9B79012B05D15D4BDE
:1011C8009B8841F66312934209D15A4B9B79002BB5
:1011D80034D1584B9B8841F6631293422ED1FB7948
:1011E800072B2BD801A252F823F000BF15120008D4
:1011F8001B12000821120008271200082D120008EF
:1012080033120008391200083F1200080623FB7148
:1012180014E00723FB7111E00423FB710EE00523A2
:10122800FB710BE00123FB7108E00023FB7105E073
:101238000323FB7102E00223FB7100BFFB79072B3C
:1012480035D801A252F823F0B7120008711200082D
:101258007B120008851200088F12000899120008F6
:10126800A3120008AD120008FB8C43F08003FB8436
:101278001DE0FB8C43F04003FB8418E0FB8C43F03B
:10128800C003FB8413E0FB8C43F02003FB840EE0D7
:10129800FB8C43F06003FB8409E0FB8C43F0A00364
:1012A800FB8404E0FB8C43F0E003FB8400BF36239F
:1012B800BB84204B9B8845F21052934202D14FF4D5
:1012C8005853BB841B4B9B8849F2413293420BD045
:1012D800184B9B8847F28972934205D0154B9B881F
:1012E80047F29672934203D1FB8C43F00803FB84C8
:1012F800FA8CBB8C11461846FFF760FB0D4B9B8898
:1013080041F66312934227D0FB8C03F02003002B95
:1013180012D0084B1A88074B5B889A421CD2054B9F
:101328001B887B84034B5A88024B1A80014A7B8CAA
:10133800538011E0880000209C4B1A889B4B5B88E7
:101348009A4209D9994B1B887B84984B5A88974BAA
:101358001A80964A7B8C5380944B9B8845F2105296
:10136800934240F0AF81914B5B89BB83904B4FF028
:1013780080721A618E4B4FF000721A61BB8B9AB261
:101388008C4BDA608A4B4FF400021A61884B80223A
:101398001A61874B4FF400721A6100BF844B4FF4F7
:1013A80080721A61824B4FF000721A61814B0022E1
:1013B800DA607F4B4FF400021A617D4B80221A617C
:1013C8007B4B4FF400721A61784B5B8901339BB2F7
:1013D8007B83774B4FF080721A61754B4FF0007228
:1013E8001A617B8B9AB2734BDA60714B4FF400022F
:1013F8001A616F4B80221A616D4B4FF400721A61AB
:1014080000BF6B4B4FF480721A61694B4FF000724A
:101418001A61684B0022DA60654B4FF400021A61CA
:10142800634B80221A61624B4FF400721A615F4B62
:101438005B8902339BB23B835D4B4FF080721A612C
:101448005B4B4FF000721A613B8B9AB2594BDA60D2
:10145800574B4FF400021A61554B80221A61544BC6
:101468004FF400721A6100BF514B4FF480721A6139
:101478004F4B4FF000721A614C4B1B88013B1A12FC
:101488004C4BDA604A4B4FF400021A61484B8022F9
:101498001A61474B4FF400721A61444B5B8903335E
:1014A8009BB2FB82424B4FF080721A61404B4FF067
:1014B80000721A61FB8A9AB23E4BDA603C4B4FF4D9
:1014C80000021A613A4B80221A61394B4FF40072BC
:1014D8001A6100BF364B4FF480721A61344B4FF0DB
:1014E80000721A61314B1B88013B324ADBB2D36070
:1014F8002F4B4FF400021A612D4B80221A612C4B9E
:101508004FF400721A61294B9B89BB82284B4FF01C
:1015180080721A61264B4FF000721A61BB8A9AB228
:10152800244BDA60224B4FF400021A61204B8022D0
:101538001A611F4B4FF400721A6100BF1C4B4FF425
:1015480080721A611A4B4FF000721A61194B00220F
:10155800DA60174B4FF400021A61154B80221A61AA
:10156800134B4FF400721A61104B9B8901339BB2E5
:101578007B820F4B4FF080721A610D4B4FF0007257
:101588001A617B8A9AB20B4BDA60094B4FF400025E
:101598001A61074B80221A61054B4FF400721A61D9
:1015A80000BF034B4FF480721A6105E088000020E9
:1015B80000100140000C01403F4B4FF000721A61CF
:1015C8003E4B0022DA603C4B4FF400021A613A4B62
:1015D80080221A61384B4FF400721A61384B9B898C
:1015E80002339BB23B82344B4FF080721A61324B0C
:1015F8004FF000721A613B8A9AB2304BDA602E4B78
:101608004FF400021A612C4B80221A612A4B4FF4C6
:1016180000721A6100BF284B4FF480721A61264B82
:101628004FF000721A61264B5B88013B1A12234B5C
:10163800DA60214B4FF400021A611F4B80221A61B5
:101648001D4B4FF400721A611D4B9B8903339BB2EB
:10165800FB81194B4FF080721A61174B4FF00072E3
:101668001A61FB899AB2154BDA60134B4FF40002EA
:101678001A61114B80221A610F4B4FF400721A61E4
:1016880000BF0D4B4FF480721A610B4B4FF0007284
:101698001A610B4B5B88013B084ADBB2D360064BEF
:1016A8004FF400021A61044B80221A61024B4FF476
:1016B80000721A61F8E000BF00100140000C014000
:1016C800880000207A4B5B893B847A4B4FF080720C
:1016D8001A61784B4FF000721A613B8C9AB2764BC4
:1016E800DA60744B4FF400021A61724B80221A615F
:1016F800704B4FF400721A6100BF6E4B4FF480724A
:101708001A616C4B4FF000721A616B4B0022DA6061
:10171800684B4FF400021A61664B80221A61654BD0
:101728004FF400721A61634B4FF480721A61614B77
:101738004FF000721A61604B0022DA605D4B4FF483
:1017480000021A615B4B80221A615A4B4FF40072F7
:101758001A61584B4FF480721A61564B4FF0007261
:101768001A61534B1B88013B1A12534BDA60514BD9
:101778004FF400021A614F4B80221A614D4B4FF40F
:1017880000721A614B4B4FF480721A61494B4FF04B
:1017980000721A61464B1B88013B474ADBB2D36093
:1017A800444B4FF400021A61424B80221A61414BAC
:1017B8004FF400721A613E4B9B89FB833D4B4FF0FF
:1017C80080721A613B4B4FF000721A61FB8B9AB220
:1017D800394BDA60374B4FF400021A61354B8022DF
:1017E8001A61344B4FF400721A6100BF314B4FF449
:1017F80080721A612F4B4FF000721A612E4B002233
:10180800DA602C4B4FF400021A612A4B80221A61CD
:10181800284B4FF400721A61264B4FF480721A61FC
:10182800244B4FF000721A61234B0022DA60214BDF
:101838004FF400021A611F4B80221A611D4B4FF4AE
:1018480000721A611B4B4FF480721A61194B4FF0EA
:1018580000721A61164B5B88013B1A12164BDA604C
:10186800144B4FF400021A61124B80221A61114B7B
:101878004FF400721A610F4B4FF480721A610D4BCE
:101888004FF000721A610A4B5B88013B0A4ADBB2CF
:10189800D360084B4FF400021A61064B80221A618C
:1018A800044B4FF400721A6100BF2837BD4680BD53
:1018B8008800002000100140000C014080B584B071
:1018C80000AF03463A60FB800B46BB80BA88FB88B2
:1018D80011461846FFF752F91A4B1B89FB811A4B20
:1018E8004FF080721A61184B4FF000721A61FB8931
:1018F8009AB2164BDA60144B4FF400021A61124B7D
:1019080080221A61104B4FF400721A6100BF00BFA9
:101918000D4B4FF480721A610B4B4FF000721A6135
:101928000A4A3B68D360084B4FF400021A61064B21
:1019380080221A61044B4FF400721A6100BF1037FD
:10194800BD4680BD8800002000100140000C014009
:1019580090B585B000AF0346FB71BE23FB815A4B9F
:101968004FF080721A61584B4FF000721A61FB8970
:101978009AB2564BDA60544B4FF400021A61524B3C
:1019880080221A61504B4FF400721A6100BF4E4B0F
:101998004FF480721A614C4B4FF000721A614B4B36
:1019A8000522DA60484B4FF400021A61464B802248
:1019B8001A61454B4FF400721A61434B4FF4807221
:1019C8001A61414B4FF000721A61FB791846FEF715
:1019D800A3FE3BA3D3E90023FEF722FC02460B46F5
:1019E8003A4C10461946FEF701FF0346E360364BB2
:1019F8004FF400021A61344B80221A61324B4FF4C3
:101A080000721A61304B4FF480721A612E4B4FF0FE
:101A180000721A612D4B0122DA602B4B4FF4000241
:101A28001A61294B80221A61274B4FF400721A6100
:101A3800254B4FF480721A61234B4FF000721A61E4
:101A4800224BFF22DA60204B4FF400021A611E4B32
:101A580080221A611C4B4FF400721A611A4B4FF422
:101A680080721A61184B4FF000721A61174B0022EE
:101A7800DA60154B4FF400021A61134B80221A6189
:101A8800114B4FF400721A610F4B4FF480721A61B8
:101A98000D4B4FF000721A610C4B0022DA600A4BB2
:101AA8004FF400021A61084B80221A61064B4FF46A
:101AB80000721A6100BF1437BD4690BDAFF30080B5
:101AC800666666666666044000100140000C0140C8
:101AD80080B582B000AF0346FB71684AFB79937109
:101AE800FB79002B65D1654BF0221A80634B4FF4CC
:101AF800A0725A80614B9B8845F21052934214D1D0
:101B08005E4B4FF430521A815C4B4FF428525A8185
:101B18005A4B4FF42C529A81584B4FF4F0721A805A
:101B2800564B4FF448725A8020E0544B9B8841F63C
:101B38006312934211D1514B2C221A814F4B2B2205
:101B48005A814E4B2A229A814C4B4FF4F0721A80DC
:101B58004A4B4FF448725A8008E0484B2C221A81AD
:101B6800464B2A225A81454B2B229A81434B9B880C
:101B780045F21032934205D0404B9B8847F296724B
:101B8800934207D13D4B4FF4A0721A803B4B4FF460
:101B9800F0725A80394B9B8849F60602934265D108
:101BA800364B4FF4F0721A80344B4FF448725A8017
:101BB8005CE0324B4FF4A0721A80304BF0225A800E
:101BC8002E4B9B8845F21052934214D12B4B4FF465
:101BD80030521A81294B4FF428525A81274B4FF41F
:101BE8002C529A81254B4FF448721A80234B4FF49C
:101BF800F0725A8026E0214B9B8841F6631293428B
:101C080005D01E4B9B8849F60602934211D11B4B07
:101C18002C221A81194B2A225A81184B2B229A817D
:101C2800164B4FF448721A80144B4FF4F0725A80D6
:101C380008E0124B2C221A81104B2A225A810F4B92
:101C48002B229A810D4B9B8845F21032934205D086
:101C58000A4B9B8847F29672934207D1074B4FF481
:101C6800F0721A80054B4FF4A0725A800020FFF7DB
:101C780099FA00BF0837BD4680BD00BF8800002024
:101C880080B5DAB000AFBE4B9B69BD4A43F0100384
:101C98009361BB4B9B6903F0100207F5B473A3F57E
:101CA800A8731A6007F5B473A3F5A8731B68B44B3F
:101CB8009B69B34A43F010039361B14B9B6903F0EE
:101CC800100207F5B473A3F5AA731A6007F5B47385
:101CD800A3F5AA731B68AA4B9B69A94A43F0100392
:101CE8009361A74B9B6903F0100207F5B473A3F542
:101CF800AC731A6007F5B473A3F5AC731B68A04BFB
:101D08009B699F4A43F0100393619D4B9B6903F0C5
:101D1800100207F5B473A3F5AE731A6007F5B47330
:101D2800A3F5AE731B68964B9B69954A43F0100365
:101D38009361934B9B6903F0100207F5B473A3F505
:101D4800B0731A6007F5B473A3F5B0731B688C4BB6
:101D58009B698B4A43F008039361894B9B6903F0A5
:101D6800080207F5B473A3F5B2731A6007F5B473E4
:101D7800A3F5B2731B68824B9B69814A43F0010348
:101D880093617F4B9B6903F0010207F5B473A3F5D8
:101D9800B4731A6007F5B473A3F5B4731B68794B71
:101DA8005B68C7F86431D7F8643123F0E063C7F89B
:101DB8006431D7F8643143F00073C7F86431714A6D
:101DC800D7F8643153604FF48063C7F85431012366
:101DD800C7F858310123C7F85C310323C7F86031CD
:101DE80007F5AA731946684806F07AFA4FF40073A3
:101DF800C7F854310123C7F858310123C7F85C31BB
:101E08000323C7F8603107F5AA7319465E4806F040
:101E180067FA8023C7F8543107F5AA7319465A4858
:101E280006F05EFA4023C7F8543107F5AA7319463D
:101E3800554806F055FA4FF48073C7F8543107F542
:101E4800AA731946504806F04BFA4FF6FF73C7F8C5
:101E580054310123C7F8583107F5AA7319464B487E
:101E680006F03EFA484B80221A61474B40221A611D
:101E7800454B4FF400721A61434B4FF480721A615C
:101E8800424B4FF6FF72DA604148FEF7D9FD07F57D
:101E9800B473A3F5A673D3221A803B4B4FF080721C
:101EA8001A61394B4FF000721A6107F5B473A3F544
:101EB800A6731B889AB2354BDA60334B4FF4000295
:101EC8001A61314B80221A612F4B4FF400721A614C
:101ED80000BFFEF7C5FD03461A462E4B9A80FEF753
:101EE800BFFD03461A462B4B9A80FEF7B9FD034601
:101EF8001A46284B9A80274B9B881B029AB2254B7F
:101F08009A80FEF7ADFD03461A46224B9B88134381
:101F18009AB2204B9A801F4B9B8849F241329342D8
:101F280000F00E8207F5B473A3F5A57304221A8096
:101F3800154B4FF080721A61134B4FF000721A6103
:101F480007F5B473A3F5A5731B889AB20F4BDA6033
:101F58000D4B4FF400021A610B4B80221A610A4B99
:101F68004FF400721A6100BFFEF77AFD03461A4665
:101F7800084B9A80FEF774FD03461A460CE000BF32
:101F8800001002400000014000100140000C014018
:101F9800FFFF010088000020B14B9A80FEF760FD2A
:101FA80003461A46AE4B9A80AD4B9B881B029AB2E9
:101FB800AB4B9A80FEF754FD03461A46A84B9B8804
:101FC80013439AB2A64B9A80A54B9B8848F252526B
:101FD800934203D1A24B47F289729A80A04B9B8807
:101FE80047F28972934200F0AB8107F5B473A3F509
:101FF800A473D4221A809B4B4FF080721A61994BBC
:102008004FF000721A6107F5B473A3F5A4731B8827
:102018009AB2954BDA60934B4FF400021A61914BD8
:1020280080221A618F4B4FF400721A6100BFFEF7CD
:1020380017FD03461A468A4B9A80FEF711FD0346A0
:102048001A46874B9A80FEF70BFD03461A46844BC7
:102058009A80834B9B881B029AB2814B9A80FEF729
:10206800FFFC03461A467E4B9B8813439AB27C4B6F
:102078009A807B4B9B8845F21032934200F0608136
:1020880007F5B473A3F5A373D3221A80754B4FF0E9
:1020980080721A61734B4FF000721A6107F5B473BE
:1020A800A3F5A3731B889AB26F4BDA606D4B4FF49C
:1020B80000021A616B4B80221A616A4B4FF400725E
:1020C8001A6100BFFEF7CCFC03461A46644B9A809F
:1020D800FEF7C6FC03461A46614B9A80FEF7C0FC21
:1020E80003461A465E4B9A805D4B9B881B029AB248
:1020F8005B4B9A80FEF7B4FC03461A46584B9B8804
:1021080013439AB2564B9A80554B9B8847F2967266
:10211800934200F0158155214FF47040FEF74EFCB4
:10212800AA214FF20100FEF749FC52214FF20200AA
:10213800FEF744FC08214FF20300FEF73FFC0121A3
:102148004FF20400FEF73AFC07F5B473A3F5A17348
:102158004FF445421A80434B4FF080721A61414B4D
:102168004FF000721A6107F5B473A3F5A1731B88C9
:102178009AB23D4BDA603B4B4FF400021A61394B7F
:1021880080221A61374B4FF400721A6100BFFEF7C4
:1021980067FC03461A46324B9A80314B9B881B02D8
:1021A8009AB22F4B9A8007F5B473A3F5A2734CF239
:1021B80001521A802B4B4FF080721A61294B4FF055
:1021C80000721A6107F5B473A3F5A2731B889AB25B
:1021D800254BDA60234B4FF400021A61214B802211
:1021E8001A61204B4FF400721A6100BFFEF738FCE9
:1021F80003461A461A4B9B8813439AB2184B9A8087
:10220800174B9B8845F21052934200F0998007F5CE
:10221800B473A3F5A073D3221A80124B4FF08072C7
:102228001A61104B4FF000721A6107F5B473A3F5E9
:10223800A0731B889AB20C4BDA600A4B4FF4000269
:102248001A61084B80221A61064B4FF400721A611A
:1022580000BFFEF705FC03461A46014B9A8005E0CD
:102268008800002000100140000C0140FEF7F8FB38
:1022780003461A46B24B9A80FEF7F2FB03461A460B
:10228800AF4B9A80AE4B9B881B029AB2AC4B9A809C
:10229800FEF7E6FB03461A46A94B9B8813439AB2FE
:1022A800A74B9A80A64B9B8849F60602934247D0D3
:1022B80007F5B473A3F59F73A1221A80A14B4FF0C1
:1022C80080721A619F4B4FF000721A6107F5B47360
:1022D800A3F59F731B889AB29B4BDA60994B4FF416
:1022E80000021A61974B80221A61964B4FF40072D4
:1022F8001A6100BFFEF7B4FB03461A46904B9A805A
:10230800FEF7AEFB03461A468D4B9A808C4B9B8892
:102318001B029AB28A4B9A80FEF7A2FB03461A4622
:10232800874B9B8813439AB2854B9A80844B9B8832
:1023380045F26172934203D1814B41F663129A8050
:102348007F4B9B8847F28972934240F0F38207F5EE
:10235800B473A3F58E7311221A807A4B4FF08072F2
:102368001A61784B4FF000721A6107F5B473A3F540
:102378008E731B889AB2744BDA60724B4FF400026A
:102388001A61704B80221A616E4B4FF400721A6109
:1023980000BF782005F030FD07F5B473A3F58F73FF
:1023A80036221A80674B4FF080721A61654B4FF0E6
:1023B80000721A6107F5B473A3F58F731B889AB27C
:1023C800614BDA605F4B4FF400021A615D4B80226B
:1023D8001A615C4B4FF400721A6100BF0020FEF7CF
:1023E800C9FA07F5B473A3F590733A221A80554BCE
:1023F8004FF080721A61534B4FF000721A6107F563
:10240800B473A3F590731B889AB24F4BDA604D4BA7
:102418004FF400021A614B4B80221A61494B4FF46A
:1024280000721A6100BF0520FEF7A4FA07F5B4731D
:10243800A3F59173B2221A80424B4FF080721A6151
:10244800404B4FF000721A6107F5B473A3F591730E
:102458001B889AB23C4BDA603A4B4FF400021A617F
:10246800384B80221A61374B4FF400721A6100BF53
:102478000C20FEF77FFA0C20FEF77CFA0020FEF70E
:1024880079FA3320FEF776FA3320FEF773FA07F568
:10249800B473A3F59273B7221A802A4B4FF0807257
:1024A8001A61284B4FF000721A6107F5B473A3F54F
:1024B80092731B889AB2244BDA60224B4FF40002C5
:1024C8001A61204B80221A611E4B4FF400721A6168
:1024D80000BF3520FEF74EFA07F5B473A3F59373E2
:1024E800BB221A80174B4FF080721A61154B4FF0C0
:1024F80000721A6107F5B473A3F593731B889AB237
:10250800114BDA600F4B4FF400021A610D4B802219
:102518001A610C4B4FF400721A6100BF3220FEF7AB
:1025280029FA07F5B473A3F59473C0221A80054BF2
:102538004FF080721A61034B4FF000721A6105E088
:102548008800002000100140000C014007F5B4731A
:10255800A3F594731B889AB2BF4BDA60BF4B4FF454
:1025680000021A61BD4B80221A61BC4B4FF4007205
:102578001A6100BF0C20FEF7FDF907F5B473A3F547
:102588009573C2221A80B54B4FF080721A61B34B13
:102598004FF000721A6107F5B473A3F595731B88A1
:1025A8009AB2AD4BDA60AD4B4FF400021A61AB4BF7
:1025B80080221A61A94B4FF400721A6100BF0120F2
:1025C800FEF7D8F907F5B473A3F59673C3221A80FA
:1025D800A24B4FF080721A61A04B4FF000721A6143
:1025E80007F5B473A3F596731B889AB29A4BDA6011
:1025F8009A4B4FF400021A61984B80221A61974B4C
:102608004FF400721A6100BF1020FEF7B3F907F506
:10261800B473A3F59773C4221A80904B4FF080725D
:102628001A618E4B4FF000721A6107F5B473A3F567
:1026380097731B889AB2884BDA60884B4FF4000274
:102648001A61864B80221A61844B4FF400721A611A
:1026580000BF2020FEF78EF907F5B473A3F5987331
:10266800C6221A807D4B4FF080721A617B4B4FF067
:1026780000721A6107F5B473A3F598731B889AB2B0
:10268800754BDA60754B4FF400021A61734B802268
:102698001A61724B4FF400721A6100BF0F20FEF7E7
:1026A80069F907F5B473A3F59973D0221A806B4BB7
:1026B8004FF080721A61694B4FF000721A6107F58A
:1026C800B473A3F599731B889AB2634BDA60634BB2
:1026D8004FF400021A61614B80221A615F4B4FF47C
:1026E80000721A6100BFA420FEF744F9A120FEF78A
:1026F80041F907F5B473A3F59A73E0221A80574B92
:102708004FF080721A61554B4FF000721A6107F54D
:10271800B473A3F59A731B889AB24F4BDA604F4B88
:102728004FF400021A614D4B80221A614B4B4FF453
:1027380000721A6100BFD020FEF71CF90020FEF7D6
:1027480019F90220FEF716F90720FEF713F90A20F7
:10275800FEF710F92820FEF70DF93220FEF70AF9E6
:102768004420FEF707F94220FEF704F90620FEF799
:1027780001F90E20FEF7FEF81220FEF7FBF81420F0
:10278800FEF7F8F81720FEF7F5F807F5B473A3F588
:102798009B73E1221A80314B4FF080721A612F4BE4
:1027A8004FF000721A6107F5B473A3F59B731B8889
:1027B8009AB2294BDA60294B4FF400021A61274B71
:1027C80080221A61254B4FF400721A6100BFD02095
:1027D800FEF7D0F80020FEF7CDF80220FEF7CAF881
:1027E8000720FEF7C7F80A20FEF7C4F82820FEF7EE
:1027F800C1F83120FEF7BEF85420FEF7BBF8472099
:10280800FEF7B8F80E20FEF7B5F81C20FEF7B2F870
:102818001720FEF7AFF81B20FEF7ACF81E20FEF7D6
:10282800A9F807F5B473A3F59C732A221A800B4BF9
:102838004FF080721A61094B4FF000721A6107F568
:10284800B473A3F59C731B889AB2034BDA60034BED
:102858004FF400021A6103E0000C0140001001402F
:10286800324B80221A61314B4FF400721A6100BF5B
:102878000020FEF77FF80020FEF77CF80020FEF726
:1028880079F8EF20FEF776F807F5B473A3F59D7392
:102898002B221A80254B4FF080721A61234B4FF080
:1028A80000721A6107F5B473A3F59D731B889AB279
:1028B8001F4BDA601D4B4FF400021A611B4B80223C
:1028C8001A611A4B4FF400721A6100BF0020FEF71C
:1028D80051F80020FEF74EF80120FEF74BF83F2094
:1028E800FEF748F807F5B473A3F59E7329221A80FA
:1028F8000E4B4FF080721A610C4B4FF000721A6148
:1029080007F5B473A3F59E731B889AB2084BDA6077
:10291800064B4FF400021A61044B80221A61034BE4
:102928004FF400721A6104F0F4B800BF00100140BF
:10293800000C0140B94B9B8849F24132934240F068
:10294800A183CF23A7F87830B54B4FF080721A6176
:10295800B34B4FF000721A61B7F878309AB2B14BA6
:10296800DA60AF4B4FF400021A61AD4B80221A6156
:10297800AB4B4FF400721A6100BF0020FDF7FAFF5D
:10298800C120FDF7F7FF3020FDF7F4FFED23A7F88E
:102998007630A34B4FF080721A61A14B4FF0007252
:1029A8001A61B7F876309AB29E4BDA609C4B4FF4B6
:1029B80000021A619A4B80221A61994B4FF40072F7
:1029C8001A6100BF6420FDF7D5FF0320FDF7D2FF91
:1029D8001220FDF7CFFF8120FDF7CCFFE823A7F8F1
:1029E80074308F4B4FF080721A618D4B4FF000722C
:1029F8001A61B7F874309AB28A4BDA60884B4FF490
:102A080000021A61864B80221A61854B4FF40072CE
:102A18001A6100BF8520FDF7ADFF1020FDF7AAFF62
:102A28007A20FDF7A7FFCB23A7F872307C4B4FF035
:102A380080721A617A4B4FF000721A61B7F87230DF
:102A48009AB2784BDA60764B4FF400021A61744BF5
:102A580080221A61724B4FF400721A6100BF39204C
:102A6800FDF788FF2C20FDF785FF0020FDF782FF8A
:102A78003420FDF77FFF0220FDF77CFFF723A7F83E
:102A88007030674B4FF080721A61654B4FF00072DF
:102A98001A61B7F870309AB2624BDA60604B4FF443
:102AA80000021A615E4B80221A615D4B4FF400727E
:102AB8001A6100BF2020FDF75DFFEA23A7F86E30FA
:102AC800574B4FF080721A61554B4FF000721A61E4
:102AD800B7F86E309AB2534BDA60514B4FF400029C
:102AE8001A614F4B80221A614D4B4FF400721A61E4
:102AF80000BF0020FDF73EFF0020FDF73BFFC0238D
:102B0800A7F86C30464B4FF080721A61444B4FF077
:102B180000721A61B7F86C309AB2424BDA60404BD7
:102B28004FF400021A613E4B80221A613C4B4FF46D
:102B380000721A6100BF1B20FDF71CFFC123A7F814
:102B48006A30374B4FF080721A61354B4FF0007284
:102B58001A61B7F86A309AB2324BDA60304B4FF4E8
:102B680000021A612E4B80221A612D4B4FF400721D
:102B78001A6100BF0120FDF7FDFE07F5B473A3F548
:102B88008073C5221A80264B4FF080721A61244B3D
:102B98004FF000721A6107F5B473A3F580731B88B0
:102BA8009AB2204BDA601E4B4FF400021A611C4B9C
:102BB80080221A611A4B4FF400721A6100BF30204C
:102BC800FDF7D8FE3020FDF7D5FE07F5B473A3F561
:102BD8008173C7221A80124B4FF080721A61104B12
:102BE8004FF000721A6107F5B473A3F581731B885F
:102BF8009AB20C4BDA600A4B4FF400021A61084B88
:102C080080221A61064B4FF400721A6100BFB72088
:102C1800FDF7B0FE07F5B47306E000BF880000209A
:102C280000100140000C0140A3F5827336221A807F
:102C3800C14B4FF080721A61BF4B4FF000721A619E
:102C480007F5B473A3F582731B889AB2BB4BDA609D
:102C5800B94B4FF400021A61B74B80221A61B64B88
:102C68004FF400721A6100BF4820FDF783FE07F594
:102C7800B473A3F583733A221A80AF4B4FF0807276
:102C88001A61AD4B4FF000721A6107F5B473A3F5E2
:102C980083731B889AB2A94BDA60A74B4FF40002E2
:102CA8001A61A54B80221A61A34B4FF400721A6176
:102CB80000BF5520FDF75EFE07F5B473A3F58473D6
:102CC800B1221A809C4B4FF080721A619A4B4FF0D8
:102CD80000721A6107F5B473A3F584731B889AB25E
:102CE800964BDA60944B4FF400021A61924B8022A3
:102CF8001A61914B4FF400721A6100BF0020FDF772
:102D080039FE1A20FDF736FE07F5B473A3F585736F
:102D1800B6221A80884B4FF080721A61864B4FF0AA
:102D280000721A6107F5B473A3F585731B889AB20C
:102D3800824BDA60804B4FF400021A617E4B80228E
:102D48001A617D4B4FF400721A6100BF0A20FDF72B
:102D580011FEA220FDF70EFE07F5B473A3F58673E6
:102D6800F2221A80744B4FF080721A61724B4FF046
:102D780000721A6107F5B473A3F586731B889AB2BB
:102D88006E4BDA606C4B4FF400021A616A4B80227A
:102D98001A61694B4FF400721A6100BF0020FDF7F9
:102DA800E9FD07F5B473A3F5877326221A80624BF1
:102DB8004FF080721A61604B4FF000721A6107F58C
:102DC800B473A3F587731B889AB25C4BDA605A4BCD
:102DD8004FF400021A61584B80221A61564B4FF487
:102DE80000721A6100BF0120FDF7C4FD07F5B47336
:102DF800A3F58873E0221A804F4B4FF080721A6156
:102E08004D4B4FF000721A6107F5B473A3F5887340
:102E18001B889AB2494BDA60474B4FF400021A619B
:102E2800454B80221A61444B4FF400721A6100BF6F
:102E38000F20FDF79FFD2A20FDF79CFD2820FDF7B8
:102E480099FD0820FDF796FD0E20FDF793FD08205B
:102E5800FDF790FD5420FDF78DFDA920FDF78AFDB3
:102E68004320FDF787FD0A20FDF784FD0F20FDF7BD
:102E780081FD0020FDF77EFD0020FDF77BFD002091
:102E8800FDF778FD0020FDF775FD07F5B473A3F590
:102E98008973E1221A80284B4FF080721A61264B01
:102EA8004FF000721A6107F5B473A3F589731B8894
:102EB8009AB2224BDA60204B4FF400021A611E4B83
:102EC80080221A611C4B4FF400721A6100BF002067
:102ED800FDF750FD1520FDF74DFD1720FDF74AFDC4
:102EE8000720FDF747FD1120FDF744FD0620FDF7FB
:102EF80041FD2B20FDF73EFD5620FDF73BFD3C2014
:102F0800FDF738FD0520FDF735FD1020FDF732FDF2
:102F18000F20FDF72FFD3F20FDF72CFD3F20FDF78B
:102F280029FD0F20FDF726FD07F5B473A3F58A7375
:102F38002B221A8004E000BF00100140000C014061
:102F48004E4B4FF080721A614C4B4FF000721A6171
:102F580007F5B473A3F58A731B889AB2484BDA60F5
:102F6800464B4FF400021A61444B80221A61434BCE
:102F78004FF400721A6100BF0020FDF7FBFC00202F
:102F8800FDF7F8FC0120FDF7F5FC3F20FDF7F2FC0A
:102F980007F5B473A3F58B732A221A80374B4FF0C9
:102FA80080721A61354B4FF000721A6107F5B473DD
:102FB800A3F58B731B889AB2314BDA602F4B4FF411
:102FC80000021A612D4B80221A612C4B4FF40072BB
:102FD8001A6100BF0020FDF7CDFC0020FDF7CAFCF8
:102FE8000020FDF7C7FCEF20FDF7C4FC07F5B4731C
:102FF800A3F58C7311221A80204B4FF080721A614E
:103008001E4B4FF000721A6107F5B473A3F58C7369
:103018001B889AB21A4BDA60184B4FF400021A61F7
:10302800164B80221A61154B4FF400721A6100BFCB
:10303800782004F0E1FE07F5B473A3F58D73292217
:103048001A800E4B4FF080721A610C4B4FF00072D1
:103058001A6107F5B473A3F58D731B889AB2084BF0
:10306800DA60064B4FF400021A61044B80221A61A1
:10307800024B4FF400721A6103F04BBD001001407F
:10308800000C0140BE4B9B8845F21032934241F040
:103098006D84ED23A7F8DA30BA4B4FF080721A61CD
:1030A800B84B4FF000721A61B7F8DA309AB2B64BE3
:1030B800DA60B44B4FF400021A61B24B80221A61F5
:1030C800B04B4FF400721A6100BF0120FDF752FCAB
:1030D800FE20FDF74FFCEE23A7F8D830A94B4FF0A0
:1030E80080721A61A74B4FF000721A61B7F8D83096
:1030F8009AB2A54BDA60A34B4FF400021A61A14BB8
:1031080080221A619F4B4FF400721A6100BFDE20C3
:10311800FDF730FC2120FDF72DFCF123A7F8D63070
:10312800984B4FF080721A61964B4FF000721A61FB
:10313800B7F8D6309AB2944BDA60924B4FF400024B
:103148001A61904B80221A618E4B4FF400721A61FB
:1031580000BF0120FDF70EFCDF23A7F8D430894B10
:103168004FF080721A61874B4FF000721A61B7F8FE
:10317800D4309AB2844BDA60824B4FF400021A6161
:10318800804B80221A617F4B4FF400721A6100BF96
:103198001020FDF7EFFBC423A7F8D230794B4FF08E
:1031A80080721A61774B4FF000721A61B7F8D2300B
:1031B8009AB2754BDA60734B4FF400021A61714B87
:1031C80080221A616F4B4FF400721A6100BF8F2082
:1031D800FDF7D0FBC623A7F8D0306A4B4FF08072BA
:1031E8001A61684B4FF000721A61B7F8D0309AB282
:1031F800654BDA60634B4FF400021A61614B802221
:103208001A61604B4FF400721A6100BF0020FDF78D
:10321800B1FBE220FDF7AEFBE220FDF7ABFBE220BD
:10322800FDF7A8FBBF23A7F8CE30564B4FF08072AE
:103238001A61544B4FF000721A61B7F8CE309AB247
:10324800514BDA604F4B4FF400021A614D4B80220C
:103258001A614C4B4FF400721A6100BFAA20FDF7A7
:1032680089FBB023A7F8CC30464B4FF080721A6127
:10327800444B4FF000721A61B7F8CC309AB2424B07
:10328800DA60404B4FF400021A613E4B80221A610B
:103298003C4B4FF400721A6100BF0D20FDF76AFB2A
:1032A8000020FDF767FB0D20FDF764FB0020FDF70C
:1032B80061FB1120FDF75EFB0020FDF75BFB192089
:1032C800FDF758FB0020FDF755FB2120FDF752FBC9
:1032D8000020FDF74FFB2D20FDF74CFB0020FDF7EC
:1032E80049FB3D20FDF746FB0020FDF743FB5D2031
:1032F800FDF740FB0020FDF73DFB5D20FDF73AFBA5
:103308000020FDF737FBB123A7F8CA301D4B4FF05B
:1033180080721A611B4B4FF000721A61B7F8CA30FD
:103328009AB2194BDA60174B4FF400021A61154B29
:1033380080221A61134B4FF400721A6100BF80207B
:10334800FDF718FB0020FDF715FB8B20FDF712FB9E
:103358000020FDF70FFB9620FDF70CFB0020FDF782
:1033680009FBB223A7F8C830064B4FF080721A61E8
:10337800044B4FF000721A61B7F8C8309AB205E0F2
:103388008800002000100140000C0140D04BDA609A
:10339800D04B4FF400021A61CE4B80221A61CD4BFC
:1033A8004FF400721A6100BF0020FDF7E3FA002015
:1033B800FDF7E0FA0220FDF7DDFA0020FDF7DAFA62
:1033C8000320FDF7D7FA0020FDF7D4FAB323A7F8B6
:1033D800C630C04B4FF080721A61BE4B4FF000727E
:1033E8001A61B7F8C6309AB2B94BDA60B94B4FF4E4
:1033F80000021A61B74B80221A61B64B4FF4007273
:103408001A6100BF0020FDF7B5FA0020FDF7B2FAF7
:103418000020FDF7AFFA0020FDF7ACFA0020FDF719
:10342800A9FA0020FDF7A6FA0020FDF7A3FA00206C
:10343800FDF7A0FA0020FDF79DFA0020FDF79AFAA3
:103448000020FDF797FA0020FDF794FA0020FDF719
:1034580091FA0020FDF78EFA0020FDF78BFA002084
:10346800FDF788FA0020FDF785FA0020FDF782FABB
:103478000020FDF77FFA0020FDF77CFA0020FDF719
:1034880079FA0020FDF776FA0020FDF773FA00209C
:10349800FDF770FAB423A7F8C4308E4B4FF0807252
:1034A8001A618C4B4FF000721A61B7F8C4309AB2A7
:1034B800874BDA60874B4FF400021A61854B8022F4
:1034C8001A61844B4FF400721A6100BF8B20FDF71C
:1034D80051FA0020FDF74EFA9620FDF74BFA00202E
:1034E800FDF748FAA120FDF745FA0020FDF742FA5A
:1034F800B523A7F8C230774B4FF080721A61754B2D
:103508004FF000721A61B7F8C2309AB2704BDA60A5
:10351800704B4FF400021A616E4B80221A616D4B9A
:103528004FF400721A6100BF0220FDF723FA002051
:10353800FDF720FA0320FDF71DFA0020FDF71AFA1F
:103548000420FDF717FA0020FDF714FAB623A7F8B0
:10355800C030604B4FF080721A615E4B4FF00072C2
:103568001A61B7F8C0309AB2594BDA60594B4FF428
:1035780000021A61574B80221A61564B4FF40072B1
:103588001A6100BF0020FDF7F5F90020FDF7F2F9F8
:10359800B723A7F8BE304F4B4FF080721A614D4BDE
:1035A8004FF000721A61B7F8BE309AB2484BDA6031
:1035B800484B4FF400021A61464B80221A61454B72
:1035C8004FF400721A6100BF0020FDF7D3F9002004
:1035D800FDF7D0F93F20FDF7CDF90020FDF7CAF936
:1035E8005E20FDF7C7F90020FDF7C4F96420FDF758
:1035F800C1F90020FDF7BEF98C20FDF7BBF90020CA
:10360800FDF7B8F9AC20FDF7B5F90020FDF7B2F9E0
:10361800DC20FDF7AFF90020FDF7ACF97020FDF7CD
:10362800A9F90020FDF7A6F99020FDF7A3F90020DD
:10363800FDF7A0F9EB20FDF79DF90020FDF79AF9B9
:10364800DC20FDF797F90020FDF794F9B823A7F8D7
:10365800BC30204B4FF080721A611E4B4FF0007245
:103668001A61B7F8BC309AB2194BDA60194B4FF4AB
:1036780000021A61174B80221A61164B4FF4007230
:103688001A6100BF0020FDF775F90020FDF772F9F7
:103698000020FDF76FF90020FDF76CF90020FDF719
:1036A80069F90020FDF766F90020FDF763F90020AD
:1036B800FDF760F9BA23A7F8BA30064B4FF08072CD
:1036C8001A61044B4FF000721A61B7F8BA3003E080
:1036D800000C0140001001409AB2D94BDA60D94B76
:1036E8004FF400021A61D74B80221A61D54B4FF470
:1036F80000721A6100BF2420FDF73CF90020FDF795
:1037080039F90020FDF736F90020FDF733F9C12318
:10371800A7F8B830CB4B4FF080721A61C94B4FF005
:1037280000721A61B7F8B8309AB2C54BDA60C54B67
:103738004FF400021A61C34B80221A61C14B4FF447
:1037480000721A6100BF2020FDF714F90020FDF770
:1037580011F95420FDF70EF90020FDF70BF9FF20B1
:10376800FDF708F90020FDF705F9C223A7F8B630E0
:10377800B44B4FF080721A61B24B4FF000721A616D
:10378800B7F8B6309AB2AE4BDA60AE4B4FF40002DF
:103798001A61AC4B80221A61AA4B4FF400721A616D
:1037A80000BF0A20FDF7E6F80020FDF7E3F8042043
:1037B800FDF7E0F80020FDF7DDF8C323A7F8B430E3
:1037C800A04B4FF080721A619E4B4FF000721A6145
:1037D800B7F8B4309AB29A4BDA609A4B4FF40002B9
:1037E8001A61984B80221A61964B4FF400721A6145
:1037F80000BF3C20FDF7BEF80020FDF7BBF83A20DB
:10380800FDF7B8F80020FDF7B5F83920FDF7B2F854
:103818000020FDF7AFF83720FDF7ACF80020FDF7E2
:10382800A9F83C20FDF7A6F80020FDF7A3F83620FC
:10383800FDF7A0F80020FDF79DF83220FDF79AF873
:103848000020FDF797F82F20FDF794F80020FDF7EA
:1038580091F82C20FDF78EF80020FDF78BF8292031
:10386800FDF788F80020FDF785F82620FDF782F897
:103878000020FDF77FF82420FDF77CF80020FDF7F5
:1038880079F82420FDF776F80020FDF773F8232057
:10389800FDF770F80020FDF76DF83C20FDF76AF899
:1038A8000020FDF767F83620FDF764F80020FDF7E3
:1038B80061F83220FDF75EF80020FDF75BF82F2055
:1038C800FDF758F80020FDF755F82C20FDF752F8C1
:1038D8000020FDF74FF82920FDF74CF80020FDF7F0
:1038E80049F82620FDF746F80020FDF743F8242084
:1038F800FDF740F80020FDF73DF82420FDF73AF8E1
:103908000020FDF737F82320FDF734F80020FDF7F5
:1039180031F8C423A7F8B2304A4B4FF080721A61CD
:10392800484B4FF000721A61B7F8B2309AB2444B64
:10393800DA60444B4FF400021A61424B80221A614C
:10394800404B4FF400721A6100BF6220FDF712F875
:103958000020FDF70FF80520FDF70CF80020FDF713
:1039680009F88420FDF706F80020FDF703F8F02099
:10397800FDF700F80020FCF7FDFF1820FCF7FAFF20
:103988000020FCF7F7FFA420FCF7F4FF0020FCF769
:10399800F1FF1820FCF7EEFF0020FCF7EBFF5020AA
:1039A800FCF7E8FF0020FCF7E5FF0C20FCF7E2FF3E
:1039B8000020FCF7DFFF1720FCF7DCFF0020FCF7F6
:1039C800D9FF9520FCF7D6FF0020FCF7D3FFF320A2
:1039D800FCF7D0FF0020FCF7CDFFE620FCF7CAFF7C
:1039E8000020FCF7C7FFC523A7F8B030154B4FF0F0
:1039F80080721A61134B4FF000721A61B7F8B03039
:103A08009AB20F4BDA600F4B4FF400021A610D4B5C
:103A180080221A610B4B4FF400721A6100BF3220EA
:103A2800FCF7A8FF0020FCF7A5FF4420FCF7A2FF45
:103A38000020FCF79FFF6520FCF79CFF002003E0B7
:103A4800000C014000100140FCF794FF7620FCF7C1
:103A580091FF0020FCF78EFF8820FCF78BFF0020E9
:103A6800FCF788FFC623A7F8AE30D74B4FF080721B
:103A78001A61D54B4FF000721A61B7F8AE309AB29E
:103A8800D24BDA60D04B4FF400021A61CE4B802241
:103A98001A61CD4B4FF400721A6100BF2020FCF769
:103AA80069FF0020FCF766FF1720FCF763FF002082
:103AB800FCF760FF0120FCF75DFF0020FCF75AFFD0
:103AC800C723A7F8AC30C04B4FF080721A61BE4BC9
:103AD8004FF000721A61B7F8AC309AB2BB4BDA609B
:103AE800B94B4FF400021A61B74B80221A61B64BEA
:103AF8004FF400721A6100BF0020FCF73BFF002062
:103B0800FCF738FF0020FCF735FF0020FCF732FFF8
:103B1800C823A7F8AA30AC4B4FF080721A61AA4BA1
:103B28004FF000721A61B7F8AA309AB2A74BDA6060
:103B3800A54B4FF400021A61A34B80221A61A24BD5
:103B48004FF400721A6100BF0020FCF713FF002039
:103B5800FCF710FF0020FCF70DFF0020FCF70AFF20
:103B6800C923A7F8A830984B4FF080721A61964B7A
:103B78004FF000721A61B7F8A8309AB2934BDA6026
:103B8800914B4FF400021A618F4B80221A618E4BC1
:103B98004FF400721A6100BF0020FCF7EBFE002012
:103BA800FCF7E8FE0020FCF7E5FE0020FCF7E2FE4B
:103BB8000020FCF7DFFE0020FCF7DCFE0020FCF70D
:103BC800D9FE0020FCF7D6FE0020FCF7D3FE00202B
:103BD800FCF7D0FE0020FCF7CDFE0020FCF7CAFE63
:103BE8000020FCF7C7FE0020FCF7C4FE0020FCF70D
:103BF800C1FE0020FCF7BEFEE023A7F8A630724BFA
:103C08004FF080721A61704B4FF000721A61B7F86A
:103C1800A6309AB26D4BDA606B4B4FF400021A6112
:103C2800694B80221A61684B4FF400721A6100BF19
:103C38001620FCF79FFE0020FCF79CFE1C20FCF7DA
:103C480099FE0020FCF796FE2120FCF793FE002049
:103C5800FCF790FE3620FCF78DFE0020FCF78AFE6C
:103C68004620FCF787FE0020FCF784FE5220FCF774
:103C780081FE0020FCF77EFE6420FCF77BFE00201E
:103C8800FCF778FE7A20FCF775FE0020FCF772FE40
:103C98008B20FCF76FFE0020FCF76CFE9920FCF7E8
:103CA80069FE0020FCF766FEA820FCF763FE0020F2
:103CB800FCF760FEB920FCF75DFE0020FCF75AFE19
:103CC800C420FCF757FE0020FCF754FECA20FCF77E
:103CD80051FE0020FCF74EFED220FCF74BFE0020E0
:103CE800FCF748FED920FCF745FE0020FCF742FE11
:103CF800E020FCF73FFE0020FCF73CFEF320FCF739
:103D080039FE0020FCF736FEE123A7F8A4302E4B3D
:103D18004FF080721A612C4B4FF000721A61B7F89D
:103D2800A4309AB2294BDA60274B4FF400021A618B
:103D3800254B80221A61244B4FF400721A6100BF90
:103D48001620FCF717FE0020FCF714FE1C20FCF7D9
:103D580011FE0020FCF70EFE2220FCF70BFE0020CF
:103D6800FCF708FE3620FCF705FE0020FCF702FEF3
:103D78004520FCF7FFFD0020FCF7FCFD5220FCF776
:103D8800F9FD0020FCF7F6FD6420FCF7F3FD0020A8
:103D9800FCF7F0FD7A20FCF7EDFD0020FCF7EAFDCA
:103DA8008B20FCF7E7FD0020FCF7E4FD9920FCF7E9
:103DB800E1FD0020FCF7DEFDA820FCF7DBFD00207C
:103DC800FCF7D8FDB92003E000100140000C0140C9
:103DD800FCF7D0FD0020FCF7CDFDC420FCF7CAFDA0
:103DE8000020FCF7C7FDCA20FCF7C4FD0020FCF743
:103DF800C1FDD220FCF7BEFD0020FCF7BBFDD8209A
:103E0800FCF7B8FD0020FCF7B5FDE020FCF7B2FD9B
:103E18000020FCF7AFFDF320FCF7ACFD0020FCF719
:103E2800A9FDE223A7F8A230E34B4FF080721A6194
:103E3800E14B4FF000721A61B7F8A2309AB2DF4B2B
:103E4800DA60DD4B4FF400021A61DB4B80221A6105
:103E5800D94B4FF400721A6100BF0520FCF78AFDA8
:103E68000020FCF787FD0B20FCF784FD0020FCF701
:103E780081FD1B20FCF77EFD0020FCF77BFD342034
:103E8800FCF778FD0020FCF775FD4420FCF772FD77
:103E98000020FCF76FFD4F20FCF76CFD0020FCF7BD
:103EA80069FD6120FCF766FD0020FCF763FD7920C1
:103EB800FCF760FD0020FCF75DFD8820FCF75AFD4B
:103EC8000020FCF757FD9720FCF754FD0020FCF775
:103ED80051FDA620FCF74EFD0020FCF74BFDB72056
:103EE800FCF748FD0020FCF745FDC220FCF742FD29
:103EF8000020FCF73FFDC720FCF73CFD0020FCF745
:103F080039FDD120FCF736FD0020FCF733FDD62023
:103F1800FCF730FD0020FCF72DFDDD20FCF72AFD25
:103F28000020FCF727FDF320FCF724FD0020FCF718
:103F380021FDE323A7F8A0309F4B4FF080721A6150
:103F48009D4B4FF000721A61B7F8A0309AB29B4BA4
:103F5800DA60994B4FF400021A61974B80221A617C
:103F6800954B4FF400721A6100BF0520FCF702FD63
:103F78000020FCF7FFFC0A20FCF7FCFC0020FCF703
:103F8800F9FC1C20FCF7F6FC0020FCF7F3FC3320BE
:103F9800FCF7F0FC0020FCF7EDFC4420FCF7EAFC01
:103FA8000020FCF7E7FC5020FCF7E4FC0020FCF7BD
:103FB800E1FC6220FCF7DEFC0020FCF7DBFC78204B
:103FC800FCF7D8FC0020FCF7D5FC8820FCF7D2FCD5
:103FD8000020FCF7CFFC9720FCF7CCFC0020FCF776
:103FE800C9FCA620FCF7C6FC0020FCF7C3FCB720E0
:103FF800FCF7C0FC0020FCF7BDFCC220FCF7BAFCB3
:104008000020FCF7B7FCC720FCF7B4FC0020FCF745
:10401800B1FCD120FCF7AEFC0020FCF7ABFCD520AE
:10402800FCF7A8FC0020FCF7A5FCDD20FCF7A2FCAF
:104038000020FCF79FFCF320FCF79CFC0020FCF719
:1040480099FCE423A7F89E305B4B4FF080721A610D
:10405800594B4FF000721A61B7F89E309AB2574B1D
:10406800DA60554B4FF400021A61534B80221A61F3
:10407800514B4FF400721A6100BF0120FCF77AFC23
:104088000020FCF777FC0120FCF774FC0020FCF70B
:1040980071FC0220FCF76EFC0020FCF76BFC2A2068
:1040A800FCF768FC0020FCF765FC3C20FCF762FC90
:1040B8000020FCF75FFC4B20FCF75CFC0020FCF7C1
:1040C80059FC5D20FCF756FC0020FCF753FC7420DB
:1040D800FCF750FC0020FCF74DFC8420FCF74AFC60
:1040E8000020FCF747FC9320FCF744FC0020FCF779
:1040F80041FCA220FCF73EFC0020FCF73BFCB3206F
:10410800FCF738FC0020FCF735FCBE20FCF732FC3D
:104118000020FCF72FFCC420FCF72CFC0020FCF747
:1041280029FCCD20FCF726FC0020FCF723FCD3203B
:10413800FCF720FC0020FCF71DFCDD20FCF71AFC36
:104148000020FCF717FCF320FCF714FC0020FCF718
:1041580011FCE523A7F89C30174B4FF080721A61C9
:10416800154B4FF000721A61B7F89C309AB2134B96
:10417800DA60114B4FF400021A610F4B80221A616A
:104188000D4B4FF400721A6100BF0020FCF7F2FBE0
:104198000020FCF7EFFB0020FCF7ECFB0020FCF70D
:1041A800E9FB0220FCF7E6FB0020FCF7E3FB2920F3
:1041B800FCF7E0FB002003E000100140000C014088
:1041C800FCF7D8FB3C20FCF7D5FB0020FCF7D2FB22
:1041D8004B20FCF7CFFB0020FCF7CCFB5D20FCF765
:1041E800C9FB0020FCF7C6FB7420FCF7C3FB0020CA
:1041F800FCF7C0FB8420FCF7BDFB0020FCF7BAFBF2
:104208009320FCF7B7FB0020FCF7B4FBA220FCF7D7
:10421800B1FB0020FCF7AEFBB320FCF7ABFB0020A2
:10422800FCF7A8FBBE20FCF7A5FB0020FCF7A2FBCF
:10423800C420FCF79FFB0020FCF79CFBCD20FCF77B
:1042480099FB0020FCF796FBD320FCF793FB00209A
:10425800FCF790FBDC20FCF78DFB0020FCF78AFBC9
:10426800F320FCF787FB0020FCF784FBE623A7F884
:104278009A30DE4B4FF080721A61DC4B4FF00072BF
:104288001A61B7F89A309AB2D94BDA60D74B4FF423
:1042980000021A61D54B80221A61D44B4FF4007288
:1042A8001A6100BF1120FCF765FB0020FCF762FBD8
:1042B8003420FCF75FFB0020FCF75CFB5620FCF782
:1042C80059FB0020FCF756FB7620FCF753FB002037
:1042D800FCF750FB7720FCF74DFB0020FCF74AFB6E
:1042E8006620FCF747FB0020FCF744FB8820FCF71E
:1042F80041FB0020FCF73EFB9920FCF73BFB00202C
:10430800FCF738FBBB20FCF735FB0020FCF732FB41
:104318009920FCF72FFB0020FCF72CFB6620FCF70C
:1043280029FB0020FCF726FB5520FCF723FB002087
:10433800FCF720FB5520FCF71DFB0020FCF71AFBBF
:104348004520FCF717FB0020FCF714FB4320FCF783
:1043580011FB0020FCF70EFB4420FCF70BFB0020B0
:10436800FCF708FBE723A7F89830A04B4FF08072C2
:104378001A619E4B4FF000721A61B7F898309AB2E2
:104388009B4BDA60994B4FF400021A61974B8022DD
:104398001A61964B4FF400721A6100BF3220FCF785
:1043A800E9FA0020FCF7E6FA5520FCF7E3FA0020CA
:1043B800FCF7E0FA7620FCF7DDFA0020FCF7DAFAE1
:1043C8006620FCF7D7FA0020FCF7D4FA6720FCF740
:1043D800D1FA0020FCF7CEFA6720FCF7CBFA0020D0
:1043E800FCF7C8FA8720FCF7C5FA0020FCF7C2FAE8
:1043F8009920FCF7BFFA0020FCF7BCFABB20FCF7B9
:10440800B9FA0020FCF7B6FA9920FCF7B3FA0020B5
:10441800FCF7B0FA7720FCF7ADFA0020FCF7AAFA0F
:104428004420FCF7A7FA0020FCF7A4FA5620FCF772
:10443800A1FA0020FCF79EFA2320FCF79BFA002043
:10444800FCF798FA3320FCF795FA0020FCF792FA6B
:104458004520FCF78FFA0020FCF78CFAE823A7F830
:104468009630624B4FF080721A61604B4FF00072C9
:104478001A61B7F896309AB25D4BDA605B4B4FF42D
:1044880000021A61594B80221A61584B4FF400728E
:104498001A6100BF0020FCF76DFA0020FCF76AFAE9
:1044A8009920FCF767FA0020FCF764FA8720FCF7EC
:1044B80061FA0020FCF75EFA8820FCF75BFA00201E
:1044C800FCF758FA7720FCF755FA0020FCF752FA67
:1044D8006620FCF74FFA0020FCF74CFA8820FCF71E
:1044E80049FA0020FCF746FAAA20FCF743FA002014
:1044F800FCF740FABB20FCF73DFA0020FCF73AFA3B
:104508009920FCF737FA0020FCF734FA6620FCF70C
:1045180031FA0020FCF72EFA5520FCF72BFA002080
:10452800FCF728FA5520FCF725FA0020FCF722FAB8
:104538004420FCF71FFA0020FCF71CFA4420FCF783
:1045480019FA0020FCF716FA5520FCF713FA002098
:10455800FCF710FAE923A7F89430244B4FF0807247
:104568001A61224B4FF000721A61B7F894309AB270
:104578001F4BDA601D4B4FF400021A611B4B80225F
:104588001A611A4B4FF400721A6100BFAA20FCF797
:10459800F1F90020FCF7EEF90020FCF7EBF9002018
:1045A800FCF7E8F90023A7F89230104B4FF080721F
:1045B8001A610E4B4FF000721A61B7F892309AB236
:1045C8000B4BDA60094B4FF400021A61074B80224B
:1045D8001A61064B4FF400721A6100BFAA20FCF75B
:1045E800C9F9CF23A7F8903004E000BF00100140BC
:1045F800000C0140BC4B4FF080721A61BA4B4FF06F
:1046080000721A61B7F890309AB2B84BDA60B64BBC
:104618004FF400021A61B44B80221A61B24B4FF476
:1046280000721A6100BF0020FCF7A4F90020FCF713
:10463800A1F90020FCF79EF90020FCF79BF9002067
:10464800FCF798F90020FCF795F90020FCF792F99F
:104658000020FCF78FF90020FCF78CF90020FCF70C
:1046680089F90020FCF786F90020FCF783F900207F
:10467800FCF780F90020FCF77DF90020FCF77AF9B7
:104688000020FCF777F90020FCF774F9F023A7F86D
:104698008E30954B4FF080721A61934B4FF0007239
:1046A8001A61B7F88E309AB2904BDA608E4B4FF49D
:1046B80000021A618C4B80221A618B4B4FF40072F6
:1046C8001A6100BF0020FCF755F95020FCF752F999
:1046D8000020FCF74FF90020FCF74CF90020FCF70C
:1046E80049F9F323A7F88C307F4B4FF080721A6199
:1046F8007D4B4FF000721A61B7F88C309AB27B4B41
:10470800DA60794B4FF400021A61774B80221A6104
:10471800754B4FF400721A6100BF0020FCF72AF9AC
:10472800F923A7F88A30704B4FF080721A616E4BEC
:104738004FF000721A61B7F88A309AB26B4BDA60A0
:10474800694B4FF400021A61674B80221A61664B6D
:104758004FF400721A6100BF0620FCF70BF9102015
:10476800FCF708F92920FCF705F90020FCF702F905
:104778003A23A7F888305C4B4FF080721A615A4B85
:104788004FF000721A61B7F888309AB2574BDA6066
:10479800554B4FF400021A61534B80221A61524B59
:1047A8004FF400721A6100BF5520FCF7E3F811239B
:1047B800A7F886304C4B4FF080721A614A4B4FF085
:1047C80000721A61B7F886309AB2484BDA60464BE5
:1047D8004FF400021A61444B80221A61424B4FF495
:1047E80000721A6100BF642003F006FB2923A7F8B2
:1047F80084303D4B4FF080721A613B4B4FF0007292
:104808001A61B7F884309AB2384BDA60364B4FF4F5
:1048180000021A61344B80221A61334B4FF4007244
:104828001A6100BF3523A7F882302F4B4FF08072F2
:104838001A612D4B4FF000721A61B7F882309AB2A4
:104848002A4BDA60284B4FF400021A61264B80226B
:104858001A61254B4FF400721A6100BF0020FCF763
:1048680089F85123A7F880301F4B4FF080721A61E6
:104878001D4B4FF000721A61B7F880309AB21B4B8B
:10488800DA60194B4FF400021A61174B80221A6143
:10489800154B4FF400721A6100BFFF20FCF76AF84D
:1048A8005323A7F87E30104B4FF080721A610E4BDD
:1048B8004FF000721A61B7F87E309AB20B4BDA608B
:1048C800094B4FF400021A61074B80221A61064B0C
:1048D8004FF400721A6100BF2C20FCF74BF85523E7
:1048E800A7F87C3004E000BF00100140000C014034
:1048F8001C4B4FF080721A611A4B4FF000721A610C
:10490800B7F87C309AB2184BDA60164B4FF40002B5
:104918001A61144B80221A61124B4FF400721A610B
:1049280000BF8220FCF726F82C23A7F87A300D4B1D
:104938004FF080721A610B4B4FF000721A61B7F892
:104948007A309AB2084BDA60064B4FF400021A61CB
:10495800044B80221A61034B4FF400721A6102F073
:10496800D8B800BF00100140000C0140B44B9B8830
:1049780047F29672934240F0E3821123A7F802317E
:10498800B04B4FF080721A61AE4B4FF000721A6153
:10499800B7F802319AB2AC4BDA60AA4B4FF4000276
:1049A8001A61A84B80221A61A64B4FF400721A6153
:1049B80000BF782003F020FA3623A7F80031A14B76
:1049C8004FF080721A619F4B4FF000721A61B7F86E
:1049D80000319AB29C4BDA609A4B4FF400021A618C
:1049E800984B80221A61974B4FF400721A6100BFEE
:1049F8004820FBF7BFFF3A23A7F8FE30914B4FF052
:104A080080721A618F4B4FF000721A61B7F8FE304E
:104A18009AB28D4BDA608B4B4FF400021A61894BC6
:104A280080221A61874B4FF400721A6100BF55202B
:104A3800FBF7A0FFF023A7F8FC30824B4FF0807201
:104A48001A61804B4FF000721A61B7F8FC309AB2C5
:104A58007D4BDA607B4B4FF400021A61794B802260
:104A68001A61784B4FF400721A6100BFC320FBF73C
:104A780081FFF023A7F8FA30724B4FF080721A6169
:104A8800704B4FF000721A61B7F8FA309AB26E4B59
:104A9800DA606C4B4FF400021A616A4B80221A618B
:104AA800684B4FF400721A6100BF9620FBF762FF53
:104AB800B423A7F8F830634B4FF080721A61614B4A
:104AC8004FF000721A61B7F8F8309AB25E4BDA60AC
:104AD8005C4B4FF400021A615A4B80221A61594B01
:104AE8004FF400721A6100BF0120FBF743FFB623A1
:104AF800A7F8F630534B4FF080721A61514B4FF0C4
:104B080000721A61B7F8F6309AB24F4BDA604D4B23
:104B18004FF400021A614B4B80221A61494B4FF443
:104B280000721A6100BF0A20FBF724FFA220FBF7DE
:104B380021FFB723A7F8F430424B4FF080721A6177
:104B4800404B4FF000721A61B7F8F4309AB23E4BFE
:104B5800DA603C4B4FF400021A613A4B80221A612A
:104B6800384B4FF400721A6100BFC620FBF702FFF2
:104B7800B923A7F8F230334B4FF080721A61314BEA
:104B88004FF000721A61B7F8F2309AB22E4BDA6021
:104B98002C4B4FF400021A612A4B80221A61294BD0
:104BA8004FF400721A6100BF0220FBF7E3FEE02019
:104BB800FBF7E0FEC023A7F8F030224B4FF08072DD
:104BC8001A61204B4FF000721A61B7F8F0309AB2B0
:104BD8001D4BDA601B4B4FF400021A61194B8022FF
:104BE8001A61184B4FF400721A6100BF8020FBF75E
:104BF800C1FE1620FBF7BEFEC123A7F8EE30114B0D
:104C08004FF080721A610F4B4FF000721A61B7F8BB
:104C1800EE309AB20C4BDA600A4B4FF400021A617C
:104C2800084B80221A61074B4FF400721A6100BFCB
:104C38001920FBF79FFEC223A7F8EC3006E000BF5F
:104C48008800002000100140000C0140BA4B4FF0D2
:104C580080721A61B84B4FF000721A61B7F8EC30E5
:104C68009AB2B64BDA60B44B4FF400021A61B24BF9
:104C780080221A61B04B4FF400721A6100BFA7205E
:104C8800FBF778FEC523A7F8EA30AB4B4FF08072EC
:104C98001A61A94B4FF000721A61B7F8EA309AB25C
:104CA800A64BDA60A44B4FF400021A61A24B802293
:104CB8001A61A14B4FF400721A6100BF1620FBF76E
:104CC80059FEE823A7F8E8309B4B4FF080721A6131
:104CD800994B4FF000721A61B7F8E8309AB2974BC7
:104CE800DA60954B4FF400021A61934B80221A61E7
:104CF800914B4FF400721A6100BF4020FBF73AFE57
:104D08008A20FBF737FE0020FBF734FE0020FBF774
:104D180031FE2920FBF72EFE1920FBF72BFEA520DC
:104D2800FBF728FE3320FBF725FEE023A7F8E63043
:104D3800814B4FF080721A617F4B4FF000721A61FD
:104D4800B7F8E6309AB27D4BDA607B4B4FF400023D
:104D58001A61794B80221A61774B4FF400721A61FD
:104D680000BFF020FBF706FE0720FBF703FE0D202F
:104D7800FBF700FE0420FBF7FDFD0520FBF7FAFD1D
:104D88001420FBF7F7FD3620FBF7F4FD5420FBF762
:104D9800F1FD4C20FBF7EEFD3820FBF7EBFD13206F
:104DA800FBF7E8FD1420FBF7E5FD2E20FBF7E2FDFD
:104DB8003420FBF7DFFDE123A7F8E4305E4B4FF02A
:104DC80080721A615C4B4FF000721A61B7F8E430D8
:104DD8009AB25A4BDA60584B4FF400021A61564B9C
:104DE80080221A61544B4FF400721A6100BFF02000
:104DF800FBF7C0FD1020FBF7BDFD1420FBF7BAFD43
:104E08000E20FBF7B7FD0C20FBF7B4FD0820FBF7DD
:104E1800B1FD3520FBF7AEFD4420FBF7ABFD4C2080
:104E2800FBF7A8FD2620FBF7A5FD1020FBF7A2FD48
:104E38001220FBF79FFD2C20FBF79CFD3220FBF78F
:104E480099FDF023A7F8E2303B4B4FF080721A61CE
:104E5800394B4FF000721A61B7F8E2309AB2374B0B
:104E6800DA60354B4FF400021A61334B80221A6125
:104E7800314B4FF400721A6100BF3C20FBF77AFDFA
:104E8800F023A7F8E0302C4B4FF080721A612A4BC0
:104E98004FF000721A61B7F8E0309AB2274BDA6027
:104EA800254B4FF400021A61234B80221A61224BD2
:104EB8004FF400721A6100BF6920FBF75BFD782090
:104EC80002F09AFF2123A7F8DE301B4B4FF08072C7
:104ED8001A61194B4FF000721A61B7F8DE309AB2B6
:104EE800164BDA60144B4FF400021A61124B802201
:104EF8001A61114B4FF400721A6100BF2923A7F8F9
:104F0800DC300D4B4FF080721A610B4B4FF0007282
:104F18001A61B7F8DC309AB2084BDA60064B4FF4E6
:104F280000021A61044B80221A61034B4FF400728D
:104F38001A6101F0EEBD00BF00100140000C0140F5
:104F4800034B9B8845F21052934240F0B38701E02F
:104F58008800002055214FF47040FBF72FFDAA214F
:104F68004FF20100FBF72AFD52214FF20200FBF736
:104F780025FD08214FF20300FBF720FD01214FF228
:104F88000400FBF71BFD0D214FF43040FBF716FD25
:104F98000D214BF20100FBF711FD0D214BF2020030
:104FA800FBF70CFD34214FF43640FBF707FD3421A5
:104FB8004BF20160FBF702FD34214BF20260FBF774
:104FC800FDFC0D214FF43140FBF7F8FC0D214BF2AD
:104FD8000110FBF7F3FC0D214BF20210FBF7EEFC7E
:104FE80034214FF43740FBF7E9FC34214BF20170D0
:104FF800FBF7E4FC34214BF20270FBF7DFFC0021E5
:105008004FF43240FBF7DAFC00214BF20120FBF7AA
:10501800D5FC00214BF20220FBF7D0FC24214FF4F1
:105028003840FBF7CBFC24214BF60100FBF7C6FC0C
:1050380024214BF60200FBF7C1FC01214FF43F404D
:10504800FBF7BCFC0F214FF43340FBF7B7FC0F21F3
:105058004BF20130FBF7B2FC0F214BF20230FBF7A9
:10506800ADFC34214FF43940FBF7A8FC34214BF652
:105078000110FBF7A3FC34214BF60210FBF79EFC52
:1050880008214FF43540FBF799FC08214BF20150F9
:10509800FBF794FC08214BF20250FBF78FFC03212D
:1050A8004FF44240FBF78AFC24214FF43A40FBF7C7
:1050B80085FC24214BF60120FBF780FC24214BF6CC
:1050C8000220FBF77BFC00214FF43C40FBF776FC09
:1050D80078214BF60140FBF771FC00214BF60240AA
:1050E800FBF76CFC00214FF43D40FBF767FC78218F
:1050F8004BF60150FBF762FC00214BF60250FBF720
:105108005DFC00214FF43E40FBF758FC64214BF650
:105118000160FBF753FC00214FF45140FBF74EFCB4
:1051280033214DF20110FBF749FC00214DF202102A
:10513800FBF744FC34214DF20310FBF73FFC002140
:105148004DF20410FBF73AFC3A214DF20510FBF73B
:1051580035FC00214DF20610FBF730FC4A214DF2D8
:105168000710FBF72BFC00214DF20810FBF726FC7B
:105178005C214DF20910FBF721FC00214DF20A10C9
:10518800FBF71CFC81214DF20B10FBF717FC0021EB
:105198004DF20C10FBF712FCA6214DF20D10FBF797
:1051A8000DFC00214DF20E10FBF708FCE5214DF235
:1051B8000F10FBF703FC01214DF21010FBF7FEFB6B
:1051C80013214DF21110FBF7F9FB01214DF21210DA
:1051D800FBF7F4FB54214DF21310FBF7EFFB012111
:1051E8004DF21410FBF7EAFB82214DF21510FBF784
:1051F800E5FB01214DF21610FBF7E0FBCA214DF249
:105208001710FBF7DBFB02214DF21810FBF7D6FB5A
:1052180000214DF21910FBF7D1FB02214DF21A10B3
:10522800FBF7CCFB01214DF21B10FBF7C7FB02215A
:105238004DF21C10FBF7C2FB34214DF21D10FBF799
:10524800BDFB02214DF21E10FBF7B8FB67214DF2A2
:105258001F10FBF7B3FB02214DF22010FBF7AEFB4A
:1052680084214DF22110FBF7A9FB02214DF22210F7
:10527800FBF7A4FBA4214DF22310FBF79FFB0221AF
:105288004DF22410FBF79AFBB7214DF22510FBF7DE
:1052980095FB02214DF22610FBF790FBCF214DF232
:1052A8002710FBF78BFB02214DF22810FBF786FB3A
:1052B800DE214DF22910FBF781FB02214DF22A1065
:1052C800FBF77CFBF2214DF22B10FBF777FB022159
:1052D8004DF22C10FBF772FBFE214DF22D10FBF75F
:1052E8006DFB03214DF22E10FBF768FB10214DF2E8
:1052F8002F10FBF763FB03214DF23010FBF75EFB29
:1053080033214DF23110FBF759FB03214DF23210D6
:10531800FBF754FB6D214DF23310FBF74FFB0021D7
:105328004FF45240FBF74AFB33214DF20120FBF7C3
:1053380045FB00214DF20220FBF740FB34214DF2E2
:105348000320FBF73BFB00214DF20420FBF736FB63
:105358003A214DF20520FBF731FB00214DF20620E2
:10536800FBF72CFB4A214DF20720FBF727FB002116
:105378004DF20820FBF722FB5C214DF20920FBF7D8
:105388001DFB00214DF20A20FBF718FB81214DF28D
:105398000B20FBF713FB00214DF20C20FBF70EFB53
:1053A800A6214DF20D20FBF709FB00214DF20E203E
:1053B800FBF704FBE5214DF20F20FBF7FFFA012173
:1053C8004DF21020FBF7FAFA13214DF21120FBF7EA
:1053D800F5FA01214DF21220FBF7F0FA54214DF2B3
:1053E8001320FBF7EBFA01214DF21420FBF7E6FA44
:1053F80082214DF21520FBF7E1FA01214DF216202A
:10540800FBF7DCFACA214DF21720FBF7D7FA022185
:105418004DF21820FBF7D2FA00214DF21920FBF7C4
:10542800CDFA02214DF21A20FBF7C8FA01214DF2FC
:105438001B20FBF7C3FA02214DF21C20FBF7BEFA32
:1054480034214DF21D20FBF7B9FA02214DF21E203E
:10545800FBF7B4FA67214DF21F20FBF7AFFA0221E0
:105468004DF22020FBF7AAFA84214DF22120FBF708
:10547800A5FA02214DF22220FBF7A0FAA4214DF251
:105488002320FBF79BFA02214DF22420FBF796FA22
:10549800B7214DF22520FBF791FA02214DF2262083
:1054A800FBF78CFACF214DF22720FBF787FA022170
:1054B8004DF22820FBF782FADE214DF22920FBF776
:1054C8007DFA02214DF22A20FBF778FAF2214DF2FB
:1054D8002B20FBF773FA02214DF22C20FBF76EFA12
:1054E800FE214DF22D20FBF769FA03214DF22E2003
:1054F800FBF764FA10214DF22F20FBF75FFA032126
:105508004DF23020FBF75AFA33214DF23120FBF7E8
:1055180055FA03214DF23220FBF750FA6D214DF276
:105528003320FBF74BFA00214FF45340FBF746FAC0
:1055380033214DF20130FBF741FA00214DF20230E0
:10554800FBF73CFA34214DF20330FBF737FA002120
:105558004DF20430FBF732FA3A214DF20530FBF7F1
:105568002DFA00214DF20630FBF728FA4A214DF2B8
:105578000730FBF723FA00214DF20830FBF71EFA3B
:105588005C214DF20930FBF719FA00214DF20A307F
:10559800FBF714FA81214DF20B30FBF70FFA0021CB
:1055A8004DF20C30FBF70AFAA6214DF20D30FBF74D
:1055B80005FA00214DF20E30FBF700FAE5214DF215
:1055C8000F30FBF7FBF901214DF21030FBF7F6F92C
:1055D80013214DF21130FBF7F1F901214DF2123090
:1055E800FBF7ECF954214DF21330FBF7E7F90121F1
:1055F8004DF21430FBF7E2F982214DF21530FBF73A
:10560800DDF901214DF21630FBF7D8F9CA214DF228
:105618001730FBF7D3F902214DF21830FBF7CEF91A
:1056280000214DF21930FBF7C9F902214DF21A3069
:10563800FBF7C4F901214DF21B30FBF7BFF902213A
:105648004DF21C30FBF7BAF934214DF21D30FBF74F
:10565800B5F902214DF21E30FBF7B0F967214DF282
:105668001F30FBF7ABF902214DF22030FBF7A6F90A
:1056780084214DF22130FBF7A1F902214DF22230AD
:10568800FBF79CF9A4214DF22330FBF797F902218F
:105698004DF22430FBF792F9B7214DF22530FBF794
:1056A8008DF902214DF22630FBF788F9CF214DF212
:1056B8002730FBF783F902214DF22830FBF77EF9FA
:1056C800DE214DF22930FBF779F902214DF22A301B
:1056D800FBF774F9F2214DF22B30FBF76FF9022139
:1056E8004DF22C30FBF76AF9FE214DF22D30FBF715
:1056F80065F903214DF22E30FBF760F910214DF2C8
:105708002F30FBF75BF903214DF23030FBF756F9E8
:1057180033214DF23130FBF751F903214DF232308C
:10572800FBF74CF96D214DF23330FBF747F90021B7
:105738004FF45440FBF742F933214DF20140FBF797
:105748003DF900214DF20240FBF738F934214DF2C2
:105758000340FBF733F900214DF20440FBF72EF923
:105768003A214DF20540FBF729F900214DF2064098
:10577800FBF724F94A214DF20740FBF71FF90021F6
:105788004DF20840FBF71AF95C214DF20940FBF78E
:1057980015F900214DF20A40FBF710F981214DF26D
:1057A8000B40FBF70BF900214DF20C40FBF706F913
:1057B800A6214DF20D40FBF701F900214DF20E40F4
:1057C800FBF7FCF8E5214DF20F40FBF7F7F8012154
:1057D8004DF21040FBF7F2F813214DF21140FBF7A0
:1057E800EDF801214DF21240FBF7E8F854214DF293
:1057F8001340FBF7E3F801214DF21440FBF7DEF804
:1058080082214DF21540FBF7D9F801214DF21640DF
:10581800FBF7D4F8CA214DF21740FBF7CFF8022165
:105828004DF21840FBF7CAF800214DF21940FBF77A
:10583800C5F802214DF21A40FBF7C0F801214DF2DC
:105848001B40FBF7BBF802214DF21C40FBF7B6F8F2
:1058580034214DF21D40FBF7B1F802214DF21E40F4
:10586800FBF7ACF867214DF21F40FBF7A7F80221C0
:105878004DF22040FBF7A2F884214DF22140FBF7BE
:105888009DF802214DF22240FBF798F8A4214DF231
:105898002340FBF793F802214DF22440FBF78EF8E2
:1058A800B7214DF22540FBF789F802214DF2264039
:1058B800FBF784F8CF214DF22740FBF77FF8022150
:1058C8004DF22840FBF77AF8DE214DF22940FBF72C
:1058D80075F802214DF22A40FBF770F8F2214DF2DB
:1058E8002B40FBF76BF802214DF22C40FBF766F8D2
:1058F800FE214DF22D40FBF761F803214DF22E40B9
:10590800FBF75CF810214DF22F40FBF757F8032105
:105918004DF23040FBF752F833214DF23140FBF79E
:105928004DF803214DF23240FBF748F86D214DF256
:105938003340FBF743F800214FF45540FBF73EF89E
:1059480033214DF20150FBF739F800214DF2025096
:10595800FBF734F834214DF20350FBF72FF8002100
:105968004DF20450FBF72AF83A214DF20550FBF7A7
:1059780025F800214DF20650FBF720F84A214DF298
:105988000750FBF71BF800214DF20850FBF716F8FB
:105998005C214DF20950FBF711F800214DF20A5035
:1059A800FBF70CF881214DF20B50FBF707F80021AB
:1059B8004DF20C50FBF702F8A6214DF20D50FAF704
:1059C800FDFF00214DF20E50FAF7F8FFE5214DF2E8
:1059D8000F50FAF7F3FF01214DF21050FAF7EEFFDE
:1059E80013214DF21150FAF7E9FF01214DF212503F
:1059F800FAF7E4FF54214DF21350FAF7DFFF0121C3
:105A08004DF21450FAF7DAFF82214DF21550FAF7E9
:105A1800D5FF01214DF21650FAF7D0FFCA214DF2F9
:105A28001750FAF7CBFF02214DF21850FAF7C6FFCC
:105A380000214DF21950FAF7C1FF02214DF21A5018
:105A4800FAF7BCFF01214DF21B50FAF7B7FF02210C
:105A58004DF21C50FAF7B2FF34214DF21D50FAF7FF
:105A6800ADFF02214DF21E50FAF7A8FF67214DF253
:105A78001F50FAF7A3FF02214DF22050FAF79EFFBC
:105A880084214DF22150FAF799FF02214DF222505C
:105A9800FAF794FFA4214DF22350FAF78FFF022161
:105AA8004DF22450FAF78AFFB7214DF22550FAF744
:105AB80085FF02214DF22650FAF780FFCF214DF2E3
:105AC8002750FAF77BFF02214DF22850FAF776FFAC
