:020000040800F2
:1000000000C00020654B0008414A0008434A000830
:10001000454A0008474A0008494A00080000000015
:100020000000000000000000000000004B4A000833
:100030004D4A0008000000004F4A0008514A0008DD
:10004000AD4B0008AD4B0008AD4B0008AD4B0008B0
:10005000AD4B0008AD4B0008554A0008AD4B0008F9
:10006000AD4B0008AD4B0008AD4B0008AD4B000890
:10007000AD4B0008AD4B0008AD4B0008AD4B000880
:10008000AD4B0008AD4B0008AD4B0008AD4B000870
:10009000AD4B0008AD4B0008AD4B00085B4A0008B3
:1000A000AD4B0008AD4B0008AD4B0008AD4B000850
:1000B000AD4B0008AD4B0008AD4B0008AD4B000840
:1000C000AD4B0008AD4B0008AD4B0008AD4B000830
:1000D000AD4B0008AD4B0008AD4B0008AD4B000820
:1000E000614A0008AD4B0008AD4B0008AD4B00085D
:1000F000AD4B0008AD4B0008AD4B0008AD4B000800
:10010000AD4B0008AD4B0008AD4B0008AD4B0008EF
:10011000AD4B0008AD4B0008AD4B0008AD4B0008DF
:10012000AD4B0008AD4B0008AD4B0008AD4B0008CF
:1001300000000000000000000000000000000000BF
:1001400000000000000000000000000000000000AF
:10015000000000000000000000000000000000009F
:10016000000000000000000000000000000000008F
:10017000000000000000000000000000000000007F
:10018000000000000000000000000000000000006F
:10019000000000000000000000000000000000005F
:1001A000000000000000000000000000000000004F
:1001B000000000000000000000000000000000003F
:1001C000000000000000000000000000000000002F
:1001D000000000000000000000000000000000001F
:0401E0005FF8E0F1F3
:1001E80010B5054C237833B9044B13B10448AFF369
:1001F80000800123237010BD1000002000000000C3
:100208004C54000808B5034B1BB103490348AFF32E
:10021800008008BD00000000140000204C540008B5
:1002280070B54FF0FF0C4CF4E06C1CEA11541DBF84
:100238001CEA135594EA0C0F95EA0C0F00F0DEF84F
:100248002C4481EA030621EA4C5123EA4C5350EA34
:10025800013518BF52EA033541F4801143F4801385
:1002680038D0A0FB02CE4FF00005E1FB02E506F016
:100278000042E0FB03E54FF00006E1FB03569CF06B
:10028800000F18BF4EF0010EA4F1FF04B6F5007F71
:1002980064F5407404D25FEA4E0E6D4146EB0606E3
:1002A80042EAC62141EA55514FEAC52040EA5E506C
:1002B8004FEACE2EB4F1FD0C88BFBCF5E06F1ED816
:1002C800BEF1004F08BF5FEA500E50F1000041EB4D
:1002D800045170BD06F0004646EA010140EA0200FA
:1002E80081EA0301B4EB5C04C2BFD4EB0C0541EA1C
:1002F800045170BD41F480114FF0000E013C00F331
:10030800AB8014F1360FDEBF002001F0004170BD54
:10031800C4F10004203C35DA0C341BDC04F114046D
:10032800C4F1200500FA05F320FA04F001FA05F2F9
:1003380040EA020001F0004221F0004110EBD370C6
:1003480021FA04F642EB06015EEA430E08BF20EAF2
:10035800D37070BDC4F10C04C4F1200500FA04F395
:1003680020FA05F001FA04F240EA020001F0004127
:1003780010EBD37041F100015EEA430E08BF20EA9A
:10038800D37070BDC4F1200500FA05F24EEA020EE2
:1003980020FA04F301FA05F243EA020321FA04F011
:1003A80001F0004121FA04F220EA020000EBD370C8
:1003B8005EEA430E08BF20EAD37070BD94F0000FC8
:1003C8000FD101F00046400041EB010111F4801FFC
:1003D80008BF013CF7D041EA060195F0000F18BFAD
:1003E800704703F00046520043EB030313F4801FE9
:1003F80008BF013DF7D043EA0603704794EA0C0FA3
:100408000CEA135518BF95EA0C0F0CD050EA4106B8
:1004180018BF52EA4306D1D181EA030101F0004135
:100428004FF0000070BD50EA410606BF104619465D
:1004380052EA430619D094EA0C0F02D150EA013669
:1004480013D195EA0C0F05D152EA03361CBF1046AA
:1004580019460AD181EA030101F0004141F0FE4149
:1004680041F470014FF0000070BD41F0FE4141F4CD
:10047800780170BD81F0004102E000BF83F00043C5
:1004880030B54FEA41044FEA430594EA050F08BF27
:1004980090EA020F1FBF54EA000C55EA020C7FEAEB
:1004A800645C7FEA655C00F0E2804FEA5454D4EB68
:1004B8005555B8BF6D420CDD2C4480EA020281EA32
:1004C800030382EA000083EA010180EA020281EA6A
:1004D8000303362D88BF30BD11F0004F4FEA0131BC
:1004E8004FF4801C4CEA113102D0404261EB4101CB
:1004F80013F0004F4FEA03334CEA133302D0524251
:1005080063EB430394EA050F00F0A780A4F101040C
:10051800D5F1200E0DDB02FA0EFC22FA05F2801846
:1005280041F1000103FA0EF2801843FA05F359412C
:100538000EE0A5F120050EF1200E012A03FA0EFCAB
:1005480028BF4CF0020C43FA05F3C01851EBE371D5
:1005580001F0004507D54FF0000EDCF1000C7EEBF2
:1005680000006EEB0101B1F5801F1BD3B1F5001F30
:100578000CD349085FEA30004FEA3C0C04F101044F
:100588004FEA445212F5800F80F09A80BCF1004F78
:1005980008BF5FEA500C50F1000041EB045141EAFA
:1005A800050130BD5FEA4C0C404141EB0101013CC3
:1005B80028BFB1F5801FE9D291F0000F04BF0146B2
:1005C8000020B1FA81F308BF2033A3F10B03B3F184
:1005D80020020CDA0C3208DD02F1140CC2F10C0214
:1005E80001FA0CF021FA02F10CE002F11402D8BF72
:1005F800C2F1200C01FA02F120FA0CFCDCBF41EA3E
:100608000C019040E41AA2BF01EB0451294330BD0C
:100618006FEA04041F3C1CDA0C340EDC04F11404E9
:10062800C4F1200220FA04F001FA02F340EA0300C0
:1006380021FA04F345EA030130BDC4F10C04C4F106
:10064800200220FA02F001FA04F340EA03002946E6
:1006580030BD21FA04F0294630BD94F0000F83F430
:10066800801306BF81F480110134013D4EE77FEA13
:10067800645C18BF7FEA655C29D094EA050F08BF5F
:1006880090EA020F05D054EA000C04BF1946104640
:1006980030BD91EA030F1EBF0021002030BD5FEA84
:1006A800545C05D14000494128BF41F0004130BDAC
:1006B80014F580043CBF01F5801130BD01F0004500
:1006C80045F0FE4141F470014FF0000030BD7FEA73
:1006D800645C1ABF194610467FEA655C1CBF0B466E
:1006E800024650EA013406BF52EA033591EA030F85
:1006F80041F4002130BD00BF90F0000F04BF00217D
:10070800704730B54FF4806404F132044FF00005AF
:100718004FF0000150E700BF90F0000F04BF002128
:10072800704730B54FF4806404F1320410F000458E
:1007380048BF40424FF000013EE700BF42004FEA89
:10074800E2014FEA31014FEA02701FBF12F07F4306
:1007580093F07F4F81F06051704732F07F4208BFBD
:10076800704793F07F4F04BF41F40021704730B5C4
:100778004FF4607401F0004521F000411CE700BF10
:1007880050EA010208BF704730B54FF000050AE093
:1007980050EA010208BF704730B511F0004502D594
:1007A800404261EB41014FF4806404F132045FEA96
:1007B800915C3FF4D8AE4FF003025FEADC0C18BF3F
:1007C80003325FEADC0C18BF033202EBDC02C2F131
:1007D800200300FA03FC20FA02F001FA03FE40EAC3
:1007E8000E0021FA02F11444BDE600BF4A0011D2FE
:1007F80012F5001211D20DD56FF47873B3EB625273
:100808000ED44FEAC12343F0004343EA505323FA7E
:1008180002F070474FF00000704750EA013002D1F3
:100828004FF0FF3070474FF00000704710222DE95D
:10083800F0430124022589B00DEB0200002104F0E9
:10084800D5FD3A4B3A4E9A69DFF8E88042F020022B
:100858009A619A69304602F020020192019A9A69D7
:100868004FF4807142F004029A619A69DFF8C890E7
:1008780002F004020292029A9A69002742F01002DA
:100888009A619B69002203F010030393039B04F011
:1008980035FB00224046042104F030FB274B30464C
:1008A80004A9CDE90443069504F03CFA202304A9E1
:1008B8002348CDE90439069404F034FA4FF48073E0
:1008C800304604A9CDE90434CDE9067504F02AFAC6
:1008D8004FF40043304604A9CDE90439069404F0E6
:1008E80021FA0423404604A9CDE90434CDE906756C
:1008F80004F018FA3A462146062004F0C1F9062009
:1009080004F0EEF922462146172004F0B9F9172021
:1009180004F0E6F92A462146282004F0B1F92820F7
:1009280004F0DEF909B0BDE8F08300BF0010024012
:1009380000080140001401400000211000001110BF
:1009480000100140F0B5002301254FF6FF7703267C
:10095800144C87B0204602A9CDE90273CDE90456AC
:1009680004F0E0F94FF480720F4B20461A614FF003
:1009780000721A614FF480021A61A26802A992B249
:10098800ADF8062040221A614FF400721A61CDE9D1
:100998000275CDE9045604F0C5F9BDF8060080B229
:1009A80007B0F0BD000C0140001001404FF4807208
:1009B800074B1A614FF000721A61064AD0604FF473
:1009C80000021A6180221A614FF400721A6170479E
:1009D80000100140000C0140F0B54FF080724FF05C
:1009E80000760B4B0B4D1A614FF400041E614FF457
:1009F8000072E8604FF4807780201C6118611A61EA
:100A08001F611E61E9601C6118611A61F0BD00BFB9
:100A180000100140000C014041F663132DE9F04F2E
:100A2800B14C4FEA1129A28884469A426589A68961
:100A3800AE4BC9B240F0BF80228894F806E0013A74
:100A4800BEF1000F76D1A2EB00084FF080724FF094
:100A5800007C1A61A64AC3F810C04FF40007D5609D
:100A68004FF4007080254FF4807A1F611D61186172
:100A7800C3F810A0C3F810C0C2F80CE01F611D61D4
:100A88001861C3F810A0C3F810C0C2F80CE0C8F38E
:100A9800072E5FFA88F81F611D611861C3F810A05E
:100AA800C3F810C0C2F80CE01F611D611861C3F8DB
:100AB80010A0C3F810C0C2F80C801F611D61186136
:100AC8004FF0007C4FF08072894F1A618025C3F87F
:100AD80010C04FF40070FE604FF4807E4FF40006A3
:100AE80062881E61013A1D611861C3F810E0C3F8FD
:100AF80010C0C7F80C901E611D611861C3F810E0A2
:100B0800C3F810C0F9601112D2B21E611D611861DC
:100B1800C3F810E0C3F810C0F9601E611D611861C8
:100B2800C3F810E0C3F810C0FA601E611D611861B7
:100B3800BDE8F08F4FF000784FF08070DFF8B0E13B
:100B480018618027C3F810804FF40000CEF80C50CD
:100B58004FF4807A4FF400754FEA1C2B5FFA8CFC37
:100B680018611F611D61C3F810A0C3F81080CEF88A
:100B78000CB018611F611D61C3F810A0C3F8108084
:100B8800CEF80CC04FEA222CD2B218611F611D6149
:100B9800C3F810A0C3F81080CEF80CC018611F610C
:100BA8001D61C3F810A0C3F81080CEF80C2018619E
:100BB8001F611D6184E745F210544FF08078A2420E
:100BC8004FF000744A4AC3F810804FEA102A1C619B
:100BD800C0B2D56052D14FF4000E4FF0800C4FF4E4
:100BE80000774FF4807B0135ADB2C3F810E0C3F84D
:100BF80010C01F61C3F810B01C61C2F80CA0C3F884
:100C080010E0C3F810C01F61C3F810801C61D560E4
:100C1800C3F810E0C3F810C01F61C3F810B01C611E
:100C2800D060C3F810E0C3F810C01F61C3F810808B
:100C38001C61D6600136B6B2C3F810E0C3F810C024
:100C48001F61C3F810B01C61C2F80C90C3F810E023
:100C5800C3F810C01F61C3F810801C61D660C3F8C8
:100C680010E0C3F810C01F61C3F810B01C61D16058
:100C7800C3F810E0C3F810C01F6159E74FF4000C27
:100C880080274FF400754FF4807EC3F810C01F61B1
:100C98001D61C3F810E01C61C2F80CA0C3F810C0B5
:100CA8001F611D61C3F810E01C61D060C3F810C05B
:100CB8001F611D61C3F810801C61D660C3F810C0A5
:100CC8001F611D61C3F810E01C61C2F80C90C3F8E5
:100CD80010C01F611D61C3F810E01C61D160C3F82A
:100CE80010C01F611D6123E72C0000200010014087
:100CF800000C01402DE9F84F924C41F66313A2799C
:100D0800A588012A0ED19D421CD10138062800F27F
:100D18008181DFE810F08501830181018701890164
:100D28005F004E00B2B99D4214D1072800F27281CB
:100D3800DFE810F050003F0078017A017601700179
:100D48007201740107280ED8DFE800F02F31292737
:100D5800250D2B2D0138062805D8DFE800F01C24C6
:100D680022201E262800002145F210539D4221D141
:100D78004FF45850FFF730FE41F663139D42228826
:100D88006088714B00F0E480890626D5824226D21D
:100D98002080628023E08021E6E76021E4E72021CB
:100DA800E2E7C021E0E74021DEE7A021DCE7E0211F
:100DB800DAE7E02149F241339D4207D047F28973CF
:100DC8009D4203D047F296739D4201D141F008013C
:100DD8003620CFE73620A021CCE78242D8D845F28A
:100DE80010529542B4F80090B4F80280B4F80AE0C2
:100DF800A78940F0AD804FF000754FF400008021C6
:100E08004FF400724FF0807C4FF480764FF0000A68
:100E18004E4C0EF1010B1FFA8BFBC3F810C01D617D
:100E2800C4F80CE0186119611A611E611D61C4F8EB
:100E38000CA0186119611A61C3F810C01D61C4F8CB
:100E48000CB00EF1020B09F1FF391FFA8BFB0EF102
:100E5800030E18611FFA8EFE19611A611E611D6169
:100E6800C4F80CA0186119611A61C3F810C01D619B
:100E7800C4F80CB04FEA292B186119611A611E6178
:100E88001D61C4F80CB0186119611A61C3F810C06B
:100E98001D61C4F80CE007F1010E1FFA8EFE5FFA1F
:100EA80089F9186119611A611E611D61C4F80C90F5
:100EB800186119611A61C3F810C01D61E7601861F3
:100EC80019611A611E611D61C4F80CA018611961CD
:100ED8001A61C3F810C01D61C4F80CE007F1020ED6
:100EE80008F1FF381FFA8EFE03371861BFB2196187
:100EF8001A611E611D61C4F80CA0186119611A619C
:100F0800C3F810C01D61C4F80CE04FEA282E186120
:100F180019611A611E611D61C4F80CE0186119613C
:100F28001A61C3F810C01D61E760186119611A6180
:100F38001E611D615FFA88F5E560186119611A6123
:100F4800BDE8F88F2C00002000100140000C014083
:100F58004FF000764FF080786289344DC3F81080E6
:100F68004FF400001E618021EA604FF480774FF44F
:100F780000724FF0000EB4F800C018610CF1FF3C8D
:100F88004FEA2C295FFA8CFC19611A611F611E61F6
:100F9800C5F80CE0186119611A611F611E61C5F876
:100FA8000CE0186119611A611F611E61C5F80C9087
:100FB800186119611A611F611E61C5F80CC01861BA
:100FC80019611A61B4F80CC06488C3F81080013C38
:100FD8001E61C5F80CC04FEA242CE4B218611961EF
:100FE8001A611F611E61C5F80CE0186119611A6168
:100FF8001F611E61C5F80CE0186119611A611F6153
:101008001E61C5F80CC0186119611A611F611E6163
:10101800EC6092E70021CDE6C021CBE64021C9E68D
:101028008021C7E62021C5E66021C3E6000C014007
:10103800F8B514464FF00076FFF7EEFC4FF08071DC
:101048000B4B0C4D1A890C4B4FF4000019614FF4EF
:1010580080771E618021EA604FF40072186119617F
:101068001A611F611E61EC60186119611A61F8BD8F
:101078002C000020000C014000100140000000007E
:101088004FF080732DE9F0472F4C4FF00079236122
:10109800BE23DFF8B880C4F810904FF40007C8F8F2
:1010A8000C3080264FF400754FF4807A05232761B1
:1010B80026612561C4F810A0C4F81090C8F80C3057
:1010C800276126612561C4F810A0C4F81090FFF7C5
:1010D80023FB1BA3D3E90023FFF7A2F8FFF786FB46
:1010E8000123C8F80C00276126612561C4F810A007
:1010F800C4F81090C8F80C30FF23276126612561D9
:10110800C4F810A0C4F81090C8F80C300023276168
:1011180026612561C4F810A0C4F81090C8F80C30F6
:10112800276126612561C4F810A0C4F81090C8F89A
:101138000C30276126612561BDE8F087AFF3008098
:10114800666666666666044000100140000C014051
:101158003E4B10B4F0214FF4A0749A88987148BBA4
:10116800198045F210518A425C8061D041F66311C2
:101178008A424FF02C004FF02A0163D059812B216D
:10118800998145F210318A42188103D047F296714D
:101198008A4205D14FF4A07119804FF4F07159803B
:1011A80049F606018A421AD14FF4F0721A804FF4B8
:1011B800487213E0598045F210518A421C8012D1BE
:1011C8004FF430521A814FF428525A814FF42C525E
:1011D8009A814FF448721A804FF4F0725A800020B6
:1011E80010BCFFF787BD41F663118A424FF02C010E
:1011F80019814FF02A0159814FF02B01998103D0B1
:1012080049F606018A4205D14FF4487119804FF416
:10121800F071598045F210318A4203D047F2967135
:101228008A42DCD14FF4F0721A804FF4A072D5E7ED
:101238004FF430504FF428544FF42C5218815C81ED
:101248009A81B1E72B240A46F8E700BF2C0000205A
:101258000021F8B5144E05463388748808465C4367
:10126800FFF7DAFB4FF08072104B30891A614FF0AC
:1012780000720F491A614FF40077C86080264FF456
:10128800000018611E611F614FF480771F611A61A9
:101298000022A24203D14FF400721A61F8BDCD605A
:1012A800013218611E61F4E72C0000200010014093
:1012B800000C01406A4B2DE9F04F9A698DB042F05D
:1012C80010029A619A69012702F010020192019AAC
:1012D8009A69032442F010029A619A69DFF884B18E
:1012E80002F010020292029A9A694FF4007542F0D5
:1012F80010029A619A69802602F010020392039AFA
:101308009A694FF0400942F010029A619A6958466A
:1013180002F010020492049A9A6908A942F0100295
:101328009A619A694FF4807802F010020592059A42
:101338009A694FF0807A42F008029A619A6902F03D
:1013480008020692069A9A6942F001029A619B691C
:10135800454A03F001030793079B536823F0E063B2
:1013680043F0007353604FF480630A97CDE9083760
:101378000B9403F0D7FCCDE90A744FF6FF74584676
:1013880008A9CDE9085703F0CDFC584608A90896E6
:1013980003F0C8FC584608A9CDF8209003F0C2FC19
:1013A800584608A9CDF8208003F0BCFCCDE90847D1
:1013B8002E4F08A9384603F0B5FCCBF81060D323AC
:1013C800CBF81090CBF810504FF00079CBF8108084
:1013D8004FF40008FC60CBF810A0CBF81090FB602D
:1013E800CBF81080CBF81060CBF81050FFF7AAFAB2
:1013F8001F4CA080FFF7A6FAA080FFF7A3FA00020F
:10140800A080FFF79FFAA288104349F2413280B2C8
:101418009042A08000F0F2800422CBF810A0CBF814
:101428001090FA60CBF81080CBF81060CBF8105011
:10143800FFF788FAA080FFF785FAA080FFF782FA05
:101448000002A080FFF77EFAA288104348F25252A9
:1014580080B2904247F289720CD1A280CEE000BFE0
:10146800001002400010014000000140000C014043
:101478002C0000209042A08000F0C080D422CBF83D
:1014880010A0CBF81090FA60CBF81080CBF8106061
:10149800CBF81050FFF756FAA080FFF753FAA08058
:1014A800FFF750FA0002A080FFF74CFAA288104319
:1014B80045F2103280B29042A08000F09F80D32382
:1014C800CBF810A0CBF81090FB60CBF81080CBF8CD
:1014D8001060CBF81050FFF735FAA080FFF732FA0A
:1014E800A080FFF72FFA0002A080FFF72BFAA2884E
:1014F800104347F2967280B29042A0807ED0552168
:101508004FF47040FFF768FAAA214FF20100FFF785
:1015180063FA52214FF20200FFF75EFA08214FF2F8
:101528000300FFF759FA01214FF20400FFF754FABC
:101538004FF44542CBF810A0CBF81090FA60CBF8E6
:101548001080CBF81060CBF81050FFF7FBF94CF285
:1015580001520002A080CBF810A0CBF81090FA60DE
:10156800CBF81080CBF81060CBF81050FFF7EAF9F1
:10157800A288104345F2105280B29042A0803DD01C
:10158800D323CBF810A0CBF81090FB60CBF81080D9
:10159800CBF81060CBF81050FFF7D4F9A080FFF714
:1015A800D1F9A080FFF7CEF90002A080FFF7CAF9B1
:1015B800A288104349F6060280B29042A0801DD04E
:1015C800A122CBF810A0CBF81090FA60CBF81080CD
:1015D800CBF81060CBF81050FFF7B4F9A080FFF7F4
:1015E800B1F90002A080FFF7ADF9A288104345F2D7
:1015F800617280B2904200F08581A08047F28971C3
:10160800A2888A4240F084814FF080794FF00078B8
:101618004FF4000680254FF400741122BB4FCBF81D
:1016280010907820CBF81080FA60CBF81060CBF8D7
:101638001050CBF8104003F0FFFA3622CBF8109088
:101648000020CBF81080FA60CBF81060CBF810506F
:10165800CBF81040FFF7AAF93A22CBF810900520F2
:10166800CBF81080FA60CBF81060CBF81050CBF8AC
:101678001040FFF79BF9B222CBF810900C20CBF862
:101688001080FA60CBF81060CBF81050CBF81040FF
:10169800FFF78CF9FFF78AF90020FFF787F9332065
:1016A800FFF784F9FFF782F9B722CBF810903520BD
:1016B800CBF81080FA60CBF81060CBF81050CBF85C
:1016C8001040FFF773F9BB22CBF810903220CBF80B
:1016D8001080FA60CBF81060CBF81050CBF81040AF
:1016E800FFF764F9C022CBF810900C20CBF81080DB
:1016F800FA60CBF81060CBF81050CBF81040FFF729
:1017080055F9C222CBF810900120CBF81080FA606E
:10171800CBF81060CBF81050CBF81040FFF746F923
:10172800C322CBF810901020CBF81080FA60CBF8C9
:101738001060CBF81050CBF81040FFF737F9C422EF
:10174800CBF810902020CBF81080FA60CBF810600E
:10175800CBF81050CBF81040FFF728F9C622D0215B
:10176800CBF810900F20CBF81080FA60CBF81060FF
:10177800CBF81050CBF81040FFF718F9CBF81090C1
:10178800A420CBF81080F960CBF81060CBF810508B
:10179800CBF81040FFF70AF9A120FFF707F9E0227C
:1017A800CBF810900846CBF81080FA60CBF81060A0
:1017B800CBF81050CBF81040FFF7F8F80020FFF7EF
:1017C800F5F80220FFF7F2F80720FFF7EFF80A20F4
:1017D800FFF7ECF82820FFF7E9F83220FFF7E6F8E2
:1017E8004420FFF7E3F84220FFF7E0F80620FFF770
:1017F800DDF80E20FFF7DAF81220FFF7D7F81420EB
:10180800FFF7D4F81720FFF7D1F8E122CBF81090B2
:101818000846CBF81080FA60CBF81060CBF810506F
:10182800CBF81040FFF7C2F80020FFF7BFF80220FE
:10183800FFF7BCF80720FFF7B9F80A20FFF7B6F85A
:101848002820FFF7B3F83120FFF7B0F85420FFF74E
:10185800ADF84720FFF7AAF80E20FFF7A7F81C20DD
:10186800FFF7A4F81720FFF7A1F81B20FFF79EF851
:101878001E20FFF79BF82A22CBF810900020CBF807
:101888001080FA60CBF81060CBF81050CBF81040FD
:10189800FFF78CF8FFF78AF8FFF788F8EF20FFF7D3
:1018A80085F82B22CBF810900020CBF81080FA6036
:1018B800CBF81060CBF81050CBF81040FFF776F853
:1018C800FFF774F80120FFF771F83F20FFF76EF873
:1018D8002922CBF81090CBF81080FA60CBF8106072
:1018E800CBF81050CBF810400020FFF731FC4FF434
:1018F80080624FF6FF70CBF81020FFF7A9FC0DB0FF
:10190800BDE8F08F41F66312A7E500BF000C014067
:1019180049F241318A4240F0D1814FF080794FF04D
:1019280000784FF4000680254FF40074CF22E24F70
:10193800CBF810900020CBF81080FA60CBF810603C
:10194800CBF81050CBF81040FFF730F8C120FFF764
:101958002DF83020FFF72AF8ED22CBF810906420FC
:10196800CBF81080FA60CBF81060CBF81050CBF8A9
:101978001040FFF71BF80320FFF718F81220FFF7B5
:1019880015F88120FFF712F8E822CBF8109085208F
:10199800CBF81080FA60CBF81060CBF81050CBF879
:1019A8001040FFF703F81020FFF700F87A20FEF741
:1019B800FDFFCB22CBF810903920CBF81080FA60CD
:1019C800CBF81060CBF81050CBF81040FEF7EEFFC4
:1019D8002C20FEF7EBFF0020FEF7E8FF3420FEF78F
:1019E800E5FF0220FEF7E2FFF722CBF81090202057
:1019F800CBF81080FA60CBF81060CBF81050CBF819
:101A08001040FEF7D3FFEA22CBF810900020CBF865
:101A18001080FA60CBF81060CBF81050CBF810406B
:101A2800FEF7C4FFFEF7C2FFC022CBF810901B20C0
:101A3800CBF81080FA60CBF81060CBF81050CBF8D8
:101A48001040FEF7B3FFC122CBF810900120CBF86D
:101A58001080FA60CBF81060CBF81050CBF810402B
:101A6800FEF7A4FFC522CBF810903020CBF81080E9
:101A7800FA60CBF81060CBF81050CBF81040FEF7A6
:101A880095FFFEF793FFC722CBF81090B720CBF84D
:101A98001080FA60CBF81060CBF81050CBF81040EB
:101AA800FEF784FF3622CBF810904820CBF8108040
:101AB800FA60CBF81060CBF81050CBF81040FEF766
:101AC80075FF3A22CBF810905520CBF81080FA60B9
:101AD800CBF81060CBF81050CBF81040FEF766FF3B
:101AE800B122CBF810900020CBF81080FA60CBF828
:101AF8001060CBF81050CBF81040FEF757FF1A20B3
:101B0800FEF754FFB622CBF810900A20CBF81080CD
:101B1800FA60CBF81060CBF81050CBF81040FEF705
:101B280045FFA220FEF742FFF222CBF810900020DA
:101B3800CBF81080FA60CBF81060CBF81050CBF8D7
:101B48001040FEF733FF2622CBF810900120CBF887
:101B58001080FA60CBF81060CBF81050CBF810402A
:101B6800FEF724FFE022CBF810900F20CBF810806E
:101B7800FA60CBF81060CBF81050CBF81040FEF7A5
:101B880015FF2A20FEF712FF2820FEF70FFF082076
:101B9800FEF70CFF0E20FEF709FF0820FEF706FFF0
:101BA8005420FEF703FFA920FEF700FF4320FEF7AD
:101BB800FDFE0A20FEF7FAFE0F20FEF7F7FE0020D2
:101BC800FEF7F4FEFEF7F2FEFEF7F0FEFEF7EEFE7D
:101BD800E122CBF81090CBF81080FA60CBF81060B7
:101BE800CBF81050CBF81040FEF7E0FE1520FEF7BA
:101BF800DDFE1720FEF7DAFE0720FEF7D7FE1120DC
:101C0800FEF7D4FE0620FEF7D1FE2B20FEF7CEFE0F
:101C18005620FEF7CBFE3C20FEF7C8FE0520FEF757
:101C2800C5FE1020FEF7C2FE0F20FEF7BFFE3F20C4
:101C3800FEF7BCFEFEF7BAFE0F20FEF7B7FE2B221A
:101C4800CBF810900020CBF81080FA60CBF8106029
:101C5800CBF81050CBF81040FEF7A8FEFEF7A6FE12
:101C68000120FEF7A3FE3F20FEF7A0FE2A22CBF8B4
:101C780010900020CBF81080FA60CBF81060CBF8F9
:101C88001050CBF81040FEF791FEFEF78FFEFEF7DE
:101C98008DFEEF20FEF78AFE1122CBF810907820F7
:101CA800CBF81080FA60CBF81060CBF81050CBF866
:101CB800104002F0C1FF0BE6000C014045F2103164
:101CC8008A4241F0DD8080244FF080794FF000781F
:101CD8004FF400064FF40075ED22F54FCBF8109045
:101CE8000120CBF81080FA60CBF81060CBF81040D8
:101CF800CBF81050FEF75AFEFE20FEF757FEEE22F4
:101D0800CBF81090DE20CBF81080FA60CBF810608A
:101D1800CBF81040CBF81050FEF748FE2120FEF714
:101D280045FEF122CBF810900120CBF81080FA6024
:101D3800CBF81060CBF81040CBF81050FEF736FE09
:101D4800DF22C4214FF0C60ACBF810901020CBF840
:101D58001080FA60CBF81060CBF81040CBF8105028
:101D6800FEF724FECBF810908F20CBF81080F96096
:101D7800CBF81060CBF81040CBF81050FEF716FEE9
:101D8800CBF810900020CBF81080C7F80CA0CBF847
:101D98001060CBF81040CBF81050FEF707FEE22099
:101DA800FEF704FEFEF702FEFEF700FEBF22CBF8A8
:101DB8001090AA20CBF81080FA60CBF81060CBF80E
:101DC8001040CBF81050FEF7F1FDB022CBF8109080
:101DD8000D20CBF81080FA60CBF81060CBF81040DB
:101DE800CBF81050FEF7E2FD0020FEF7DFFD0D20D6
:101DF800FEF7DCFD0020FEF7D9FD1120FEF7D6FD29
:101E08000020FEF7D3FD1920FEF7D0FD0020FEF7D5
:101E1800CDFD2120FEF7CAFD0020FEF7C7FD2D20CD
:101E2800FEF7C4FD0020FEF7C1FD3D20FEF7BEFD14
:101E38000020FEF7BBFD5D20FEF7B8FD0020FEF791
:101E4800B5FD5D20FEF7B2FD0020FEF7AFFDB12223
:101E5800CBF810902046CBF81080FA60CBF81060D1
:101E6800CBF81040CBF81050FEF7A0FD0020FEF78D
:101E78009DFD8B20FEF79AFD0020FEF797FD96202A
:101E8800FEF794FD0020FEF791FDB222CBF81090EA
:101E9800CBF81080FA60CBF81060CBF81040CBF884
:101EA8001050FEF783FDFEF781FD0220FEF77EFD50
:101EB8000020FEF77BFD0320FEF778FD0020FEF7EB
:101EC80075FDB322CBF81090CBF81080FA60CBF8F0
:101ED8001060CBF81040CBF81050FEF767FDFEF706
:101EE80065FDFEF763FDFEF761FDFEF75FFDFEF79A
:101EF8005DFDFEF75BFDFEF759FDFEF757FDFEF7AA
:101F080055FDFEF753FDFEF751FDFEF74FFDFEF7B9
:101F18004DFDFEF74BFDFEF749FDFEF747FDFEF7C9
:101F280045FDFEF743FDFEF741FDFEF73FFDFEF7D9
:101F38003DFDFEF73BFDFEF739FDB420CBF81090D0
:101F4800CBF81080F860CBF810608B20CBF81040ED
:101F5800CBF81050FEF72AFD0020FEF727FD96204B
:101F6800FEF724FD0020FEF721FDA120FEF71EFD4F
:101F78000020FEF71BFDB520CBF81090CBF81080A1
:101F8800F860CBF810600220CBF81040CBF8105066
:101F9800FEF70CFD0020FEF709FD0320FEF706FD05
:101FA8000020FEF703FD0420FEF700FD0020FEF7E9
:101FB800FDFCB623CBF81090CBF81080FB60CBF873
:101FC8001060CBF81040CBF81050FEF7EFFCFEF78E
:101FD800EDFCB723CBF81090CBF81080FB60CBF862
:101FE8001060CBF81040CBF81050FEF7DFFCFEF77E
:101FF800DDFC3F20FEF7DAFC0020FEF7D7FC5E2070
:10200800FEF7D4FC0020FEF7D1FC6420FEF7CEFCDE
:102018000020FEF7CBFC8C20FEF7C8FC0020FEF762
:10202800C5FCAC20FEF7C2FC0020FEF7BFFCDC209C
:10203800FEF7BCFC0020FEF7B9FC7020FEF7B6FCEA
:102048000020FEF7B3FC9020FEF7B0FC0020FEF75E
:10205800ADFCEB20FEF7AAFC0020FEF7A7FCDC2075
:10206800FEF7A4FC0020FEF7A1FCB823CBF81090E3
:10207800CBF81080FB60CBF81060CBF81040CBF8A1
:102088001050FEF793FCFEF791FCFEF78FFCFEF76D
:102098008DFCFEF78BFCFEF789FCFEF787FCFEF74C
:1020A80085FCBA20CBF81090CBF81080F86001E0DE
:1020B800000C0140CBF810602420CBF81040CBF87E
:1020C8001050FEF773FC0020FEF770FCFEF76EFC64
:1020D800FEF76CFCC120CBF81090CBF81080F860AC
:1020E800CBF810602020CBF81040CBF81050FEF74A
:1020F8005DFC0020FEF75AFC5420FEF757FC002038
:10210800FEF754FCFF20FEF751FC0020FEF74EFCC2
:10211800C223CBF810900A20CBF81080FB60CBF8D4
:102128001060CBF81040CBF81050FEF73FFC0020B1
:10213800FEF73CFC0420FEF739FC0020FEF736FCD5
:10214800C320CBF81090CBF81080F860CBF8106063
:102158003C20CBF81040CBF81050FEF727FC0020AD
:10216800FEF724FC3A20FEF721FC0020FEF71EFCB7
:102178003920FEF71BFC0020FEF718FC3720FEF77D
:1021880015FC0020FEF712FC3C20FEF70FFC002097
:10219800FEF70CFC3620FEF709FC0020FEF706FCD3
:1021A8003220FEF703FC0020FEF700FC2F20FEF78C
:1021B800FDFB0020FEF7FAFB2C20FEF7F7FB0020C2
:1021C800FEF7F4FB2920FEF7F1FB0020FEF7EEFBFB
:1021D8002620FEF7EBFB0020FEF7E8FB2420FEF7A5
:1021E800E5FB0020FEF7E2FB2420FEF7DFFB0020E2
:1021F800FEF7DCFB2320FEF7D9FB0020FEF7D6FB19
:102208003C20FEF7D3FB0020FEF7D0FB3620FEF77C
:10221800CDFB0020FEF7CAFB3220FEF7C7FB0020EB
:10222800FEF7C4FB2F20FEF7C1FB0020FEF7BEFB24
:102238002C20FEF7BBFB0020FEF7B8FB2920FEF799
:10224800B5FB0020FEF7B2FB2620FEF7AFFB00200F
:10225800FEF7ACFB2420FEF7A9FB0020FEF7A6FB47
:102268002420FEF7A3FB0020FEF7A0FB2320FEF7A7
:102278009DFB0020FEF79AFBCBF810906220CBF86C
:102288001080F960CBF81060CBF81040CBF81050F4
:10229800FEF78CFB0020FEF789FB0520FEF786FB86
:1022A8000020FEF783FB8420FEF780FB0020FEF76A
:1022B8007DFBF020FEF77AFB0020FEF777FB182065
:1022C800FEF774FB0020FEF771FBA420FEF76EFBFF
:1022D8000020FEF76BFB1820FEF768FB0020FEF7D6
:1022E80065FB5020FEF762FB0020FEF75FFB0C2029
:1022F800FEF75CFB0020FEF759FB1720FEF756FBA4
:102308000020FEF753FB9520FEF750FB0020FEF758
:102318004DFBF320FEF74AFB0020FEF747FBE620C3
:10232800FEF744FB0020FEF741FBC520CBF81090D8
:10233800CBF81080F860CBF810603220CBF8104052
:10234800CBF81050FEF732FB0020FEF72FFB44209D
:10235800FEF72CFB0020FEF729FB6520FEF726FB85
:102368000020FEF723FB7620FEF720FB0020FEF777
:102378001DFB8820FEF71AFB0020FEF717FBCBF8A1
:1023880010902020CBF81080C7F80CA0CBF8106074
:10239800CBF81040CBF81050FEF708FB0020FEF7F2
:1023A80005FB1720FEF702FB0020FEF7FFFA0120CD
:1023B800FEF7FCFA0020FEF7F9FAC723CBF81090D5
:1023C800CBF81080FB60CBF81060CBF81040CBF84E
:1023D8001050FEF7EBFAFEF7E9FAFEF7E7FAFEF718
:1023E800E5FAC823CBF81090CBF81080FB60CBF847
:1023F8001060CBF81040CBF81050FEF7D7FAFEF774
:10240800D5FAFEF7D3FAFEF7D1FAC9234FF0E00A5E
:10241800CBF81090CBF81080FB60CBF81060CBF8AD
:102428001040CBF81050FEF7C1FAFEF7BFFAFEF7DE
:10243800BDFAFEF7BBFAFEF7B9FAFEF7B7FAFEF7F0
:10244800B5FAFEF7B3FAFEF7B1FAFEF7AFFAFEF700
:10245800ADFAFEF7ABFAFEF7A9FAFEF7A7FAFEF710
:10246800A5FAFEF7A3FACBF810901620CBF8108047
:10247800C7F80CA0CBF81060CBF81040CBF8105080
:10248800FEF794FA0020FEF791FA1C20FEF78EFA68
:102498000020FEF78BFA2120FEF788FA0020FEF7CD
:1024A80085FA3620FEF782FA0020FEF77FFA4620EA
:1024B800FEF77CFA0020FEF779FA5220FEF776FA4A
:1024C8000020FEF773FA6420FEF770FA0020FEF78A
:1024D8006DFA7A20FEF76AFA0020FEF767FA8B2079
:1024E800FEF764FA0020FEF761FA9920FEF75EFA1B
:1024F8000020FEF75BFAA820FEF758FA0020FEF746
:1025080055FAB920FEF752FA0020FEF74FFA0846AE
:10251800FEF74CFA0020FEF749FACA20FEF746FA01
:102528000020FEF743FAD220FEF740FA0020FEF71B
:102538003DFAD920FEF73AFA0020FEF737FA50465E
:10254800FEF734FA0020FEF731FAF320FEF72EFAF0
:102558000020FEF72BFAE120CBF81090CBF8108082
:10256800F860CBF810601620CBF81040CBF810506C
:10257800FEF71CFA0020FEF719FA1C20FEF716FADF
:102588000020FEF713FA2220FEF710FA0020FEF7CB
:102598000DFA3620FEF70AFA0020FEF707FA452062
:1025A800FEF704FA0020FEF701FA5220FEF7FEF9C2
:1025B8000020FEF7FBF96420FEF7F8F90020FEF78B
:1025C800F5F97A20FEF7F2F90020FEF7EFF98B20F3
:1025D800FEF7ECF90020FEF7E9F99920FEF7E6F995
:1025E8000020FEF7E3F9A820FEF7E0F90020FEF747
:1025F800DDF9B920FEF7DAF90020FEF7D7F9084629
:10260800FEF7D4F90020FEF7D1F9CA20FEF7CEF97B
:102618000020FEF7CBF9D220FEF7C8F90020FEF71C
:10262800C5F9D820FEF7C2F90020FEF7BFF95046D9
:10263800FEF7BCF90020FEF7B9F9F320FEF7B6F96A
:102648000020FEF7B3F9E220CBF81090CBF8108009
:10265800F860CBF810600520CBF81040CBF810508C
:10266800FEF7A4F90020FEF7A1F90B20FEF79EF96A
:102678000020FEF79BF91B20FEF798F90020FEF7D3
:1026880095F93420FEF792F90020FEF78FF94420DF
:10269800FEF78CF90020FEF789F94F20FEF786F93E
:1026A8000020FEF783F96120FEF780F90020FEF78D
:1026B8007DF97920FEF77AF90020FEF777F988206E
:1026C800FEF774F90020FEF771F99720FEF76EF90E
:1026D8000020FEF76BF9A620FEF768F90020FEF748
:1026E80065F9B720FEF762F90020FEF75FF9C2200E
:1026F800FEF75CF90020FEF759F9C720FEF756F9F6
:102708000020FEF753F9D120FEF750F90020FEF71C
:102718004DF9D620FEF74AF90020FEF747F9DD20EB
:10272800FEF744F90020FEF741F9F320FEF73EF9E1
:102738000020FEF73BF9E320CBF81090CBF810808F
:10274800F860CBF810600520CBF81040CBF810509B
:10275800FEF72CF90020FEF729F90A20FEF726F9E2
:102768000020FEF723F91C20FEF720F90020FEF7D1
:102778001DF93320FEF71AF90020FEF717F9442057
:10278800FEF714F90020FEF711F95020FEF70EF9B4
:102798000020FEF70BF96220FEF708F90020FEF78B
:1027A80005F97820FEF702F90020FEF7FFF88820E7
:1027B800FEF7FCF80020FEF7F9F89720FEF7F6F888
:1027C8000020FEF7F3F8A620FEF7F0F80020FEF749
:1027D800EDF8B720FEF7EAF80020FEF7E7F8C22088
:1027E800FEF7E4F80020FEF7E1F8C720FEF7DEF870
:1027F8000020FEF7DBF8D120FEF7D8F80020FEF71E
:10280800D5F8D520FEF7D2F80020FEF7CFF8DD2066
:10281800FEF7CCF80020FEF7C9F8F320FEF7C6F85B
:102828000020FEF7C3F8E420CBF81090CBF8108016
:10283800F860CBF810600120CBF81040CBF81050AE
:10284800FEF7B4F80020FEF7B1F80120FEF7AEF865
:102858000020FEF7ABF80220FEF7A8F80020FEF7EC
:10286800A5F82A20FEF7A2F80020FEF79FF83C20E2
:10287800FEF79CF80020FEF799F84B20FEF796F833
:102888000020FEF793F85D20FEF790F80020FEF791
:102898008DF87420FEF78AF80020FEF787F8842068
:1028A800FEF784F80020FEF781F89320FEF77EF803
:1028B8000020FEF77BF8A220FEF778F80020FEF74C
:1028C80075F8B3221046FEF771F80020FEF76EF88F
:1028D800BE20FEF76BF80020FEF768F80846FEF702
:1028E80065F80020FEF762F8CD20FEF75FF80020BB
:1028F800FEF75CF8D320FEF759F80020FEF756F8EB
:10290800DD20FEF753F80020FEF750F8F320FEF71D
:102918004DF80020FEF74AF8E522CBF81090CBF8E6
:102928001080FA60CBF81060CBF81040CBF810504C
:10293800FEF73CF8FEF73AF8FEF738F8FEF736F8F7
:102948000220FEF733F80020FEF730F82920FEF7C2
:102958002DF80020FEF72AF83C20FEF727F8002083
:10296800FEF724F84B20FEF721F80020FEF71EF8AA
:102978005D20FEF71BF80020FEF718F87420FEF71C
:1029880015F80020FEF712F88420FEF70FF8002053
:10299800FEF70CF89320FEF709F80020FEF706F87A
:1029A800A220FEF703F80020FEF700F8B320FDF799
:1029B800FDFF0020FDF7FAFFBE20FDF7F7FF00201E
:1029C800FDF7F4FF0846FDF7F1FF0020FDF7EEFFE5
:1029D800CD20FDF7EBFF0020FDF7E8FFD320FDF742
:1029E800E5FF0020FDF7E2FFDC20FDF7DFFF002018
:1029F800FDF7DCFFF320FDF7D9FF0020FDF7D6FF38
:102A0800E622CBF810901120CBF81080FA60CBF8B2
:102A18001060CBF81040CBF81050FDF7C7FF00202E
:102A2800FDF7C4FF3420FDF7C1FF0020FDF7BEFF0E
:102A38005620FDF7BBFF0020FDF7B8FF7620FDF715
:102A4800B5FF0020FDF7B2FF7720FDF7AFFF0020AC
:102A5800FDF7ACFF6620FDF7A9FF0020FDF7A6FFF4
:102A68008820FDF7A3FF0020FDF7A0FF9920FDF7C0
:102A78009DFF0020FDF79AFFBB20FDF797FF002080
:102A8800FDF794FF9920FDF791FF0020FDF78EFFD9
:102A98006620FDF78BFF0020FDF788FF5520FDF726
:102AA80085FF0020FDF782FF5520FDF77FFF0020FE
:102AB800FDF77CFF4520FDF779FF0020FDF776FF45
:102AC8004320FDF773FF0020FDF770FF4420FDF75A
:102AD8006DFF0020FDF76AFFE722CBF81090322047
:102AE800CBF81080FA60CBF81060CBF81040CBF828
:102AF8001050FDF75BFF0020FDF758FF5520FDF74C
:102B080055FF0020FDF752FF7620FDF74FFF00200C
:102B1800FDF74CFF6620FDF749FF0020FDF746FF53
:102B28006720FDF743FF0020FDF740FF6720FDF712
:102B38003DFF0020FDF73AFF8720FDF737FF002013
:102B4800FDF734FF9920FDF731FF0020FDF72EFF38
:102B5800BB20FDF72BFF0020FDF728FF9920FDF78C
:102B680025FF0020FDF722FF7720FDF71FFF00203B
:102B7800FDF71CFF4420FDF719FF0020FDF716FFA5
:102B88005620FDF713FF0020FDF710FF2320FDF767
:102B98000DFF0020FDF70AFF3320FDF707FF002097
:102BA800FDF704FF4520FDF701FF0020FDF7FEFEBD
:102BB800E822CBF81090CBF81080FA60CBF81060C0
:102BC800CBF81040CBF81050FDF7F0FEFDF7EEFE05
:102BD8009920FDF7EBFE0020FDF7E8FE8720FDF7C2
:102BE800E5FE0020FDF7E2FE8820FDF7DFFE00206D
:102BF800FDF7DCFE7720FDF7D9FE0020FDF7D6FEB5
:102C08006620FDF7D3FE0020FDF7D0FE8820FDF7F3
:102C1800CDFE0020FDF7CAFEAA20FDF7C7FE002062
:102C2800FDF7C4FEBB20FDF7C1FE0020FDF7BEFE88
:102C38009920FDF7BBFE0020FDF7B8FE6620FDF7E2
:102C4800B5FE0020FDF7B2FE5520FDF7AFFE0020CF
:102C5800FDF7ACFE5520FDF7A9FE0020FDF7A6FE06
:102C68004420FDF7A3FE0020FDF7A0FE4420FDF759
:102C78009DFE0020FDF79AFE5520FDF797FE0020E7
:102C8800FDF794FEE922CBF81090AA20CBF810802B
:102C9800FA60CBF81060CBF81040CBF81050FDF775
:102CA80085FE0020FDF782FE8246FDF77FFEFDF7D8
:102CB8007DFECBF81090CBF81080F860CBF8106050
:102CC800AA20CBF81040CBF81050FDF76FFECF22AA
:102CD8005046CBF81090CBF81080FA60CBF8106013
:102CE800CBF81040CBF81050FDF760FEFDF75EFE04
:102CF800FDF75CFEFDF75AFEFDF758FEFDF756FEA0
:102D0800FDF754FEFDF752FEFDF750FEFDF74EFEAF
:102D1800FDF74CFEFDF74AFEFDF748FEFDF746FEBF
:102D2800FDF744FEFDF742FEFDF740FEF022CBF82A
:102D38001090CBF81080FA60CBF81060CBF81040F8
:102D4800CBF81050FDF732FE5020FDF72FFE50460D
:102D5800FDF72CFEFDF72AFEFDF728FEF322CBF83F
:102D68001090CBF81080FA60CBF81060CBF81040C8
:102D7800CBF81050FDF71AFEF922CBF81090062078
:102D8800CBF81080FA60CBF81060CBF81040CBF885
:102D98001050FDF70BFE1020FDF708FE2920FDF767
:102DA80005FE5046FDF702FE3A22CBF8109055205A
:102DB800CBF81080FA60CBF81060CBF81040CBF855
:102DC8001050FDF7F3FD1122CBF810906420CBF8DA
:102DD8001080FA60CBF81060CBF81040CBF8105098
:102DE80001F02AFF2922CBF81090CBF81080FA6066
:102DF8003522CBF810605046CBF81040CBF8105075
:102E0800CBF81090CBF81080FA60CBF81060CBF8B4
:102E18001040CBF81050FDF7C9FD5122CBF81090A7
:102E2800FF20CBF81080FA60CBF81060CBF8104088
:102E3800CBF81050FDF7BAFD5322CBF810902C2098
:102E4800CBF81080FA60CBF81060CBF81040CBF8C4
:102E58001050FDF7ABFD5522CBF810908220CBF82F
:102E68001080FA60CBF81060CBF81040CBF8105007
:102E7800FDF79CFDCBF810902C22CBF810809AE13E
:102E880047F296718A4240F0A1814FF080794FF065
:102E9800007880244FF400064FF4007511224FF09B
:102EA800360AC94FCBF810907820CBF81080FA601A
:102EB800CBF81060CBF81040CBF8105001F0BCFEF6
:102EC800CBF810904820CBF81080C7F80CA0CBF8AE
:102ED8001060CBF81040CBF81050FDF767FD3A2290
:102EE800F021CBF810905520CBF81080FA60CBF881
:102EF8001060CBF81040CBF81050FDF757FDCBF819
:102F08001090C320CBF81080F960CBF81060CBF894
:102F18001040CBF81050FDF749FDCBF810909620E3
:102F2800CBF81080F960CBF81060CBF81040CBF8E4
:102F38001050FDF73BFDB422CBF810900120CBF8E0
:102F48001080FA60CBF81060CBF81040CBF8105026
:102F5800FDF72CFDB622CBF810900A20CBF8108094
:102F6800FA60CBF81060CBF81040CBF81050FDF7A2
:102F78001DFDA220FDF71AFDB722CBF81090C62040
:102F8800CBF81080FA60CBF81060CBF81040CBF883
:102F98001050FDF70BFDB922CBF810900220CBF8AA
:102FA8001080FA60CBF81060CBF81040CBF81050C6
:102FB800FDF7FCFCE020FDF7F9FCC022CBF81090EF
:102FC8002046CBF81080FA60CBF81060CBF81040A0
:102FD800CBF81050FDF7EAFC1620FDF7E7FCC122FC
:102FE800CBF810901920CBF81080FA60CBF810605D
:102FF800CBF81040CBF81050FDF7D8FCC222CBF824
:103008001090A720CBF81080FA60CBF81060CBF8AE
:103018001040CBF81050FDF7C9FCC522CBF8109032
:103028001620CBF81080FA60CBF81060CBF810406F
:10303800CBF81050FDF7BAFCE822CBF810904020EE
:10304800CBF81080FA60CBF81060CBF81040CBF8C2
:103058001050FDF7ABFC8A20FDF7A8FC0020FDF717
:10306800A5FCFDF7A3FC2920FDF7A0FC1920FDF71E
:103078009DFCA520FDF79AFC3320FDF797FCE02284
:10308800CBF810900846CBF81080FA60CBF81060A7
:10309800CBF81040CBF81050FDF788FC0720FDF75F
:1030A80085FC0D20FDF782FC0420FDF77FFC052040
:1030B800FDF77CFC1420FDF779FC5046FDF776FC03
:1030C8005420FDF773FC4C20FDF770FC3820FDF709
:1030D8006DFC1320FDF76AFC1420FDF767FC2E2019
:1030E800FDF764FC3420FDF761FCE122CBF8109079
:1030F8000846CBF81080FA60CBF81060CBF8104087
:10310800CBF81050FDF752FC1020FDF74FFC1420AF
:10311800FDF74CFC0E20FDF749FC0C20FDF746FCA2
:103128000820FDF743FC3520FDF740FC4420FDF75F
:103138003DFC4C20FDF73AFC2620FDF737FC10201B
:10314800FDF734FC1220FDF731FC2C20FDF72EFC96
:103158003220FDF72BFCCBF810903C20CBF81080E8
:10316800F960CBF81060CBF81040CBF81050FDF7A1
:103178001DFCCBF810906920CBF81080F960CBF8D3
:103188001060CBF81040CBF81050FDF70FFC7820FA
:1031980001F052FD2122CBF81090CBF81080FA6094
:1031A8002922CBF81060CBF81040CBF81050CBF8A0
:1031B8001090CBF81080FA60CBF81060CBF8104074
:1031C800CBF81050FEF790BB000C014045F21051AF
:1031D8008A4240F07D8755214FF47040FDF7FCFB93
:1031E800AA214FF20100FDF7F7FB52214FF202002E
:1031F800FDF7F2FB08214FF20300FDF7EDFB01217B
:103208004FF20400FDF7E8FB0D214FF43040FDF7C5
:10321800E3FB4BF20100FDF7DFFB4BF20200FDF789
:10322800DBFB34214FF43640FDF7D6FB4BF201604F
:10323800FDF7D2FB4BF20260FDF7CEFB0D214FF4F8
:103248003140FDF7C9FB4BF20110FDF7C5FB4BF20E
:103258000210FDF7C1FB34214FF43740FDF7BCFBEA
:103268004BF20170FDF7B8FB4BF20270FDF7B4FBAF
:1032780000214FF43240FDF7AFFB4BF20120FDF780
:10328800ABFB4BF20220FDF7A7FB24214FF438409B
:10329800FDF7A2FB4BF60100FDF79EFB4BF6020083
:1032A800FDF79AFB01214FF43F40FDF795FB0F21F5
:1032B8004FF43340FDF790FB4BF20130FDF78CFBE8
:1032C8004BF20230FDF788FB34214FF43940FDF70B
:1032D80083FB4BF60110FDF77FFB4BF60210FDF761
:1032E8007BFB08214FF43540FDF776FB4BF201508C
:1032F800FDF772FB4BF20250FDF76EFB03214FF412
:103308004240FDF769FB24214FF43A40FDF764FB86
:103318004BF60120FDF760FB4BF60220FDF75CFB46
:1033280000214FF43C40FDF757FB78214BF6014054
:10333800FDF752FB00214BF60240FDF74DFB4FF421
:103348003D40FDF749FB78214BF60150FDF744FB62
:1033580000214BF60250FDF73FFB4FF43E40FDF7CE
:103368003BFB64214BF60160FDF736FB00214FF46F
:103378005140FDF731FB33214DF20110FDF72CFBD5
:1033880000214DF20210FDF727FB34214DF2031006
:10339800FDF722FB00214DF20410FDF71DFB3A2139
:1033A8004DF20510FDF718FB00214DF20610FDF750
:1033B80013FB4A214DF20710FDF70EFB00214DF2D9
:1033C8000810FDF709FB5C214DF20910FDF704FB1D
:1033D80000214DF20A10FDF7FFFA81214DF20B1082
:1033E800FDF7FAFA00214DF20C10FDF7F5FAA621C7
:1033F8004DF20D10FDF7F0FA00214DF20E10FDF719
:10340800EBFAE5214DF20F10FDF7E6FA01214DF236
:103418001010FDF7E1FA13214DF21110FDF7DCFA57
:1034280001214DF21210FDF7D7FA54214DF2131075
:10343800FDF7D2FA01214DF21410FDF7CDFA8221E1
:103448004DF21510FDF7C8FA01214DF21610FDF7DF
:10345800C3FACA214DF21710FDF7BEFA02214DF248
:103468001810FDF7B9FA00214DF21910FDF7B4FA5A
:1034780002214DF21A10FDF7AFFA01214DF21B108F
:10348800FDF7AAFA02214DF21C10FDF7A5FA342126
:103498004DF21D10FDF7A0FA02214DF21E10FDF7A6
:1034A8009BFA67214DF21F10FDF796FA02214DF2A3
:1034B8002010FDF791FA84214DF22110FDF78CFAC6
:1034C80002214DF22210FDF787FAA4214DF22310B4
:1034D800FDF782FA02214DF22410FDF77DFAB7219B
:1034E8004DF22510FDF778FA02214DF22610FDF76E
:1034F80073FACF214DF22710FDF76EFA02214DF233
:103508002810FDF769FADE214DF22910FDF764FA5B
:1035180002214DF22A10FDF75FFAF2214DF22B102D
:10352800FDF75AFA02214DF22C10FDF755FAFE214B
:103538004DF22D10FDF750FA03214DF22E10FDF734
:103548004BFA10214DF22F10FDF746FA03214DF2E8
:103558003010FDF741FA33214DF23110FDF73CFAF6
:1035680003214DF23210FDF737FA6D214DF2331079
:10357800FDF732FA00214FF45240FDF72DFA3321BE
:103588004DF20120FDF728FA00214DF20220FDF747
:1035980023FA34214DF20320FDF71EFA00214DF2E3
:1035A8000420FDF719FA3A214DF20520FDF714FA27
:1035B80000214DF20620FDF70FFA4A214DF20720AF
:1035C800FDF70AFA00214DF20820FDF705FA5C2103
:1035D8004DF20920FDF700FA00214DF20A20FDF70F
:1035E800FBF981214DF20B20FDF7F6F900214DF290
:1035F8000C20FDF7F1F9A6214DF20D20FDF7ECF9AD
:1036080000214DF20E20FDF7E7F9E5214DF20F20DC
:10361800FDF7E2F901214DF21020FDF7DDF9132144
:103628004DF21120FDF7D8F901214DF21220FDF7D6
:10363800D3F954214DF21320FDF7CEF901214DF2B3
:103648001420FDF7C9F982214DF21520FDF7C4F9C0
:1036580001214DF21620FDF7BFF9CA214DF21720BE
:10366800FDF7BAF902214DF21820FDF7B5F900214E
:103678004DF21920FDF7B0F902214DF21A20FDF79D
:10368800ABF901214DF21B20FDF7A6F902214DF2FD
:103698001C20FDF7A1F934214DF21D20FDF79CF9FE
:1036A80002214DF21E20FDF797F967214DF21F20E8
:1036B800FDF792F902214DF22020FDF78DF98421C2
:1036C8004DF22120FDF788F902214DF22220FDF765
:1036D80083F9A4214DF22320FDF77EF902214DF252
:1036E8002420FDF779F9B7214DF22520FDF774F96B
:1036F80002214DF22620FDF76FF9CF214DF2272048
:10370800FDF76AF902214DF22820FDF765F9DE215F
:103718004DF22920FDF760F902214DF22A20FDF72C
:103728005BF9F2214DF22B20FDF756F902214DF2FB
:103738002C20FDF751F9FE214DF22D20FDF74CF913
:1037480003214DF22E20FDF747F910214DF22F20CD
:10375800FDF742F903214DF23020FDF73DF9332101
:103768004DF23120FDF738F903214DF23220FDF7F3
:1037780033F96D214DF23320FDF72EF900214FF476
:103788005340FDF729F933214DF20130FDF724F9B3
:1037980000214DF20230FDF71FF934214DF20330BC
:1037A800FDF71AF900214DF20430FDF715F93A2119
:1037B8004DF20530FDF710F900214DF20630FDF706
:1037C8000BF94A214DF20730FDF706F900214DF2B9
:1037D8000830FDF701F95C214DF20930FDF7FCF8DE
:1037E80000214DF20A30FDF7F7F881214DF20B3038
:1037F800FDF7F2F800214DF20C30FDF7EDF8A621A7
:103808004DF20D30FDF7E8F800214DF20E30FDF7CE
:10381800E3F8E5214DF20F30FDF7DEF801214DF216
:103828001030FDF7D9F813214DF21130FDF7D4F817
:1038380001214DF21230FDF7CFF854214DF213302B
:10384800FDF7CAF801214DF21430FDF7C5F88221C1
:103858004DF21530FDF7C0F801214DF21630FDF795
:10386800BBF8CA214DF21730FDF7B6F802214DF228
:103878001830FDF7B1F800214DF21930FDF7ACF81A
:1038880002214DF21A30FDF7A7F801214DF21B3045
:10389800FDF7A2F802214DF21C30FDF79DF8342106
:1038A8004DF21D30FDF798F802214DF21E30FDF75C
:1038B80093F867214DF21F30FDF78EF802214DF283
:1038C8002030FDF789F884214DF22130FDF784F886
:1038D80002214DF22230FDF77FF8A4214DF223306A
:1038E800FDF77AF802214DF22430FDF775F8B7217B
:1038F8004DF22530FDF770F802214DF22630FDF724
:103908006BF8CF214DF22730FDF766F802214DF212
:103918002830FDF761F8DE214DF22930FDF75CF81B
:1039280002214DF22A30FDF757F8F2214DF22B30E3
:10393800FDF752F802214DF22C30FDF74DF8FE212B
:103948004DF22D30FDF748F803214DF22E30FDF7EA
:1039580043F810214DF22F30FDF73EF803214DF2C8
:103968003030FDF739F833214DF23130FDF734F8B6
:1039780003214DF23230FDF72FF86D214DF233302F
:10398800FDF72AF800214FF45440FDF725F83321BC
:103998004DF20140FDF720F800214DF20240FDF7FD
:1039A8001BF834214DF20340FDF716F800214DF2C3
:1039B8000440FDF711F83A214DF20540FDF70CF8E7
:1039C80000214DF20640FDF707F84A214DF2074065
:1039D800FDF702F800214DF20840FCF7FDFF5C21DD
:1039E8004DF20940FCF7F8FF00214DF20A40FCF7C0
:1039F800F3FF81214DF20B40FCF7EEFF00214DF261
:103A08000C40FCF7E9FFA6214DF20D40FCF7E4FF5E
:103A180000214DF20E40FCF7DFFFE5214DF20F408B
:103A2800FCF7DAFF01214DF21040FCF7D5FF132116
:103A38004DF21140FCF7D0FF01214DF21240FCF786
:103A4800CBFF54214DF21340FCF7C6FF01214DF284
:103A58001440FCF7C1FF82214DF21540FCF7BCFF72
:103A680001214DF21640FCF7B7FFCA214DF217406D
:103A7800FCF7B2FF02214DF21840FCF7ADFF002120
:103A88004DF21940FCF7A8FF02214DF21A40FCF74D
:103A9800A3FF01214DF21B40FCF79EFF02214DF2CE
:103AA8001C40FCF799FF34214DF21D40FCF794FFB0
:103AB80002214DF21E40FCF78FFF67214DF21F4097
:103AC800FCF78AFF02214DF22040FCF785FF842194
:103AD8004DF22140FCF780FF02214DF22240FCF715
:103AE8007BFFA4214DF22340FCF776FF02214DF223
:103AF8002440FCF771FFB7214DF22540FCF76CFF1D
:103B080002214DF22640FCF767FFCF214DF22740F6
:103B1800FCF762FF02214DF22840FCF75DFFDE2131
:103B28004DF22940FCF758FF02214DF22A40FCF7DC
:103B380053FFF2214DF22B40FCF74EFF02214DF2CC
:103B48002C40FCF749FFFE214DF22D40FCF744FFC5
:103B580003214DF22E40FCF73FFF10214DF22F407C
:103B6800FCF73AFF03214DF23040FCF735FF3321D3
:103B78004DF23140FCF730FF03214DF23240FCF7A3
:103B88002BFF6D214DF23340FCF726FF00214FF447
:103B98005540FCF721FF33214DF20150FCF71CFF83
:103BA80000214DF20250FCF717FF34214DF203506B
:103BB800FCF712FF00214DF20450FCF70DFF3A21EB
:103BC8004DF20550FCF708FF00214DF20650FCF7B6
:103BD80003FF4A214DF20750FCF7FEFE00214DF28B
:103BE8000850FCF7F9FE5C214DF20950FCF7F4FE91
:103BF80000214DF20A50FCF7EFFE81214DF20B50E7
:103C0800FCF7EAFE00214DF20C50FCF7E5FEA62178
:103C18004DF20D50FCF7E0FE00214DF20E50FCF77E
:103C2800DBFEE5214DF20F50FCF7D6FE01214DF2E7
:103C38001050FCF7D1FE13214DF21150FCF7CCFEC9
:103C480001214DF21250FCF7C7FE54214DF21350DA
:103C5800FCF7C2FE01214DF21450FCF7BDFE822193
:103C68004DF21550FCF7B8FE01214DF21650FCF745
:103C7800B3FECA214DF21750FCF7AEFE02214DF2F9
:103C88001850FCF7A9FE00214DF21950FCF7A4FECC
:103C980002214DF21A50FCF79FFE01214DF21B50F4
:103CA800FCF79AFE02214DF21C50FCF795FE3421D8
:103CB8004DF21D50FCF790FE02214DF21E50FCF70C
:103CC8008BFE67214DF21F50FCF786FE02214DF254
:103CD8002050FCF781FE84214DF22150FCF77CFE38
:103CE80002214DF22250FCF777FEA4214DF2235019
:103CF800FCF772FE02214DF22450FCF76DFEB7214D
:103D08004DF22550FCF768FE02214DF22650FCF7D3
:103D180063FECF214DF22750FCF75EFE02214DF2E3
:103D28002850FCF759FEDE214DF22950FCF754FECD
:103D380002214DF22A50FCF74FFEF2214DF22B5092
:103D4800FCF74AFE02214DF22C50FCF745FEFE21FD
:103D58004DF22D50FCF740FE03214DF22E50FCF79A
:103D68003BFE10214DF22F50FCF736FE03214DF299
:103D78003050FCF731FE33214DF23150FCF72CFE68
:103D880003214DF23250FCF727FE6D214DF23350DE
:103D9800FCF722FE00214FF45640FCF71DFE3321AC
:103DA8004DF20160FCF718FE00214DF20260FCF7AD
:103DB80013FE34214DF20360FCF70EFE00214DF294
:103DC8000460FCF709FE3A214DF20560FCF704FE99
:103DD80000214DF20660FCF7FFFD4A214DF2076015
:103DE800FCF7FAFD00214DF20860FCF7F5FD5C21B7
:103DF8004DF20960FCF7F0FD00214DF20A60FCF776
:103E0800EBFD81214DF20B60FCF7E6FD00214DF240
:103E18000C60FCF7E1FDA6214DF20D60FCF7DCFD1E
:103E280000214DF20E60FCF7D7FDE5214DF20F6041
:103E3800FCF7D2FD01214DF21060FCF7CDFD1321F6
:103E48004DF21160FCF7C8FD01214DF21260FCF73C
:103E5800C3FD54214DF21360FCF7BEFD01214DF264
:103E68001460FCF7B9FD82214DF21560FCF7B4FD32
:103E780001214DF21660FCF7AFFDCA214DF2176023
:103E8800FCF7AAFD02214DF21860FCF7A5FD002100
:103E98004DF21960FCF7A0FD02214DF21A60FCF703
:103EA8009BFD01214DF21B60FCF796FD02214DF2AE
:103EB8001C60FCF791FD34214DF21D60FCF78CFD70
:103EC80002214DF21E60FCF787FD67214DF21F604D
:103ED800FCF782FD02214DF22060FCF77DFD842174
:103EE8004DF22160FCF778FD02214DF22260FCF7CB
:103EF80073FDA4214DF22360FCF76EFD02214DF203
:103F08002460FCF769FDB7214DF22560FCF764FDDC
:103F180002214DF22660FCF75FFDCF214DF22760AC
:103F2800FCF75AFD02214DF22860FCF755FDDE2111
:103F38004DF22960FCF750FD02214DF22A60FCF792
:103F48004BFDF2214DF22B60FCF746FD02214DF2AC
:103F58002C60FCF741FDFE214DF22D60FCF73CFD85
:103F680003214DF22E60FCF737FD10214DF22F6032
:103F7800FCF732FD03214DF23060FCF72DFD3321B3
:103F88004DF23160FCF728FD03214DF23260FCF759
:103F980023FD6D214DF23360FCF71EFD55214FF4D2
:103FA8007040FCF719FDAA214FF20100FCF714FD3F
:103FB80052214FF20200FCF70FFD08214FF20300D7
:103FC800FCF70AFD00214FF20400FCF705FDCC21A7
:103FD8004FF43140FCF700FD00214BF20110FCF7D3
:103FE800FBFC05214FF43640FCF7F6FC70214FF43A
:103FF8003740FCF7F1FC4BF20170FCF7EDFC0121B6
:104008004FF43840FCF7E8FC03214BF60100FCF7BD
:10401800E3FC4BF60200FCF7DFFC4BF60300FCF771
:10402800DBFC02214FF43C40FCF7D6FC00214BF6A8
:104038000140FCF7D1FC4BF60240FCF7CDFCD02147
:104048004FF44940FCF7C8FC02214CF60110FCF77C
:10405800C3FC50214CF60210FCF7BEFC4CF60310D2
:10406800FCF7BAFC4CF60410FCF7B6FC00214FF440
:104078005450FCF7B1FC55214FF46850FCF7ACFCE8
:104088004FF000754FF080764FF488520F4CCBF804
:1040980010604FF40000CBF810508021E2604FF41C
:1040A8000072CBF81000CBF81010CBF81020CBF82A
:1040B8001060CBF810504FF42455E560CBF8100091
:1040C800CBF81010CBF81020FDF70EBC000C014007
:1040D80049F606018A4240F0648280244FF08079D4
:1040E8004FF000784FF400064FF40075FF21F54FAC
:1040F800CBF810900846CBF81080F960CBF8106028
:10410800CBF81040CBF81050FCF750FC9820FCF787
:104118004DFC0620FCF74AFCBC22CBF8109001208D
:10412800CBF81080FA60CBF81060CBF81040CBF8D1
:104138001050FCF73BFC0F20FCF738FC6120FCF723
:1041480035FC0846FCF732FC0120FCF72FFCFCF795
:104158002DFC0B20FCF72AFC1020FCF727FC37204D
:10416800FCF724FC6320FCF721FC0846FCF71EFC46
:10417800FCF71CFC0120FCF719FCFCF717FC0020DD
:10418800FCF714FCFCF712FC0846FCF70FFC522065
:10419800FCF70CFC0120FCF709FC0020FCF706FCEE
:1041A8004020FCF703FCBD22CBF810900120CBF88F
:1041B8001080FA60CBF81060CBF81040CBF81050A4
:1041C800FCF7F4FB2320FCF7F1FB4520FCF7EEFBA2
:1041D8006720FCF7EBFB0120FCF7E8FB2320FCF74A
:1041E800E5FB4520FCF7E2FB6720FCF7DFFBBE227E
:1041F800CBF810900020CBF81080FA60CBF8106054
:10420800CBF81040CBF81050FCF7D0FB0120FCF79E
:10421800CDFBAB20FCF7CAFB6020FCF7C7FB2220D4
:10422800FCF7C4FBFCF7C2FBFCF7C0FBFCF7BEFBCA
:10423800FCF7BCFBC722CBF810903620CBF81080D7
:10424800FA60CBF81060CBF81040CBF81050FCF7B0
:10425800ADFBED22CBF810907F20CBF81080FA60F0
:10426800CBF81060CBF81040CBF81050FCF79EFB51
:104278000F20FCF79BFBC022CBF81090CBF81080E6
:10428800FA60CBF81060CBF81040CBF81050FCF770
:104298008DFB0B20FCF78AFB0A20FCF787FBFC222E
:1042A800DF21CBF810900820CBF81080FA60CBF80B
:1042B8001060CBF81040CBF81050FCF777FBCBF828
:1042C80010900020CBF81080F960CBF81060CBF884
:1042D8001040CBF81050FCF769FBFCF767FBFCF7C4
:1042E80065FBFCF763FBFCF761FB2020FCF75EFB3A
:1042F800F322CBF810907420CBF81080FA60CBF83A
:104308001060CBF81040CBF81050FCF74FFBB422EC
:10431800CBF810900020CBF81080FA60CBF8106032
:10432800CBF81040CBF81050FCF740FBFCF73EFBF5
:10433800FCF73CFBF722CBF810908220CBF81080DA
:10434800FA60CBF81060CBF81040CBF81050FCF7AF
:104358002DFBB122CBF810900020CBF81080FA602A
:10436800CBF81060CBF81040CBF81050FCF71EFBD0
:104378001320FCF71BFBFCF719FBF222CBF810907B
:104388002046CBF81080FA60CBF81060CBF81040CC
:10439800CBF81050FCF70AFB0420FCF707FB402081
:1043A800FCF704FB2820FCF701FBC122CBF8109096
:1043B8001720CBF81080FA60CBF81060CBF81040CB
:1043C800CBF81050FCF7F2FA8820FCF7EFFAFCF76C
:1043D800EDFA2020FCF7EAFAE022CBF81090002052
:1043E800CBF81080FA60CBF81060CBF81040CBF80F
:1043F8001050FCF7DBFA0A20FCF7D8FA1220FCF779
:10440800D5FA1020FCF7D2FA0E20FCF7CFFA2020BC
:10441800FCF7CCFACC20FCF7C9FA0720FCF7C6FA5F
:104428000620FCF7C3FA0B20FCF7C0FA0E20FCF7B5
:10443800BDFA0F20FCF7BAFA0D20FCF7B7FA1520E1
:10444800FCF7B4FA1020FCF7B1FA0020FCF7AEFA3A
:10445800E122CBF81090CBF81080FA60CBF810600E
:10446800CBF81040CBF81050FCF7A0FA0B20FCF763
:104478009DFA1320FCF79AFA0D20FCF797FA0E2004
:10448800FCF794FA1B20FCF791FA7120FCF78EFADE
:104498000620FCF78BFAFCF789FA0A20FCF786FA63
:1044A8000F20FCF783FA0E20FCF780FA0F20FCF7A8
:1044B8007DFA1520FCF77AFA0C20FCF777FA002031
:1044C80002E000BF000C0140FCF770FA2A22CBF88A
:1044D8001090CBF81080FA60CBF81060CBF8104041
:1044E800CBF81050FCF762FAFCF760FA0120FCF7F1
:1044F8005DFA0846FCF75AFA2B22CBF810900020F8
:10450800CBF81080FA60CBF81060CBF81040CBF8ED
:104518001050FCF74BFAFCF749FA0320FCF746FA6F
:104528001F20FCF743FA3A22CBF810905520CBF81D
:104538001080FA60CBF81060CBF81040CBF8105020
:10454800FCF734FA3622CBF810900020CBF8108014
:10455800FA60CBF81060CBF81040CBF81050FCF79D
:1045680025FA1122CBF810907820CBF81080FA6049
:10457800CBF81060CBF81040CBF8105000F05CFB83
:104588002922CBF810901420CBF81080FA60CBF8D1
:104598001060CBF81040CBF8105000F04DFBFEF740
:1045A80069BC41F663118A427DF49EA94FF0807977
:1045B8004FF000784FF4000680254FF40074E22293
:1045C8004FF0E00A974FCBF810901D20CBF81080E1
:1045D800FA60CBF81060CBF81050CBF81040FCF71D
:1045E800E5F90220FCF7E2F90420FCF7DFF9CBF843
:1045F80010900120CBF81080C7F80CA0CBF8106001
:10460800CBF81050CBF81040FCF7D0F90A2000F096
:1046180013FBCBF81090CBF81080C7F80CA04FF024
:10462800010ACBF810600320CBF81050CBF81040EB
:10463800FCF7BCF90C2000F0FFFACBF810900A2028
:10464800CBF81080C7F80CA0CBF81060CBF810504E
:10465800CBF8104000F0F0FAE622CBF810902F20AB
:10466800CBF81080FA60CBF81060CBF81050CBF87C
:104678001040FCF79BF9FF20FCF798F9FCF796F936
:10468800B022CBF810902020CBF81080FA60CBF83D
:104698001060CBF81050CBF81040FCF787F90020D9
:1046A800FCF784F90320FCF781F940F21F30FCF78E
:1046B8007DF95046FCF77AF940F2DF10FCF776F9FD
:1046C8000020FCF773F9B422CBF810900420CBF843
:1046D8001080FA60CBF81060CBF81050CBF810407F
:1046E800FCF764F940F21F40FCF760F90020FCF782
:1046F8005DF92E20FCF75AF90020FCF757F9FCF772
:1047080055F9FCF753F9FCF751F9B622CBF810909C
:104718000220CBF81080FA60CBF81060CBF810506C
:10472800CBF81040FCF742F94FF40370FCF73EF960
:104738000020FCF73BF91720FCF738F91520FCF7A7
:1047480035F90020FCF732F9FCF730F9F022CBF804
:1047580010900320CBF81080FA60CBF81060CBF8EB
:104768001050CBF81040FCF721F92922CBF8109013
:10477800CBF81080FA60D022CBF810600020CBF87C
:104788001050CBF81040CBF81090CBF81080FA609E
:10479800CBF81060CBF81050CBF81040FCF706F9B6
:1047A800BE22CBF810900520CBF81080FA60CBF829
:1047B8001060CBF81050CBF81040FCF7F7F8FE204B
:1047C800FCF7F4F85046FCF7F1F80020FCF7EEF897
:1047D800FCF7ECF8FCF7EAF8B822CBF810900320C5
:1047E800CBF81080FA60CBF81060CBF81050CBF8FB
:1047F8001040FCF7DBF85046FCF7D8F8BA22CBF8A3
:104808001090CBF81080FA60CBF81060CBF81050FD
:10481800CBF81040FCF7CAF86420FCF731FCFDF730
:1048280063B800BF000C01402DE9F04F1D4615F09C
:10483800070618BF012685B09DF8383006EBD50667
:104848000293BDF83C30A2F1200403936B085E4349
:10485800182D83460F46F6B2E4B242D006D80C2D86
:104868000AD0102D39D005B0BDE8F08F202DFAD12F
:10487800234B03EB841402E0224B05FB0434BA46B5
:10488800A319DFF884900193019B9C42EBD00AF1B5
:10489800080814F8016B1FFA88F8330626D5039A1E
:1048A80051465846FCF7C4FBB9F802200AF1010149
:1048B8001FFA81FA73005245DEB2D4D9AAEB070277
:1048C800954219D1B9F800300BF101001FFA80FBAD
:1048D8005B45C8D9B846C246D6E70C4B03EB04146F
:1048E800CDE724220A4B02FB0434C8E7029B002BC5
:1048F800DAD1084B1A68D3E7C245CED1EBE700BF3F
:1049080064540008707F00082C000020807900089B
:10491800246C0008000000202DE9F04F1E460446D4
:104928004FF0000B85B09DF838300F9F02440E44BD
:10493800BDF8409095B2B6B24FEA5308013F5FFA0E
:1049480080FA17F8012FA2F120005E2802D905B0DD
:10495800BDE8F08FAC4222BFC91889B25446B142B3
:10496800F5D22046CDE900B94444CDE90213A4B2FA
:10497800FFF75AFFDDE90213E3E710B590B0142200
:10498800002108A800F032FD1422002101A800F03F
:104998002DFD02244FF480330122CDE90D43CDE9EA
:1049A80006234FF4E01306A80A920F9300F0C0FA0A
:1049B80008B172B6FEE70F23CDE901344FF48063E6
:1049C8000390CDE90430214601A800F073FC08B13A
:1049D80072B6FEE710B010BD08B500F009F9FFF790
:1049E800CCFFFCF767FCFBF721FFFEE7104B07B590
:1049F8009A69052042F001029A619A6902F001025F
:104A08000092009ADA6942F08052DA61DB6903F0B9
:104A180080530193019B00F021F9064A536823F063
:104A2800E06343F00073536003B05DF804FB00BF1C
:104A38000010024000000140FEE7FEE7FEE7FEE747
:104A4800FEE770477047704700F0E4B8012000F0B7
:104A580063BA202000F060BA4FF4004000F05CBA5E
:104A68001FB50446642000F0E7F8202C24D0B4F5E4
:104A7800004F45D0012C5FD14FF6FF70FCF7E8FBE3
:104A88004FF6FF722D4B28211A604FF4784302939A
:104A98002B4BC822019318231E200093FFF73CFFDD
:104AA8002146284800F024FA012845D14FF48071A6
:104AB800244800F028FA3CE04FF6FF70FCF7C8FBEA
:104AC8004FF6FF721D4B28211A604FF4784302936A
:104AD8001D4B1E2001931823C8220093FFF71CFFCB
:104AE80021461A4800F004FA30BB4FF4807100F1F7
:104AF800804000F5843004B0BDE8104000F003BAEF
:104B08004FF6FF70FCF7A4FB4FF6FF720B4B282102
:104B18001A604FF4784302930D4B1E20019318231B
:104B2800C8220093FFF7F8FE2146064800F0E0F996
:104B380010B904210748DEE704B010BD00000020CA
:104B48000484000800080140E483000800100140C4
:104B5800F48300080014014070470000FFF7FCFFD1
:104B68000B480C490C4A002302E0D458C4500433C3
:104B7800C4188C42F9D3094A094C002301E0136098
:104B88000432A242FBD300F039FCFFF725FF70473F
:104B980000000020100000204484000810000020BD
:104BA80040000020FEE7000038B50E4B05461A7895
:104BB8004FF47A73B3FBF2F30B4A1068B0FBF3F0CF
:104BC80000F09CF8044658B90F2D09D8024629462A
:104BD8004FF0FF3000F054F82046044B1D6038BDFC
:104BE8000120FCE708000020040000200C00002041
:104BF800074A08B51368032043F01003136000F058
:104C08002DF80020FFF7D0FFFFF7F0FE002008BDC9
:104C180000200240034A044B11681B780B441360C0
:104C2800704700BF3C00002008000020014B1868B6
:104C3800704700BF3C00002038B50446FFF7F6FF78
:104C48000546631C1EBF044B1B78E418FFF7EEFFF4
:104C5800431BA342FAD338BD0800002007490302CA
:104C6800CA6803F4E06322F4E0621204120C1343EE
:104C780043F0BF6343F40033CB60704700ED00E0BE
:104C8800154B30B5DC68C4F30224C4F10703251DB5
:104C9800042B28BF0423062D4FF0FF3594BF0024B2
:104CA800033C05FA03F321EA0303A54022EA0502BF
:104CB800A340002843EA0203ACBF00F16040074A62
:104CC8004FEA0313DBB2ABBF00F5614000F00F0001
:104CD80080F80033135430BD00ED00E014ED00E01F
:104CE800002807DB01234109034A00F01F00834025
:104CF80042F82130704700BF00E100E00138B0F110
:104D0800807F0BD24FF0E023F021054A586182F8EA
:104D180023100020072298611A617047012070470C
:104D280000ED00E02DE9F74F00242646DFF8A4C186
:104D3800694BDFF8A8E1DFF8A8810A6832FA06F5BE
:104D480002D103B0BDE8F08F0127B74002EA07059A
:104D580037EA020240F083804A68032A07D8013AFA
:104D6800022A00F28C80DFE802F09BA0A600122A3B
:104D780000F09E8075D8112A00F09480FF2D98BF0E
:104D880081464FF00F0B88BF00F104094FEA8602F5
:104D9800D9F8007088BF203A0BFA02FA27EA0A0706
:104DA80004FA02F21743C9F80070D1F8049019F018
:104DB800805F54D0DCF8182026F0030742F0010287
:104DC800CCF81820DCF8182007F1804702F001021F
:104DD800019207F5803706F0030A019A4FEA8A0A1A
:104DE800BA680BFA0AFB22EA0B0B3E4A904266D0DD
:104DF80002F58062904264D002F58062904262D0EF
:104E080002F58062904260D002F5806290425ED0E6
:104E180002F58062904214BF0622052202FA0AF2C5
:104E280042EA0B02BA609A6819F4801F14BF2A4339
:104E3800AA439A60DA6819F4001F14BF2A43AA43E8
:104E4800DA605A6819F4003F14BF2A43AA435A602B
:104E58001A6819F4803F14BF2A43AA431A6001361E
:104E68006BE7DFF884904A4509D011D8A9F5801975
:104E78004A4504D0724502D042457FF47FAF8A6824
:104E8800DAB1012A4FF008040CBF0761476175E7E2
:104E9800DFF858904A45F2D009F580394A45ECE7E1
:104EA800CC686BE7CC68043468E7CC68083465E7FD
:104EB800CC680C3462E7002460E704245EE7002233
:104EC800ACE70122AAE70222A8E70322A6E7042208
:104ED800A4E700BF001002400004014000002110B8
:104EE80000001110000801400000221000003110DD
:104EF8008368194214BF0120002070470AB101617C
:104F080070470904FBE7C36801EA030221EA0301C9
:104F180041EA024101617047044A08B551690142FA
:104F280002D05061FFF79CFD08BD00BF000401409E
:104F38002DE9F341054638B30368DB0710D42B6825
:104F48009F075ED42B68190700F195802B685A07D4
:104F580000F1C180EB69002B40F02C81002029E092
:104F6800904C636803F00C03042B07D0636803F0CC
:104F78000C03082B0AD16368DE0307D523689C035A
:104F8800DDD56B68002BDAD1012013E06B68B3F52F
:104F9800803F12D1236843F480332360FFF746FE35
:104FA800064623689803CAD4FFF740FE801B64288E
:104FB800F7D9032002B0BDE8F0819BB9236823F438
:104FC80080332360236823F480232360FFF72EFEB9
:104FD800064623689903B2D5FFF728FE801B64288C
:104FE800F7D9E6E7B3F5A02F236803D143F480236C
:104FF8002360CFE723F480332360236823F48023DE
:10500800CBE7684C636813F00C0F07D0636803F0B4
:105018000C03082B10D16368DA030DD423689B07AF
:1050280002D52B69012BAFD123686A6923F0F803F5
:1050380043EAC203236085E72A695B4B6AB1012210
:105048001A60FFF7F3FD064623689F07ECD4FFF7C5
:10505800EDFD801B0228F7D9ABE71A60FFF7E6FDE4
:105068000646236898077FF56DAFFFF7DFFD801BC5
:105078000228F6D99DE7AA694A4E4B4BE2B10122B4
:10508800C3F88024FFF7D2FD0446736A9B070DD549
:105098004FF4FA52454B1B68B3FBF2F3019300BF80
:1050A800019B5A1E0192002BF9D14FE7FFF7BEFD75
:1050B800001B0228E9D97CE7C3F88024FFF7B6FD76
:1050C8000446736A9F077FF541AFFFF7AFFD001BEA
:1050D8000228F6D96DE7334CE369D80024D40127B8
:1050E800E36943F08053E361E36903F0805300937D
:1050F800009B2F4E3368D90518D5EB68012B26D1B4
:10510800236A43F001032362FFF790FD41F28838D8
:105118000646236A9B073FD5002F3FF41BAFE36980
:1051280023F08053E36115E70027E2E7336843F48F
:1051380080733360FFF77AFD80463368DA05DCD484
:10514800FFF774FDA0EB08006428F6D931E7ABB986
:10515800236A41F2883823F001032362236A23F08B
:1051680004032362FFF762FD0646236A9807D3D536
:10517800FFF75CFD801B4045F7D91AE7052B236A2A
:1051880003D143F004032362BAE723F00103236247
:10519800236A23F00403B6E7FFF748FD801B404568
:1051A800B7D906E700100240000042420400002080
:1051B800007000402A4C626802F00C02082A3ED0B7
:1051C8000022022B274B1A662CD1FFF72FFD06462B
:1051D8002368990120D42B6AB3F5803F05D1626812
:1051E800A96822F400320A436260696A62680B4364
:1051F80022F474121343012263601A4B1A66FFF7F4
:1052080015FD054623689A013FF5A8AEFFF70EFD88
:10521800401B0228F6D9CCE6FFF708FD801B0228C0
:10522800D6D9C6E6FFF702FD054623689B017FF540
:1052380095AEFFF7FBFC401B0228F6D9B9E6012B17
:105248003FF4A2AE60682B6A00F480329A427FF481
:105258009BAE6B6A00F47010C01A18BF0120A9E653
:1052680000100240000042420D4A536803F00C014E
:10527800082912D10B48C3F38341DB03405C09D5ED
:105288005368094AC3F340435043084AD35CB0FB10
:10529800F3F07047064B584370470348704700BF08
:1052A800001002402C84000800127A002A840008AA
:1052B80000093D002DE9F0410D46044610B90120D2
:1052C800BDE8F081444A136803F007038B4228D3F2
:1052D80021688E0730D4CA0743D43F4A136803F0C5
:1052E8000703AB4265D822683C4D12F0040F6CD11D
:1052F800130706D56B68226923F4605343EAC20397
:105308006B60FFF7B1FF6B68354AC3F30313D35CD7
:10531800D840344B1860344B1868FFF745FC002020
:10532800CEE7136823F007030B431360136803F0F9
:1053380007038B42C3D1CBE7284B11F0040F1EBFE4
:105348005A6842F4E0625A60080742BF5A6842F459
:1053580060525A605A68A06822F0F00202435A600C
:10536800B9E762681D4E012A33681AD113F4003F69
:10537800A5D0736841F2883823F0030313437360A0
:10538800FFF754FC07467368626803F00C03B3EB3D
:10539800820FA2D0FFF74AFCC01B4045F3D9032077
:1053A8008EE7022A02D113F0007FE1E713F0020F23
:1053B800DEE7136823F007032B431360136803F039
:1053C8000703AB427FF47BAF8DE76B68E16823F49A
:1053D800E0630B436B608BE7002002400010024043
:1053E8001A840008040000200C0000200346024430
:1053F800934200D1704703F8011BF9E770B5002606
:105408000C4D0D4C641BA410A64209D100F01AF8EB
:1054180000260A4D0A4C641BA410A64205D170BD93
:1054280055F8043B98470136EEE755F8043B984792
:105438000136F2E73C8400083C8400083C840008FC
:1054480040840008F8B500BFF8BC08BC9E46704709
:0C545800F8B500BFF8BC08BC9E467047C9
:105464000000000000000000000000000000000038
:105474000000000000000000000000000000000028
:105484000000000000000000000000000000000018
:105494000000000000000000000000000000000008
:1054A40000000000000000000000000000000000F8
:1054B400000000000000000007F000C007FFE1E06A
:1054C40007F001E0000000C0000000000000000040
:1054D40000000000000000000000000000000000C8
:1054E40000000000000000000020000001C00000D7
:1054F400078000001F0000001E0000001C200000A8
:1055040001C00000078000001F0000001E00000012
:105514001C0000000000000000000000000000006B
:105524000000000000180C0000180C0000180FE028
:10553400001FFC0003F80C0000180C0000180C00FD
:1055440000180C0000180C0000180FE0001FFC00ED
:1055540003F80C0000180C0000180C0000000000F8
:10556400000000000000000000000780007807C071
:1055740000FC0640010E00200307002002038020E7
:105584000FFFFFFC0201C0200200E0600130704008
:1055940001F03F8000F01F00000000000000000048
:1055A40000FE000001FF0000030180000200806093
:1055B400030181C001FF070000FE18000000E000A5
:1055C4000003BF00000CFFC00071806001C1002017
:1055D400030180600000FFC000003F0000000000E5
:1055E40000001F0000007FC000FCC0C001FF8060FD
:1055F4000303E0200202782002061E2003FC074079
:1056040001F00380000103C000011C600001E020E0
:1056140000010020000100400000018000000000A3
:1056240000000000002000001C6000001C4000007E
:105634001F8000000F0000000000000000000000B8
:105644000000000000000000000000000000000056
:105654000000000000000000000000000000000046
:105664000000000000000000000000000000000036
:105674000000000000000000000000000007F80027
:10568400003FFF00007807C001C000E003000030C5
:1056940004000008080000041000000200000000DC
:1056A40000000000100000020800000404000008CC
:1056B4000300003001C000E0007807C0003FFF0095
:1056C4000007F800000000000000000000000000D7
:1056D40000000000000000000000000000000000C6
:1056E4000000000000000000000C1800000E38004C
:1056F400000E3800000630000003600000614380A3
:1057040000FFFF80006143000003600000063000DA
:10571400000E3800000E3800000C180000000000D5
:105724000000000000000000000080000000800075
:105734000000800000008000000080000000800065
:10574400007FFF0000008000000080000000800057
:1057540000008000000080000000800000000000C5
:105764000000000000000001000000E3000000E26F
:10577400000000FC000000780000000000000000B1
:105784000000000000000000000000000000000015
:105794000000000000000000000000000000000005
:1057A4000000000000008000000080000000800075
:1057B40000008000000080000000800000008000E5
:1057C40000008000000080000000800000008000D5
:1057D4000000800000008000000080000000000045
:1057E4000000000000000000000000C0000001E014
:1057F400000001E0000000C0000000000000000004
:105804000000000000000000000000000000000094
:105814000000000000000000000000000000000084
:10582400000000000000000C00000038000000E050
:105834000000038000000E00000038000000E000BB
:1058440000038000000E00000038000000E00000AB
:10585400038000000E00000018000000000000009B
:105864000000000000000000000FF800007FFF00AF
:1058740000F00780018000C00300006002000020E7
:10588400020000200200002003000060018000C02C
:1058940000E00380007FFF00000FF800000000001C
:1058A4000000000000000000000000000080002054
:1058B40000800020008000200080006001FFFFE0E5
:1058C40003FFFFE000000060000000200000002053
:1058D40000000020000000000000000000000000A4
:1058E4000000000000000000007800E00098016063
:1058F40001000260020004600200086002001060FF
:1059040002002060020040600300806001830060A8
:1059140001FE00E0007C07800000000000000000A1
:10592400000000000000000000F0078001F007C044
:1059340001000040020000200201002002010020BA
:1059440002010020030380200186804001FCC0C0C6
:1059540000787F8000001E000000000000000000AE
:1059640000000000000008000000380000004800AB
:105974000001880000060800000C08100030081020
:105984000040081001FFFFF003FFFFF003FFFFF0EA
:1059940000000810000008100000081000000000BB
:1059A400000000000000000000000780001F864087
:1059B40003E100200302002003040020030400206C
:1059C400030400200304002003060040030301C075
:1059D4000301FF8003007E000000000000000000BF
:1059E40000000000000000000007FC00003FFF0072
:1059F4000070C380008180C00101006003020020A8
:105A040002020020020200200202002002030040E1
:105A140001C180C000C0FF8000007E0000000000C3
:105A2400000000000000000000F0000003C00000BF
:105A34000380000003000000030007E003003FE0D0
:105A44000301C00003060000031800000360000007
:105A540003800000030000000000000000000000BC
:105A64000000000000001F0000783F8000FC60C0C0
:105A7400018EC04003078020020300200201802021
:105A8400020180200201C0200301E040018670C0B1
:105A940000FC3F8000781F000000000000000000B0
:105AA40000000000003F000000FF81C001C0C1C031
:105AB400010060200200202002002020020020209B
:105AC40002002060020040C00100C18000C18F00BC
