:020000040800F2
:1000000000C00020B5700008F56E0008FD6E000805
:10001000056F00080D6F0008156F00080000000054
:100020000000000000000000000000001D6F00083C
:10003000296F000800000000356F0008416F0008BC
:10004000FD700008FD700008FD700008FD700008DC
:10005000FD700008FD7000084D6F0008FD7000087D
:10006000FD700008FD700008FD700008FD700008BC
:10007000FD700008FD700008FD700008FD700008AC
:10008000FD700008FD700008FD700008FD7000089C
:10009000FD700008FD700008FD7000085B6F00082F
:1000A000FD700008FD700008FD700008FD7000087C
:1000B000FD700008FD700008FD700008FD7000086C
:1000C000FD700008FD700008FD700008FD7000085C
:1000D000FD700008FD700008FD700008FD7000084C
:1000E000696F0008FD700008FD700008FD700008D1
:1000F000FD700008FD700008FD700008FD7000082C
:10010000FD700008FD700008FD700008FD7000081B
:10011000FD700008FD700008FD700008FD7000080B
:10012000FD700008FD700008FD700008FD700008FB
:1001300000000000000000000000000000000000BF
:1001400000000000000000000000000000000000AF
:10015000000000000000000000000000000000009F
:10016000000000000000000000000000000000008F
:10017000000000000000000000000000000000007F
:10018000000000000000000000000000000000006F
:10019000000000000000000000000000000000005F
:1001A000000000000000000000000000000000004F
:1001B000000000000000000000000000000000003F
:1001C000000000000000000000000000000000002F
:1001D000000000000000000000000000000000001F
:0401E0005FF8E0F1F3
:1001E80010B5054C237833B9044B13B10448AFF369
:1001F80000800123237010BD1000002000000000C3
:100208002480000808B5034B1BB103490348AFF32A
:10021800008008BD000000001400002024800008B1
:1002280070B54FF0FF0C4CF4E06C1CEA11541DBF84
:100238001CEA135594EA0C0F95EA0C0F00F0DEF84F
:100248002C4481EA030621EA4C5123EA4C5350EA34
:10025800013518BF52EA033541F4801143F4801385
:1002680038D0A0FB02CE4FF00005E1FB02E506F016
:100278000042E0FB03E54FF00006E1FB03569CF06B
:10028800000F18BF4EF0010EA4F1FF04B6F5007F71
:1002980064F5407404D25FEA4E0E6D4146EB0606E3
:1002A80042EAC62141EA55514FEAC52040EA5E506C
:1002B8004FEACE2EB4F1FD0C88BFBCF5E06F1ED816
:1002C800BEF1004F08BF5FEA500E50F1000041EB4D
:1002D800045170BD06F0004646EA010140EA0200FA
:1002E80081EA0301B4EB5C04C2BFD4EB0C0541EA1C
:1002F800045170BD41F480114FF0000E013C00F331
:10030800AB8014F1360FDEBF002001F0004170BD54
:10031800C4F10004203C35DA0C341BDC04F114046D
:10032800C4F1200500FA05F320FA04F001FA05F2F9
:1003380040EA020001F0004221F0004110EBD370C6
:1003480021FA04F642EB06015EEA430E08BF20EAF2
:10035800D37070BDC4F10C04C4F1200500FA04F395
:1003680020FA05F001FA04F240EA020001F0004127
:1003780010EBD37041F100015EEA430E08BF20EA9A
:10038800D37070BDC4F1200500FA05F24EEA020EE2
:1003980020FA04F301FA05F243EA020321FA04F011
:1003A80001F0004121FA04F220EA020000EBD370C8
:1003B8005EEA430E08BF20EAD37070BD94F0000FC8
:1003C8000FD101F00046400041EB010111F4801FFC
:1003D80008BF013CF7D041EA060195F0000F18BFAD
:1003E800704703F00046520043EB030313F4801FE9
:1003F80008BF013DF7D043EA0603704794EA0C0FA3
:100408000CEA135518BF95EA0C0F0CD050EA4106B8
:1004180018BF52EA4306D1D181EA030101F0004135
:100428004FF0000070BD50EA410606BF104619465D
:1004380052EA430619D094EA0C0F02D150EA013669
:1004480013D195EA0C0F05D152EA03361CBF1046AA
:1004580019460AD181EA030101F0004141F0FE4149
:1004680041F470014FF0000070BD41F0FE4141F4CD
:10047800780170BD81F0004102E000BF83F00043C5
:1004880030B54FEA41044FEA430594EA050F08BF27
:1004980090EA020F1FBF54EA000C55EA020C7FEAEB
:1004A800645C7FEA655C00F0E2804FEA5454D4EB68
:1004B8005555B8BF6D420CDD2C4480EA020281EA32
:1004C800030382EA000083EA010180EA020281EA6A
:1004D8000303362D88BF30BD11F0004F4FEA0131BC
:1004E8004FF4801C4CEA113102D0404261EB4101CB
:1004F80013F0004F4FEA03334CEA133302D0524251
:1005080063EB430394EA050F00F0A780A4F101040C
:10051800D5F1200E0DDB02FA0EFC22FA05F2801846
:1005280041F1000103FA0EF2801843FA05F359412C
:100538000EE0A5F120050EF1200E012A03FA0EFCAB
:1005480028BF4CF0020C43FA05F3C01851EBE371D5
:1005580001F0004507D54FF0000EDCF1000C7EEBF2
:1005680000006EEB0101B1F5801F1BD3B1F5001F30
:100578000CD349085FEA30004FEA3C0C04F101044F
:100588004FEA445212F5800F80F09A80BCF1004F78
:1005980008BF5FEA500C50F1000041EB045141EAFA
:1005A800050130BD5FEA4C0C404141EB0101013CC3
:1005B80028BFB1F5801FE9D291F0000F04BF0146B2
:1005C8000020B1FA81F308BF2033A3F10B03B3F184
:1005D80020020CDA0C3208DD02F1140CC2F10C0214
:1005E80001FA0CF021FA02F10CE002F11402D8BF72
:1005F800C2F1200C01FA02F120FA0CFCDCBF41EA3E
:100608000C019040E41AA2BF01EB0451294330BD0C
:100618006FEA04041F3C1CDA0C340EDC04F11404E9
:10062800C4F1200220FA04F001FA02F340EA0300C0
:1006380021FA04F345EA030130BDC4F10C04C4F106
:10064800200220FA02F001FA04F340EA03002946E6
:1006580030BD21FA04F0294630BD94F0000F83F430
:10066800801306BF81F480110134013D4EE77FEA13
:10067800645C18BF7FEA655C29D094EA050F08BF5F
:1006880090EA020F05D054EA000C04BF1946104640
:1006980030BD91EA030F1EBF0021002030BD5FEA84
:1006A800545C05D14000494128BF41F0004130BDAC
:1006B80014F580043CBF01F5801130BD01F0004500
:1006C80045F0FE4141F470014FF0000030BD7FEA73
:1006D800645C1ABF194610467FEA655C1CBF0B466E
:1006E800024650EA013406BF52EA033591EA030F85
:1006F80041F4002130BD00BF90F0000F04BF00217D
:10070800704730B54FF4806404F132044FF00005AF
:100718004FF0000150E700BF90F0000F04BF002128
:10072800704730B54FF4806404F1320410F000458E
:1007380048BF40424FF000013EE700BF42004FEA89
:10074800E2014FEA31014FEA02701FBF12F07F4306
:1007580093F07F4F81F06051704732F07F4208BFBD
:10076800704793F07F4F04BF41F40021704730B5C4
:100778004FF4607401F0004521F000411CE700BF10
:1007880050EA010208BF704730B54FF000050AE093
:1007980050EA010208BF704730B511F0004502D594
:1007A800404261EB41014FF4806404F132045FEA96
:1007B800915C3FF4D8AE4FF003025FEADC0C18BF3F
:1007C80003325FEADC0C18BF033202EBDC02C2F131
:1007D800200300FA03FC20FA02F001FA03FE40EAC3
:1007E8000E0021FA02F11444BDE600BF4A0011D2FE
:1007F80012F5001211D20DD56FF47873B3EB625273
:100808000ED44FEAC12343F0004343EA505323FA7E
:1008180002F070474FF00000704750EA013002D1F3
:100828004FF0FF3070474FF00000704780B588B038
:1008380000AF07F1100300221A605A609A60DA606C
:10084800464B9B69454A43F020039361434B9B69A0
:1008580003F02003FB60FB68404B9B693F4A43F071
:10086800040393613D4B9B6903F00403BB60BB68C1
:100878003A4B9B69394A43F010039361374B9B69A4
:1008880003F010037B607B6800224FF480713448CA
:1008980006F071FF00220421324806F06CFF0123A4
:1008A8003B61314B7B610223BB6107F110031946A1
:1008B8002B4806F0B5FD20233B612C4B7B610123BF
:1008C800BB6107F110031946294806F0A9FD4FF44A
:1008D80080733B6101237B610023BB610223FB61C1
:1008E80007F1100319461E4806F09AFD4FF400431D
:1008F8003B611E4B7B610123BB6107F11003194665
:10090800174806F08DFD04233B6101237B6100231A
:10091800BB610223FB6107F110031946114806F079
:100928007FFD00220121062006F043FD062006F087
:100938005CFD01220121172006F03BFD172006F07F
:1009480054FD02220121282006F033FD282006F05C
:100958004CFD00BF2037BD4680BD00BF00100240DF
:10096800000801400014014000001110000021108F
:100978000010014080B483B000AF0346FB800D4BEC
:100988004FF480721A610B4B4FF000721A610A4AD9
:10099800FB88D360074B4FF400021A61054B802295
:1009A8001A61044B4FF400721A6100BF0C37BD4640
:1009B80080BC704700100140000C014080B485B035
:1009C80000AF03460A46FB801346BB80FB88FB81C9
:1009D800194B4FF080721A61174B4FF000721A6171
:1009E800FB899AB2154BDA60134B4FF400021A6177
:1009F800114B80221A61104B4FF400721A6100BF2C
:100A08000D4B4FF480721A610B4B4FF000721A6154
:100A18000A4ABB88D360084B4FF400021A61064BA0
:100A280080221A61044B4FF400721A6100BF143718
:100A3800BD4680BC704700BF00100140000C01405B
:100A480080B483B000AF786000BF7B685A1E7A60BC
:100A5800002BFAD100BF00BF0C37BD4680BC7047E1
:100A680080B586B000AF4FF6FF737B600023BB6094
:100A78000123FB6003233B613B1D1946184806F020
:100A8800CFFC184B4FF480721A61164B4FF000726E
:100A98001A61144B4FF480021A610220FFF7D0FF4D
:100AA8000F4B9B689BB2FB820E4B40221A610D4B89
:100AB8004FF400721A614FF6FF737B600123BB602D
:100AC8000123FB6003233B613B1D1946044806F0E4
:100AD800A7FCFB8A9BB218461837BD4680BD00BFED
:100AE800000C01400010014080B489B000AF0346FB
:100AF8000A46FB801346BB80444B9B8841F6631231
:100B0800934240F08981414B9B79002B40F08480CF
:100B18003E4B1A88FB88D31A9BB2013BFB803B4BA8
:100B28005B89FB813A4B4FF080721A61384B4FF06A
:100B380000721A61FB899AB2364BDA60344B4FF473
:100B480000021A61324B80221A61314B4FF4007255
:100B58001A6100BF2E4B4FF480721A612C4B4FF074
:100B680000721A612B4B0022DA60294B4FF4000205
:100B78001A61274B80221A61254B4FF400721A61C3
:100B8800234B4FF480721A61214B4FF000721A61A7
:100B9800204B0022DA601E4B4FF400021A611C4BF6
:100BA80080221A611A4B4FF400721A61184B4FF4E5
:100BB80080721A61164B4FF000721A61FB881B0A8B
:100BC8009AB2144BDA60124B4FF400021A61104BC0
:100BD80080221A610E4B4FF400721A610C4B4FF4CD
:100BE80080721A610A4B4FF000721A61FB88094A39
:100BF800DBB2D360064B4FF400021A61044B80222B
:100C08001A61034B4FF400721A6181E02C00002036
:100C180000100140000C01407C4B5B893B827C4BFF
:100C28004FF080721A617A4B4FF000721A613B8A5A
:100C38009AB2784BDA60764B4FF400021A61744B23
:100C480080221A61724B4FF400721A6100BF704B18
:100C58004FF480721A616E4B4FF000721A61FB8874
:100C68001B0A9AB26B4BDA60694B4FF400021A61A7
:100C7800674B80221A61664B4FF400721A61644B0D
:100C88004FF480721A61624B4FF000721A61FB8850
:100C9800604ADBB2D3605E4B4FF400021A615C4BD2
:100CA80080221A615A4B4FF400721A61584B4FF464
:100CB80080721A61564B4FF000721A61534B1B88B1
:100CC800013B1A12534BDA60514B4FF400021A6180
:100CD8004F4B80221A614E4B4FF400721A614C4BF5
:100CE8004FF480721A614A4B4FF000721A61474BF9
:100CF8001B88013B474ADBB2D360454B4FF40002E7
:100D08001A61434B80221A61414B4FF400721A61F9
:100D18003E4B9B897B823E4B4FF080721A613C4B65
:100D28004FF000721A617B8A9AB23A4BDA60384BFC
:100D38004FF400021A61364B80221A61344B4FF48B
:100D480000721A6100BF324B4FF480721A61304B47
:100D58004FF000721A61BB881B0A9AB22D4BDA60F9
:100D68002B4B4FF400021A61294B80221A61284B41
:100D78004FF400721A61264B4FF480721A61244BAB
:100D88004FF000721A61BB88224ADBB2D360204B55
:100D98004FF400021A611E4B80221A611C4B4FF45B
:100DA80000721A611A4B4FF480721A61184B4FF097
:100DB80000721A61154B5B88013B1A12154BDA60F9
:100DC800134B4FF400021A61114B80221A61104B29
:100DD8004FF400721A610E4B4FF480721A610C4B7B
:100DE8004FF000721A61094B5B88013B094ADBB27C
:100DF800D360074B4FF400021A61054B80221A6139
:100E0800034B4FF400721A6176E100BF2C000020FA
:100E180000100140000C01406A4B9B8845F21052BB
:100E2800934240F0D580674B5B897B83664B4FF0DC
:100E380080721A61644B4FF000721A617B8B9AB210
:100E4800624BDA60604B4FF400021A615E4B8022FD
:100E58001A615D4B4FF400721A6100BF5A4B4FF490
:100E680080721A61584B4FF000721A61FB881B0A96
:100E78009AB2564BDA60544B4FF400021A61524B47
:100E880080221A61504B4FF400721A614D4B5B89F6
:100E980001339BB23B834C4B4FF080721A614A4B33
:100EA8004FF000721A613B8B9AB2484BDA60464B9E
:100EB8004FF400021A61444B80221A61424B4FF4EE
:100EC80000721A6100BF404B4FF480721A613E4BAA
:100ED8004FF000721A61FB883C4ADBB2D3603A4B90
:100EE8004FF400021A61384B80221A61364B4FF4D6
:100EF80000721A61334B9B89FB82334B4FF080722F
:100F08001A61314B4FF000721A61FB8A9AB22F4B6B
:100F1800DA602D4B4FF400021A612B4B80221A61C4
:100F2800294B4FF400721A6100BF274B4FF48072AF
:100F38001A61254B4FF000721A61BB881B0A9AB2DE
:100F4800224BDA60204B4FF400021A611E4B8022BC
:100F58001A611D4B4FF400721A611A4B9B890133B9
:100F68009BB2BB82184B4FF080721A61164B4FF040
:100F780000721A61BB8A9AB2144BDA60124B4FF4B2
:100F880000021A61104B80221A610F4B4FF4007255
:100F98001A6100BF0C4B4FF480721A610A4B4FF074
:100FA80000721A61BB88094ADBB2D360064B4FF462
:100FB80000021A61044B80221A61034B4FF400723D
:100FC8001A6199E02C00002000100140000C01403B
:100FD8004C4B5B89FB834C4B4FF080721A614A4B38
:100FE8004FF000721A61FB8B9AB2484BDA60464B9D
:100FF8004FF400021A61444B80221A61424B4FF4AD
:1010080000721A6100BF404B4FF480721A613E4B68
:101018004FF000721A61FB881B0A9AB23B4BDA60E8
:10102800394B4FF400021A61374B80221A61364B54
:101038004FF400721A61344B4FF480721A61324BCC
:101048004FF000721A61FB88304ADBB2D3602E4B36
:101058004FF400021A612C4B80221A612A4B4FF47C
:1010680000721A61274B9B89BB83274B4FF0807214
:101078001A61254B4FF000721A61BB8B9AB2234B51
:10108800DA60214B4FF400021A611F4B80221A616B
:101098001D4B4FF400721A6100BF1B4B4FF4807256
:1010A8001A61194B4FF000721A61BB881B0A9AB279
:1010B800164BDA60144B4FF400021A61124B80226F
:1010C8001A61114B4FF400721A610F4B4FF4807282
:1010D8001A610D4B4FF000721A61BB880B4ADBB2E4
:1010E800D360094B4FF400021A61074B80221A6142
:1010F800054B4FF400721A6100BF2437BD4680BC0F
:10110800704700BF2C00002000100140000C014077
:1011180080B58AB000AF0346FB710023FB8400232F
:10112800BB845F4B9B79012B05D15D4B9B8841F6B6
:101138006312934209D15A4B9B79002B34D1584BF7
:101148009B8841F6631293422ED1FB79072B2BD84B
:1011580001A252F823F000BF81110008871100088E
:101168008D11000893110008991100089F110008BB
:10117800A5110008AB1100080623FB7114E0072332
:10118800FB7111E00423FB710EE00523FB710BE0FA
:101198000123FB7108E00023FB7105E00323FB71C9
:1011A80002E00223FB7100BFFB79072B35D801A2AF
:1011B80052F823F023120008DD110008E711000897
:1011C800F1110008FB110008051200080F120008B1
:1011D80019120008FB8C43F08003FB841DE0FB8C94
:1011E80043F04003FB8418E0FB8C43F0C003FB840E
:1011F80013E0FB8C43F02003FB840EE0FB8C43F0F0
:101208006003FB8409E0FB8C43F0A003FB8404E04B
:10121800FB8C43F0E003FB8400BF3623BB84204BE8
:101228009B8845F21052934202D14FF45853BB8425
:101238001B4B9B8849F2413293420BD0184B9B8839
:1012480047F28972934205D0154B9B8847F29672F4
:10125800934203D1FB8C43F00803FB84FA8CBB8CCC
:1012680011461846FFF7AAFB0D4B9B8841F66312FF
:10127800934227D0FB8C03F02003002B12D0084B9D
:101288001A88074B5B889A421CD2054B1B887B84C3
:10129800034B5A88024B1A80014A7B8C538011E019
:1012A8002C0000209C4B1A889B4B5B889A4209D9DA
:1012B800994B1B887B84984B5A88974B1A80964A7F
:1012C8007B8C5380944B9B8845F21052934240F09C
:1012D800AF81914B5B89BB83904B4FF080721A6151
:1012E8008E4B4FF000721A61BB8B9AB28C4BDA604E
:1012F8008A4B4FF400021A61884B80221A61874B8F
:101308004FF400721A6100BF844B4FF480721A6167
:10131800824B4FF000721A61814B0022DA607F4BDA
:101328004FF400021A617D4B80221A617B4B4FF407
:1013380000721A61784B5B8901339BB27B83774BD0
:101348004FF080721A61754B4FF000721A617B8BF7
:101358009AB2734BDA60714B4FF400021A616F4B0B
:1013680080221A616D4B4FF400721A6100BF6B4BFB
:101378004FF480721A61694B4FF000721A61684B22
:101388000022DA60654B4FF400021A61634B802239
:101398001A61624B4FF400721A615F4B5B8902332A
:1013A8009BB23B835D4B4FF080721A615B4B4FF0F1
:1013B80000721A613B8B9AB2594BDA60574B4FF463
:1013C80000021A61554B80221A61544B4FF4007287
:1013D8001A6100BF514B4FF480721A614F4B4FF0A6
:1013E80000721A614C4B1B88013B1A124C4BDA6095
:1013F8004A4B4FF400021A61484B80221A61474B4E
:101408004FF400721A61444B5B8903339BB2FB8231
:10141800424B4FF080721A61404B4FF000721A61D4
:10142800FB8A9AB23E4BDA603C4B4FF400021A61D9
:101438003A4B80221A61394B4FF400721A6100BF8F
:10144800364B4FF480721A61344B4FF000721A61B8
:10145800314B1B88013B324ADBB2D3602F4B4FF430
:1014680000021A612D4B80221A612C4B4FF4007236
:101478001A61294B9B89BB82284B4FF080721A61F5
:10148800264B4FF000721A61BB8A9AB2244BDA607D
:10149800224B4FF400021A61204B80221A611F4B25
:1014A8004FF400721A6100BF1C4B4FF480721A612E
:1014B8001A4B4FF000721A61194B0022DA60174B71
:1014C8004FF400021A61154B80221A61134B4FF436
:1014D80000721A61104B9B8901339BB27B820F4BC0
:1014E8004FF080721A610D4B4FF000721A617B8ABF
:1014F8009AB20B4BDA60094B4FF400021A61074BA2
:1015080080221A61054B4FF400721A6100BF034B29
:101518004FF480721A6105E02C0000200010014091
:10152800000C01403F4B4FF000721A613E4B002205
:10153800DA603C4B4FF400021A613A4B80221A6180
:10154800384B4FF400721A61384B9B8902339BB2B7
:101558003B82344B4FF080721A61324B4FF000726D
:101568001A613B8A9AB2304BDA602E4B4FF4000274
:101578001A612C4B80221A612A4B4FF400721A61AF
:1015880000BF284B4FF480721A61264B4FF000724F
:101598001A61264B5B88013B1A12234BDA60214BF8
:1015A8004FF400021A611F4B80221A611D4B4FF441
:1015B80000721A611D4B9B8903339BB2FB81194B47
:1015C8004FF080721A61174B4FF000721A61FB8955
:1015D8009AB2154BDA60134B4FF400021A61114BA3
:1015E80080221A610F4B4FF400721A6100BF0D4B35
:1015F8004FF480721A610B4B4FF000721A610B4B5B
:101608005B88013B084ADBB2D360064B4FF400020B
:101618001A61044B80221A61024B4FF400721A615E
:10162800F8E000BF00100140000C01402C00002031
:101638007A4B5B893B847A4B4FF080721A61784B06
:101648004FF000721A613B8C9AB2764BDA60744B99
:101658004FF400021A61724B80221A61704B4FF4EA
:1016680000721A6100BF6E4B4FF480721A616C4BA6
:101678004FF000721A616B4B0022DA60684B4FF42E
:1016880000021A61664B80221A61654B4FF40072A2
:101698001A61634B4FF480721A61614B4FF000720C
:1016A8001A61604B0022DA605D4B4FF400021A6148
:1016B8005B4B80221A615A4B4FF400721A61584BE7
:1016C8004FF480721A61564B4FF000721A61534BF7
:1016D8001B88013B1A12534BDA60514B4FF400023E
:1016E8001A614F4B80221A614D4B4FF400721A61F8
:1016F8004B4B4FF480721A61494B4FF000721A61DC
:10170800464B1B88013B474ADBB2D360444B4FF43E
:1017180000021A61424B80221A61414B4FF4007259
:101728001A613E4B9B89FB833D4B4FF080721A61D7
:101738003B4B4FF000721A61FB8B9AB2394BDA605F
:10174800374B4FF400021A61354B80221A61344B33
:101758004FF400721A6100BF314B4FF480721A6166
:101768002F4B4FF000721A612E4B0022DA602C4B7F
:101778004FF400021A612A4B80221A61284B4FF459
:1017880000721A61264B4FF480721A61244B4FF095
:1017980000721A61234B0022DA60214B4FF40002D9
:1017A8001A611F4B80221A611D4B4FF400721A6197
:1017B8001B4B4FF480721A61194B4FF000721A617B
:1017C800164B5B88013B1A12164BDA60144B4FF428
:1017D80000021A61124B80221A61114B4FF40072F9
:1017E8001A610F4B4FF480721A610D4B4FF0007263
:1017F8001A610A4B5B88013B0A4ADBB2D360084B8B
:101808004FF400021A61064B80221A61044B4FF410
:1018180000721A6100BF2837BD4680BD2C00002029
:1018280000100140000C014080B584B000AF0346B1
:101838003A60FB800B46BB80BA88FB881146184685
:10184800FFF752F91A4B1B89FB811A4B4FF0807234
:101858001A61184B4FF000721A61FB899AB2164B45
:10186800DA60144B4FF400021A61124B80221A619D
:10187800104B4FF400721A6100BF00BF0D4B4FF4BC
:1018880080721A610B4B4FF000721A610A4A3B686A
:10189800D360084B4FF400021A61064B80221A618C
:1018A800044B4FF400721A6100BF1037BD4680BD6B
:1018B8002C00002000100140000C01400000000036
:1018C80090B585B000AF0346FB71BE23FB815A4B30
:1018D8004FF080721A61584B4FF000721A61FB8901
:1018E8009AB2564BDA60544B4FF400021A61524BCD
:1018F80080221A61504B4FF400721A6100BF4E4BA0
:101908004FF480721A614C4B4FF000721A614B4BC6
:101918000522DA60484B4FF400021A61464B8022D8
:101928001A61454B4FF400721A61434B4FF48072B1
:101938001A61414B4FF000721A61FB791846FEF7A5
:10194800EBFE3BA3D3E90023FEF76AFC02460B46F5
:101958003A4C10461946FEF749FF0346E360364BFA
:101968004FF400021A61344B80221A61324B4FF453
:1019780000721A61304B4FF480721A612E4B4FF08F
:1019880000721A612D4B0122DA602B4B4FF40002D2
:101998001A61294B80221A61274B4FF400721A6191
:1019A800254B4FF480721A61234B4FF000721A6175
:1019B800224BFF22DA60204B4FF400021A611E4BC3
:1019C80080221A611C4B4FF400721A611A4B4FF4B3
:1019D80080721A61184B4FF000721A61174B00227F
:1019E800DA60154B4FF400021A61134B80221A611A
:1019F800114B4FF400721A610F4B4FF480721A6149
:101A08000D4B4FF000721A610C4B0022DA600A4B42
:101A18004FF400021A61084B80221A61064B4FF4FA
:101A280000721A6100BF1437BD4690BDAFF3008045
:101A3800666666666666044000100140000C014058
:101A480080B582B000AF0346FB71684AFB79937199
:101A5800FB79002B65D1654BF0221A80634B4FF45C
:101A6800A0725A80614B9B8845F21052934214D160
:101A78005E4B4FF430521A815C4B4FF428525A8116
:101A88005A4B4FF42C529A81584B4FF4F0721A80EB
:101A9800564B4FF448725A8020E0544B9B8841F6CD
:101AA8006312934211D1514B2C221A814F4B2B2296
:101AB8005A814E4B2A229A814C4B4FF4F0721A806D
:101AC8004A4B4FF448725A8008E0484B2C221A813E
:101AD800464B2A225A81454B2B229A81434B9B889D
:101AE80045F21032934205D0404B9B8847F29672DC
:101AF800934207D13D4B4FF4A0721A803B4B4FF4F1
:101B0800F0725A80394B9B8849F60602934265D198
:101B1800364B4FF4F0721A80344B4FF448725A80A7
:101B28005CE0324B4FF4A0721A80304BF0225A809E
:101B38002E4B9B8845F21052934214D12B4B4FF4F5
:101B480030521A81294B4FF428525A81274B4FF4AF
:101B58002C529A81254B4FF448721A80234B4FF42C
:101B6800F0725A8026E0214B9B8841F6631293421B
:101B780005D01E4B9B8849F60602934211D11B4B98
:101B88002C221A81194B2A225A81184B2B229A810E
:101B9800164B4FF448721A80144B4FF4F0725A8067
:101BA80008E0124B2C221A81104B2A225A810F4B23
:101BB8002B229A810D4B9B8845F21032934205D017
:101BC8000A4B9B8847F29672934207D1074B4FF412
:101BD800F0721A80054B4FF4A0725A800020FFF76C
:101BE80097FA00BF0837BD4680BD00BF2C00002013
:101BF80080B5DAB000AFBE4B9B69BD4A43F0100315
:101C08009361BB4B9B6903F0100207F5B473A3F50E
:101C1800A8731A6007F5B473A3F5A8731B68B44BCF
:101C28009B69B34A43F010039361B14B9B6903F07E
:101C3800100207F5B473A3F5AA731A6007F5B47315
:101C4800A3F5AA731B68AA4B9B69A94A43F0100322
:101C58009361A74B9B6903F0100207F5B473A3F5D2
:101C6800AC731A6007F5B473A3F5AC731B68A04B8B
:101C78009B699F4A43F0100393619D4B9B6903F056
:101C8800100207F5B473A3F5AE731A6007F5B473C1
:101C9800A3F5AE731B68964B9B69954A43F01003F6
:101CA8009361934B9B6903F0100207F5B473A3F596
:101CB800B0731A6007F5B473A3F5B0731B688C4B47
:101CC8009B698B4A43F008039361894B9B6903F036
:101CD800080207F5B473A3F5B2731A6007F5B47375
:101CE800A3F5B2731B68824B9B69814A43F00103D9
:101CF80093617F4B9B6903F0010207F5B473A3F569
:101D0800B4731A6007F5B473A3F5B4731B68794B01
:101D18005B68C7F86431D7F8643123F0E063C7F82B
:101D28006431D7F8643143F00073C7F86431714AFD
:101D3800D7F8643153604FF48063C7F854310123F6
:101D4800C7F858310123C7F85C310323C7F860315D
:101D580007F5AA731946684805F062FB4FF400734B
:101D6800C7F854310123C7F858310123C7F85C314B
:101D78000323C7F8603107F5AA7319465E4805F0D2
:101D88004FFB8023C7F8543107F5AA7319465A4800
:101D980005F046FB4023C7F8543107F5AA731946E6
:101DA800554805F03DFB4FF48073C7F8543107F5EB
:101DB800AA731946504805F033FB4FF6FF73C7F86E
:101DC80054310123C7F8583107F5AA7319464B480F
:101DD80005F026FB484B80221A61474B40221A61C6
:101DE800454B4FF400721A61434B4FF480721A61ED
:101DF800424B4FF6FF72DA604148FEF721FE07F5C5
:101E0800B473A3F5A673D3221A803B4B4FF08072AC
:101E18001A61394B4FF000721A6107F5B473A3F5D4
:101E2800A6731B889AB2354BDA60334B4FF4000225
:101E38001A61314B80221A612F4B4FF400721A61DC
:101E480000BFFEF70DFE03461A462E4B9A80FEF79A
:101E580007FE03461A462B4B9A80FEF701FE0346FF
:101E68001A46284B9A80274B9B881B029AB2254B0F
:101E78009A80FEF7F5FD03461A46224B9B881343CA
:101E88009AB2204B9A801F4B9B8849F24132934269
:101E980000F00E8207F5B473A3F5A57304221A8027
:101EA800154B4FF080721A61134B4FF000721A6194
:101EB80007F5B473A3F5A5731B889AB20F4BDA60C4
:101EC8000D4B4FF400021A610B4B80221A610A4B2A
:101ED8004FF400721A6100BFFEF7C2FD03461A46AE
:101EE800084B9A80FEF7BCFD03461A460CE000BF7B
:101EF800001002400000014000100140000C0140A9
:101F0800FFFF01002C000020B14B9A80FEF7A8FDCE
:101F180003461A46AE4B9A80AD4B9B881B029AB279
:101F2800AB4B9A80FEF79CFD03461A46A84B9B884C
:101F380013439AB2A64B9A80A54B9B8848F25252FB
:101F4800934203D1A24B47F289729A80A04B9B8897
:101F580047F28972934200F0AB8107F5B473A3F599
:101F6800A473D4221A809B4B4FF080721A61994B4C
:101F78004FF000721A6107F5B473A3F5A4731B88B8
:101F88009AB2954BDA60934B4FF400021A61914B69
:101F980080221A618F4B4FF400721A6100BFFEF75E
:101FA8005FFD03461A468A4B9A80FEF759FD0346A1
:101FB8001A46874B9A80FEF753FD03461A46844B10
:101FC8009A80834B9B881B029AB2814B9A80FEF7BA
:101FD80047FD03461A467E4B9B8813439AB27C4BB7
:101FE8009A807B4B9B8845F21032934200F06081C7
:101FF80007F5B473A3F5A373D3221A80754B4FF07A
:1020080080721A61734B4FF000721A6107F5B4734E
:10201800A3F5A3731B889AB26F4BDA606D4B4FF42C
:1020280000021A616B4B80221A616A4B4FF40072EE
:102038001A6100BFFEF714FD03461A46644B9A80E6
:10204800FEF70EFD03461A46614B9A80FEF708FD1F
:1020580003461A465E4B9A805D4B9B881B029AB2D8
:102068005B4B9A80FEF7FCFC03461A46584B9B884C
:1020780013439AB2564B9A80554B9B8847F29672F7
:10208800934200F0158155214FF47040FEF796FCFD
:10209800AA214FF20100FEF791FC52214FF20200F3
:1020A800FEF78CFC08214FF20300FEF787FC0121A4
:1020B8004FF20400FEF782FC07F5B473A3F5A17391
:1020C8004FF445421A80434B4FF080721A61414BDE
:1020D8004FF000721A6107F5B473A3F5A1731B885A
:1020E8009AB23D4BDA603B4B4FF400021A61394B10
:1020F80080221A61374B4FF400721A6100BFFEF755
:10210800AFFC03461A46324B9A80314B9B881B0220
:102118009AB22F4B9A8007F5B473A3F5A2734CF2C9
:1021280001521A802B4B4FF080721A61294B4FF0E5
:1021380000721A6107F5B473A3F5A2731B889AB2EB
:10214800254BDA60234B4FF400021A61214B8022A1
:102158001A61204B4FF400721A6100BFFEF780FC31
:1021680003461A461A4B9B8813439AB2184B9A8017
:10217800174B9B8845F21052934200F0998007F55F
:10218800B473A3F5A073D3221A80124B4FF0807258
:102198001A61104B4FF000721A6107F5B473A3F57A
:1021A800A0731B889AB20C4BDA600A4B4FF40002FA
:1021B8001A61084B80221A61064B4FF400721A61AB
:1021C80000BFFEF74DFC03461A46014B9A8005E016
:1021D8002C00002000100140000C0140FEF740FCDC
:1021E80003461A46B24B9A80FEF73AFC03461A4653
:1021F800AF4B9A80AE4B9B881B029AB2AC4B9A802D
:10220800FEF72EFC03461A46A94B9B8813439AB245
:10221800A74B9A80A64B9B8849F60602934247D063
:1022280007F5B473A3F59F73A1221A80A14B4FF051
:1022380080721A619F4B4FF000721A6107F5B473F0
:10224800A3F59F731B889AB29B4BDA60994B4FF4A6
:1022580000021A61974B80221A61964B4FF4007264
:102268001A6100BFFEF7FCFB03461A46904B9A80A2
:10227800FEF7F6FB03461A468D4B9A808C4B9B88DB
:102288001B029AB28A4B9A80FEF7EAFB03461A466B
:10229800874B9B8813439AB2854B9A80844B9B88C3
:1022A80045F26172934203D1814B41F663129A80E1
:1022B8007F4B9B8847F28972934240F0F38207F57F
:1022C800B473A3F58E7311221A807A4B4FF0807283
:1022D8001A61784B4FF000721A6107F5B473A3F5D1
:1022E8008E731B889AB2744BDA60724B4FF40002FB
:1022F8001A61704B80221A616E4B4FF400721A619A
:1023080000BF782004F05AFF07F5B473A3F58F7364
:1023180036221A80674B4FF080721A61654B4FF076
:1023280000721A6107F5B473A3F58F731B889AB20C
:10233800614BDA605F4B4FF400021A615D4B8022FB
:102348001A615C4B4FF400721A6100BF0020FEF75F
:1023580011FB07F5B473A3F590733A221A80554B15
:102368004FF080721A61534B4FF000721A6107F5F3
:10237800B473A3F590731B889AB24F4BDA604D4B38
:102388004FF400021A614B4B80221A61494B4FF4FB
:1023980000721A6100BF0520FEF7ECFA07F5B47366
:1023A800A3F59173B2221A80424B4FF080721A61E2
:1023B800404B4FF000721A6107F5B473A3F591739F
:1023C8001B889AB23C4BDA603A4B4FF400021A6110
:1023D800384B80221A61374B4FF400721A6100BFE4
:1023E8000C20FEF7C7FA0C20FEF7C4FA0020FEF70F
:1023F800C1FA3320FEF7BEFA3320FEF7BBFA07F521
:10240800B473A3F59273B7221A802A4B4FF08072E7
:102418001A61284B4FF000721A6107F5B473A3F5DF
:1024280092731B889AB2244BDA60224B4FF4000255
:102438001A61204B80221A611E4B4FF400721A61F8
:1024480000BF3520FEF796FA07F5B473A3F593732A
:10245800BB221A80174B4FF080721A61154B4FF050
:1024680000721A6107F5B473A3F593731B889AB2C7
:10247800114BDA600F4B4FF400021A610D4B8022AA
:102488001A610C4B4FF400721A6100BF3220FEF73C
:1024980071FA07F5B473A3F59473C0221A80054B3B
:1024A8004FF080721A61034B4FF000721A6105E019
:1024B8002C00002000100140000C014007F5B47307
:1024C800A3F594731B889AB2BF4BDA60BF4B4FF4E5
:1024D80000021A61BD4B80221A61BC4B4FF4007296
:1024E8001A6100BF0C20FEF745FA07F5B473A3F58F
:1024F8009573C2221A80B54B4FF080721A61B34BA4
:102508004FF000721A6107F5B473A3F595731B8831
:102518009AB2AD4BDA60AD4B4FF400021A61AB4B87
:1025280080221A61A94B4FF400721A6100BF012082
:10253800FEF720FA07F5B473A3F59673C3221A8041
:10254800A24B4FF080721A61A04B4FF000721A61D3
:1025580007F5B473A3F596731B889AB29A4BDA60A1
:102568009A4B4FF400021A61984B80221A61974BDC
:102578004FF400721A6100BF1020FEF7FBF907F54F
:10258800B473A3F59773C4221A80904B4FF08072EE
:102598001A618E4B4FF000721A6107F5B473A3F5F8
:1025A80097731B889AB2884BDA60884B4FF4000205
:1025B8001A61864B80221A61844B4FF400721A61AB
:1025C80000BF2020FEF7D6F907F5B473A3F598737A
:1025D800C6221A807D4B4FF080721A617B4B4FF0F8
:1025E80000721A6107F5B473A3F598731B889AB241
:1025F800754BDA60754B4FF400021A61734B8022F9
:102608001A61724B4FF400721A6100BF0F20FEF777
:10261800B1F907F5B473A3F59973D0221A806B4BFF
:102628004FF080721A61694B4FF000721A6107F51A
:10263800B473A3F599731B889AB2634BDA60634B42
:102648004FF400021A61614B80221A615F4B4FF40C
:1026580000721A6100BFA420FEF78CF9A120FEF7D2
:1026680089F907F5B473A3F59A73E0221A80574BDA
:102678004FF080721A61554B4FF000721A6107F5DE
:10268800B473A3F59A731B889AB24F4BDA604F4B19
:102698004FF400021A614D4B80221A614B4B4FF4E4
:1026A80000721A6100BFD020FEF764F90020FEF71F
:1026B80061F90220FEF75EF90720FEF75BF90A20B0
:1026C800FEF758F92820FEF755F93220FEF752F99F
:1026D8004420FEF74FF94220FEF74CF90620FEF79A
:1026E80049F90E20FEF746F91220FEF743F91420A7
:1026F800FEF740F91720FEF73DF907F5B473A3F587
:102708009B73E1221A80314B4FF080721A612F4B74
:102718004FF000721A6107F5B473A3F59B731B8819
:102728009AB2294BDA60294B4FF400021A61274B01
:1027380080221A61254B4FF400721A6100BFD02025
:10274800FEF718F90020FEF715F90220FEF712F936
:102758000720FEF70FF90A20FEF70CF92820FEF7EC
:1027680009F93120FEF706F95420FEF703F947204E
:10277800FEF700F90E20FEF7FDF81C20FEF7FAF828
:102788001720FEF7F7F81B20FEF7F4F81E20FEF7D7
:10279800F1F807F5B473A3F59C732A221A800B4B42
:1027A8004FF080721A61094B4FF000721A6107F5F9
:1027B800B473A3F59C731B889AB2034BDA60034B7E
:1027C8004FF400021A6103E0000C014000100140C0
:1027D800324B80221A61314B4FF400721A6100BFEC
:1027E8000020FEF7C7F80020FEF7C4F80020FEF727
:1027F800C1F8EF20FEF7BEF807F5B473A3F59D7393
:102808002B221A80254B4FF080721A61234B4FF010
:1028180000721A6107F5B473A3F59D731B889AB209
:102828001F4BDA601D4B4FF400021A611B4B8022CC
:102838001A611A4B4FF400721A6100BF0020FEF7AC
:1028480099F80020FEF796F80120FEF793F83F204C
:10285800FEF790F807F5B473A3F59E7329221A8042
:102868000E4B4FF080721A610C4B4FF000721A61D8
:1028780007F5B473A3F59E731B889AB2084BDA6008
:10288800064B4FF400021A61044B80221A61034B75
:102898004FF400721A6104F0F4B800BF0010014050
:1028A800000C0140B94B9B8849F24132934240F0F9
:1028B800A183CF23A7F87830B54B4FF080721A6107
:1028C800B34B4FF000721A61B7F878309AB2B14B37
:1028D800DA60AF4B4FF400021A61AD4B80221A61E7
:1028E800AB4B4FF400721A6100BF0020FEF742F8AC
:1028F800C120FEF73FF83020FEF73CF8ED23A7F89B
:102908007630A34B4FF080721A61A14B4FF00072E2
:102918001A61B7F876309AB29E4BDA609C4B4FF446
:1029280000021A619A4B80221A61994B4FF4007287
:102938001A6100BF6420FEF71DF80320FEF71AF89D
:102948001220FEF717F88120FEF714F8E823A7F8FD
:1029580074308F4B4FF080721A618D4B4FF00072BC
:102968001A61B7F874309AB28A4BDA60884B4FF420
:1029780000021A61864B80221A61854B4FF400725F
:102988001A6100BF8520FDF7F5FF1020FDF7F2FF63
:102998007A20FDF7EFFFCB23A7F872307C4B4FF07E
:1029A80080721A617A4B4FF000721A61B7F8723070
:1029B8009AB2784BDA60764B4FF400021A61744B86
:1029C80080221A61724B4FF400721A6100BF3920DD
:1029D800FDF7D0FF2C20FDF7CDFF0020FDF7CAFF43
:1029E8003420FDF7C7FF0220FDF7C4FFF723A7F83F
:1029F8007030674B4FF080721A61654B4FF0007270
:102A08001A61B7F870309AB2624BDA60604B4FF4D3
:102A180000021A615E4B80221A615D4B4FF400720E
:102A28001A6100BF2020FDF7A5FFEA23A7F86E3042
:102A3800574B4FF080721A61554B4FF000721A6174
:102A4800B7F86E309AB2534BDA60514B4FF400022C
:102A58001A614F4B80221A614D4B4FF400721A6174
:102A680000BF0020FDF786FF0020FDF783FFC0238D
:102A7800A7F86C30464B4FF080721A61444B4FF008
:102A880000721A61B7F86C309AB2424BDA60404B68
:102A98004FF400021A613E4B80221A613C4B4FF4FE
:102AA80000721A6100BF1B20FDF764FFC123A7F85D
:102AB8006A30374B4FF080721A61354B4FF0007215
:102AC8001A61B7F86A309AB2324BDA60304B4FF479
:102AD80000021A612E4B80221A612D4B4FF40072AE
:102AE8001A6100BF0120FDF745FF07F5B473A3F590
:102AF8008073C5221A80264B4FF080721A61244BCE
:102B08004FF000721A6107F5B473A3F580731B8840
:102B18009AB2204BDA601E4B4FF400021A611C4B2C
:102B280080221A611A4B4FF400721A6100BF3020DC
:102B3800FDF720FF3020FDF71DFF07F5B473A3F55F
:102B48008173C7221A80124B4FF080721A61104BA2
:102B58004FF000721A6107F5B473A3F581731B88EF
:102B68009AB20C4BDA600A4B4FF400021A61084B18
:102B780080221A61064B4FF400721A6100BFB72019
:102B8800FDF7F8FE07F5B47306E000BF2C0000203F
:102B980000100140000C0140A3F5827336221A8010
:102BA800C14B4FF080721A61BF4B4FF000721A612F
:102BB80007F5B473A3F582731B889AB2BB4BDA602E
:102BC800B94B4FF400021A61B74B80221A61B64B19
:102BD8004FF400721A6100BF4820FDF7CBFE07F5DD
:102BE800B473A3F583733A221A80AF4B4FF0807207
:102BF8001A61AD4B4FF000721A6107F5B473A3F573
:102C080083731B889AB2A94BDA60A74B4FF4000272
:102C18001A61A54B80221A61A34B4FF400721A6106
:102C280000BF5520FDF7A6FE07F5B473A3F584731E
:102C3800B1221A809C4B4FF080721A619A4B4FF068
:102C480000721A6107F5B473A3F584731B889AB2EE
:102C5800964BDA60944B4FF400021A61924B802233
:102C68001A61914B4FF400721A6100BF0020FDF702
:102C780081FE1A20FDF77EFE07F5B473A3F5857370
:102C8800B6221A80884B4FF080721A61864B4FF03B
:102C980000721A6107F5B473A3F585731B889AB29D
:102CA800824BDA60804B4FF400021A617E4B80221F
:102CB8001A617D4B4FF400721A6100BF0A20FDF7BC
:102CC80059FEA220FDF756FE07F5B473A3F58673E7
:102CD800F2221A80744B4FF080721A61724B4FF0D7
:102CE80000721A6107F5B473A3F586731B889AB24C
:102CF8006E4BDA606C4B4FF400021A616A4B80220B
:102D08001A61694B4FF400721A6100BF0020FDF789
:102D180031FE07F5B473A3F5877326221A80624B38
:102D28004FF080721A61604B4FF000721A6107F51C
:102D3800B473A3F587731B889AB25C4BDA605A4B5D
:102D48004FF400021A61584B80221A61564B4FF417
:102D580000721A6100BF0120FDF70CFE07F5B4737D
:102D6800A3F58873E0221A804F4B4FF080721A61E6
:102D78004D4B4FF000721A6107F5B473A3F58873D1
:102D88001B889AB2494BDA60474B4FF400021A612C
:102D9800454B80221A61444B4FF400721A6100BF00
:102DA8000F20FDF7E7FD2A20FDF7E4FD2820FDF7B9
:102DB800E1FD0820FDF7DEFD0E20FDF7DBFD082014
:102DC800FDF7D8FD5420FDF7D5FDA920FDF7D2FD6C
:102DD8004320FDF7CFFD0A20FDF7CCFD0F20FDF7BE
:102DE800C9FD0020FDF7C6FD0020FDF7C3FD00204A
:102DF800FDF7C0FD0020FDF7BDFD07F5B473A3F591
:102E08008973E1221A80284B4FF080721A61264B91
:102E18004FF000721A6107F5B473A3F589731B8824
:102E28009AB2224BDA60204B4FF400021A611E4B13
:102E380080221A611C4B4FF400721A6100BF0020F7
:102E4800FDF798FD1520FDF795FD1720FDF792FD7C
:102E58000720FDF78FFD1120FDF78CFD0620FDF7FB
:102E680089FD2B20FDF786FD5620FDF783FD3C20CC
:102E7800FDF780FD0520FDF77DFD1020FDF77AFDAB
:102E88000F20FDF777FD3F20FDF774FD3F20FDF78C
:102E980071FD0F20FDF76EFD07F5B473A3F58A7376
:102EA8002B221A8004E000BF00100140000C0140F2
:102EB8004E4B4FF080721A614C4B4FF000721A6102
:102EC80007F5B473A3F58A731B889AB2484BDA6086
:102ED800464B4FF400021A61444B80221A61434B5F
:102EE8004FF400721A6100BF0020FDF743FD002077
:102EF800FDF740FD0120FDF73DFD3F20FDF73AFDC0
:102F080007F5B473A3F58B732A221A80374B4FF059
:102F180080721A61354B4FF000721A6107F5B4736D
:102F2800A3F58B731B889AB2314BDA602F4B4FF4A1
:102F380000021A612D4B80221A612C4B4FF400724B
:102F48001A6100BF0020FDF715FD0020FDF712FDF6
:102F58000020FDF70FFDEF20FDF70CFD07F5B4731A
:102F6800A3F58C7311221A80204B4FF080721A61DE
:102F78001E4B4FF000721A6107F5B473A3F58C73FA
:102F88001B889AB21A4BDA60184B4FF400021A6188
:102F9800164B80221A61154B4FF400721A6100BF5C
:102FA800782004F00BF907F5B473A3F58D73292283
:102FB8001A800E4B4FF080721A610C4B4FF0007262
:102FC8001A6107F5B473A3F58D731B889AB2084B81
:102FD800DA60064B4FF400021A61044B80221A6132
:102FE800024B4FF400721A6103F04BBD0010014010
:102FF800000C0140BE4B9B8845F21032934241F0D1
:103008006D84ED23A7F8DA30BA4B4FF080721A615D
:10301800B84B4FF000721A61B7F8DA309AB2B64B73
:10302800DA60B44B4FF400021A61B24B80221A6185
:10303800B04B4FF400721A6100BF0120FDF79AFCF3
:10304800FE20FDF797FCEE23A7F8D830A94B4FF0E8
:1030580080721A61A74B4FF000721A61B7F8D83026
:103068009AB2A54BDA60A34B4FF400021A61A14B48
:1030780080221A619F4B4FF400721A6100BFDE2054
:10308800FDF778FC2120FDF775FCF123A7F8D63071
:10309800984B4FF080721A61964B4FF000721A618C
:1030A800B7F8D6309AB2944BDA60924B4FF40002DC
:1030B8001A61904B80221A618E4B4FF400721A618C
:1030C80000BF0120FDF756FCDF23A7F8D430894B59
:1030D8004FF080721A61874B4FF000721A61B7F88F
:1030E800D4309AB2844BDA60824B4FF400021A61F2
:1030F800804B80221A617F4B4FF400721A6100BF27
:103108001020FDF737FCC423A7F8D230794B4FF0D5
:1031180080721A61774B4FF000721A61B7F8D2309B
:103128009AB2754BDA60734B4FF400021A61714B17
:1031380080221A616F4B4FF400721A6100BF8F2012
:10314800FDF718FCC623A7F8D0306A4B4FF0807201
:103158001A61684B4FF000721A61B7F8D0309AB212
:10316800654BDA60634B4FF400021A61614B8022B1
:103178001A61604B4FF400721A6100BF0020FDF71E
:10318800F9FBE220FDF7F6FBE220FDF7F3FBE22076
:10319800FDF7F0FBBF23A7F8CE30564B4FF08072F7
:1031A8001A61544B4FF000721A61B7F8CE309AB2D8
:1031B800514BDA604F4B4FF400021A614D4B80229D
:1031C8001A614C4B4FF400721A6100BFAA20FDF738
:1031D800D1FBB023A7F8CC30464B4FF080721A6170
:1031E800444B4FF000721A61B7F8CC309AB2424B98
:1031F800DA60404B4FF400021A613E4B80221A619C
:103208003C4B4FF400721A6100BF0D20FDF7B2FB72
:103218000020FDF7AFFB0D20FDF7ACFB0020FDF70C
:10322800A9FB1120FDF7A6FB0020FDF7A3FB192041
:10323800FDF7A0FB0020FDF79DFB2120FDF79AFB81
:103248000020FDF797FB2D20FDF794FB0020FDF7EC
:1032580091FB3D20FDF78EFB0020FDF78BFB5D20E9
:10326800FDF788FB0020FDF785FB5D20FDF782FB5D
:103278000020FDF77FFBB123A7F8CA301D4B4FF0A4
:1032880080721A611B4B4FF000721A61B7F8CA308E
:103298009AB2194BDA60174B4FF400021A61154BBA
:1032A80080221A61134B4FF400721A6100BF80200C
:1032B800FDF760FB0020FDF75DFB8B20FDF75AFB57
:1032C8000020FDF757FB9620FDF754FB0020FDF783
:1032D80051FBB223A7F8C830064B4FF080721A6131
:1032E800044B4FF000721A61B7F8C8309AB205E083
:1032F8002C00002000100140000C0140D04BDA6087
:10330800D04B4FF400021A61CE4B80221A61CD4B8C
:103318004FF400721A6100BF0020FDF72BFB00205C
:10332800FDF728FB0220FDF725FB0020FDF722FB17
:103338000320FDF71FFB0020FDF71CFBB323A7F8B4
:10334800C630C04B4FF080721A61BE4B4FF000720E
:103358001A61B7F8C6309AB2B94BDA60B94B4FF474
:1033680000021A61B74B80221A61B64B4FF4007203
:103378001A6100BF0020FDF7FDFA0020FDF7FAFAF8
:103388000020FDF7F7FA0020FDF7F4FA0020FDF71A
:10339800F1FA0020FDF7EEFA0020FDF7EBFA002025
:1033A800FDF7E8FA0020FDF7E5FA0020FDF7E2FA5C
:1033B8000020FDF7DFFA0020FDF7DCFA0020FDF71A
:1033C800D9FA0020FDF7D6FA0020FDF7D3FA00203D
:1033D800FDF7D0FA0020FDF7CDFA0020FDF7CAFA74
:1033E8000020FDF7C7FA0020FDF7C4FA0020FDF71A
:1033F800C1FA0020FDF7BEFA0020FDF7BBFA002055
:10340800FDF7B8FAB423A7F8C4308E4B4FF080729A
:103418001A618C4B4FF000721A61B7F8C4309AB237
:10342800874BDA60874B4FF400021A61854B802284
:103438001A61844B4FF400721A6100BF8B20FDF7AC
:1034480099FA0020FDF796FA9620FDF793FA0020E6
:10345800FDF790FAA120FDF78DFA0020FDF78AFA12
:10346800B523A7F8C230774B4FF080721A61754BBD
:103478004FF000721A61B7F8C2309AB2704BDA6036
:10348800704B4FF400021A616E4B80221A616D4B2B
:103498004FF400721A6100BF0220FDF76BFA00209A
:1034A800FDF768FA0320FDF765FA0020FDF762FAD8
:1034B8000420FDF75FFA0020FDF75CFAB623A7F8B1
:1034C800C030604B4FF080721A615E4B4FF0007253
:1034D8001A61B7F8C0309AB2594BDA60594B4FF4B9
:1034E80000021A61574B80221A61564B4FF4007242
:1034F8001A6100BF0020FDF73DFA0020FDF73AFAF7
:10350800B723A7F8BE304F4B4FF080721A614D4B6E
:103518004FF000721A61B7F8BE309AB2484BDA60C1
:10352800484B4FF400021A61464B80221A61454B02
:103538004FF400721A6100BF0020FDF71BFA00204B
:10354800FDF718FA3F20FDF715FA0020FDF712FAEB
:103558005E20FDF70FFA0020FDF70CFA6420FDF756
:1035680009FA0020FDF706FA8C20FDF703FA00207F
:10357800FDF700FAAC20FDF7FDF90020FDF7FAF998
:10358800DC20FDF7F7F90020FDF7F4F97020FDF7CE
:10359800F1F90020FDF7EEF99020FDF7EBF9002096
:1035A800FDF7E8F9EB20FDF7E5F90020FDF7E2F972
:1035B800DC20FDF7DFF90020FDF7DCF9B823A7F8D8
:1035C800BC30204B4FF080721A611E4B4FF00072D6
:1035D8001A61B7F8BC309AB2194BDA60194B4FF43C
:1035E80000021A61174B80221A61164B4FF40072C1
:1035F8001A6100BF0020FDF7BDF90020FDF7BAF9F8
:103608000020FDF7B7F90020FDF7B4F90020FDF719
:10361800B1F90020FDF7AEF90020FDF7ABF9002065
:10362800FDF7A8F9BA23A7F8BA30064B4FF0807215
:103638001A61044B4FF000721A61B7F8BA3003E010
:10364800000C0140001001409AB2D94BDA60D94B06
:103658004FF400021A61D74B80221A61D54B4FF400
:1036680000721A6100BF2420FDF784F90020FDF7DD
:1036780081F90020FDF77EF90020FDF77BF9C123D1
:10368800A7F8B830CB4B4FF080721A61C94B4FF096
:1036980000721A61B7F8B8309AB2C54BDA60C54BF8
:1036A8004FF400021A61C34B80221A61C14B4FF4D8
:1036B80000721A6100BF2020FDF75CF90020FDF7B9
:1036C80059F95420FDF756F90020FDF753F9FF206A
:1036D800FDF750F90020FDF74DF9C223A7F8B630E1
:1036E800B44B4FF080721A61B24B4FF000721A61FE
:1036F800B7F8B6309AB2AE4BDA60AE4B4FF4000270
:103708001A61AC4B80221A61AA4B4FF400721A61FD
:1037180000BF0A20FDF72EF90020FDF72BF9042041
:10372800FDF728F90020FDF725F9C323A7F8B430E1
:10373800A04B4FF080721A619E4B4FF000721A61D5
:10374800B7F8B4309AB29A4BDA609A4B4FF4000249
:103758001A61984B80221A61964B4FF400721A61D5
:1037680000BF3C20FDF706F90020FDF703F93A20D9
:10377800FDF700F90020FDF7FDF83920FDF7FAF80C
:103788000020FDF7F7F83720FDF7F4F80020FDF7E3
:10379800F1F83C20FDF7EEF80020FDF7EBF83620B5
:1037A800FDF7E8F80020FDF7E5F83220FDF7E2F82C
:1037B8000020FDF7DFF82F20FDF7DCF80020FDF7EB
:1037C800D9F82C20FDF7D6F80020FDF7D3F82920EA
:1037D800FDF7D0F80020FDF7CDF82620FDF7CAF850
:1037E8000020FDF7C7F82420FDF7C4F80020FDF7F6
:1037F800C1F82420FDF7BEF80020FDF7BBF8232010
:10380800FDF7B8F80020FDF7B5F83C20FDF7B2F851
:103818000020FDF7AFF83620FDF7ACF80020FDF7E3
:10382800A9F83220FDF7A6F80020FDF7A3F82F200D
:10383800FDF7A0F80020FDF79DF82C20FDF79AF879
:103848000020FDF797F82920FDF794F80020FDF7F0
:1038580091F82620FDF78EF80020FDF78BF824203C
:10386800FDF788F80020FDF785F82420FDF782F899
:103878000020FDF77FF82320FDF77CF80020FDF7F6
:1038880079F8C423A7F8B2304A4B4FF080721A6116
:10389800484B4FF000721A61B7F8B2309AB2444BF5
:1038A800DA60444B4FF400021A61424B80221A61DD
:1038B800404B4FF400721A6100BF6220FDF75AF8BE
:1038C8000020FDF757F80520FDF754F80020FDF714
:1038D80051F88420FDF74EF80020FDF74BF8F02052
:1038E800FDF748F80020FDF745F81820FDF742F8E5
:1038F8000020FDF73FF8A420FDF73CF80020FDF775
:1039080039F81820FDF736F80020FDF733F8502075
:10391800FDF730F80020FDF72DF80C20FDF72AF808
:103928000020FDF727F81720FDF724F80020FDF701
:1039380021F89520FDF71EF80020FDF71BF8F3206D
:10394800FDF718F80020FDF715F8E620FDF712F846
:103958000020FDF70FF8C523A7F8B030154B4FF03E
:1039680080721A61134B4FF000721A61B7F8B030C9
:103978009AB20F4BDA600F4B4FF400021A610D4BED
:1039880080221A610B4B4FF400721A6100BF32207B
:10399800FCF7F0FF0020FCF7EDFF4420FCF7EAFFFE
:1039A8000020FCF7E7FF6520FCF7E4FF002003E0B8
:1039B800000C014000100140FCF7DCFF7620FCF70A
:1039C800D9FF0020FCF7D6FF8820FCF7D3FF0020A2
:1039D800FCF7D0FFC623A7F8AE30D74B4FF0807264
:1039E8001A61D54B4FF000721A61B7F8AE309AB22F
:1039F800D24BDA60D04B4FF400021A61CE4B8022D2
:103A08001A61CD4B4FF400721A6100BF2020FCF7F9
:103A1800B1FF0020FCF7AEFF1720FCF7ABFF00203A
:103A2800FCF7A8FF0120FCF7A5FF0020FCF7A2FF88
:103A3800C723A7F8AC30C04B4FF080721A61BE4B59
:103A48004FF000721A61B7F8AC309AB2BB4BDA602B
:103A5800B94B4FF400021A61B74B80221A61B64B7A
:103A68004FF400721A6100BF0020FCF783FF0020AA
:103A7800FCF780FF0020FCF77DFF0020FCF77AFFB1
:103A8800C823A7F8AA30AC4B4FF080721A61AA4B32
:103A98004FF000721A61B7F8AA309AB2A74BDA60F1
:103AA800A54B4FF400021A61A34B80221A61A24B66
:103AB8004FF400721A6100BF0020FCF75BFF002082
:103AC800FCF758FF0020FCF755FF0020FCF752FFD9
:103AD800C923A7F8A830984B4FF080721A61964B0B
:103AE8004FF000721A61B7F8A8309AB2934BDA60B7
:103AF800914B4FF400021A618F4B80221A618E4B52
:103B08004FF400721A6100BF0020FCF733FF002059
:103B1800FCF730FF0020FCF72DFF0020FCF72AFF00
:103B28000020FCF727FF0020FCF724FF0020FCF70B
:103B380021FF0020FCF71EFF0020FCF71BFF0020E0
:103B4800FCF718FF0020FCF715FF0020FCF712FF18
:103B58000020FCF70FFF0020FCF70CFF0020FCF70B
:103B680009FF0020FCF706FFE023A7F8A630724BF8
:103B78004FF080721A61704B4FF000721A61B7F8FB
:103B8800A6309AB26D4BDA606B4B4FF400021A61A3
:103B9800694B80221A61684B4FF400721A6100BFAA
:103BA8001620FCF7E7FE0020FCF7E4FE1C20FCF7DB
:103BB800E1FE0020FCF7DEFE2120FCF7DBFE002002
:103BC800FCF7D8FE3620FCF7D5FE0020FCF7D2FE25
:103BD8004620FCF7CFFE0020FCF7CCFE5220FCF775
:103BE800C9FE0020FCF7C6FE6420FCF7C3FE0020D7
:103BF800FCF7C0FE7A20FCF7BDFE0020FCF7BAFEF9
:103C08008B20FCF7B7FE0020FCF7B4FE9920FCF7E8
:103C1800B1FE0020FCF7AEFEA820FCF7ABFE0020AA
:103C2800FCF7A8FEB920FCF7A5FE0020FCF7A2FED1
:103C3800C420FCF79FFE0020FCF79CFECA20FCF77E
:103C480099FE0020FCF796FED220FCF793FE002098
:103C5800FCF790FED920FCF78DFE0020FCF78AFEC9
:103C6800E020FCF787FE0020FCF784FEF320FCF739
:103C780081FE0020FCF77EFEE123A7F8A4302E4B3E
:103C88004FF080721A612C4B4FF000721A61B7F82E
:103C9800A4309AB2294BDA60274B4FF400021A611C
:103CA800254B80221A61244B4FF400721A6100BF21
:103CB8001620FCF75FFE0020FCF75CFE1C20FCF7DA
:103CC80059FE0020FCF756FE2220FCF753FE002088
:103CD800FCF750FE3620FCF74DFE0020FCF74AFEAC
:103CE8004520FCF747FE0020FCF744FE5220FCF775
:103CF80041FE0020FCF73EFE6420FCF73BFE00205E
:103D0800FCF738FE7A20FCF735FE0020FCF732FE7F
:103D18008B20FCF72FFE0020FCF72CFE9920FCF7E7
:103D280029FE0020FCF726FEA820FCF723FE002031
:103D3800FCF720FEB92003E000100140000C014010
:103D4800FCF718FE0020FCF715FEC420FCF712FE55
:103D58000020FCF70FFECA20FCF70CFE0020FCF741
:103D680009FED220FCF706FE0020FCF703FED8204F
:103D7800FCF700FE0020FCF7FDFDE020FCF7FAFD53
:103D88000020FCF7F7FDF320FCF7F4FD0020FCF71A
:103D9800F1FDE223A7F8A230E34B4FF080721A61DD
:103DA800E14B4FF000721A61B7F8A2309AB2DF4BBC
:103DB800DA60DD4B4FF400021A61DB4B80221A6196
:103DC800D94B4FF400721A6100BF0520FCF7D2FDF1
:103DD8000020FCF7CFFD0B20FCF7CCFD0020FCF702
:103DE800C9FD1B20FCF7C6FD0020FCF7C3FD3420ED
:103DF800FCF7C0FD0020FCF7BDFD4420FCF7BAFD30
:103E08000020FCF7B7FD4F20FCF7B4FD0020FCF7BD
:103E1800B1FD6120FCF7AEFD0020FCF7ABFD792079
:103E2800FCF7A8FD0020FCF7A5FD8820FCF7A2FD03
:103E38000020FCF79FFD9720FCF79CFD0020FCF775
:103E480099FDA620FCF796FD0020FCF793FDB7200E
:103E5800FCF790FD0020FCF78DFDC220FCF78AFDE1
:103E68000020FCF787FDC720FCF784FD0020FCF745
:103E780081FDD120FCF77EFD0020FCF77BFDD620DC
:103E8800FCF778FD0020FCF775FDDD20FCF772FDDE
:103E98000020FCF76FFDF320FCF76CFD0020FCF719
:103EA80069FDE323A7F8A0309F4B4FF080721A6199
:103EB8009D4B4FF000721A61B7F8A0309AB29B4B35
:103EC800DA60994B4FF400021A61974B80221A610D
:103ED800954B4FF400721A6100BF0520FCF74AFDAC
:103EE8000020FCF747FD0A20FCF744FD0020FCF702
:103EF80041FD1C20FCF73EFD0020FCF73BFD332074
:103F0800FCF738FD0020FCF735FD4420FCF732FDB6
:103F18000020FCF72FFD5020FCF72CFD0020FCF7BB
:103F280029FD6220FCF726FD0020FCF723FD782000
:103F3800FCF720FD0020FCF71DFD8820FCF71AFD8A
:103F48000020FCF717FD9720FCF714FD0020FCF774
:103F580011FDA620FCF70EFD0020FCF70BFDB72095
:103F6800FCF708FD0020FCF705FDC220FCF702FD68
:103F78000020FCF7FFFCC720FCF7FCFC0020FCF746
:103F8800F9FCD120FCF7F6FC0020FCF7F3FCD52067
:103F9800FCF7F0FC0020FCF7EDFCDD20FCF7EAFC68
:103FA8000020FCF7E7FCF320FCF7E4FC0020FCF71A
:103FB800E1FCE423A7F89E305B4B4FF080721A6156
:103FC800594B4FF000721A61B7F89E309AB2574BAE
:103FD800DA60554B4FF400021A61534B80221A6184
:103FE800514B4FF400721A6100BF0120FCF7C2FC6C
:103FF8000020FCF7BFFC0120FCF7BCFC0020FCF70C
:10400800B9FC0220FCF7B6FC0020FCF7B3FC2A2020
:10401800FCF7B0FC0020FCF7ADFC3C20FCF7AAFC48
:104028000020FCF7A7FC4B20FCF7A4FC0020FCF7C1
:10403800A1FC5D20FCF79EFC0020FCF79BFC742093
:10404800FCF798FC0020FCF795FC8420FCF792FC18
:104058000020FCF78FFC9320FCF78CFC0020FCF779
:1040680089FCA220FCF786FC0020FCF783FCB32027
:10407800FCF780FC0020FCF77DFCBE20FCF77AFCF6
:104088000020FCF777FCC420FCF774FC0020FCF748
:1040980071FCCD20FCF76EFC0020FCF76BFCD320F4
:1040A800FCF768FC0020FCF765FCDD20FCF762FCEF
:1040B8000020FCF75FFCF320FCF75CFC0020FCF719
:1040C80059FCE523A7F89C30174B4FF080721A6112
:1040D800154B4FF000721A61B7F89C309AB2134B27
:1040E800DA60114B4FF400021A610F4B80221A61FB
:1040F8000D4B4FF400721A6100BF0020FCF73AFC28
:104108000020FCF737FC0020FCF734FC0020FCF70B
:1041180031FC0220FCF72EFC0020FCF72BFC2920A8
:10412800FCF728FC002003E000100140000C0140CF
:10413800FCF720FC3C20FCF71DFC0020FCF71AFCD7
:104148004B20FCF717FC0020FCF714FC5D20FCF763
:1041580011FC0020FCF70EFC7420FCF70BFC00207F
:10416800FCF708FC8420FCF705FC0020FCF702FCA7
:104178009320FCF7FFFB0020FCF7FCFBA220FCF7D8
:10418800F9FB0020FCF7F6FBB320FCF7F3FB00205B
:10419800FCF7F0FBBE20FCF7EDFB0020FCF7EAFB88
:1041A800C420FCF7E7FB0020FCF7E4FBCD20FCF77C
:1041B800E1FB0020FCF7DEFBD320FCF7DBFB002053
:1041C800FCF7D8FBDC20FCF7D5FB0020FCF7D2FB82
:1041D800F320FCF7CFFB0020FCF7CCFBE623A7F885
:1041E8009A30DE4B4FF080721A61DC4B4FF0007250
:1041F8001A61B7F89A309AB2D94BDA60D74B4FF4B4
:1042080000021A61D54B80221A61D44B4FF4007218
:104218001A6100BF1120FCF7ADFB0020FCF7AAFBD8
:104228003420FCF7A7FB0020FCF7A4FB5620FCF782
:10423800A1FB0020FCF79EFB7620FCF79BFB0020EF
:10424800FCF798FB7720FCF795FB0020FCF792FB26
:104258006620FCF78FFB0020FCF78CFB8820FCF71E
:1042680089FB0020FCF786FB9920FCF783FB0020E4
:10427800FCF780FBBB20FCF77DFB0020FCF77AFBFA
:104288009920FCF777FB0020FCF774FB6620FCF70D
:1042980071FB0020FCF76EFB5520FCF76BFB002040
:1042A800FCF768FB5520FCF765FB0020FCF762FB78
:1042B8004520FCF75FFB0020FCF75CFB4320FCF784
:1042C80059FB0020FCF756FB4420FCF753FB002069
:1042D800FCF750FBE723A7F89830A04B4FF080720B
:1042E8001A619E4B4FF000721A61B7F898309AB273
:1042F8009B4BDA60994B4FF400021A61974B80226E
:104308001A61964B4FF400721A6100BF3220FCF715
:1043180031FB0020FCF72EFB5520FCF72BFB00207F
:10432800FCF728FB7620FCF725FB0020FCF722FB96
:104338006620FCF71FFB0020FCF71CFB6720FCF73E
:1043480019FB0020FCF716FB6720FCF713FB002085
:10435800FCF710FB8720FCF70DFB0020FCF70AFB9D
:104368009920FCF707FB0020FCF704FBBB20FCF7B7
:1043780001FB0020FCF7FEFA9920FCF7FBFA00206D
:10438800FCF7F8FA7720FCF7F5FA0020FCF7F2FAC8
:104398004420FCF7EFFA0020FCF7ECFA5620FCF773
:1043A800E9FA0020FCF7E6FA2320FCF7E3FA0020FC
:1043B800FCF7E0FA3320FCF7DDFA0020FCF7DAFA24
:1043C8004520FCF7D7FA0020FCF7D4FAE823A7F831
:1043D8009630624B4FF080721A61604B4FF000725A
:1043E8001A61B7F896309AB25D4BDA605B4B4FF4BE
:1043F80000021A61594B80221A61584B4FF400721F
:104408001A6100BF0020FCF7B5FA0020FCF7B2FAE9
:104418009920FCF7AFFA0020FCF7ACFA8720FCF7EC
:10442800A9FA0020FCF7A6FA8820FCF7A3FA0020D6
:10443800FCF7A0FA7720FCF79DFA0020FCF79AFA1F
:104448006620FCF797FA0020FCF794FA8820FCF71E
:1044580091FA0020FCF78EFAAA20FCF78BFA0020CC
:10446800FCF788FABB20FCF785FA0020FCF782FAF3
:104478009920FCF77FFA0020FCF77CFA6620FCF70D
:1044880079FA0020FCF776FA5520FCF773FA002039
:10449800FCF770FA5520FCF76DFA0020FCF76AFA71
:1044A8004420FCF767FA0020FCF764FA4420FCF784
:1044B80061FA0020FCF75EFA5520FCF75BFA002051
:1044C800FCF758FAE923A7F89430244B4FF0807290
:1044D8001A61224B4FF000721A61B7F894309AB201
:1044E8001F4BDA601D4B4FF400021A611B4B8022F0
:1044F8001A611A4B4FF400721A6100BFAA20FCF728
:1045080039FA0020FCF736FA0020FCF733FA0020CD
:10451800FCF730FA0023A7F89230104B4FF0807266
:104528001A610E4B4FF000721A61B7F892309AB2C6
:104538000B4BDA60094B4FF400021A61074B8022DB
:104548001A61064B4FF400721A6100BFAA20FCF7EB
:1045580011FACF23A7F8903004E000BF0010014003
:10456800000C0140BC4B4FF080721A61BA4B4FF0FF
:1045780000721A61B7F890309AB2B84BDA60B64B4D
:104588004FF400021A61B44B80221A61B24B4FF407
:1045980000721A6100BF0020FCF7ECF90020FCF75C
:1045A800E9F90020FCF7E6F90020FCF7E3F9002020
:1045B800FCF7E0F90020FCF7DDF90020FCF7DAF958
:1045C8000020FCF7D7F90020FCF7D4F90020FCF70D
:1045D800D1F90020FCF7CEF90020FCF7CBF9002038
:1045E800FCF7C8F90020FCF7C5F90020FCF7C2F970
:1045F8000020FCF7BFF90020FCF7BCF9F023A7F86E
:104608008E30954B4FF080721A61934B4FF00072C9
:104618001A61B7F88E309AB2904BDA608E4B4FF42D
:1046280000021A618C4B80221A618B4B4FF4007286
:104638001A6100BF0020FCF79DF95020FCF79AF999
:104648000020FCF797F90020FCF794F90020FCF70C
:1046580091F9F323A7F88C307F4B4FF080721A61E1
:104668007D4B4FF000721A61B7F88C309AB27B4BD1
:10467800DA60794B4FF400021A61774B80221A6195
:10468800754B4FF400721A6100BF0020FCF772F9F5
:10469800F923A7F88A30704B4FF080721A616E4B7D
:1046A8004FF000721A61B7F88A309AB26B4BDA6031
:1046B800694B4FF400021A61674B80221A61664BFE
:1046C8004FF400721A6100BF0620FCF753F910205E
:1046D800FCF750F92920FCF74DF90020FCF74AF9BE
:1046E8003A23A7F888305C4B4FF080721A615A4B16
:1046F8004FF000721A61B7F888309AB2574BDA60F7
:10470800554B4FF400021A61534B80221A61524BE9
:104718004FF400721A6100BF5520FCF72BF91123E2
:10472800A7F886304C4B4FF080721A614A4B4FF015
:1047380000721A61B7F886309AB2484BDA60464B75
:104748004FF400021A61444B80221A61424B4FF425
:1047580000721A6100BF642002F030FD2923A7F817
:1047680084303D4B4FF080721A613B4B4FF0007222
:104778001A61B7F884309AB2384BDA60364B4FF486
:1047880000021A61344B80221A61334B4FF40072D5
:104798001A6100BF3523A7F882302F4B4FF0807283
:1047A8001A612D4B4FF000721A61B7F882309AB235
:1047B8002A4BDA60284B4FF400021A61264B8022FC
:1047C8001A61254B4FF400721A6100BF0020FCF7F4
:1047D800D1F85123A7F880301F4B4FF080721A612F
:1047E8001D4B4FF000721A61B7F880309AB21B4B1C
:1047F800DA60194B4FF400021A61174B80221A61D4
:10480800154B4FF400721A6100BFFF20FCF7B2F895
:104818005323A7F87E30104B4FF080721A610E4B6D
:104828004FF000721A61B7F87E309AB20B4BDA601B
:10483800094B4FF400021A61074B80221A61064B9C
:104848004FF400721A6100BF2C20FCF793F855232F
:10485800A7F87C3004E000BF00100140000C0140C4
:104868001C4B4FF080721A611A4B4FF000721A619C
:10487800B7F87C309AB2184BDA60164B4FF4000246
:104888001A61144B80221A61124B4FF400721A619C
:1048980000BF8220FCF76EF82C23A7F87A300D4B66
:1048A8004FF080721A610B4B4FF000721A61B7F823
:1048B8007A309AB2084BDA60064B4FF400021A615C
:1048C800044B80221A61034B4FF400721A6102F004
:1048D800D8B800BF00100140000C0140B44B9B88C1
:1048E80047F29672934240F0E3821123A7F802310F
:1048F800B04B4FF080721A61AE4B4FF000721A61E4
:10490800B7F802319AB2AC4BDA60AA4B4FF4000206
:104918001A61A84B80221A61A64B4FF400721A61E3
:1049280000BF782002F04AFC3623A7F80031A14BDB
:104938004FF080721A619F4B4FF000721A61B7F8FE
:1049480000319AB29C4BDA609A4B4FF400021A611C
:10495800984B80221A61974B4FF400721A6100BF7E
:104968004820FCF707F83A23A7F8FE30914B4FF0A0
:1049780080721A618F4B4FF000721A61B7F8FE30DF
:104988009AB28D4BDA608B4B4FF400021A61894B57
:1049980080221A61874B4FF400721A6100BF5520BC
:1049A800FBF7E8FFF023A7F8FC30824B4FF080724A
:1049B8001A61804B4FF000721A61B7F8FC309AB256
:1049C8007D4BDA607B4B4FF400021A61794B8022F1
:1049D8001A61784B4FF400721A6100BFC320FBF7CD
:1049E800C9FFF023A7F8FA30724B4FF080721A61B2
:1049F800704B4FF000721A61B7F8FA309AB26E4BEA
:104A0800DA606C4B4FF400021A616A4B80221A611B
:104A1800684B4FF400721A6100BF9620FBF7AAFF9B
:104A2800B423A7F8F830634B4FF080721A61614BDA
:104A38004FF000721A61B7F8F8309AB25E4BDA603C
:104A48005C4B4FF400021A615A4B80221A61594B91
:104A58004FF400721A6100BF0120FBF78BFFB623E9
:104A6800A7F8F630534B4FF080721A61514B4FF054
:104A780000721A61B7F8F6309AB24F4BDA604D4BB4
:104A88004FF400021A614B4B80221A61494B4FF4D4
:104A980000721A6100BF0A20FBF76CFFA220FBF727
:104AA80069FFB723A7F8F430424B4FF080721A61C0
:104AB800404B4FF000721A61B7F8F4309AB23E4B8F
:104AC800DA603C4B4FF400021A613A4B80221A61BB
:104AD800384B4FF400721A6100BFC620FBF74AFF3B
:104AE800B923A7F8F230334B4FF080721A61314B7B
:104AF8004FF000721A61B7F8F2309AB22E4BDA60B2
:104B08002C4B4FF400021A612A4B80221A61294B60
:104B18004FF400721A6100BF0220FBF72BFFE02060
:104B2800FBF728FFC023A7F8F030224B4FF0807224
:104B38001A61204B4FF000721A61B7F8F0309AB240
:104B48001D4BDA601B4B4FF400021A61194B80228F
:104B58001A61184B4FF400721A6100BF8020FBF7EE
:104B680009FF1620FBF706FFC123A7F8EE30114B0B
:104B78004FF080721A610F4B4FF000721A61B7F84C
:104B8800EE309AB20C4BDA600A4B4FF400021A610D
:104B9800084B80221A61074B4FF400721A6100BF5C
:104BA8001920FBF7E7FEC223A7F8EC3006E000BFA8
:104BB8002C00002000100140000C0140BA4B4FF0BF
:104BC80080721A61B84B4FF000721A61B7F8EC3076
:104BD8009AB2B64BDA60B44B4FF400021A61B24B8A
:104BE80080221A61B04B4FF400721A6100BFA720EF
:104BF800FBF7C0FEC523A7F8EA30AB4B4FF0807235
:104C08001A61A94B4FF000721A61B7F8EA309AB2EC
:104C1800A64BDA60A44B4FF400021A61A24B802223
:104C28001A61A14B4FF400721A6100BF1620FBF7FE
:104C3800A1FEE823A7F8E8309B4B4FF080721A6179
:104C4800994B4FF000721A61B7F8E8309AB2974B57
:104C5800DA60954B4FF400021A61934B80221A6177
:104C6800914B4FF400721A6100BF4020FBF782FE9F
:104C78008A20FBF77FFE0020FBF77CFE0020FBF775
:104C880079FE2920FBF776FE1920FBF773FEA52095
:104C9800FBF770FE3320FBF76DFEE023A7F8E63044
:104CA800814B4FF080721A617F4B4FF000721A618E
:104CB800B7F8E6309AB27D4BDA607B4B4FF40002CE
:104CC8001A61794B80221A61774B4FF400721A618E
:104CD80000BFF020FBF74EFE0720FBF74BFE0D2030
:104CE800FBF748FE0420FBF745FE0520FBF742FED4
:104CF8001420FBF73FFE3620FBF73CFE5420FBF761
:104D080039FE4C20FBF736FE3820FBF733FE132024
:104D1800FBF730FE1420FBF72DFE2E20FBF72AFEB2
:104D28003420FBF727FEE123A7F8E4305E4B4FF071
:104D380080721A615C4B4FF000721A61B7F8E43068
:104D48009AB25A4BDA60584B4FF400021A61564B2C
:104D580080221A61544B4FF400721A6100BFF02090
:104D6800FBF708FE1020FBF705FE1420FBF702FEF8
:104D78000E20FBF7FFFD0C20FBF7FCFD0820FBF7DE
:104D8800F9FD3520FBF7F6FD4420FBF7F3FD4C2039
:104D9800FBF7F0FD2620FBF7EDFD1020FBF7EAFD01
:104DA8001220FBF7E7FD2C20FBF7E4FD3220FBF790
:104DB800E1FDF023A7F8E2303B4B4FF080721A6117
:104DC800394B4FF000721A61B7F8E2309AB2374B9C
:104DD800DA60354B4FF400021A61334B80221A61B6
:104DE800314B4FF400721A6100BF3C20FBF7C2FD43
:104DF800F023A7F8E0302C4B4FF080721A612A4B51
:104E08004FF000721A61B7F8E0309AB2274BDA60B7
:104E1800254B4FF400021A61234B80221A61224B62
:104E28004FF400721A6100BF6920FBF7A3FD7820D8
:104E380002F0C4F92123A7F8DE301B4B4FF0807233
:104E48001A61194B4FF000721A61B7F8DE309AB246
:104E5800164BDA60144B4FF400021A61124B802291
:104E68001A61114B4FF400721A6100BF2923A7F889
:104E7800DC300D4B4FF080721A610B4B4FF0007213
:104E88001A61B7F8DC309AB2084BDA60064B4FF477
:104E980000021A61044B80221A61034B4FF400721E
:104EA8001A6101F0EEBD00BF00100140000C014086
:104EB800034B9B8845F21052934240F0B38701E0C0
:104EC8002C00002055214FF47040FBF777FDAA21F4
:104ED8004FF20100FBF772FD52214FF20200FBF77F
:104EE8006DFD08214FF20300FBF768FD01214FF229
:104EF8000400FBF763FD0D214FF43040FBF75EFD26
:104F08000D214BF20100FBF759FD0D214BF2020078
:104F1800FBF754FD34214FF43640FBF74FFD3421A5
:104F28004BF20160FBF74AFD34214BF20260FBF7BC
:104F380045FD0D214FF43140FBF740FD0D214BF2AB
:104F48000110FBF73BFD0D214BF20210FBF736FD7C
:104F580034214FF43740FBF731FD34214BF2017017
:104F6800FBF72CFD34214BF20270FBF727FD0021E3
:104F78004FF43240FBF722FD00214BF20120FBF7F2
:104F88001DFD00214BF20220FBF718FD24214FF4F0
:104F98003840FBF713FD24214BF60100FBF70EFD0B
:104FA80024214BF60200FBF709FD01214FF43F4095
:104FB800FBF704FD0F214FF43340FBF7FFFC0F21F3
:104FC8004BF20130FBF7FAFC0F214BF20230FBF7F2
:104FD800F5FC34214FF43940FBF7F0FC34214BF653
:104FE8000110FBF7EBFC34214BF60210FBF7E6FC53
:104FF80008214FF43540FBF7E1FC08214BF2015042
:10500800FBF7DCFC08214BF20250FBF7D7FC03212D
:105018004FF44240FBF7D2FC24214FF43A40FBF70F
:10502800CDFC24214BF60120FBF7C8FC24214BF6CC
:105038000220FBF7C3FC00214FF43C40FBF7BEFC09
:1050480078214BF60140FBF7B9FC00214BF60240F2
:10505800FBF7B4FC00214FF43D40FBF7AFFC78218F
:105068004BF60150FBF7AAFC00214BF60250FBF768
:10507800A5FC00214FF43E40FBF7A0FC64214BF651
:105088000160FBF79BFC00214FF45140FBF796FCB5
:1050980033214DF20110FBF791FC00214DF2021073
:1050A800FBF78CFC34214DF20310FBF787FC002141
:1050B8004DF20410FBF782FC3A214DF20510FBF784
:1050C8007DFC00214DF20610FBF778FC4A214DF2D9
:1050D8000710FBF773FC00214DF20810FBF76EFC7C
:1050E8005C214DF20910FBF769FC00214DF20A1012
:1050F800FBF764FC81214DF20B10FBF75FFC0021EC
:105108004DF20C10FBF75AFCA6214DF20D10FBF7DF
:1051180055FC00214DF20E10FBF750FCE5214DF235
:105128000F10FBF74BFC01214DF21010FBF746FC6A
:1051380013214DF21110FBF741FC01214DF2121021
:10514800FBF73CFC54214DF21310FBF737FC01210F
:105158004DF21410FBF732FC82214DF21510FBF7CB
:105168002DFC01214DF21610FBF728FCCA214DF247
:105178001710FBF723FC02214DF21810FBF71EFC59
:1051880000214DF21910FBF719FC02214DF21A10FB
:10519800FBF714FC01214DF21B10FBF70FFC022159
:1051A8004DF21C10FBF70AFC34214DF21D10FBF7E1
:1051B80005FC02214DF21E10FBF700FC67214DF2A1
:1051C8001F10FBF7FBFB02214DF22010FBF7F6FB4B
:1051D80084214DF22110FBF7F1FB02214DF2221040
:1051E800FBF7ECFBA4214DF22310FBF7E7FB0221B0
:1051F8004DF22410FBF7E2FBB7214DF22510FBF727
:10520800DDFB02214DF22610FBF7D8FBCF214DF232
:105218002710FBF7D3FB02214DF22810FBF7CEFB3A
:10522800DE214DF22910FBF7C9FB02214DF22A10AD
:10523800FBF7C4FBF2214DF22B10FBF7BFFB022159
:105248004DF22C10FBF7BAFBFE214DF22D10FBF7A7
:10525800B5FB03214DF22E10FBF7B0FB10214DF2E8
:105268002F10FBF7ABFB03214DF23010FBF7A6FB29
:1052780033214DF23110FBF7A1FB03214DF232101F
:10528800FBF79CFB6D214DF23310FBF797FB0021D8
:105298004FF45240FBF792FB33214DF20120FBF70C
:1052A8008DFB00214DF20220FBF788FB34214DF2E3
:1052B8000320FBF783FB00214DF20420FBF77EFB64
:1052C8003A214DF20520FBF779FB00214DF206202B
:1052D800FBF774FB4A214DF20720FBF76FFB002117
:1052E8004DF20820FBF76AFB5C214DF20920FBF721
:1052F80065FB00214DF20A20FBF760FB81214DF28E
:105308000B20FBF75BFB00214DF20C20FBF756FB53
:10531800A6214DF20D20FBF751FB00214DF20E2086
:10532800FBF74CFBE5214DF20F20FBF747FB012172
:105338004DF21020FBF742FB13214DF21120FBF731
:105348003DFB01214DF21220FBF738FB54214DF2B1
:105358001320FBF733FB01214DF21420FBF72EFB42
:1053680082214DF21520FBF729FB01214DF2162071
:10537800FBF724FBCA214DF21720FBF71FFB022184
:105388004DF21820FBF71AFB00214DF21920FBF70C
:1053980015FB02214DF21A20FBF710FB01214DF2FB
:1053A8001B20FBF70BFB02214DF21C20FBF706FB31
:1053B80034214DF21D20FBF701FB02214DF21E2086
:1053C800FBF7FCFA67214DF21F20FBF7F7FA0221E1
:1053D8004DF22020FBF7F2FA84214DF22120FBF751
:1053E800EDFA02214DF22220FBF7E8FAA4214DF252
:1053F8002320FBF7E3FA02214DF22420FBF7DEFA23
:10540800B7214DF22520FBF7D9FA02214DF22620CB
:10541800FBF7D4FACF214DF22720FBF7CFFA022170
:105428004DF22820FBF7CAFADE214DF22920FBF7BE
:10543800C5FA02214DF22A20FBF7C0FAF2214DF2FB
:105448002B20FBF7BBFA02214DF22C20FBF7B6FA12
:10545800FE214DF22D20FBF7B1FA03214DF22E204B
:10546800FBF7ACFA10214DF22F20FBF7A7FA032126
:105478004DF23020FBF7A2FA33214DF23120FBF731
:105488009DFA03214DF23220FBF798FA6D214DF277
:105498003320FBF793FA00214FF45340FBF78EFAC1
:1054A80033214DF20130FBF789FA00214DF2023029
:1054B800FBF784FA34214DF20330FBF77FFA002121
:1054C8004DF20430FBF77AFA3A214DF20530FBF73A
:1054D80075FA00214DF20630FBF770FA4A214DF2B9
:1054E8000730FBF76BFA00214DF20830FBF766FA3C
:1054F8005C214DF20930FBF761FA00214DF20A30C8
:10550800FBF75CFA81214DF20B30FBF757FA0021CB
:105518004DF20C30FBF752FAA6214DF20D30FBF795
:105528004DFA00214DF20E30FBF748FAE5214DF215
:105538000F30FBF743FA01214DF21030FBF73EFA2A
:1055480013214DF21130FBF739FA01214DF21230D7
:10555800FBF734FA54214DF21330FBF72FFA0121EF
:105568004DF21430FBF72AFA82214DF21530FBF781
:1055780025FA01214DF21630FBF720FACA214DF227
:105588001730FBF71BFA02214DF21830FBF716FA19
:1055980000214DF21930FBF711FA02214DF21A30B1
:1055A800FBF70CFA01214DF21B30FBF707FA022139
:1055B8004DF21C30FBF702FA34214DF21D30FBF797
:1055C800FDF902214DF21E30FBF7F8F967214DF283
:1055D8001F30FBF7F3F902214DF22030FBF7EEF90B
:1055E80084214DF22130FBF7E9F902214DF22230F6
:1055F800FBF7E4F9A4214DF22330FBF7DFF9022190
:105608004DF22430FBF7DAF9B7214DF22530FBF7DC
:10561800D5F902214DF22630FBF7D0F9CF214DF212
:105628002730FBF7CBF902214DF22830FBF7C6F9FA
:10563800DE214DF22930FBF7C1F902214DF22A3063
:10564800FBF7BCF9F2214DF22B30FBF7B7F9022139
:105658004DF22C30FBF7B2F9FE214DF22D30FBF75D
:10566800ADF903214DF22E30FBF7A8F910214DF2C8
:105678002F30FBF7A3F903214DF23030FBF79EF9E9
:1056880033214DF23130FBF799F903214DF23230D5
:10569800FBF794F96D214DF23330FBF78FF90021B8
:1056A8004FF45440FBF78AF933214DF20140FBF7E0
:1056B80085F900214DF20240FBF780F934214DF2C3
:1056C8000340FBF77BF900214DF20440FBF776F924
:1056D8003A214DF20540FBF771F900214DF20640E1
:1056E800FBF76CF94A214DF20740FBF767F90021F7
:1056F8004DF20840FBF762F95C214DF20940FBF7D7
:105708005DF900214DF20A40FBF758F981214DF26D
:105718000B40FBF753F900214DF20C40FBF74EF913
:10572800A6214DF20D40FBF749F900214DF20E403C
:10573800FBF744F9E5214DF20F40FBF73FF9012152
:105748004DF21040FBF73AF913214DF21140FBF7E7
:1057580035F901214DF21240FBF730F954214DF291
:105768001340FBF72BF901214DF21440FBF726F902
:1057780082214DF21540FBF721F901214DF2164027
:10578800FBF71CF9CA214DF21740FBF717F9022164
:105798004DF21840FBF712F900214DF21940FBF7C2
:1057A8000DF902214DF21A40FBF708F901214DF2DB
:1057B8001B40FBF703F902214DF21C40FBF7FEF8F2
:1057C80034214DF21D40FBF7F9F802214DF21E403D
:1057D800FBF7F4F867214DF21F40FBF7EFF80221C1
:1057E8004DF22040FBF7EAF884214DF22140FBF707
:1057F800E5F802214DF22240FBF7E0F8A4214DF232
:105808002340FBF7DBF802214DF22440FBF7D6F8E2
:10581800B7214DF22540FBF7D1F802214DF2264081
:10582800FBF7CCF8CF214DF22740FBF7C7F8022150
:105838004DF22840FBF7C2F8DE214DF22940FBF774
:10584800BDF802214DF22A40FBF7B8F8F2214DF2DB
:105858002B40FBF7B3F802214DF22C40FBF7AEF8D2
:10586800FE214DF22D40FBF7A9F803214DF22E4001
:10587800FBF7A4F810214DF22F40FBF79FF8032106
:105888004DF23040FBF79AF833214DF23140FBF7E7
:1058980095F803214DF23240FBF790F86D214DF257
:1058A8003340FBF78BF800214FF45540FBF786F89F
:1058B80033214DF20150FBF781F800214DF20250DF
:1058C800FBF77CF834214DF20350FBF777F8002101
:1058D8004DF20450FBF772F83A214DF20550FBF7F0
:1058E8006DF800214DF20650FBF768F84A214DF299
:1058F8000750FBF763F800214DF20850FBF75EF8FC
:105908005C214DF20950FBF759F800214DF20A507D
:10591800FBF754F881214DF20B50FBF74FF80021AB
:105928004DF20C50FBF74AF8A6214DF20D50FBF74B
:1059380045F800214DF20E50FBF740F8E5214DF2F5
:105948000F50FBF73BF801214DF21050FBF736F8EA
:1059580013214DF21150FBF731F801214DF212508D
:10596800FBF72CF854214DF21350FBF727F80121CF
:105978004DF21450FBF722F882214DF21550FBF737
:105988001DF801214DF21650FBF718F8CA214DF207
:105998001750FBF713F802214DF21850FBF70EF8D9
:1059A80000214DF21950FBF709F802214DF21A5067
:1059B800FBF704F801214DF21B50FAF7FFFF022113
:1059C8004DF21C50FAF7FAFF34214DF21D50FAF748
:1059D800F5FF02214DF21E50FAF7F0FF67214DF254
:1059E8001F50FAF7EBFF02214DF22050FAF7E6FFBD
:1059F80084214DF22150FAF7E1FF02214DF22250A5
:105A0800FAF7DCFFA4214DF22350FAF7D7FF022161
:105A18004DF22450FAF7D2FFB7214DF22550FAF78C
:105A2800CDFF02214DF22650FAF7C8FFCF214DF2E3
:105A38002750FAF7C3FF02214DF22850FAF7BEFFAC
:105A4800DE214DF22950FAF7B9FF02214DF22A5012
:105A5800FAF7B4FFF2214DF22B50FAF7AFFF02210B
:105A68004DF22C50FAF7AAFFFE214DF22D50FAF70D
:105A7800A5FF03214DF22E50FAF7A0FF10214DF299
:105A88002F50FAF79BFF03214DF23050FAF796FF9B
:105A980033214DF23150FAF791FF03214DF2325084
:105AA800FAF78CFF6D214DF23350FAF787FF00218A
:105AB8004FF45640FAF782FF33214DF20160FAF7AE
:105AC8007DFF00214DF20260FAF778FF34214DF294
