:020000040800F2
:1000000000C00020B5920008617F0008697F0008E9
:10001000717F0008797F0008817F000800000000E0
:10002000000000000000000000000000897F0008C0
:10003000957F000800000000A17F0008AD7F000848
:10004000FD920008FD920008FD920008FD92000854
:10005000FD920008FD920008FD920008FD92000844
:10006000FD920008FD920008FD920008FD92000834
:10007000FD920008FD920008FD920008FD92000824
:10008000FD920008FD920008FD920008FD92000814
:10009000FD920008FD920008FD920008FD92000804
:1000A000FD920008FD920008FD920008FD920008F4
:1000B000B97F0008FD920008FD920008FD9200083B
:1000C000FD920008FD920008FD920008CD7F000817
:1000D000FD920008FD920008FD920008FD920008C4
:1000E000FD920008FD920008FD920008FD920008B4
:1000F000FD920008FD920008FD920008FD920008A4
:10010000FD920008FD920008FD920008FD92000893
:10011000FD920008FD920008FD920008FD92000883
:10012000FD920008FD920008FD920008FD92000873
:1001300000000000000000000000000000000000BF
:1001400000000000000000000000000000000000AF
:10015000000000000000000000000000000000009F
:10016000000000000000000000000000000000008F
:10017000000000000000000000000000000000007F
:10018000000000000000000000000000000000006F
:10019000000000000000000000000000000000005F
:1001A000000000000000000000000000000000004F
:1001B000000000000000000000000000000000003F
:1001C000000000000000000000000000000000002F
:1001D000000000000000000000000000000000001F
:0401E0005FF8E0F1F3
:1001E80010B5054C237833B9044B13B10448AFF369
:1001F80000800123237010BDB8000020000000001B
:1002080040C5000808B5034B1BB103490348AFF3C9
:10021800008008BD00000000BC00002040C50008A8
:1002280010F8012B11F8013B012A28BF9A42F7D098
:10023800D01A704781F0004102E000BF83F000430C
:1002480030B54FEA41044FEA430594EA050F08BF69
:1002580090EA020F1FBF54EA000C55EA020C7FEA2D
:10026800645C7FEA655C00F0E2804FEA5454D4EBAA
:100278005555B8BF6D420CDD2C4480EA020281EA74
:10028800030382EA000083EA010180EA020281EAAC
:100298000303362D88BF30BD11F0004F4FEA0131FE
:1002A8004FF4801C4CEA113102D0404261EB41010D
:1002B80013F0004F4FEA03334CEA133302D0524293
:1002C80063EB430394EA050F00F0A780A4F101044F
:1002D800D5F1200E0DDB02FA0EFC22FA05F2801889
:1002E80041F1000103FA0EF2801843FA05F359416F
:1002F8000EE0A5F120050EF1200E012A03FA0EFCEE
:1003080028BF4CF0020C43FA05F3C01851EBE37117
:1003180001F0004507D54FF0000EDCF1000C7EEB34
:1003280000006EEB0101B1F5801F1BD3B1F5001F72
:100338000CD349085FEA30004FEA3C0C04F1010491
:100348004FEA445212F5800F80F09A80BCF1004FBA
:1003580008BF5FEA500C50F1000041EB045141EA3C
:10036800050130BD5FEA4C0C404141EB0101013C05
:1003780028BFB1F5801FE9D291F0000F04BF0146F4
:100388000020B1FA81F308BF2033A3F10B03B3F1C6
:1003980020020CDA0C3208DD02F1140CC2F10C0256
:1003A80001FA0CF021FA02F10CE002F11402D8BFB4
:1003B800C2F1200C01FA02F120FA0CFCDCBF41EA80
:1003C8000C019040E41AA2BF01EB0451294330BD4F
:1003D8006FEA04041F3C1CDA0C340EDC04F114042C
:1003E800C4F1200220FA04F001FA02F340EA030003
:1003F80021FA04F345EA030130BDC4F10C04C4F149
:10040800200220FA02F001FA04F340EA0300294628
:1004180030BD21FA04F0294630BD94F0000F83F472
:10042800801306BF81F480110134013D4EE77FEA55
:10043800645C18BF7FEA655C29D094EA050F08BFA1
:1004480090EA020F05D054EA000C04BF1946104682
:1004580030BD91EA030F1EBF0021002030BD5FEAC6
:10046800545C05D14000494128BF41F0004130BDEE
:1004780014F580043CBF01F5801130BD01F0004542
:1004880045F0FE4141F470014FF0000030BD7FEAB5
:10049800645C1ABF194610467FEA655C1CBF0B46B0
:1004A800024650EA013406BF52EA033591EA030FC7
:1004B80041F4002130BD00BF90F0000F04BF0021BF
:1004C800704730B54FF4806404F132044FF00005F2
:1004D8004FF0000150E700BF90F0000F04BF00216B
:1004E800704730B54FF4806404F1320410F00045D1
:1004F80048BF40424FF000013EE700BF42004FEACC
:10050800E2014FEA31014FEA02701FBF12F07F4348
:1005180093F07F4F81F06051704732F07F4208BFFF
:10052800704793F07F4F04BF41F40021704730B506
:100538004FF4607401F0004521F000411CE700BF52
:1005480050EA010208BF704730B54FF000050AE0D5
:1005580050EA010208BF704730B511F0004502D5D6
:10056800404261EB41014FF4806404F132045FEAD8
:10057800915C3FF4D8AE4FF003025FEADC0C18BF81
:1005880003325FEADC0C18BF033202EBDC02C2F173
:10059800200300FA03FC20FA02F001FA03FE40EA05
:1005A8000E0021FA02F11444BDE600BF70B54FF009
:1005B800FF0C4CF4E06C1CEA11541DBF1CEA1355E7
:1005C80094EA0C0F95EA0C0F00F0DEF82C4481EA4F
:1005D800030621EA4C5123EA4C5350EA013518BF6F
:1005E80052EA033541F4801143F4801338D0A0FB5C
:1005F80002CE4FF00005E1FB02E506F00042E0FB09
:1006080003E54FF00006E1FB03569CF0000F18BF0E
:100618004EF0010EA4F1FF04B6F5007F64F54074B6
:1006280004D25FEA4E0E6D4146EB060642EAC62149
:1006380041EA55514FEAC52040EA5E504FEACE2EB6
:10064800B4F1FD0C88BFBCF5E06F1ED8BEF1004FB9
:1006580008BF5FEA500E50F1000041EB045170BD35
:1006680006F0004646EA010140EA020081EA030179
:10067800B4EB5C04C2BFD4EB0C0541EA045170BD75
:1006880041F480114FF0000E013C00F3AB8014F1EF
:10069800360FDEBF002001F0004170BDC4F1000438
:1006A800203C35DA0C341BDC04F11404C4F12005B9
:1006B80000FA05F320FA04F001FA05F240EA020014
:1006C80001F0004221F0004110EBD37021FA04F64A
:1006D80042EB06015EEA430E08BF20EAD37070BD04
:1006E800C4F10C04C4F1200500FA04F320FA05F063
:1006F80001FA04F240EA020001F0004110EBD37065
:1007080041F100015EEA430E08BF20EAD37070BDD4
:10071800C4F1200500FA05F24EEA020E20FA04F3AD
:1007280001FA05F243EA020321FA04F001F000415C
:1007380021FA04F220EA020000EBD3705EEA430ECD
:1007480008BF20EAD37070BD94F0000F0FD101F0FC
:100758000046400041EB010111F4801F08BF013C35
:10076800F7D041EA060195F0000F18BF704703F073
:100778000046520043EB030313F4801F08BF013DFA
:10078800F7D043EA0603704794EA0C0F0CEA1355B6
:1007980018BF95EA0C0F0CD050EA410618BF52EA70
:1007A8004306D1D181EA030101F000414FF0000076
:1007B80070BD50EA410606BF1046194652EA430684
:1007C80019D094EA0C0F02D150EA013613D195EAF8
:1007D8000C0F05D152EA03361CBF104619460AD140
:1007E80081EA030101F0004141F0FE4141F470014A
:1007F8004FF0000070BD41F0FE4141F4780170BD3A
:1008080070B54FF0FF0C4CF4E06C1CEA11541DBF9E
:100818001CEA135594EA0C0F95EA0C0F00F0A7F8A0
:10082800A4EB050481EA030E52EA03354FEA0131CD
:1008380000F088804FEA03334FF0805545EA1313E0
:1008480043EA12634FEA022245EA111545EA1065A8
:100858004FEA00260EF000419D4208BF964244F13F
:10086800FD0404F5407402D25B084FEA3202B61A5E
:1008780065EB03055B084FEA32024FF480104FF432
:10088800002CB6EB020E75EB030E22BFB61A7546A6
:1008980040EA0C005B084FEA3202B6EB020E75EB39
:1008A800030E22BFB61A754640EA5C005B084FEAA1
:1008B8003202B6EB020E75EB030E22BFB61A75466E
:1008C80040EA9C005B084FEA3202B6EB020E75EB79
:1008D800030E22BFB61A754640EADC0055EA060E3A
:1008E80018D04FEA051545EA16754FEA06164FEA7D
:1008F800C30343EA52734FEAC2025FEA1C1CC0D129
:1009080011F4801F0BD141EA00014FF000004FF0B5
:10091800004CB6E711F4801F04BF01430020B4F176
:10092800FD0C88BFBCF5E06F3FF6AFAEB5EB030C2E
:1009380004BFB6EB020C5FEA500C50F1000041EB2B
:10094800045170BD0EF0004E4EEA113114EB5C04F8
:10095800C2BFD4EB0C0541EA045170BD41F48011CB
:100968004FF0000E013C90E645EA060E8DE60CEAD3
:10097800135594EA0C0F08BF95EA0C0F3FF43BAFF0
:1009880094EA0C0F0AD150EA01347FF434AF95EAA7
:100998000C0F7FF425AF104619462CE795EA0C0F8B
:1009A80006D152EA03353FF4FDAE1046194622E758
:1009B80050EA410618BF52EA43067FF4C5AE50EA32
:1009C80041047FF40DAF52EA43057FF4EBAE12E722
:1009D8004FF0FF3C06E000BF4FF0010C02E000BF03
:1009E8004FF0010C4DF804CD4FEA410C7FEA6C5CE6
:1009F8004FEA430C18BF7FEA6C5C1BD001B050EA89
:100A0800410C0CBF52EA430C91EA030F02BF90EA73
:100A1800020F0020704710F1000F91EA030F58BF32
:100A2800994208BF90422CBFD8176FEAE37040F094
:100A3800010070474FEA410C7FEA6C5C02D150EA32
:100A4800013C07D14FEA430C7FEA6C5CD6D152EAED
:100A5800033CD3D05DF8040B704700BF84461046B2
:100A680062468C461946634600E000BF01B5FFF7B1
:100A7800B7FF002848BF10F1000F01BD4DF808ED81
:100A8800FFF7F4FF0CBF012000205DF808FB00BF52
:100A98004DF808EDFFF7EAFF34BF012000205DF8AC
:100AA80008FB00BF4DF808EDFFF7E0FF94BF0120F9
:100AB80000205DF808FB00BF4DF808EDFFF7CEFFFA
:100AC80094BF012000205DF808FB00BF4DF808ED39
:100AD800FFF7C4FF34BF012000205DF808FB00BF0A
:100AE8004FEA410C7FEA6C5C02D150EA013C0AD122
:100AF8004FEA430C7FEA6C5C02D152EA033C02D114
:100B08004FF0000070474FF0010070474A0011D2C3
:100B180012F5001211D20DD56FF47873B3EB62524F
:100B28000ED44FEAC12343F0004343EA505323FA5B
:100B380002F070474FF00000704750EA013002D1D0
:100B48004FF0FF3070474FF00000704780F00040D2
:100B580002E000BF81F0004142001FBF5FEA41038D
:100B680092EA030F7FEA226C7FEA236C6AD04FEA8D
:100B78001262D2EB1363C1BFD218414048404140D2
:100B8800B8BF5B42192B88BF704710F0004F40F484
:100B9800000020F07F4018BF404211F0004F41F4A0
:100BA800000121F07F4118BF494292EA030F3FD06C
:100BB800A2F1010241FA03FC10EB0C00C3F120037F
:100BC80001FA03F100F0004302D5494260EB40000E
:100BD800B0F5000F13D3B0F1807F06D340084FEA79
:100BE800310102F10102FE2A51D2B1F1004F40EB6E
:100BF800C25008BF20F0010040EA030070474900D6
:100C080040EB0000013A28BFB0F5000FEDD2B0FA72
:100C180080FCACF1080CB2EB0C0200FA0CF0AABF95
:100C280000EBC25052421843BCBFD0401843704733
:100C380092F0000F81F4000106BF80F40000013239
:100C4800013BB5E74FEA41037FEA226C18BF7FEA10
:100C5800236C21D092EA030F04D092F0000F08BF52
:100C68000846704790EA010F1CBF0020704712F039
:100C78007F4F04D1400028BF40F00040704712F178
:100C880000723CBF00F50000704700F0004343F0DD
:100C9800FE4040F4000070477FEA226216BF084613
:100CA8007FEA23630146420206BF5FEA412390EAD6
:100CB800010F40F4800070474FF0000304E000BFCC
:100CC80010F0004348BF40425FEA000C08BF70477D
:100CD80043F0964301464FF000001CE050EA010241
:100CE80008BF70474FF000030AE000BF50EA010256
:100CF80008BF704711F0004302D5404261EB410143
:100D08005FEA010C02BF84460146002043F0B64367
:100D180008BFA3F18053A3F50003BCFA8CF2083A8C
:100D2800A3EBC25310DB01FA02FC634400FA02FC95
:100D3800C2F12002BCF1004F20FA02F243EB02009C
:100D480008BF20F00100704702F1200201FA02FCFE
:100D5800C2F1200250EA4C0021FA02F243EB0200F1
:100D680008BF20EADC7070474FF0FF0C1CEAD05235
:100D78001EBF1CEAD15392EA0C0F93EA0C0F6FD0F6
:100D88001A4480EA010C400218BF5FEA41211ED0D4
:100D98004FF0006343EA501043EA5111A0FB0131C0
:100DA8000CF00040B1F5000F3EBF490041EAD37195
:100DB8005B0040EA010062F17F02FD2A1DD8B3F111
:100DC800004F40EBC25008BF20F00100704790F080
:100DD800000F0CF0004C08BF49024CEA502040EAD2
:100DE80051207F3AC2BFD2F1FF0340EAC250704798
:100DF80040F400004FF00003013A5DDC12F1190FD6
:100E0800DCBF00F000407047C2F10002410021FA47
:100E180002F1C2F1200200FA02FC5FEA310040F15F
:100E2800000053EA4C0308BF20EADC70704792F0D8
:100E3800000F00F0004C02BF400010F4000F013A10
:100E4800F9D040EA0C0093F0000F01F0004C02BF0B
:100E5800490011F4000F013BF9D041EA0C018FE77A
:100E68000CEAD15392EA0C0F18BF93EA0C0F0AD080
:100E780030F0004C18BF31F0004CD8D180EA0100A6
:100E880000F00040704790F0000F17BF90F0004F3F
:100E9800084691F0000F91F0004F14D092EA0C0F21
:100EA80001D142020FD193EA0C0F03D14B0218BFB4
:100EB800084608D180EA010000F0004040F0FE40FA
:100EC80040F40000704740F0FE4040F44000704796
:100ED8004FF0FF0C1CEAD0521EBF1CEAD15392EA15
:100EE8000C0F93EA0C0F69D0A2EB030280EA010C05
:100EF80049024FEA402037D04FF0805343EA11119E
:100F080043EA10130CF000408B4238BF5B0042F1FB
:100F18007D024FF4000C8B4224BF5B1A40EA0C00A0
:100F2800B3EB510F24BFA3EB510340EA5C00B3EBD2
:100F3800910F24BFA3EB910340EA9C00B3EBD10FC0
:100F480024BFA3EBD10340EADC001B0118BF5FEA12
:100F58001C1CE0D1FD2A3FF650AF8B4240EBC2503B
:100F680008BF20F0010070470CF0004C4CEA5020FC
:100F78007F32C2BFD2F1FF0340EAC250704740F44B
:100F880000004FF00003013A37E792F0000F00F03D
:100F9800004C02BF400010F4000F013AF9D040EABB
:100FA8000C0093F0000F01F0004C02BF490011F44F
:100FB800000F013BF9D041EA0C0195E70CEAD15347
:100FC80092EA0C0F08D142027FF47DAF93EA0C0F2E
:100FD8007FF470AF084676E793EA0C0F04D14B0212
:100FE8003FF44CAF08466EE730F0004C18BF31F0C4
:100FF800004CCAD130F000427FF45CAF31F00043BE
:101008007FF43CAF5FE700BF4FEA4002B2F1FE4F0A
:101018000FD34FF09E03B3EB12620DD94FEA0023B2
:1010280043F0004310F0004F23FA02F018BF40428B
:1010380070474FF00000704712F1610F01D1420272
:1010480005D110F0004008BF6FF0004070474FF026
:101058000000704742000ED2B2F1FE4F0BD34FF0A2
:101068009E03B3EB126209D44FEA002343F0004316
:1010780023FA02F070474FF00000704712F1610F39
:1010880001D1420202D14FF0FF3070474FF000000B
:10109800704700BF80B500AF06F0B0FA00BF80BD52
:1010A80080B584B000AF0346FB800023FB7306F0D5
:1010B800D5FAFB881B0A9BB2DBB25B00DBB2603B54
:1010C800DBB2184606F0A6FB06F018FBFB88DBB27D
:1010D800184606F09FFB06F011FB06F0BFFAA120A8
:1010E80006F098FB06F00AFB002006F0D3FB034647
:1010F800FB7306F0DBFAFB7B18461037BD4680BD54
:1011080080B582B000AF03460A46FB8013467B7168
:1011180006F0A4FAFB881B0A9BB2DBB25B00DBB2C9
:10112800603BDBB2184606F075FB06F0E7FAFB8871
:10113800DBB2184606F06EFB06F0E0FA7B7918463B
:1011480006F068FB06F0DAFA06F0B0FA0A2000F0BA
:1011580021FA00BF0837BD4680BD90B583B000AF07
:1011680003463960FB801346BB800DE0FB885A1CA0
:10117800FA803C68621C3A601846FFF791FF034604
:101188002370BB88013BBB80BB88002BEED100BF1E
:1011980000BF0C37BD4690BD80B582B000AF034696
:1011A8003960FB801346BB800CE03B681A78FB88EB
:1011B80011461846FFF7A4FFFB880133FB803B6804
:1011C80001333B60BB885A1EBA80002BEDD100BFAB
:1011D80000BF0837BD4680BD80B500AF052000F0D0
:1011E8009BF900BF80BD000080B586B000AF124BF0
:1011F8009B69114A43F0100393610F4B9B6903F0FD
:1012080010037B607B680923BB600123FB6001231B
:101218003B6103237B6107F108031946074808F07F
:1012280023FB074B01221A60064B01221A6000BFFC
:101238001837BD4680BD00BF0010024000100140B5
:10124800800122428C01224280B500AF0F4B1B68FF
:101258000E4A23F4704313600C4B1B680B4A43F48B
:10126800405313600A4B01221A600A4B01221A608C
:101278001E2000F051F9064B00221A60FFF7ACFF60
:10128800044B00221A6000BF80BD00BF001001405F
:101298008C0122428001224280B500AF0D4B1B68B1
:1012A8000C4A23F4704313600A4B1B68094A43F441
:1012B80040531360084B01221A601E2000F02CF9DD
:1012C800064B00221A60FFF787FF044B01221A60C1
:1012D80000BF80BD00100140800122428C012242E3
:1012E80080B582B000AF0023FB71164B1B68154A0E
:1012F80023F470431360134B1B68124A43F40043F2
:101308001360114B01221A60104B01221A60FFF77B
:1013180063FF0BE0FB790133FB71FB79FA2B03D9EF
:10132800FFF7BAFF012309E0FFF756FF084B1B68D8
:10133800002BEFD1054B00221A600023184608370E
:10134800BD4680BD001001408C012242800122422E
:101358000C01224280B500AF0F4B00221A600F4BE0
:101368001B680E4A23F4704313600C4B1B680B4A2E
:1013780043F440531360FFF72FFF094B00221A6014
:10138800FFF72AFF044B01221A60FFF725FF024BE3
:1013980000221A6000BF80BD800122420010014077
:1013A8008C01224280B500AF0F4B00221A600F4B10
:1013B8001B680E4A23F4704313600C4B1B680B4ADE
:1013C80043F440531360FFF707FF094B01221A60EB
:1013D800FFF702FF044B01221A60FFF7FDFE024BE4
:1013E80000221A6000BF80BD800122420010014027
:1013F8008C01224280B584B000AF0346FB71184BC4
:101408001B68174A23F470431360154B1B68144A72
:1014180043F440531360134B00221A60FFF7DCFEBD
:101428000023FB7314E0FB79DB09DAB20E4B1A6078
:10143800FB795B00FB710B4B01221A60FFF7CCFEB6
:10144800084B00221A60FFF7C7FEFB7B0133FB73D2
:10145800FB7B072BE7D900BF00BF1037BD4680BD17
:1014680000100140800122428C01224280B584B0E4
:1014780000AF0346FB710023BB731B4B1B681A4A62
:1014880023F470431360184B1B68174A43F4004356
:1014980013601E2000F040F80023FB7314E0134B88
:1014A80000221A60FFF798FE104B01221A60BB7BDE
:1014B8005B00BB730E4B1B68002B02D0BB7B013358
:1014C800BB73FB7B0133FB73FB7B072BE7D9FB79F2
:1014D800002B02D1FFF766FF01E0FFF73BFFBB7B64
:1014E80018461037BD4680BD0010014080012242D9
:1014F8000C01224280B582B000AF0346FB71042084
:1015080008F08EF8FB79034A136000BF0837BD4620
:1015180080BD00BFD400002080B489B000AF7860DF
:101528000023BB61194B5B687B61194B1A687B68A8
:1015380002FB03F33B61154B9B68FB61134B9B68F4
:10154800FB60FA68FB699A42F8D0FA68FB699A422C
:1015580006D2FA69FB68D31ABA691344BB6107E07B
:101568007A69FB68D21AFB691344BA691344BB61F0
:10157800FB68FB61BA693B699A4200D2DEE700BFAB
:1015880000BF2437BD4680BC704700BF10E000E0B4
:10159800D400002080B584B000AF0346FB80002350
:1015A800FB6006E04FF47A70FFF7B6FFFB68013383
:1015B800FB60FB88FA689A42F4D300BF00BF10377B
:1015C800BD4680BD80B584B000AF03463960FB805E
:1015D80013467B710023BB73FFF736FE7020FFF7BD
:1015E80009FFFFF77DFEFB88DBB21846FFF702FF15
:1015F800FFF776FE0023FB7310E0FB7B3A68134489
:101608001B781846FFF7F6FEFFF76AFE0346BB7322
:10161800BB7B002B07D1FB7B0133FB73FA7B7B7908
:101628009A42EAD300E000BFFFF736FEBB7B1846BC
:101638001037BD4680BD90B585B000AF0346396010
:10164800FB8013467B71FFF7FFFD7020FFF7D2FE8A
:10165800FFF746FEFB88DBB21846FFF7CBFEFFF725
:101668003FFEFFF7F1FD7120FFF7C4FEFFF738FEDC
:101678000023FB7313E0FA7B7B79013B9A4214BF8A
:1016880001230023DBB21946FB7B3A68D4180846CD
:10169800FFF7ECFE03462370FB7B0133FB73FA7BF9
:1016A8007B799A42E7D3FFF7F7FD00BF1437BD46B1
:1016B80090BD000080B586B000AF374B9B69364AB5
:1016C80043F010039361344B9B6903F010033B60B4
:1016D8003B684FF400537B600123BB600123FB6030
:1016E80003233B613B1D19462C4808F0BDF8022333
:1016F8007B600023BB603B1D1946284808F0B4F8FE
:10170800FFF772FD264B00221A601420FFF742FFF4
:10171800234B01221A603220FFF73CFF00233B7560
:1017280007F11403012219460020FFF74BFF07F1C8
:10173800140301221946A420FFF744FF16233B7522
:1017480007F11403012219468020FFF73BFF0C2301
:101758003B7507F11403012219468820FFF732FF71
:1017680007F1140302221946A120FFF764FF3B7D0D
:10177800302B0CD17B7D032B09D13B7D1B027A7D5D
:1017880013441946074809F08FFD002300E00123A0
:1017980018461837BD4680BD0010024000100140B1
:1017A800B401224258C5000880B584B000AF034692
:1017B800FB710023FB730023BB73824B1B7801333F
:1017C800DAB2804B1A707F4B1A787F4BA3FB021357
:1017D800D9080B469B000B445B00D31ADBB2002BE5
:1017E80004D0784B1B78092B00F2BA80FB1D01222C
:1017F80019460220FFF71FFFFB7903F00F03002BA8
:1018080000F0AE80FB7903F00F03052B00F3A880EE
:10181800FB7903F00F03FF2202FA03F37B7397F9B6
:101828000D30DB435BB263F03F035BB2DAB2674B68
:1018380083F820200023FB737FE0644B93F820306B
:101848001A46FB7B42FA03F303F00103002B71D025
:10185800FB7B5F4A32F8133007F10801042218466F
:10186800FFF7E9FE594B93F8303003F00103002BE2
:1018780022D03B7A1B029BB203F470639AB27B7A44
:101888001946FB7B0A4491B2504A08335B00134463
:101898000A46DA80BB7A1B029BB203F470639AB2E1
:1018A800FB7A1946FB7B0A4491B2484A04335B0031
:1018B80013440A469A8023E03B7A1B029BB203F446
:1018C80070639BB27A7A13449AB2FB7BC2F5F072CA
:1018D80091B23E4A04335B0013440A469A80BB7AAD
:1018E8001B029BB203F470639AB2FB7A1946FB7B26
:1018F8000A4491B2354A08335B0013440A46DA8039
:101908003B7A03F0F003802B14D0FA7B2F4902F1C5
:1019180008035B000B440021D980F97B2B4802F1B6
:1019280008035B000344D888284A0B1D5B00134456
:1019380002469A80FB7B0133FB73FB7B042B7FF60B
:101948007CAF0123BB73214B9B89002B05D11F4B17
:10195800DB8A002B01D10023FB711A4B00221A707D
:10196800FB7903F01F03002B20D1184B93F820308C
:101978005BB2002B09DA154B93F8203003F07F0394
:10198800DAB2124B83F8202010E0104B4FF6FF72AA
:101998009A810E4B4FF6FF72DA820C4B93F8203087
:1019A80023F01F03DAB2094B83F82020054B1B787C
:1019B800F02B02D9034B0A221A70BB7B184610374A
:1019C800BD4680BDD8000020CDCCCCCC0C0000207A
:1019D8001CC7000880B584B000AF0346FB71002324
:1019E800FB7300233B73FB797B730023FB7309E0D4
:1019F8003A7BFB7B1049CB5C1344DBB23B73FB7B2C
:101A08000133FB73FB7BB72BF2D93B7B5B42DBB229
:101A18003B73B822084948F2470000F00FF807F175
:101A28000C030222194648F2FF0000F007F80023D1
:101A380018461037BD4680BD28C7000880B584B059
:101A480000AF03463960FB8013467B710023BB73EC
:101A5800FFF7FAFB2820FFF7CDFCFFF741FCFB88D6
:101A68001B0A9BB2DBB21846FFF7C4FCFFF738FC31
:101A7800FB88DBB21846FFF7BDFCFFF731FC0023FB
:101A8800FB7310E0FB7B3A6813441B781846FFF79A
:101A9800B1FCFFF725FC0346BB73BB7B002B07D1CA
:101AA800FB7B0133FB73FA7B7B799A42EAD300E034
:101AB80000BFFFF7F1FBBB7B18461037BD4680BD62
:101AC80090B585B000AF03463960FB8013467B7143
:101AD800FFF7BAFB2820FFF78DFCFFF701FCFB8816
:101AE8001B0A9BB2DBB21846FFF784FCFFF7F8FB32
:101AF800FB88DBB21846FFF77DFCFFF7F1FBFFF729
:101B0800A3FB2920FFF776FCFFF7EAFB0023FB7312
:101B180013E0FA7B7B79013B9A4214BF012300232F
:101B2800DBB21946FB7B3A68D4180846FFF79EFCDF
:101B380003462370FB7B0133FB73FA7B7B799A4264
:101B4800E7D3FFF7A9FB00BF1437BD4690BD0000DF
:101B580080B588B000AF464B9B69454A43F01003F7
:101B68009361434B9B6903F010037B607B684FF4E0
:101B78000053BB600123FB6001233B6103237B61AE
:101B880007F1080319463B4807F06EFE0223BB60C5
:101B98000023FB6007F108031946364807F064FE86
:101BA800FFF722FB344B00221A600A20FFF7F2FCF1
:101BB800314B01221A600A20FFF7ECFC0223BB60BC
:101BC80002233B610023FB6007F1080319462948FB
:101BD80007F04AFE6420FFF7DDFC07F11803042232
:101BE800194648F24010FFF76BFF00233B7707F1D7
:101BF80018031946214809F057FB07F11803204933
:101C08001846FEF70DFB0346002B2BD102233B762B
:101C180007F118030122194648F24000FFF70EFFAA
:101C280007F118030122194648F24700FFF748FF59
:101C38003B7E5F2B07D83B7E1946124809F034FBE0
:101C48000120FFF7C7FE0A20FFF7A4FC00233B761C
:101C580007F118030122194648F24000FFF7EEFE8B
:101C6800002300E0002318462037BD4680BD00BF92
:101C78000010024000100140B401224264C500086F
:101C880070C5000878C5000880B586B000AF034667
:101C9800FB710023FB750023BB75904B1B78013348
:101CA800DAB28E4B1A708D4B1A788D4BA3FB021348
:101CB800D9080B469B000B445B00D31ADBB2002B00
:101CC80004D0864B1B78092B00F2D680FB1D01221D
:101CD800194648F24E10FFF7F3FEFB795BB2002B72
:101CE8000EDAFB7903F00F03052B09DC0023FB73E5
:101CF80007F10F030122194648F24E10FFF79EFE26
:101D0800FB7903F00F03002B00F0B680FB7903F09A
:101D18000F03052B00F3B080FB7903F00F03FF22BC
:101D280002FA03F3DBB2FB736E4B93F820307B753A
:101D3800FB7B5BB2DB435BB263F03F035BB2DAB2BF
:101D4800684B83F82020674B9A89664B9A82654BCB
:101D5800DA8A644BDA830023FB7559E0614B93F808
:101D680020301A46FB7D42FA03F303F00103002BEF
:101D78004BD0FB7D5C4A32F8133007F11001042286
:101D88001846FFF79DFE574B93F8303003F00103D8
:101D9800002B1ED07B7C1B029AB23B7C1946FB7D34
:101DA8000A4491B24F4A08335B0013440A46DA806A
:101DB800FB7C1B029BB2BA7C13449AB2FB7DC2F532
:101DC800487291B2474A04335B0013440A469A802A
:101DD8001BE07B7C1B029AB23B7C1946FB7D0A44C4
:101DE80091B2404A04335B0013440A469A80FB7C54
:101DF8001B029AB2BB7C1946FB7D0A4491B2394A50
:101E080008335B0013440A46DA80FB7D0133FB7517
:101E1800FB7D042BA2D90123BB75324B9A89334B26
:101E28001B889A4205D82F4BDA8A304B5B889A4236
:101E38001FD9FB7903F00E03002B0BD0294BDA894D
:101E4800284B9A81274B1A8B264BDA82234B002288
:101E58001A7011E0234B9A8A224B9A81214BDA8B14
:101E6800204BDA828023FB711E4A7B7D82F820306A
:101E780002E01A4B00221A70FB7903F08F03802BC3
:101E880020D1184B93F820305BB2002B09DA154BA0
:101E980093F8203003F07F03DAB2124B83F8202046
:101EA80010E0104B4FF6FF729A810E4B4FF6FF72FF
:101EB800DA820C4B93F8203023F01F03DAB2094B77
:101EC80083F82020054B1B78F02B02D9034B0A22FC
:101ED8001A70BB7D18461837BD4680BDD900002052
:101EE800CDCCCCCC0C000020E0C70008DC000020E2
:101EF80080B586B000AF1F4B9B691E4A43F00403B0
:101F080093611C4B9B6903F004037B607B68194B4E
:101F18009B69184A43F010039361164B9B6903F0C1
:101F280010033B603B680123BB600023FB60022376
:101F38003B6103237B6107F1080319460E4807F04C
:101F480093FC4FF40043BB6001233B6107F1080396
:101F58001946094807F088FC2023BB6001233B6130
:101F680007F108031946054807F07EFC00BF18373B
:101F7800BD4680BD0010024000080140001001402D
:101F880080B582B000AF0346FB71FB79012B02D10B
:101F98002F4B01221A702E4B1B78002B37D0202193
:101FA8002C4807F0F5FD0346002B0ED04FF40041F6
:101FB800294807F0EDFD0346002B06D001212648ED
:101FC80007F0E6FD0346012B21D10A20FFF7E2FACC
:101FD8001F4B00221A7020211E4807F0D9FD034626
:101FE800002B01D101232EE04FF400411A4807F0DD
:101FF800CFFD0346002B01D1022324E0012116481E
:1020080007F0C6FD0346012B1BD103231BE020214B
:10201800104807F0BDFD0346012B13D14FF40041D2
:102028000D4807F0B5FD0346012B0BD101210A48E5
:1020380007F0AEFD0346002B04D1054B01221A70B0
:1020480000E000BF002318460837BD4680BD00BF2A
:1020580000000020001001400008014080B483B057
:1020680000AF0346FB800D4B4FF480725A610B4B57
:102078004FF400725A610A4AFB88D360074B8022EA
:102088005A61064B80221A61044B4FF400721A61A0
:1020980000BF0C37BD4680BC704700BF0010014030
:1020A800000C014080B483B000AF0346FB800D4BA9
:1020B8004FF480721A610B4B4FF400725A610A4A4E
:1020C800FB88D360074B80225A61064B80221A6135
:1020D800044B4FF400721A6100BF0C37BD4680BC38
:1020E800704700BF00100140000C014080B483B06D
:1020F80000AF0346FB7100BFFB795A1EFA71002B33
:10210800FAD100BF00BF0C37BD4680BC7047000045
:1021180080B582B000AF1A4B4FF088321A60184B66
:102128004FF088325A60164B0022DA60154B4FF494
:1021380080721A61134B4FF400725A61114B40229E
:102148005A610220FFF7D2FF0D4B9B68FB800D4BB5
:1021580040221A610B4B4FF400721A61084B4FF082
:1021680033321A60064B4FF033325A60044B4FF645
:10217800FF72DA60FB8818460837BD4680BD00BF8D
:10218800000C01400010014080B582B000AF03464A
:102198000A46FB801346BB80FB881846FFF75EFFA4
:1021A8000C4B4FF480721A610A4B4FF400725A615B
:1021B800094ABB88D360074B80225A61054B8022AD
:1021C8001A61044B4FF400721A6100BF0837BD460C
:1021D80080BD00BF00100140000C014080B500AF79
:1021E800034B1B891846FFF739FF00BF80BD00BFAE
:1021F800DC00002080B582B000AF03460A46FB80B1
:102208001346BB80994B9B8841F66312934240F07A
:102218003381964B9B79002B63D1944B1A88FB88AA
:10222800D31A9BB2013BFB80904B5B891846FFF7A2
:1022380015FF8F4B4FF480721A618D4B4FF400726B
:102248005A618C4B0022DA60894B80225A61884B94
:1022580080221A61864B4FF400721A61844B4FF446
:1022680080721A61824B4FF400725A61814B0022CE
:10227800DA607F4B80225A617D4B80221A617C4B49
:102288004FF400721A617A4B4FF480721A61784BDE
:102298004FF400725A61FB881B0A9AB2754BDA60D8
:1022A800734B80225A61724B80221A61704B4FF433
:1022B80000721A616E4B4FF480721A616C4B4FF4C6
:1022C80000725A61FB886B4ADBB2D360684B80228C
:1022D8005A61674B80221A61654B4FF400721A618C
:1022E80061E0624B5B891846FFF7B8FE604B4FF41C
:1022F80080721A615E4B4FF400725A61FB881B0AA8
:102308009AB25C4BDA605A4B80225A61584B802251
:102318001A61574B4FF400721A61554B4FF4807293
:102328001A61534B4FF400725A61FB88514ADBB271
:10233800D3604F4B80225A614D4B80221A614C4B1F
:102348004FF400721A614A4B4FF480721A61484B7D
:102358004FF400725A61454B1B88013B1A12454BDA
:10236800DA60434B80225A61414B80221A61404B0C
:102378004FF400721A613E4B4FF480721A613C4B65
:102388004FF400725A61394B1B88013B394ADBB262
:10239800D360374B80225A61354B80221A61344B07
:1023A8004FF400721A61314B9B891846FFF756FEAD
:1023B8002F4B4FF480721A612D4B4FF400725A6103
:1023C800BB881B0A9AB22B4BDA60294B80225A61D0
:1023D800274B80221A61264B4FF400721A61244B56
:1023E8004FF480721A61224B4FF400725A61BB8815
:1023F800204ADBB2D3601E4B80225A611C4B8022DC
:102408001A611B4B4FF400721A61194B4FF480721A
:102418001A61174B4FF400725A61144B5B88013BE9
:102428001A12144BDA60124B80225A61104B802228
:102438001A610F4B4FF400721A610D4B4FF4807202
:102448001A610B4B4FF400725A61084B5B88013BD1
:10245800084ADBB2D360064B80225A61044B8022C3
:102468001A61034B4FF400721A61E2E0DC000020AD
:1024780000100140000C0140704B9B8845F210523F
:10248800934272D16D4B5B891846FFF7E7FD6C4BA1
:102498004FF480721A616A4B4FF400725A61FB88DC
:1024A8001B0A9AB2674BDA60654B80225A61644B0B
:1024B80080221A61624B4FF400721A615F4B5B898C
:1024C80001339BB21846FFF7C9FD5D4B4FF480728C
:1024D8001A615B4B4FF400725A61FB88594ADBB2B0
:1024E800D360574B80225A61554B80221A61544B56
:1024F8004FF400721A61514B9B891846FFF7AEFDE5
:102508004F4B4FF480721A614D4B4FF400725A6171
:10251800BB881B0A9AB24B4BDA60494B80225A613E
:10252800474B80221A61464B4FF400721A61434BA5
:102538009B8901339BB21846FFF790FD404B4FF43F
:1025480080721A613E4B4FF400725A61BB883D4A53
:10255800DBB2D3603A4B80225A61394B80221A6130
:10256800374B4FF400721A6163E0344B5B891846AD
:10257800FFF774FD324B4FF480721A61304B4FF401
:1025880000725A61FB881B0A9AB22E4BDA602C4BF8
:1025980080225A612A4B80221A61294B4FF400721B
:1025A8001A61274B4FF480721A61254B4FF4007261
:1025B8005A61FB88234ADBB2D360214B80225A61DF
:1025C8001F4B80221A611E4B4FF400721A611B4B7D
:1025D8009B891846FFF742FD194B4FF480721A6128
:1025E800174B4FF400725A61BB881B0A9AB2154BFD
:1025F800DA60134B80225A61114B80221A61104B0A
:102608004FF400721A610E4B4FF480721A610C4B32
:102618004FF400725A61BB880A4ADBB2D360084B98
:1026280080225A61064B80221A61054B4FF40072D2
:102638001A6100BF0837BD4680BD00BFDC0000201E
:1026480000100140000C014080B584B000AF034683
:10265800FB710023FB810023BB815D4B9B79012B20
:1026680005D15B4B9B8841F66312934209D1584BC5
:102678009B79002B34D1564B9B8841F663129342C9
:102688002ED1FB79072B2BD801A252F823F000BFDB
:10269800B9260008BF260008C5260008CB26000872
:1026A800D1260008D7260008DD260008E326000802
:1026B8000623FB7114E00723FB7111E00423FB716F
:1026C8000EE00523FB710BE00123FB7108E00023FA
:1026D800FB7105E00323FB7102E00223FB7100BFDD
:1026E800FB79072B35D801A252F823F05B270008A5
:1026F800152700081F270008292700083327000886
:102708003D2700084727000851270008FB8943F0A8
:102718008003FB811DE0FB8943F04003FB8118E047
:10272800FB8943F0C003FB8113E0FB8943F02003DE
:10273800FB810EE0FB8943F06003FB8109E0FB8924
:1027480043F0A003FB8104E0FB8943F0E003FB8135
:1027580000BF1F4B9B8845F21052934203D14FF4A0
:102768005853BB8101E03623BB81194B9B8849F242
:102778004132934205D0164B9B8847F289729342A7
:1027880003D1FB8943F00803FB81FA89BB89114611
:102798001846FFF7F9FC0E4B9B8841F663129342EB
:1027A80028D0FB8903F02003002B13D0084B1A888C
:1027B800074B5B889A421DD2054B1B887B81044BD3
:1027C8005A88034B1A80024A7B89538012E000BF63
:1027D800DC0000207F4B1A887E4B5B889A4209D91F
:1027E8007C4B1B887B817B4B5A887A4B1A80794AB1
:1027F8007B895380774B9B8845F21052934240F077
:10280800EF80744B5B891846FFF728FC724B4FF436
:1028180080721A61704B4FF400725A616F4B00223C
:10282800DA606D4B80225A616B4B80221A616A4BC9
:102838004FF400721A61674B5B8901339BB21846EB
:10284800FFF70CFC644B4FF480721A61624B4FF433
:1028580000725A61614B0022DA605F4B80225A6134
:102868005D4B80221A615C4B4FF400721A61594B20
:102878005B8902339BB21846FFF7F0FB564B4FF4C7
:1028880080721A61544B4FF400725A61514B1B8885
:10289800013B1A12514BDA604F4B80225A614E4B62
:1028A80080221A614C4B4FF400721A61494B5B89C4
:1028B80003339BB21846FFF7D1FB474B4FF48072A6
:1028C8001A61454B4FF400725A61424B1B88013B19
:1028D800424ADBB2D360404B80225A613E4B802291
:1028E8001A613D4B4FF400721A613A4B9B891846A6
:1028F800FFF7B4FB384B4FF480721A61364B4FF434
:1029080000725A61354B0022DA60334B80225A61DB
:10291800314B80221A61304B4FF400721A612D4BF3
:102928009B8901339BB21846FFF798FB2A4B4FF45B
:1029380080721A61284B4FF400725A61274B0022AB
:10294800DA60254B80225A61234B80221A61224B80
:102958004FF400721A611F4B9B8902339BB21846D1
:10296800FFF77CFB1C4B4FF480721A611A4B4FF433
:1029780000725A61174B5B88013B1A12174BDA60D9
:10298800154B80225A61144B80221A61124B4FF466
:1029980000721A610F4B9B8903339BB21846FFF7ED
:1029A8005DFB0D4B4FF480721A610B4B4FF40072B4
:1029B8005A61084B5B88013B084ADBB2D360064B7F
:1029C80080225A61044B80221A61034B4FF4007233
:1029D8001A61C3E0DC00002000100140000C014037
:1029E800604B5B891846FFF739FB5F4B4FF48072E9
:1029F8001A615D4B4FF400725A615C4B0022DA6039
:102A0800594B80225A61584B80221A61564B4FF419
:102A180000721A61544B4FF480721A61524B4FF492
:102A280000725A61514B0022DA604F4B80225A6182
:102A38004D4B80221A614C4B4FF400721A614A4B7D
:102A48004FF480721A61484B4FF400725A61454B3B
:102A58001B88013B1A12454BDA60434B80225A61AE
:102A6800414B80221A61404B4FF400721A613E4B71
:102A78004FF480721A613C4B4FF400725A61394B23
:102A88001B88013B394ADBB2D360374B80225A613D
:102A9800354B80221A61344B4FF400721A61314B66
:102AA8009B891846FFF7DAFA2F4B4FF480721A61A8
:102AB8002D4B4FF400725A612C4B0022DA602A4BDE
:102AC80080225A61284B80221A61274B4FF40072EA
:102AD8001A61254B4FF480721A61234B4FF4007230
:102AE8005A61224B0022DA601F4B80225A611E4B2A
:102AF80080221A611C4B4FF400721A611A4B4FF472
:102B080080721A61184B4FF400725A61154B5B883A
:102B1800013B1A12154BDA60134B80225A61124B93
:102B280080221A61104B4FF400721A610E4B4FF459
:102B380080721A610C4B4FF400725A61094B5B8822
:102B4800013B0A4ADBB2D360074B80225A61064B2D
:102B580080221A61044B4FF400721A6100BF1037CB
:102B6800BD4680BDDC00002000100140000C014083
:102B780080B582B000AF03460A46FB801346BB808F
:102B8800BA88FB8811461846FFF734FBFFF726FB87
:102B98000C4B4FF480721A610A4B4FF400725A6161
:102BA800094B1A88094BDA60064B80225A61054B9B
:102BB80080221A61034B4FF400721A6100BF083774
:102BC800BD4680BD00100140DA000020000C014025
:102BD80080B582B000AF0346FB800B46BB8013462E
:102BE8007B803C4B9B8845F21052934278D1394BFD
:102BF8005B891846FFF732FA374B4FF480721A6137
:102C0800354B4FF400725A61FB881B0A9AB2334B5A
:102C1800DA60314B80225A612F4B80221A612E4B89
:102C28004FF400721A612B4B5B8901339BB2184633
:102C3800FFF714FA284B4FF480721A61264B4FF4B1
:102C480000725A61FB88254ADBB2D360224B80228E
:102C58005A61214B80221A611F4B4FF400721A618E
:102C68001C4B9B891846FFF7F9F91B4B4FF48072F0
:102C78001A61194B4FF400725A61BB881B0A9AB249
:102C8800164BDA60144B80225A61134B80221A616A
:102C9800114B4FF400721A610E4B9B8901339BB2A2
:102CA8001846FFF7DBF90C4B4FF480721A610A4B98
:102CB8004FF400725A61BB88084ADBB2D360064BF6
:102CC80080225A61044B80221A61034B4FF4007230
:102CD8001A6141E1DC00002000100140000C0140B5
:102CE800684B9B8841F66312934240F0D180654B54
:102CF8009B79002B06D1634B1A88FB88D31A9BB2A9
:102D0800013BFB805F4B5B891846FFF7A7F95E4BD9
:102D18004FF480721A615C4B4FF400725A61FB8861
:102D28001B0A9AB2594BDA60574B80225A61564BAC
:102D380080221A61544B4FF400721A61524B4FF4BF
:102D480080721A61504B4FF400725A61FB884F4AE7
:102D5800DBB2D3604C4B80225A614B4B80221A6104
:102D6800494B4FF400721A61474B4FF480721A6155
:102D7800454B4FF400725A61FB881B0A9AB2434BC9
:102D8800DA60414B80225A613F4B80221A613E4BE8
:102D98004FF400721A613C4B4FF480721A613A4B3F
:102DA8004FF400725A61FB88384ADBB2D360364B65
:102DB80080225A61344B80221A61334B4FF40072DF
:102DC8001A61304B9B891846FFF748F92E4B4FF490
:102DD80080721A612C4B4FF400725A61BB881B0A2F
:102DE8009AB22A4BDA60284B80225A61264B8022FD
:102DF8001A61254B4FF400721A61234B4FF480720D
:102E08001A61214B4FF400725A61BB881F4ADBB22A
:102E1800D3601D4B80225A611B4B80221A611A4BCA
:102E28004FF400721A61184B4FF480721A61164BF6
:102E38004FF400725A61BB881B0A9AB2134BDA60CE
:102E4800114B80225A61104B80221A610E4B4FF4AD
:102E580000721A610C4B4FF480721A610A4B4FF4DE
:102E680000725A61BB88094ADBB2D360064B8022E4
:102E78005A61054B80221A61034B4FF400721A61A4
:102E88006AE000BFDC00002000100140000C014097
:102E9800494B5B891846FFF7E1F8484B4FF48072BD
:102EA8001A61464B4FF400725A61FB881B0A9AB2AA
:102EB800434BDA60414B80225A61404B80221A61B1
:102EC8003E4B4FF400721A613C4B4FF480721A610A
:102ED8003A4B4FF400725A61FB88394ADBB2D3602F
:102EE800364B80225A61354B80221A61334B4FF49E
:102EF80000721A61304B9B891846FFF7AFF82F4BC9
:102F08004FF480721A612D4B4FF400725A61BB88DE
:102F18001B0A9AB22A4BDA60284B80225A61274B47
:102F280080221A61254B4FF400721A61234B4FF42B
:102F380080721A61214B4FF400725A61BB88204A93
:102F4800DBB2D3601D4B80225A611C4B80221A6170
:102F58001A4B4FF400721A61184B4FF480725A6181
:102F6800164B4FF400725A61134B1A89144BDA60EE
:102F7800124B80225A61114B80221A610F4B4FF479
:102F880000721A610D4B4FF480721A610B4B4FF4AB
:102F980000725A610A4A7B88D360084B80225A61C2
:102FA800064B80221A61054B4FF400721A6100BF6C
:102FB8000837BD4680BD00BFDC000020001001407E
:102FC800000C01400000000090B583B000AF03463C
:102FD800FB71BE20FFF742F84B4B4FF480721A6129
:102FE800494B4FF400725A61484B0522DA60464B50
:102FF80080225A61444B80221A61434B4FF400727D
:103008001A61414B4FF480721A613F4B4FF40072C2
:103018005A61FB791846FDF75FFA39A3D3E9002313
:10302800FDF7C4FA02460B46384C10461946FDF720
:103038006DFD0346E360344B80225A61324B802297
:103048001A61314B4FF400721A612F4B4FF48072A2
:103058001A612D4B4FF400725A612C4B0122DA6031
:10306800294B80225A61284B80221A61264B4FF443
:1030780000721A61244B4FF480721A61224B4FF48C
:1030880000725A61214BFF22DA601F4B80225A617D
:103098001D4B80221A611C4B4FF400721A611A4BA7
:1030A8004FF480721A61184B4FF400725A61174B33
:1030B8000022DA60144B80225A61134B80221A6175
:1030C800114B4FF400721A610F4B4FF480721A6162
:1030D8000D4B4FF400725A610C4B0022DA600A4B18
:1030E80080225A61084B80221A61074B4FF4007204
:1030F8001A6100BF0C37BD4690BD00BFAFF300801A
:10310800666666666666044000100140000C014071
:1031180080B582B000AF0346FB71584AFB799371C2
:10312800FB79002B51D1554BF0221A80534B4FF4A9
:10313800A0725A80514B9B8845F21052934214D189
:103148004E4B4FF430521A814C4B4FF428525A814F
:103158004A4B4FF42C529A81484B4FF4F0721A8024
:10316800464B4FF448725A8020E0444B9B8841F606
:103178006312934211D1414B2C221A813F4B2B22CF
:103188005A813E4B2A229A813C4B4FF4F0721A80A6
:103198003A4B4FF448725A8008E0384B2C221A8177
:1031A800364B2A225A81354B2B229A81334B9B88E6
:1031B80045F21032934259D1304B4FF4A0721A8025
:1031C8002E4B4FF4F0725A8050E02C4B4FF4A07203
:1031D8001A802A4BF0225A80284B9B8845F21052BD
:1031E800934214D1254B4FF430521A81234B4FF49C
:1031F80028525A81214B4FF42C529A811F4B4FF47D
:1032080048721A801D4B4FF4F0725A8020E01B4B15
:103218009B8841F66312934211D1184B2C221A81D4
:10322800164B2A225A81154B2B229A81134B4FF4A5
:1032380048721A80114B4FF4F0725A8008E00F4B15
:103248002C221A810D4B2A225A810C4B2B229A814F
:103258000A4B9B8845F21032934207D1074B4FF433
:10326800F0721A80054B4FF4A0725A800020FFF7C5
:10327800EBF900BF0837BD4680BD00BFDC00002069
:1032880080B588B000AFA14B9B69A04A43F0080302
:1032980093619E4B9B6903F00803BB60BB689B4B23
:1032A8009B699A4A43F010039361984B9B6903F01A
:1032B80010037B607B684FF4F863FB6001233B617C
:1032C80001237B610323BB6107F10C031946904876
:1032D80006F0CAFA4FF6FF73FB6007F10C031946B4
:1032E8008C4806F0C1FA8C4B5B68FB61FB6923F0E4
:1032F800E063FB61FB6943F08063FB61864AFB691D
:1033080053603220FEF746F901210020FEF73CFF0A
:103318003220FEF73FF9D320FEF7A0FEFEF7F8FEB5
:1033280003461A467D4B9A80FEF7F2FE03461A467C
:103338007A4B9A80FEF7ECFE03461A46774B9A8042
:10334800764B9B881B029AB2744B9A80FEF7E0FE7C
:1033580003461A46714B9B8813439AB26F4B9A8067
:103368006E4B9B8849F24132934200F0C1800420A1
:10337800FEF774FEFEF7CCFE03461A46674B9A80AA
:10338800FEF7C6FE03461A46644B9A80FEF7C0FE57
:1033980003461A46614B9A80604B9B881B029AB27F
:1033A8005E4B9A80FEF7B4FE03461A465B4B9B8839
:1033B80013439AB2594B9A80584B9B8848F2525201
:1033C800934203D1554B47F289729A80534B9B889D
:1033D80047F28972934200F08B80D420FEF73EFEBC
:1033E800FEF796FE03461A464C4B9A80FEF790FE6F
:1033F80003461A46494B9A80FEF78AFE03461A4648
:10340800464B9A80454B9B881B029AB2434B9A8045
:10341800FEF77EFE03461A46404B9B8813439AB23A
:103428003E4B9A803D4B9B8845F2103293425FD0C9
:103438004FF45A40FEF712FEFEF76AFE03461A469C
:10344800364B9A804FF45B40FEF708FEFEF760FEAD
:1034580003461A46314B9A80304B9B881B029AB21E
:103468002E4B9A804FF45C40FEF7F8FDFEF750FEB5
:1034780003461A46294B9B8813439AB2274B9A80D6
:10348800264B9B88B3F5004F03D1244B45F21052CD
:103498009A80224B9B8845F21052934228D0A12053
:1034A800FEF7DCFDFEF734FE03461A461B4B9A80F6
:1034B800FEF72EFE03461A46184B9A80174B9B8838
:1034C8001B029AB2154B9A80FEF722FE03461A4653
:1034D800124B9B8813439AB2104B9A800F4B9B88D0
:1034E80045F26172934203D10C4B41F663129A8004
:1034F8000A4B9B8819460A4807F0D6FE074B9B885B
:1035080049F24132934240F023810BE0001002401F
:1035180000100140000C014000000140DC000020C8
:103528008CC50008CF20FEF799FD0020FEF7BAFDF4
:10353800C120FEF7B7FD3020FEF7B4FDED20FEF701
:103548008DFD6420FEF7AEFD0320FEF7ABFD1220D3
:10355800FEF7A8FD8120FEF7A5FDE820FEF77EFD19
:103568008520FEF79FFD1020FEF79CFD7A20FEF7D0
:1035780099FDCB20FEF772FD3920FEF793FD2C2034
:10358800FEF790FD0020FEF78DFD3420FEF78AFD42
:103598000220FEF787FDF720FEF760FD2020FEF7EA
:1035A80081FDEA20FEF75AFD0020FEF77BFD002092
:1035B800FEF778FDC020FEF751FD1B20FEF772FDD7
:1035C800C120FEF74BFD0120FEF76CFDC520FEF77C
:1035D80045FD3020FEF766FD3020FEF763FDC7206D
:1035E800FEF73CFDB720FEF75DFD3620FEF736FD01
:1035F8004820FEF757FD3A20FEF730FD5520FEF72C
:1036080051FDB120FEF72AFD0020FEF74BFD1A20E0
:10361800FEF748FDB620FEF721FD0A20FEF742FD21
:10362800A220FEF73FFDF220FEF718FD0020FEF76E
:1036380039FD2620FEF712FD0120FEF733FDE020BC
:10364800FEF70CFD0F20FEF72DFD2A20FEF72AFDC0
:103658002820FEF727FD0820FEF724FD0E20FEF7A0
:1036680021FD0820FEF71EFD5420FEF71BFDA920B2
:10367800FEF718FD4320FEF715FD0A20FEF712FDA0
:103688000F20FEF70FFD0020FEF70CFD0020FEF7CF
:1036980009FD0020FEF706FD0020FEF703FDE120EE
:1036A800FEF7DCFC0020FEF7FDFC1520FEF7FAFC17
:1036B8001720FEF7F7FC0720FEF7F4FC1120FEF7B1
:1036C800F1FC0620FEF7EEFC2B20FEF7EBFC562063
:1036D800FEF7E8FC3C20FEF7E5FC0520FEF7E2FCDF
:1036E8001020FEF7DFFC0F20FEF7DCFC3F20FEF782
:1036F800D9FC3F20FEF7D6FC0F20FEF7D3FC2B2089
:10370800FEF7ACFC0020FEF7CDFC0020FEF7CAFC5B
:103718000120FEF7C7FC3F20FEF7C4FC2A20FEF775
:103728009DFC0020FEF7BEFC0020FEF7BBFC00203D
:10373800FEF7B8FCEF20FEF7B5FC1120FEF78EFC73
:103748007820FDF727FF2920FEF788FC02F096BBBA
:103758006D4B9B8847F28972934240F0D7801120C5
:10376800FEF77CFC7820FDF715FF3620FEF776FC87
:103778000020FEF797FC3A20FEF770FC0520FEF7C4
:1037880091FCB220FEF76AFC0C20FEF78BFC0C20A3
:10379800FEF788FC0020FEF785FC3320FEF782FC4C
:1037A8003320FEF77FFCB720FEF758FC3520FEF7E4
:1037B80079FCBB20FEF752FC3220FEF773FCC020D8
:1037C800FEF74CFC0C20FEF76DFCC220FEF746FC11
:1037D8000120FEF767FCC320FEF740FC1020FEF72F
:1037E80061FCC420FEF73AFC2020FEF75BFCC620F3
:1037F800FEF734FC0F20FEF755FCD020FEF72EFC18
:10380800A420FEF74FFCA120FEF74CFCE020FEF7B9
:1038180025FCD020FEF746FC0020FEF743FC0220E2
:10382800FEF740FC0720FEF73DFC0A20FEF73AFCB5
:103838002820FEF737FC3220FEF734FC4420FEF740
:1038480031FC4220FEF72EFC0620FEF72BFC0E2052
:10385800FEF728FC1220FEF725FC1420FEF722FCB8
:103868001720FEF71FFCE120FEF7F8FBD020FEF73B
:1038780019FC0020FEF716FC0220FEF713FC0720B7
:10388800FEF710FC0A20FEF70DFC2820FEF70AFCC4
:103898003120FEF707FC5420FEF704FC4720FEF712
:1038A80001FC0E20FEF7FEFB1C20FEF7FBFB172099
:1038B800FEF7F8FB1B20FEF7F5FB1E20FEF7F2FBD8
:1038C8002A20FEF7CBFB0020FEF7ECFB0020FEF7DA
:1038D800E9FB0020FEF7E6FBEF20FEF7E3FB2B20D9
:1038E800FEF7BCFB0020FEF7DDFB0020FEF7DAFB4D
:1038F8000120FEF7D7FB3F20FEF7D4FB2920FEF777
:10390800ADFB02F0BBBA00BFDC000020034B9B8874
:1039180045F21032934240F07C8701E0DC00002041
:10392800ED20FEF79BFB0120FEF7BCFBFE20FEF717
:10393800B9FBEE20FEF792FBDE20FEF7B3FB212059
:10394800FEF7B0FBF120FEF789FB0120FEF7AAFB8A
:10395800DF20FEF783FB1020FEF7A4FBC420FEF750
:103968007DFB8F20FEF79EFBC620FEF777FB00202D
:10397800FEF798FBE220FEF795FBE220FEF792FBAC
:10398800E220FEF78FFBBF20FEF768FBAA20FEF7B8
:1039980089FBB020FEF762FB0D20FEF783FB0020B9
:1039A800FEF780FB0D20FEF77DFB0020FEF77AFB7B
:1039B8001120FEF777FB0020FEF774FB1920FEF7B5
:1039C80071FB0020FEF76EFB2120FEF76BFB002049
:1039D800FEF768FB2D20FEF765FB0020FEF762FB73
:1039E8003D20FEF75FFB0020FEF75CFB5D20FEF745
:1039F80059FB0020FEF756FB5D20FEF753FB002025
:103A0800FEF750FBB120FEF729FB8020FEF74AFBAA
:103A18000020FEF747FB8B20FEF744FB0020FEF753
:103A280041FB9620FEF73EFB0020FEF73BFBB22051
:103A3800FEF714FB0020FEF735FB0020FEF732FBF3
:103A48000220FEF72FFB0020FEF72CFB0320FEF7D9
:103A580029FB0020FEF726FBB320FEF7FFFA002023
:103A6800FEF720FB0020FEF71DFB0020FEF71AFBE7
:103A78000020FEF717FB0020FEF714FB0020FEF7DE
:103A880011FB0020FEF70EFB0020FEF70BFB0020C9
:103A9800FEF708FB0020FEF705FB0020FEF702FBFF
:103AA8000020FEF7FFFA0020FEF7FCFA0020FEF7E0
:103AB800F9FA0020FEF7F6FA0020FEF7F3FA0020E4
:103AC800FEF7F0FA0020FEF7EDFA0020FEF7EAFA1A
:103AD8000020FEF7E7FA0020FEF7E4FA0020FEF7E0
:103AE800E1FA0020FEF7DEFA0020FEF7DBFAB42048
:103AF800FEF7B4FA8B20FEF7D5FA0020FEF7D2FACB
:103B08009620FEF7CFFA0020FEF7CCFAA120FEF7A8
:103B1800C9FA0020FEF7C6FAB520FEF79FFA022080
:103B2800FEF7C0FA0020FEF7BDFA0320FEF7BAFA46
:103B38000020FEF7B7FA0420FEF7B4FA0020FEF7DB
:103B4800B1FAB620FEF78AFA0020FEF7ABFA002099
:103B5800FEF7A8FAB720FEF781FA0020FEF7A2FACE
:103B68000020FEF79FFA3F20FEF79CFA0020FEF7A0
:103B780099FA5E20FEF796FA0020FEF793FA642081
:103B8800FEF790FA0020FEF78DFA8C20FEF78AFAED
:103B98000020FEF787FAAC20FEF784FA0020FEF733
:103BA80081FADC20FEF77EFA0020FEF77BFA70200F
:103BB800FEF778FA0020FEF775FA9020FEF772FA01
:103BC8000020FEF76FFAEB20FEF76CFA0020FEF7F4
:103BD80069FADC20FEF766FA0020FEF763FAB820DF
:103BE800FEF73CFA0020FEF75DFA0020FEF75AFACD
:103BF8000020FEF757FA0020FEF754FA0020FEF7DF
:103C080051FA0020FEF74EFA0020FEF74BFA00208A
:103C1800FEF748FABA20FEF721FA2420FEF742FA06
:103C28000020FEF73FFA0020FEF73CFA0020FEF7DE
:103C380039FAC120FEF712FA2020FEF733FA0020E5
:103C4800FEF730FA5420FEF72DFA0020FEF72AFA84
:103C5800FF20FEF727FA0020FEF724FAC220FEF71D
:103C6800FDF90A20FEF71EFA0020FEF71BFA0420D1
:103C7800FEF718FA0020FEF715FAC320FEF7EEF952
:103C88003C20FEF70FFA0020FEF70CFA3A20FEF768
:103C980009FA0020FEF706FA3920FEF703FA002099
:103CA800FEF700FA3720FEF7FDF90020FEF7FAF9D3
:103CB8003C20FEF7F7F90020FEF7F4F93620FEF76E
:103CC800F1F90020FEF7EEF93220FEF7EBF90020BB
:103CD800FEF7E8F92F20FEF7E5F90020FEF7E2F9F4
:103CE8002C20FEF7DFF90020FEF7DCF92920FEF78B
:103CF800D9F90020FEF7D6F92620FEF7D3F90020DF
:103D0800FEF7D0F92420FEF7CDF90020FEF7CAF916
:103D18002420FEF7C7F90020FEF7C4F92320FEF798
:103D2800C1F90020FEF7BEF93C20FEF7BBF90020E0
:103D3800FEF7B8F93620FEF7B5F90020FEF7B2F91C
:103D48003220FEF7AFF90020FEF7ACF92F20FEF77E
:103D5800A9F90020FEF7A6F92C20FEF7A3F9002008
:103D6800FEF7A0F92920FEF79DF90020FEF79AF941
:103D78002620FEF797F90020FEF794F92420FEF795
:103D880091F90020FEF78EF92420FEF78BF9002028
:103D9800FEF788F92320FEF785F90020FEF782F95F
:103DA800C420FEF75BF96220FEF77CF90020FEF7DD
:103DB80079F90520FEF776F90020FEF773F98420DB
:103DC800FEF770F90020FEF76DF9F020FEF76AF9AA
:103DD8000020FEF767F91820FEF764F90020FEF7C7
:103DE80061F9A420FEF75EF90020FEF75BF91820C0
:103DF800FEF758F90020FEF755F95020FEF752F962
:103E08000020FEF74FF90C20FEF74CF90020FEF7D2
:103E180049F91720FEF746F90020FEF743F99520E7
:103E2800FEF740F90020FEF73DF9F320FEF73AF9D6
:103E38000020FEF737F9E620FEF734F90020FEF7F8
:103E480031F9C520FEF70AF93220FEF72BF90020D8
:103E5800FEF728F94420FEF725F90020FEF722F99D
:103E68006520FEF71FF90020FEF71CF97620FEF703
:103E780019F90020FEF716F98820FEF713F900203B
:103E8800FEF710F9C620FEF7E9F82020FEF70AF938
:103E98000020FEF707F91720FEF704F90020FEF7C7
:103EA80001F90120FEF7FEF80020FEF7FBF8C72015
:103EB800FEF7D4F80020FEF7F5F80020FEF7F2F838
:103EC8000020FEF7EFF80020FEF7ECF8C820FEF718
:103ED800C5F80020FEF7E6F80020FEF7E3F800201A
:103EE800FEF7E0F80020FEF7DDF8C920FEF7B6F887
:103EF8000020FEF7D7F80020FEF7D4F80020FEF7E0
:103F0800D1F80020FEF7CEF80020FEF7CBF800200D
:103F1800FEF7C8F80020FEF7C5F80020FEF7C2F843
:103F28000020FEF7BFF80020FEF7BCF80020FEF7DF
:103F3800B9F80020FEF7B6F80020FEF7B3F8002025
:103F4800FEF7B0F80020FEF7ADF80020FEF7AAF85B
:103F5800E020FEF783F81620FEF7A4F80020FEF70D
:103F6800A1F81C20FEF79EF80020FEF79BF8212000
:103F7800FEF798F80020FEF795F83620FEF792F83D
:103F88000020FEF78FF84620FEF78CF80020FEF799
:103F980089F85220FEF786F80020FEF783F864209F
:103FA800FEF780F80020FEF77DF87A20FEF77AF811
:103FB8000020FEF777F88B20FEF774F80020FEF754
:103FC80071F89920FEF76EF80020FEF76BF8A8202C
:103FD800FEF768F80020FEF765F8B920FEF762F8EA
:103FE8000020FEF75FF8C420FEF75CF80020FEF71B
:103FF80059F8CA20FEF756F80020FEF753F8D220E9
:10400800FEF750F80020FEF74DF8D920FEF74AF8E1
:104018000020FEF747F8E020FEF744F80020FEF7FE
:1040280041F8F320FEF73EF80020FEF73BF8E120C8
:10403800FEF714F81620FEF735F80020FEF732F8E0
:104048001C20FEF72FF80020FEF72CF82220FEF7A0
:1040580029F80020FEF726F83620FEF723F800207E
:10406800FEF720F84520FEF71DF80020FEF71AF8A5
:104078005220FEF717F80020FEF714F86420FEF728
:1040880011F80020FEF70EF87A20FEF70BF8002052
:10409800FEF708F88B20FEF705F80020FEF702F877
:1040A8009920FDF7FFFF0020FDF7FCFFA820FDF792
:1040B800F9FF0020FDF7F6FFB920FDF7F3FF002018
:1040C800FDF7F0FFC420FDF7EDFF0020FDF7EAFF44
:1040D800CA20FDF7E7FF0020FDF7E4FFD220FDF737
:1040E800E1FF0020FDF7DEFFD820FDF7DBFF002011
:1040F800FDF7D8FFE020FDF7D5FF0020FDF7D2FF40
:10410800F320FDF7CFFF0020FDF7CCFFE220FDF7FD
:10411800A5FF0520FDF7C6FF0020FDF7C3FF0B2014
:10412800FDF7C0FF0020FDF7BDFF1B20FDF7BAFF1C
:104138000020FDF7B7FF3420FDF7B4FF0020FDF79E
:10414800B1FF4420FDF7AEFF0020FDF7ABFF4F2085
:10415800FDF7A8FF0020FDF7A5FF6120FDF7A2FFEE
:104168000020FDF79FFF7920FDF79CFF0020FDF759
:1041780099FF8820FDF796FF0020FDF793FF972011
:10418800FDF790FF0020FDF78DFFA620FDF78AFFC1
:104198000020FDF787FFB720FDF784FF0020FDF71B
:1041A80081FFC220FDF77EFF0020FDF77BFFC720BF
:1041B800FDF778FF0020FDF775FFD120FDF772FFAE
:1041C8000020FDF76FFFD620FDF76CFF0020FDF7FC
:1041D80069FFDD20FDF766FF0020FDF763FFF32090
:1041E800FDF760FF0020FDF75DFFE320FDF736FFD8
:1041F8000520FDF757FF0020FDF754FF0A20FDF7C3
:1042080051FF0020FDF74EFF1C20FDF74BFF00205B
:10421800FDF748FF3320FDF745FF0020FDF742FF7B
:104228004420FDF73FFF0020FDF73CFF5020FDF73D
:1042380039FF0020FDF736FF6220FDF733FF00202D
:10424800FDF730FF7820FDF72DFF0020FDF72AFF4E
:104258008820FDF727FF0020FDF724FF9720FDF7B2
:1042680021FF0020FDF71EFFA620FDF71BFF002001
:10427800FDF718FFB720FDF715FF0020FDF712FF27
:10428800C220FDF70FFF0020FDF70CFFC720FDF748
:1042980009FF0020FDF706FFD120FDF703FF0020EE
:1042A800FDF700FFD520FDF7FDFE0020FDF7FAFE23
:1042B800DD20FDF7F7FE0020FDF7F4FEF320FDF703
:1042C800F1FE0020FDF7EEFEE420FDF7C7FE012019
:1042D800FDF7E8FE0020FDF7E5FE0120FDF7E2FE10
:1042E8000020FDF7DFFE0220FDF7DCFE0020FDF7D1
:1042F800D9FE2A20FDF7D6FE0020FDF7D3FE3C208C
:10430800FDF7D0FE0020FDF7CDFE4B20FDF7CAFEDD
:104318000020FDF7C7FE5D20FDF7C4FE0020FDF775
:10432800C1FE7420FDF7BEFE0020FDF7BBFE842011
:10433800FDF7B8FE0020FDF7B5FE9320FDF7B2FEAD
:104348000020FDF7AFFEA220FDF7ACFE0020FDF730
:10435800A9FEB320FDF7A6FE0020FDF7A3FEBE20B0
:10436800FDF7A0FE0020FDF79DFEC420FDF79AFE94
:104378000020FDF797FECD20FDF794FE0020FDF705
:1043880091FED320FDF78EFE0020FDF78BFEDD2089
:10439800FDF788FE0020FDF785FEF320FDF782FE7D
:1043A8000020FDF77FFEE520FDF758FE0020FDF711
:1043B80079FE0020FDF776FE0020FDF773FE002051
:1043C800FDF770FE0220FDF76DFE0020FDF76AFE86
:1043D8002920FDF767FE0020FDF764FE3C20FDF76D
:1043E80061FE0020FDF75EFE4B20FDF75BFE00201E
:1043F800FDF758FE5D20FDF755FE0020FDF752FE43
:104408007420FDF74FFE0020FDF74CFE8420FDF7D9
:1044180049FE0020FDF746FE9320FDF743FE0020ED
:10442800FDF740FEA220FDF73DFE0020FDF73AFE15
:10443800B320FDF737FE0020FDF734FEBE20FDF760
:1044480031FE0020FDF72EFEC420FDF72BFE0020D4
:10445800FDF728FECD20FDF725FE0020FDF722FE02
:10446800D320FDF71FFE0020FDF71CFEDC20FDF722
:1044780019FE0020FDF716FEF320FDF713FE0020BD
:10448800FDF710FEE620FDF7E9FD1120FDF70AFE15
:104498000020FDF707FE3420FDF704FE0020FDF79D
:1044A80001FE5620FDF7FEFD0020FDF7FBFD7620FE
:1044B800FDF7F8FD0020FDF7F5FD7720FDF7F2FD8B
:1044C8000020FDF7EFFD6620FDF7ECFD0020FDF76D
:1044D800E9FD8820FDF7E6FD0020FDF7E3FD9920C2
:1044E800FDF7E0FD0020FDF7DDFDBB20FDF7DAFD5F
:1044F8000020FDF7D7FD9920FDF7D4FD0020FDF73A
:10450800D1FD6620FDF7CEFD0020FDF7CBFD55203F
:10451800FDF7C8FD0020FDF7C5FD5520FDF7C2FDDC
:104528000020FDF7BFFD4520FDF7BCFD0020FDF78D
:10453800B9FD4320FDF7B6FD0020FDF7B3FD44208B
:10454800FDF7B0FD0020FDF7ADFDE720FDF786FD86
:104558003220FDF7A7FD0020FDF7A4FD5520FDF74B
:10456800A1FD0020FDF79EFD7620FDF79BFD0020B4
:10457800FDF798FD6620FDF795FD0020FDF792FDFB
:104588006720FDF78FFD0020FDF78CFD6720FDF704
:1045980089FD0020FDF786FD8720FDF783FD0020BB
:1045A800FDF780FD9920FDF77DFD0020FDF77AFDE0
:1045B800BB20FDF777FD0020FDF774FD9920FDF77E
:1045C80071FD0020FDF76EFD7720FDF76BFD0020E3
:1045D800FDF768FD4420FDF765FD0020FDF762FD4D
:1045E8005620FDF75FFD0020FDF75CFD2320FDF759
:1045F80059FD0020FDF756FD3320FDF753FD00203F
:10460800FDF750FD4520FDF74DFD0020FDF74AFD63
:10461800E820FDF723FD0020FDF744FD0020FDF70D
:1046280041FD9920FDF73EFD0020FDF73BFD872069
:10463800FDF738FD0020FDF735FD8820FDF732FD38
:104648000020FDF72FFD7720FDF72CFD0020FDF75A
:1046580029FD6620FDF726FD0020FDF723FD8820B3
:10466800FDF720FD0020FDF71DFDAA20FDF71AFD2E
:104678000020FDF717FDBB20FDF714FD0020FDF716
:1046880011FD9920FDF70EFD0020FDF70BFD6620BA
:10469800FDF708FD0020FDF705FD5520FDF702FD9B
:1046A8000020FDF7FFFC5520FDF7FCFC0020FDF77E
:1046B800F9FC4420FDF7F6FC0020FDF7F3FC44204C
:1046C800FDF7F0FC0020FDF7EDFC5520FDF7EAFCB6
:1046D8000020FDF7E7FCE920FDF7C0FCAA20FDF764
:1046E800E1FC0020FDF7DEFC0020FDF7DBFC0020EC
:1046F800FDF7D8FC0020FDF7B1FCAA20FDF7D2FC9D
:10470800CF20FDF7ABFC0020FDF7CCFC0020FDF727
:10471800C9FC0020FDF7C6FC0020FDF7C3FC002003
:10472800FDF7C0FC0020FDF7BDFC0020FDF7BAFC3A
:104738000020FDF7B7FC0020FDF7B4FC0020FDF7D2
:10474800B1FC0020FDF7AEFC0020FDF7ABFC00201B
:10475800FDF7A8FC0020FDF7A5FC0020FDF7A2FC52
:104768000020FDF79FFC0020FDF79CFCF020FDF7E2
:1047780075FC0020FDF796FC5020FDF793FC002007
:10478800FDF790FC0020FDF78DFC0020FDF78AFC6A
:10479800F320FDF763FC0020FDF784FCF920FDF70A
:1047A8005DFC0620FDF77EFC1020FDF77BFC292030
:1047B800FDF778FC0020FDF775FC3A20FDF74EFC6C
:1047C8005520FDF76FFC1120FDF748FC6420FCF72D
:1047D800E1FE2920FDF742FC3520FDF73FFC0020D3
:1047E800FDF760FC5120FDF739FCFF20FDF75AFC6E
:1047F8005320FDF733FC2C20FDF754FC5520FDF722
:104808002DFC8220FDF74EFC2C20FDF727FC01F043
:1048180035BB044B9B8845F21052934240F0818788
:1048280002E000BFDC00002055214FF47040FDF786
:10483800ABFCAA214FF20100FDF7A6FC52214FF272
:104848000200FDF7A1FC08214FF20300FDF79CFCD4
:1048580001214FF20400FDF797FC0D214FF4304081
:10486800FDF792FC0D214BF20100FDF78DFC0D21A7
:104878004BF20200FDF788FC34214FF43640FDF777
:1048880083FC34214BF20160FDF77EFC34214BF2AE
:104898000260FDF779FC0D214FF43140FDF774FCFF
:1048A8000D214BF20110FDF76FFC0D214BF20210A8
:1048B800FDF76AFC34214FF43740FDF765FC3421DD
:1048C8004BF20170FDF760FC34214BF20270FDF7EA
:1048D8005BFC00214FF43240FDF756FC00214BF2FF
:1048E8000120FDF751FC00214BF20220FDF74CFCA2
:1048F80024214FF43840FDF747FC24214BF60100F2
:10490800FDF742FC24214BF60200FDF73DFC012196
:104918004FF43F40FDF738FC0F214FF43340FDF7CB
:1049280033FC0F214BF20130FDF72EFC0F214BF227
:104938000230FDF729FC34214FF43940FDF724FCFF
:1049480034214BF60110FDF71FFC34214BF6021001
:10495800FDF71AFC08214FF43540FDF715FC082136
:104968004BF20150FDF710FC08214BF20250FDF705
:104978000BFC03214FF44240FDF706FC24214FF4C1
:104988003A40FDF701FC24214BF60120FDF7FCFB22
:1049980024214BF60220FDF7F7FB00214FF43C40A1
:1049A800FDF7F2FB78214BF60140FDF7EDFB002106
:1049B8004BF60240FDF7E8FB00214FF43D40FDF7C0
:1049C800E3FB78214BF60150FDF7DEFB00214BF6A7
:1049D8000250FDF7D9FB00214FF43E40FDF7D4FB10
:1049E80064214BF60160FDF7CFFB00214FF45140E5
:1049F800FDF7CAFB33214DF20110FDF7C5FB00217D
:104A08004DF20210FDF7C0FB34214DF20310FDF703
:104A1800BBFB00214DF20410FDF7B6FB3A214DF225
:104A28000510FDF7B1FB00214DF20610FDF7ACFBB8
:104A38004A214DF20710FDF7A7FB00214DF208109F
:104A4800FDF7A2FB5C214DF20910FDF79DFB00214B
:104A58004DF20A10FDF798FB81214DF20B10FDF77E
:104A680093FB00214DF20C10FDF78EFBA6214DF2B1
:104A78000D10FDF789FB00214DF20E10FDF784FBA8
:104A8800E5214DF20F10FDF77FFB01214DF21010CB
:104A9800FDF77AFB13214DF21110FDF775FB01218B
:104AA8004DF21210FDF770FB54214DF21310FDF773
:104AB8006BFB01214DF21410FDF766FB82214DF2CC
:104AC8001510FDF761FB01214DF21610FDF75CFB97
:104AD800CA214DF21710FDF757FB02214DF21810AD
:104AE800FDF752FB00214DF21910FDF74DFB022195
:104AF8004DF21A10FDF748FB01214DF21B10FDF78E
:104B080043FB02214DF21C10FDF73EFB34214DF210
:104B18001D10FDF739FB02214DF21E10FDF734FB85
:104B280067214DF21F10FDF72FFB02214DF22010D7
:104B3800FDF72AFB84214DF22110FDF725FB022108
:104B48004DF22210FDF720FBA4214DF22310FDF7B2
:104B58001BFB02214DF22410FDF716FBB7214DF285
:104B68002510FDF711FB02214DF22610FDF70CFB75
:104B7800CF214DF22710FDF707FB02214DF2281037
:104B8800FDF702FBDE214DF22910FDF7FDFA0221A7
:104B98004DF22A10FDF7F8FAF2214DF22B10FDF72D
:104BA800F3FA02214DF22C10FDF7EEFAFE214DF238
:104BB8002D10FDF7E9FA03214DF22E10FDF7E4FA66
:104BC80010214DF22F10FDF7DFFA03214DF23010BE
:104BD800FDF7DAFA33214DF23110FDF7D5FA03214A
:104BE8004DF23210FDF7D0FA6D214DF23310FDF77A
:104BF800CBFA00214FF45240FDF7C6FA33214DF2AB
:104C08000120FDF7C1FA00214DF20220FDF7BCFAA0
:104C180034214DF20320FDF7B7FA00214DF20420AC
:104C2800FDF7B2FA3A214DF20520FDF7ADFA002161
:104C38004DF20620FDF7A8FA4A214DF20720FDF7AC
:104C4800A3FA00214DF20820FDF79EFA5C214DF2EF
:104C58000920FDF799FA00214DF20A20FDF794FA90
:104C680081214DF20B20FDF78FFA00214DF20C2027
:104C7800FDF78AFAA6214DF20D20FDF785FA0021ED
:104C88004DF20E20FDF780FAE5214DF20F20FDF7D9
:104C98007BFA01214DF21020FDF776FA13214DF22F
:104CA8001120FDF771FA01214DF21220FDF76CFA7F
:104CB80054214DF21320FDF767FA01214DF214201B
:104CC800FDF762FA82214DF21520FDF75DFA012108
:104CD8004DF21620FDF758FACA214DF21720FDF7BC
:104CE80053FA02214DF21820FDF74EFA00214DF239
:104CF8001920FDF749FA02214DF21A20FDF744FA6E
:104D080001214DF21B20FDF73FFA02214DF21C2034
:104D1800FDF73AFA34214DF21D20FDF735FA02214C
:104D28004DF21E20FDF730FA67214DF21F20FDF7E6
:104D38002BFA02214DF22020FDF726FA84214DF2AC
:104D48002120FDF721FA02214DF22220FDF71CFA5D
:104D5800A4214DF22320FDF717FA02214DF2242059
:104D6800FDF712FAB7214DF22520FDF70DFA0221C1
:104D78004DF22620FDF708FACF214DF22720FDF746
:104D880003FA02214DF22820FDF7FEF9DE214DF24B
:104D98002920FDF7F9F902214DF22A20FDF7F4F94F
:104DA800F2214DF22B20FDF7EFF902214DF22C20D4
:104DB800FDF7EAF9FE214DF22D20FDF7E5F9032173
:104DC8004DF22E20FDF7E0F910214DF22F20FDF7CE
:104DD800DBF903214DF23020FDF7D6F933214DF2EE
:104DE8003120FDF7D1F903214DF23220FDF7CCF93E
:104DF8006D214DF23320FDF7C7F900214FF45340E0
:104E0800FDF7C2F933214DF20130FDF7BDF900215C
:104E18004DF20230FDF7B8F934214DF20330FDF7B9
:104E2800B3F900214DF20430FDF7AEF93A214DF205
:104E38000530FDF7A9F900214DF20630FDF7A4F978
:104E48004A214DF20730FDF79FF900214DF2083055
:104E5800FDF79AF95C214DF20930FDF795F900212B
:104E68004DF20A30FDF790F981214DF20B30FDF734
:104E78008BF900214DF20C30FDF786F9A6214DF291
:104E88000D30FDF781F900214DF20E30FDF77CF968
:104E9800E5214DF20F30FDF777F901214DF2103081
:104EA800FDF772F913214DF21130FDF76DF901216B
:104EB8004DF21230FDF768F954214DF21330FDF729
:104EC80063F901214DF21430FDF75EF982214DF2AC
:104ED8001530FDF759F901214DF21630FDF754F957
:104EE800CA214DF21730FDF74FF902214DF2183063
:104EF800FDF74AF900214DF21930FDF745F9022175
:104F08004DF21A30FDF740F901214DF21B30FDF743
:104F18003BF902214DF21C30FDF736F934214DF2F0
:104F28001D30FDF731F902214DF21E30FDF72CF945
:104F380067214DF21F30FDF727F902214DF220308D
:104F4800FDF722F984214DF22130FDF71DF90221E8
:104F58004DF22230FDF718F9A4214DF22330FDF768
:104F680013F902214DF22430FDF70EF9B7214DF265
:104F78002530FDF709F902214DF22630FDF704F935
:104F8800CF214DF22730FDF7FFF802214DF22830EE
:104F9800FDF7FAF8DE214DF22930FDF7F5F8022188
:104FA8004DF22A30FDF7F0F8F2214DF22B30FDF7E3
:104FB800EBF802214DF22C30FDF7E6F8FE214DF218
:104FC8002D30FDF7E1F803214DF22E30FDF7DCF826
:104FD80010214DF22F30FDF7D7F803214DF2303074
:104FE800FDF7D2F833214DF23130FDF7CDF803212A
:104FF8004DF23230FDF7C8F86D214DF23330FDF730
:10500800C3F800214FF45440FDF7BEF833214DF2A8
:105018000140FDF7B9F800214DF20240FDF7B4F860
:1050280034214DF20340FDF7AFF800214DF2044062
:10503800FDF7AAF83A214DF20540FDF7A5F8002141
:105048004DF20640FDF7A0F84A214DF20740FDF762
:105058009BF800214DF20840FDF796F85C214DF2CF
:105068000940FDF791F800214DF20A40FDF78CF850
:1050780081214DF20B40FDF787F800214DF20C40DD
:10508800FDF782F8A6214DF20D40FDF77DF80021CD
:105098004DF20E40FDF778F8E5214DF20F40FDF78F
:1050A80073F801214DF21040FDF76EF813214DF20F
:1050B8001140FDF769F801214DF21240FDF764F83F
:1050C80054214DF21340FDF75FF801214DF21440D1
:1050D800FDF75AF882214DF21540FDF755F80121E8
:1050E8004DF21640FDF750F8CA214DF21740FDF772
:1050F8004BF802214DF21840FDF746F800214DF219
:105108001940FDF741F802214DF21A40FDF73CF82D
:1051180001214DF21B40FDF737F802214DF21C40EA
:10512800FDF732F834214DF21D40FDF72DF802212C
:105138004DF21E40FDF728F867214DF21F40FDF79C
:1051480023F802214DF22040FDF71EF884214DF28C
:105158002140FDF719F802214DF22240FDF714F81D
:10516800A4214DF22340FDF70FF802214DF224400F
:10517800FDF70AF8B7214DF22540FDF705F80221A1
:105188004DF22640FDF700F8CF214DF22740FCF7FD
:10519800FBFF02214DF22840FCF7F6FFDE214DF21D
:1051A8002940FCF7F1FF02214DF22A40FCF7ECFF01
:1051B800F2214DF22B40FCF7E7FF02214DF22C4083
:1051C800FCF7E2FFFE214DF22D40FCF7DDFF032145
:1051D8004DF22E40FCF7D8FF10214DF22F40FCF77E
:1051E800D3FF03214DF23040FCF7CEFF33214DF2BF
:1051F8003140FCF7C9FF03214DF23240FCF7C4FFF0
:105208006D214DF23340FCF7BFFF00214FF45540AC
:10521800FCF7BAFF33214DF20150FCF7B5FF00212E
:105228004DF20250FCF7B0FF34214DF20350FCF769
:10523800ABFF00214DF20450FCF7A6FF3A214DF2D6
:105248000550FCF7A1FF00214DF20650FCF79CFF2A
:105258004A214DF20750FCF797FF00214DF2085004
:10526800FCF792FF5C214DF20950FCF78DFF0021FD
:105278004DF20A50FCF788FF81214DF20B50FCF7E4
:1052880083FF00214DF20C50FCF77EFFA6214DF262
:105298000D50FCF779FF00214DF20E50FCF774FF1A
:1052A800E5214DF20F50FCF76FFF01214DF2105030
:1052B800FCF76AFF13214DF21150FCF765FF01213D
:1052C8004DF21250FCF760FF54214DF21350FCF7D9
:1052D8005BFF01214DF21450FCF756FF82214DF27D
:1052E8001550FCF751FF01214DF21650FCF74CFF09
:1052F800CA214DF21750FCF747FF02214DF2185012
:10530800FCF742FF00214DF21950FCF73DFF022146
:105318004DF21A50FCF738FF01214DF21B50FCF7F3
:1053280033FF02214DF21C50FCF72EFF34214DF2C1
:105338001D50FCF729FF02214DF21E50FCF724FFF7
:1053480067214DF21F50FCF71FFF02214DF220503C
:10535800FCF71AFF84214DF22150FCF715FF0221BA
:105368004DF22250FCF710FFA4214DF22350FCF718
:105378000BFF02214DF22450FCF706FFB7214DF236
:105388002550FCF701FF02214DF22650FCF7FCFEE8
:10539800CF214DF22750FCF7F7FE02214DF228509D
:1053A800FCF7F2FEDE214DF22950FCF7EDFE02215A
:1053B8004DF22A50FCF7E8FEF2214DF22B50FCF793
:1053C800E3FE02214DF22C50FCF7DEFEFE214DF2E9
:1053D8002D50FCF7D9FE03214DF22E50FCF7D4FED8
:1053E80010214DF22F50FCF7CFFE03214DF2305023
:1053F800FCF7CAFE33214DF23150FCF7C5FE0321FC
:105408004DF23250FCF7C0FE6D214DF23350FCF7DF
:10541800BBFE00214FF45640FCF7B6FE33214DF297
:105428000160FCF7B1FE00214DF20260FCF7ACFE12
:1054380034214DF20360FCF7A7FE00214DF2046011
:10544800FCF7A2FE3A214DF20560FCF79DFE002113
:105458004DF20660FCF798FE4A214DF20760FCF712
:1054680093FE00214DF20860FCF78EFE5C214DF2A0
:105478000960FCF789FE00214DF20A60FCF784FE02
:1054880081214DF20B60FCF77FFE00214DF20C608C
:10549800FCF77AFEA6214DF20D60FCF775FE00219F
:1054A8004DF20E60FCF770FEE5214DF20F60FCF73F
:1054B8006BFE01214DF21060FCF766FE13214DF2E0
:1054C8001160FCF761FE01214DF21260FCF75CFEF1
:1054D80054214DF21360FCF757FE01214DF2146080
:1054E800FCF752FE82214DF21560FCF74DFE0121BA
:1054F8004DF21660FCF748FECA214DF21760FCF722
:1055080043FE02214DF21860FCF73EFE00214DF2E9
:105518001960FCF739FE02214DF21A60FCF734FEDF
:1055280001214DF21B60FCF72FFE02214DF21C6099
:10553800FCF72AFE34214DF21D60FCF725FE0221FE
:105548004DF21E60FCF720FE67214DF21F60FCF74C
:105558001BFE02214DF22060FCF716FE84214DF25D
:105568002160FCF711FE02214DF22260FCF70CFECF
:10557800A4214DF22360FCF707FE02214DF22460BE
:10558800FCF702FEB7214DF22560FCF7FDFD022174
:105598004DF22660FCF7F8FDCF214DF22760FCF7AD
:1055A800F3FD02214DF22860FCF7EEFDDE214DF2FD
:1055B8002960FCF7E9FD02214DF22A60FCF7E4FDC1
:1055C800F2214DF22B60FCF7DFFD02214DF22C6039
:1055D800FCF7DAFDFE214DF22D60FCF7D5FD032125
:1055E8004DF22E60FCF7D0FD10214DF22F60FCF734
:1055F800CBFD03214DF23060FCF7C6FD33214DF29F
:105608003160FCF7C1FD03214DF23260FCF7BCFDAF
:105618006D214DF23360FCF7B7FD55214FF4704012
:10562800FCF7B2FDAA214FF20100FCF7ADFD5221B3
:105638004FF20200FCF7A8FD08214FF20300FCF727
:10564800A3FD00214FF20400FCF79EFDCC214FF48E
:105658003140FCF799FD00214BF20110FCF794FD55
:1056680005214FF43640FCF78FFD70214FF4374089
:10567800FCF78AFD70214BF20170FCF785FD0121D2
:105688004FF43840FCF780FD03214BF60100FCF78E
:105698007BFD03214BF60200FCF776FD03214BF658
:1056A8000300FCF771FD02214FF43C40FCF76CFD50
:1056B80000214BF60140FCF767FD00214BF6024044
:1056C800FCF762FDD0214FF44940FCF75DFD022153
:1056D8004CF60110FCF758FD50214CF60210FCF76F
:1056E80053FD50214CF60310FCF74EFD50214CF6AB
:1056F8000410FCF749FD00214FF45450FCF744FD19
:1057080055214FF46850FCF73FFD4FF48850FCF7E3
:10571800A5FC7820FBF700FF4FF42450FCF79EFC13
:10572800ACE3A84B9B8841F66312934240F0A683F2
:10573800E220FCF793FCA44B4FF480721A61A24B51
:105748004FF400725A61A14B1D22DA609E4B8022F1
:105758005A619D4B80221A619B4B4FF400721A616B
:10576800994B4FF480721A61974B4FF400725A614B
:10577800964B0222DA60944B80225A61924B802227
:105788001A61914B4FF400721A618F4B4FF480727B
:105798001A618D4B4FF400725A618C4B0422DA6007
:1057A800894B80225A61884B80221A61864B4FF4BC
:1057B80000721A616420FBF7AFFEE020FCF74EFC94
:1057C800814B4FF480721A617F4B4FF400725A611B
:1057D8007E4B0122DA607C4B80225A617A4B802210
:1057E8001A61794B4FF400721A610A20FBF7D2FE56
:1057F800E020FCF733FC744B4FF480721A61724B53
:105808004FF400725A61714B0322DA606E4B8022AA
:105818005A616D4B80221A616B4B4FF400721A610A
:105828000C20FBF7B7FE0120FCF718FC0A20FBF759
:10583800B1FEE620FCF712FC634B4FF480721A614C
:10584800614B4FF400725A61604B2F22DA605E4B55
:1058580080225A615C4B80221A615B4B4FF40072C4
:105868001A61594B4FF480721A61574B4FF400720A
:105878005A61564BFF22DA60534B80225A61524BD1
:1058880080221A61504B4FF400721A614E4B4FF44C
:1058980080721A614C4B4FF400725A614B4BFF22D5
:1058A800DA60494B80225A61474B80221A61464B85
:1058B8004FF400721A61B020FCF7D0FB424B4FF452
:1058C80080721A61404B4FF400725A613F4B20229C
:1058D800DA603D4B80225A613B4B80221A613A4B79
:1058E8004FF400721A61384B4FF480721A61364BCC
:1058F8004FF400725A61354B0022DA60324B802235
:105908005A61314B80221A612F4B4FF400721A6191
:105918002D4B4FF480721A612B4B4FF400725A6171
:105928002A4B0322DA60284B80225A61264B8022B8
:105938001A61254B4FF400721A61234B4FF48072A1
:105948001A61214B4FF400725A61204B40F21F320A
:10595800DA601D4B80225A611B4B80221A611A4B58
:105968004FF400721A61184B4FF480721A61164B8B
:105978004FF400725A61154B0122DA60124B8022F3
:105988005A61114B80221A610F4B4FF400721A6151
:105998000D4B4FF480721A610B4B4FF400725A6131
:1059A8000A4B40F2DF12DA60074B80225A61064B3D
:1059B80080221A61044B4FF400721A61024B4FF4B3
:1059C800807205E0DC00002000100140000C01405E
:1059D8001A61A34B4FF400725A61A24B0022DA609D
:1059E8009F4B80225A619E4B80221A619C4B4FF438
:1059F80000721A61B420FCF731FB994B4FF48072A6
:105A08001A61974B4FF400725A61964B0422DA6080
:105A1800934B80225A61924B80221A61904B4FF42B
:105A280000721A618E4B4FF480721A618C4B4FF4DE
:105A380000725A618B4B40F21F42DA60884B802219
:105A48005A61874B80221A61854B4FF400721A61A4
:105A5800834B4FF480721A61814B4FF400725A6184
:105A6800804B0022DA607E4B80225A617C4B802278
:105A78001A617B4B4FF400721A61794B4FF48072B4
:105A88001A61774B4FF400725A61764B2E22DA6016
:105A9800734B80225A61724B80221A61704B4FF40B
:105AA80000721A616E4B4FF480721A616C4B4FF49E
:105AB80000725A616B4B0022DA60694B80225A618E
:105AC800674B80221A61664B4FF400721A61644B6F
