:020000040800F2
:1000000000C0002005AC000871980008799800082D
:100010008198000889980008919800080000000065
:100020000000000000000000000000009998000897
:10003000A598000800000000B1980008BD980008CD
:100040004DAC00084DAC00084DAC00084DAC0008AC
:100050004DAC00084DAC00084DAC00084DAC00089C
:100060004DAC00084DAC00084DAC00084DAC00088C
:100070004DAC00084DAC00084DAC00084DAC00087C
:100080004DAC00084DAC00084DAC00084DAC00086C
:100090004DAC00084DAC00084DAC00084DAC00085C
:1000A0004DAC00084DAC00084DAC00084DAC00084C
:1000B000C99800084DAC00084DAC00084DAC0008D4
:1000C0004DAC00084DAC00084DAC0008DD980008B0
:1000D0004DAC00084DAC00084DAC00084DAC00081C
:1000E0004DAC00084DAC00084DAC00084DAC00080C
:1000F0004DAC00084DAC00084DAC00084DAC0008FC
:100100004DAC00084DAC00084DAC00084DAC0008EB
:100110004DAC00084DAC00084DAC00084DAC0008DB
:100120004DAC00084DAC00084DAC00084DAC0008CB
:1001300000000000000000000000000000000000BF
:1001400000000000000000000000000000000000AF
:10015000000000000000000000000000000000009F
:10016000000000000000000000000000000000008F
:10017000000000000000000000000000000000007F
:10018000000000000000000000000000000000006F
:10019000000000000000000000000000000000005F
:1001A000000000000000000000000000000000004F
:1001B000000000000000000000000000000000003F
:1001C000000000000000000000000000000000002F
:1001D000000000000000000000000000000000001F
:0401E0005FF8E0F1F3
:1001E80010B5054C237833B9044B13B10448AFF369
:1001F80000800123237010BDC8000020000000000B
:1002080080E1000808B5034B1BB103490348AFF36D
:10021800008008BD00000000CC00002080E100083C
:1002280010F8012B11F8013B012A28BF9A42F7D098
:10023800D01A704781F0004102E000BF83F000430C
:1002480030B54FEA41044FEA430594EA050F08BF69
:1002580090EA020F1FBF54EA000C55EA020C7FEA2D
:10026800645C7FEA655C00F0E2804FEA5454D4EBAA
:100278005555B8BF6D420CDD2C4480EA020281EA74
:10028800030382EA000083EA010180EA020281EAAC
:100298000303362D88BF30BD11F0004F4FEA0131FE
:1002A8004FF4801C4CEA113102D0404261EB41010D
:1002B80013F0004F4FEA03334CEA133302D0524293
:1002C80063EB430394EA050F00F0A780A4F101044F
:1002D800D5F1200E0DDB02FA0EFC22FA05F2801889
:1002E80041F1000103FA0EF2801843FA05F359416F
:1002F8000EE0A5F120050EF1200E012A03FA0EFCEE
:1003080028BF4CF0020C43FA05F3C01851EBE37117
:1003180001F0004507D54FF0000EDCF1000C7EEB34
:1003280000006EEB0101B1F5801F1BD3B1F5001F72
:100338000CD349085FEA30004FEA3C0C04F1010491
:100348004FEA445212F5800F80F09A80BCF1004FBA
:1003580008BF5FEA500C50F1000041EB045141EA3C
:10036800050130BD5FEA4C0C404141EB0101013C05
:1003780028BFB1F5801FE9D291F0000F04BF0146F4
:100388000020B1FA81F308BF2033A3F10B03B3F1C6
:1003980020020CDA0C3208DD02F1140CC2F10C0256
:1003A80001FA0CF021FA02F10CE002F11402D8BFB4
:1003B800C2F1200C01FA02F120FA0CFCDCBF41EA80
:1003C8000C019040E41AA2BF01EB0451294330BD4F
:1003D8006FEA04041F3C1CDA0C340EDC04F114042C
:1003E800C4F1200220FA04F001FA02F340EA030003
:1003F80021FA04F345EA030130BDC4F10C04C4F149
:10040800200220FA02F001FA04F340EA0300294628
:1004180030BD21FA04F0294630BD94F0000F83F472
:10042800801306BF81F480110134013D4EE77FEA55
:10043800645C18BF7FEA655C29D094EA050F08BFA1
:1004480090EA020F05D054EA000C04BF1946104682
:1004580030BD91EA030F1EBF0021002030BD5FEAC6
:10046800545C05D14000494128BF41F0004130BDEE
:1004780014F580043CBF01F5801130BD01F0004542
:1004880045F0FE4141F470014FF0000030BD7FEAB5
:10049800645C1ABF194610467FEA655C1CBF0B46B0
:1004A800024650EA013406BF52EA033591EA030FC7
:1004B80041F4002130BD00BF90F0000F04BF0021BF
:1004C800704730B54FF4806404F132044FF00005F2
:1004D8004FF0000150E700BF90F0000F04BF00216B
:1004E800704730B54FF4806404F1320410F00045D1
:1004F80048BF40424FF000013EE700BF42004FEACC
:10050800E2014FEA31014FEA02701FBF12F07F4348
:1005180093F07F4F81F06051704732F07F4208BFFF
:10052800704793F07F4F04BF41F40021704730B506
:100538004FF4607401F0004521F000411CE700BF52
:1005480050EA010208BF704730B54FF000050AE0D5
:1005580050EA010208BF704730B511F0004502D5D6
:10056800404261EB41014FF4806404F132045FEAD8
:10057800915C3FF4D8AE4FF003025FEADC0C18BF81
:1005880003325FEADC0C18BF033202EBDC02C2F173
:10059800200300FA03FC20FA02F001FA03FE40EA05
:1005A8000E0021FA02F11444BDE600BF70B54FF009
:1005B800FF0C4CF4E06C1CEA11541DBF1CEA1355E7
:1005C80094EA0C0F95EA0C0F00F0DEF82C4481EA4F
:1005D800030621EA4C5123EA4C5350EA013518BF6F
:1005E80052EA033541F4801143F4801338D0A0FB5C
:1005F80002CE4FF00005E1FB02E506F00042E0FB09
:1006080003E54FF00006E1FB03569CF0000F18BF0E
:100618004EF0010EA4F1FF04B6F5007F64F54074B6
:1006280004D25FEA4E0E6D4146EB060642EAC62149
:1006380041EA55514FEAC52040EA5E504FEACE2EB6
:10064800B4F1FD0C88BFBCF5E06F1ED8BEF1004FB9
:1006580008BF5FEA500E50F1000041EB045170BD35
:1006680006F0004646EA010140EA020081EA030179
:10067800B4EB5C04C2BFD4EB0C0541EA045170BD75
:1006880041F480114FF0000E013C00F3AB8014F1EF
:10069800360FDEBF002001F0004170BDC4F1000438
:1006A800203C35DA0C341BDC04F11404C4F12005B9
:1006B80000FA05F320FA04F001FA05F240EA020014
:1006C80001F0004221F0004110EBD37021FA04F64A
:1006D80042EB06015EEA430E08BF20EAD37070BD04
:1006E800C4F10C04C4F1200500FA04F320FA05F063
:1006F80001FA04F240EA020001F0004110EBD37065
:1007080041F100015EEA430E08BF20EAD37070BDD4
:10071800C4F1200500FA05F24EEA020E20FA04F3AD
:1007280001FA05F243EA020321FA04F001F000415C
:1007380021FA04F220EA020000EBD3705EEA430ECD
:1007480008BF20EAD37070BD94F0000F0FD101F0FC
:100758000046400041EB010111F4801F08BF013C35
:10076800F7D041EA060195F0000F18BF704703F073
:100778000046520043EB030313F4801F08BF013DFA
:10078800F7D043EA0603704794EA0C0F0CEA1355B6
:1007980018BF95EA0C0F0CD050EA410618BF52EA70
:1007A8004306D1D181EA030101F000414FF0000076
:1007B80070BD50EA410606BF1046194652EA430684
:1007C80019D094EA0C0F02D150EA013613D195EAF8
:1007D8000C0F05D152EA03361CBF104619460AD140
:1007E80081EA030101F0004141F0FE4141F470014A
:1007F8004FF0000070BD41F0FE4141F4780170BD3A
:1008080070B54FF0FF0C4CF4E06C1CEA11541DBF9E
:100818001CEA135594EA0C0F95EA0C0F00F0A7F8A0
:10082800A4EB050481EA030E52EA03354FEA0131CD
:1008380000F088804FEA03334FF0805545EA1313E0
:1008480043EA12634FEA022245EA111545EA1065A8
:100858004FEA00260EF000419D4208BF964244F13F
:10086800FD0404F5407402D25B084FEA3202B61A5E
:1008780065EB03055B084FEA32024FF480104FF432
:10088800002CB6EB020E75EB030E22BFB61A7546A6
:1008980040EA0C005B084FEA3202B6EB020E75EB39
:1008A800030E22BFB61A754640EA5C005B084FEAA1
:1008B8003202B6EB020E75EB030E22BFB61A75466E
:1008C80040EA9C005B084FEA3202B6EB020E75EB79
:1008D800030E22BFB61A754640EADC0055EA060E3A
:1008E80018D04FEA051545EA16754FEA06164FEA7D
:1008F800C30343EA52734FEAC2025FEA1C1CC0D129
:1009080011F4801F0BD141EA00014FF000004FF0B5
:10091800004CB6E711F4801F04BF01430020B4F176
:10092800FD0C88BFBCF5E06F3FF6AFAEB5EB030C2E
:1009380004BFB6EB020C5FEA500C50F1000041EB2B
:10094800045170BD0EF0004E4EEA113114EB5C04F8
:10095800C2BFD4EB0C0541EA045170BD41F48011CB
:100968004FF0000E013C90E645EA060E8DE60CEAD3
:10097800135594EA0C0F08BF95EA0C0F3FF43BAFF0
:1009880094EA0C0F0AD150EA01347FF434AF95EAA7
:100998000C0F7FF425AF104619462CE795EA0C0F8B
:1009A80006D152EA03353FF4FDAE1046194622E758
:1009B80050EA410618BF52EA43067FF4C5AE50EA32
:1009C80041047FF40DAF52EA43057FF4EBAE12E722
:1009D8004FF0FF3C06E000BF4FF0010C02E000BF03
:1009E8004FF0010C4DF804CD4FEA410C7FEA6C5CE6
:1009F8004FEA430C18BF7FEA6C5C1BD001B050EA89
:100A0800410C0CBF52EA430C91EA030F02BF90EA73
:100A1800020F0020704710F1000F91EA030F58BF32
:100A2800994208BF90422CBFD8176FEAE37040F094
:100A3800010070474FEA410C7FEA6C5C02D150EA32
:100A4800013C07D14FEA430C7FEA6C5CD6D152EAED
:100A5800033CD3D05DF8040B704700BF84461046B2
:100A680062468C461946634600E000BF01B5FFF7B1
:100A7800B7FF002848BF10F1000F01BD4DF808ED81
:100A8800FFF7F4FF0CBF012000205DF808FB00BF52
:100A98004DF808EDFFF7EAFF34BF012000205DF8AC
:100AA80008FB00BF4DF808EDFFF7E0FF94BF0120F9
:100AB80000205DF808FB00BF4DF808EDFFF7CEFFFA
:100AC80094BF012000205DF808FB00BF4DF808ED39
:100AD800FFF7C4FF34BF012000205DF808FB00BF0A
:100AE8004FEA410C7FEA6C5C02D150EA013C0AD122
:100AF8004FEA430C7FEA6C5C02D152EA033C02D114
:100B08004FF0000070474FF0010070474FEA410274
:100B180012F5001215D211D56FF47873B3EB625247
:100B280012D94FEAC12343F0004343EA505311F06E
:100B3800004F23FA02F018BF404270474FF0000000
:100B4800704750EA013005D111F0004008BF6FF03E
:100B5800004070474FF00000704700BF4A0011D2B4
:100B680012F5001211D20DD56FF47873B3EB6252FF
:100B78000ED44FEAC12343F0004343EA505323FA0B
:100B880002F070474FF00000704750EA013002D180
:100B98004FF0FF3070474FF00000704780F0004082
:100BA80002E000BF81F0004142001FBF5FEA41033D
:100BB80092EA030F7FEA226C7FEA236C6AD04FEA3D
:100BC8001262D2EB1363C1BFD21841404840414082
:100BD800B8BF5B42192B88BF704710F0004F40F434
:100BE800000020F07F4018BF404211F0004F41F450
:100BF800000121F07F4118BF494292EA030F3FD01C
:100C0800A2F1010241FA03FC10EB0C00C3F120032E
:100C180001FA03F100F0004302D5494260EB4000BD
:100C2800B0F5000F13D3B0F1807F06D340084FEA28
:100C3800310102F10102FE2A51D2B1F1004F40EB1D
:100C4800C25008BF20F0010040EA03007047490085
:100C580040EB0000013A28BFB0F5000FEDD2B0FA22
:100C680080FCACF1080CB2EB0C0200FA0CF0AABF45
:100C780000EBC25052421843BCBFD04018437047E3
:100C880092F0000F81F4000106BF80F400000132E9
:100C9800013BB5E74FEA41037FEA226C18BF7FEAC0
:100CA800236C21D092EA030F04D092F0000F08BF02
:100CB8000846704790EA010F1CBF0020704712F0E9
:100CC8007F4F04D1400028BF40F00040704712F128
:100CD80000723CBF00F50000704700F0004343F08D
:100CE800FE4040F4000070477FEA226216BF0846C3
:100CF8007FEA23630146420206BF5FEA412390EA86
:100D0800010F40F4800070474FF0000304E000BF7B
:100D180010F0004348BF40425FEA000C08BF70472C
:100D280043F0964301464FF000001CE050EA0102F0
:100D380008BF70474FF000030AE000BF50EA010205
:100D480008BF704711F0004302D5404261EB4101F2
:100D58005FEA010C02BF84460146002043F0B64317
:100D680008BFA3F18053A3F50003BCFA8CF2083A3C
:100D7800A3EBC25310DB01FA02FC634400FA02FC45
:100D8800C2F12002BCF1004F20FA02F243EB02004C
:100D980008BF20F00100704702F1200201FA02FCAE
:100DA800C2F1200250EA4C0021FA02F243EB0200A1
:100DB80008BF20EADC7070474FF0FF0C1CEAD052E5
:100DC8001EBF1CEAD15392EA0C0F93EA0C0F6FD0A6
:100DD8001A4480EA010C400218BF5FEA41211ED084
:100DE8004FF0006343EA501043EA5111A0FB013170
:100DF8000CF00040B1F5000F3EBF490041EAD37145
:100E08005B0040EA010062F17F02FD2A1DD8B3F1C0
:100E1800004F40EBC25008BF20F00100704790F02F
:100E2800000F0CF0004C08BF49024CEA502040EA81
:100E380051207F3AC2BFD2F1FF0340EAC250704747
:100E480040F400004FF00003013A5DDC12F1190F85
:100E5800DCBF00F000407047C2F10002410021FAF7
:100E680002F1C2F1200200FA02FC5FEA310040F10F
:100E7800000053EA4C0308BF20EADC70704792F088
:100E8800000F00F0004C02BF400010F4000F013AC0
:100E9800F9D040EA0C0093F0000F01F0004C02BFBB
:100EA800490011F4000F013BF9D041EA0C018FE72A
:100EB8000CEAD15392EA0C0F18BF93EA0C0F0AD030
:100EC80030F0004C18BF31F0004CD8D180EA010056
:100ED80000F00040704790F0000F17BF90F0004FEF
:100EE800084691F0000F91F0004F14D092EA0C0FD1
:100EF80001D142020FD193EA0C0F03D14B0218BF64
:100F0800084608D180EA010000F0004040F0FE40A9
:100F180040F40000704740F0FE4040F44000704745
:100F28004FF0FF0C1CEAD0521EBF1CEAD15392EAC4
:100F38000C0F93EA0C0F69D0A2EB030280EA010CB4
:100F480049024FEA402037D04FF0805343EA11114D
:100F580043EA10130CF000408B4238BF5B0042F1AB
:100F68007D024FF4000C8B4224BF5B1A40EA0C0050
:100F7800B3EB510F24BFA3EB510340EA5C00B3EB82
:100F8800910F24BFA3EB910340EA9C00B3EBD10F70
:100F980024BFA3EBD10340EADC001B0118BF5FEAC2
:100FA8001C1CE0D1FD2A3FF650AF8B4240EBC250EB
:100FB80008BF20F0010070470CF0004C4CEA5020AC
:100FC8007F32C2BFD2F1FF0340EAC250704740F4FB
:100FD80000004FF00003013A37E792F0000F00F0ED
:100FE800004C02BF400010F4000F013AF9D040EA6B
:100FF8000C0093F0000F01F0004C02BF490011F4FF
:10100800000F013BF9D041EA0C0195E70CEAD153F6
:1010180092EA0C0F08D142027FF47DAF93EA0C0FDD
:101028007FF470AF084676E793EA0C0F04D14B02C1
:101038003FF44CAF08466EE730F0004C18BF31F073
:10104800004CCAD130F000427FF45CAF31F000436D
:101058007FF43CAF5FE700BF4FF0FF3C06E000BF06
:101068004FF0010C02E000BF4FF0010C4DF804CD29
:101078004FEA40024FEA41037FEA226C18BF7FEA39
:10108800236C11D001B052EA530C18BF90EA010F3B
:1010980058BFB2EB030088BFC81738BF6FEAE170CA
:1010A80018BF40F0010070477FEA226C02D15FEA66
:1010B800402C05D17FEA236CE4D15FEA412CE1D0D2
:1010C8005DF8040B704700BF844608466146FFE799
:1010D8000FB5FFF7C9FF002848BF10F1000F0FBD7B
:1010E8004DF808EDFFF7F4FF0CBF012000205DF874
:1010F80008FB00BF4DF808EDFFF7EAFF34BF0120F9
:1011080000205DF808FB00BF4DF808EDFFF7E0FF91
:1011180094BF012000205DF808FB00BF4DF808EDE2
:10112800FFF7D2FF94BF012000205DF808FB00BF45
:101138004DF808EDFFF7C8FF34BF012000205DF827
:1011480008FB00BF4FEA40024FEA41037FEA226CE6
:1011580002D15FEA402C08D17FEA236C02D15FEA12
:10116800412C02D14FF0000070474FF0010070474A
:101178004FEA4002B2F1FE4F0FD34FF09E03B3EB9C
:1011880012620DD94FEA002343F0004310F0004FDC
:1011980023FA02F018BF404270474FF00000704732
:1011A80012F1610F01D1420205D110F0004008BFD1
:1011B8006FF0004070474FF00000704742000ED2B9
:1011C800B2F1FE4F0BD34FF09E03B3EB126209D47A
:1011D8004FEA002343F0004323FA02F070474FF030
:1011E8000000704712F1610F01D1420202D14FF0A5
:1011F800FF3070474FF00000704700BF80B500AF68
:1012080007F084FE00BF80BD80B584B000AF034600
:10121800FB800023FB7307F0A9FEFB881B0A9BB227
:10122800DBB25B00DBB2603BDBB2184607F07AFF4B
:1012380007F0ECFEFB88DBB2184607F073FF07F0F7
:10124800E5FE07F093FEA12007F06CFF07F0DEFE35
:10125800002007F0A7FF0346FB7307F0AFFEFB7BF8
:1012680018461037BD4680BD80B582B000AF034632
:101278000A46FB8013467B7107F078FEFB881B0A41
:101288009BB2DBB25B00DBB2603BDBB2184607F017
:1012980049FF07F0BBFEFB88DBB2184607F042FFA8
:1012A80007F0B4FE7B79184607F03CFF07F0AEFE66
:1012B80007F084FE0A2000F021FA00BF0837BD4677
:1012C80080BD90B583B000AF03463960FB801346FC
:1012D800BB800DE0FB885A1CFA803C68621C3A60AF
:1012E8001846FFF791FF03462370BB88013BBB807C
:1012F800BB88002BEED100BF00BF0C37BD4690BDA8
:1013080080B582B000AF03463960FB801346BB80CE
:101318000CE03B681A78FB8811461846FFF7A4FFD3
:10132800FB880133FB803B6801333B60BB885A1E56
:10133800BA80002BEDD100BF00BF0837BD4680BD85
:1013480080B500AF052000F09BF900BF80BD00000C
:1013580080B586B000AF124B9B69114A43F0100369
:1013680093610F4B9B6903F010037B607B68092333
:10137800BB600123FB6001233B6103237B6107F111
:1013880008031946074809F017FF074B01221A609E
:10139800064B01221A6000BF1837BD4680BD00BF4A
:1013A8000010024000100140800122428C012242BC
:1013B80080B500AF0F4B1B680E4A23F470431360CF
:1013C8000C4B1B680B4A43F4405313600A4B012231
:1013D8001A600A4B01221A601E2000F051F9064BD0
:1013E80000221A60FFF7ACFF044B00221A6000BF0E
:1013F80080BD00BF001001408C01224280012242C2
:1014080080B500AF0D4B1B680C4A23F47043136082
:101418000A4B1B68094A43F440531360084B0122E6
:101428001A601E2000F02CF9064B00221A60FFF704
:1014380087FF044B01221A6000BF80BD00100140E5
:10144800800122428C01224280B582B000AF002385
:10145800FB71164B1B68154A23F470431360134B3A
:101468001B68124A43F400431360114B01221A60AF
:10147800104B01221A60FFF763FF0BE0FB79013381
:10148800FB71FB79FA2B03D9FFF7BAFF012309E0B7
:10149800FFF756FF084B1B68002BEFD1054B0022C6
:1014A8001A60002318460837BD4680BD0010014069
:1014B8008C012242800122420C01224280B500AFF9
:1014C8000F4B00221A600F4B1B680E4A23F470431F
:1014D80013600C4B1B680B4A43F440531360FFF72F
:1014E8002FFF094B00221A60FFF72AFF044B012245
:1014F8001A60FFF725FF024B00221A6000BF80BD6B
:1015080080012242001001408C01224280B500AFC8
:101518000F4B00221A600F4B1B680E4A23F47043CE
:1015280013600C4B1B680B4A43F440531360FFF7DE
:1015380007FF094B01221A60FFF702FF044B012243
:101548001A60FFF7FDFE024B00221A6000BF80BD43
:1015580080012242001001408C01224280B584B0F3
:1015680000AF0346FB71184B1B68174A23F47043FE
:101578001360154B1B68144A43F440531360134B14
:1015880000221A60FFF7DCFE0023FB7314E0FB79EE
:10159800DB09DAB20E4B1A60FB795B00FB710B4B6F
:1015A80001221A60FFF7CCFE084B00221A60FFF7F1
:1015B800C7FEFB7B0133FB73FB7B072BE7D900BF1F
:1015C80000BF1037BD4680BD001001408001224297
:1015D8008C01224280B584B000AF0346FB71002322
:1015E800BB731B4B1B681A4A23F470431360184BD8
:1015F8001B68174A43F4004313601E2000F040F8AC
:101608000023FB7314E0134B00221A60FFF798FEC7
:10161800104B01221A60BB7B5B00BB730E4B1B682F
:10162800002B02D0BB7B0133BB73FB7B0133FB7305
:10163800FB7B072BE7D9FB79002B02D1FFF766FF6D
:1016480001E0FFF73BFFBB7B18461037BD4680BD66
:1016580000100140800122420C01224280B582B074
:1016680000AF0346FB71042009F082FCFB79034AB2
:10167800136000BF0837BD4680BD00BFE4000020EE
:1016880080B489B000AF78600023BB61194B5B68F8
:101698007B61194B1A687B6802FB03F33B61154BAE
:1016A8009B68FB61134B9B68FB60FA68FB699A4275
:1016B800F8D0FA68FB699A4206D2FA69FB68D31A2D
:1016C800BA691344BB6107E07A69FB68D21AFB69FF
:1016D8001344BA691344BB61FB68FB61BA693B698F
:1016E8009A4200D2DEE700BF00BF2437BD4680BC67
:1016F800704700BF10E000E0E400002080B584B02F
:1017080000AF0346FB800023FB6006E04FF47A70CD
:10171800FFF7B6FFFB680133FB60FB88FA689A4263
:10172800F4D300BF00BF1037BD4680BD80B584B07C
:1017380000AF03463960FB8013467B710023BB73FF
:10174800FFF736FE7020FFF709FFFFF77DFEFB88E5
:10175800DBB21846FFF702FFFFF776FE0023FB73A4
:1017680010E0FB7B3A6813441B781846FFF7F6FE37
:10177800FFF76AFE0346BB73BB7B002B07D1FB7BDD
:101788000133FB73FA7B7B799A42EAD300E000BF0E
:10179800FFF736FEBB7B18461037BD4680BD90B5B7
:1017A80085B000AF03463960FB8013467B71FFF7B5
:1017B800FFFD7020FFF7D2FEFFF746FEFB88DBB285
:1017C8001846FFF7CBFEFFF73FFEFFF7F1FD71204C
:1017D800FFF7C4FEFFF738FE0023FB7313E0FA7B24
:1017E8007B79013B9A4214BF01230023DBB21946DF
:1017F800FB7B3A68D4180846FFF7ECFE03462370D3
:10180800FB7B0133FB73FA7B7B799A42E7D3FFF7C3
:10181800F7FD00BF1437BD4690BD000080B586B007
:1018280000AF374B9B69364A43F010039361344B42
:101838009B6903F010033B603B684FF400537B60E7
:101848000123BB600123FB6003233B613B1D194659
:101858002C4809F0B1FC02237B600023BB603B1DD0
:101868001946284809F0A8FCFFF772FD264B00220C
:101878001A601420FFF742FF234B01221A6032201E
:10188800FFF73CFF00233B7507F1140301221946BB
:101898000020FFF74BFF07F1140301221946A4208B
:1018A800FFF744FF16233B7507F11403012219467D
:1018B8008020FFF73BFF0C233B7507F1140301223F
:1018C80019468820FFF732FF07F114030222194650
:1018D800A120FFF764FF3B7D302B0CD17B7D032BD0
:1018E80009D13B7D1B027A7D1344194607480BF04A
:1018F800EFF9002300E0012318461837BD4680BDE4
:101908000010024000100140B401224298E1000892
:1019180080B584B000AF0346FB710023FB7300233E
:10192800BB73824B1B780133DAB2804B1A707F4B42
:101938001A787F4BA3FB0213D9080B469B000B4474
:101948005B00D31ADBB2002B04D0784B1B78092B31
:1019580000F2BA80FB1D012219460220FFF71FFF83
:10196800FB7903F00F03002B00F0AE80FB7903F046
:101978000F03052B00F3A880FB7903F00F03FF2268
:1019880002FA03F37B7397F90D30DB435BB263F024
:101998003F035BB2DAB2674B83F820200023FB7366
:1019A8007FE0644B93F820301A46FB7B42FA03F33E
:1019B80003F00103002B71D0FB7B5F4A32F8133030
:1019C80007F1080104221846FFF7E9FE594B93F87E
:1019D800303003F00103002B22D03B7A1B029BB26C
:1019E80003F470639AB27B7A1946FB7B0A4491B27E
:1019F800504A08335B0013440A46DA80BB7A1B025C
:101A08009BB203F470639AB2FB7A1946FB7B0A44D3
:101A180091B2484A04335B0013440A469A8023E093
:101A28003B7A1B029BB203F470639BB27A7A13442D
:101A38009AB2FB7BC2F5F07291B23E4A04335B0066
:101A480013440A469A80BB7A1B029BB203F4706364
:101A58009AB2FB7A1946FB7B0A4491B2354A08339D
:101A68005B0013440A46DA803B7A03F0F003802BCC
:101A780014D0FA7B2F4902F108035B000B440021C4
:101A8800D980F97B2B4802F108035B000344D8880E
:101A9800284A0B1D5B00134402469A80FB7B0133E6
:101AA800FB73FB7B042B7FF67CAF0123BB73214BBD
:101AB8009B89002B05D11F4BDB8A002B01D100230A
:101AC800FB711A4B00221A70FB7903F01F03002BDD
:101AD80020D1184B93F820305BB2002B09DA154B54
:101AE80093F8203003F07F03DAB2124B83F82020FA
:101AF80010E0104B4FF6FF729A810E4B4FF6FF72B3
:101B0800DA820C4B93F8203023F01F03DAB2094B2A
:101B180083F82020054B1B78F02B02D9034B0A22AF
:101B28001A70BB7B18461037BD4680BDE800002000
:101B3800CDCCCCCC10000020C0E3000880B584B028
:101B480000AF0346FB710023FB7300233B73FB7953
:101B58007B730023FB7309E03A7BFB7B1049CB5C6A
:101B68001344DBB23B73FB7B0133FB73FB7BB72B6B
:101B7800F2D93B7B5B42DBB23B73B822084948F29F
:101B8800470000F00FF807F10C030222194648F24B
:101B9800FF0000F007F8002318461037BD4680BD47
:101BA800CCE3000880B584B000AF03463960FB8001
:101BB80013467B710023BB73FFF7FAFB2820FFF75E
:101BC800CDFCFFF741FCFB881B0A9BB2DBB2184631
:101BD800FFF7C4FCFFF738FCFB88DBB21846FFF7B9
:101BE800BDFCFFF731FC0023FB7310E0FB7B3A6878
:101BF80013441B781846FFF7B1FCFFF725FC034692
:101C0800BB73BB7B002B07D1FB7B0133FB73FA7BD8
:101C18007B799A42EAD300E000BFFFF7F1FBBB7B78
:101C280018461037BD4680BD90B585B000AF034655
:101C38003960FB8013467B71FFF7BAFB2820FFF75A
:101C48008DFCFFF701FCFB881B0A9BB2DBB2184630
:101C5800FFF784FCFFF7F8FBFB88DBB21846FFF7B9
:101C68007DFCFFF7F1FBFFF7A3FB2920FFF776FCCC
:101C7800FFF7EAFB0023FB7313E0FA7B7B79013B58
:101C88009A4214BF01230023DBB21946FB7B3A6852
:101C9800D4180846FFF79EFC03462370FB7B0133EC
:101CA800FB73FA7B7B799A42E7D3FFF7A9FB00BF66
:101CB8001437BD4690BD000080B588B000AF464BD4
:101CC8009B69454A43F010039361434B9B6903F0BA
:101CD80010037B607B684FF40053BB600123FB60FB
:101CE80001233B6103237B6107F1080319463B4845
:101CF80009F062FA0223BB600023FB6007F10803C6
:101D08001946364809F058FAFFF722FB344B0022EF
:101D18001A600A20FFF7F2FC314B01221A600A20F0
:101D2800FFF7ECFC0223BB6002233B610023FB604E
:101D380007F108031946294809F03EFA6420FFF71D
:101D4800DDFC07F118030422194648F24010FFF79A
:101D58006BFF00233B7707F11803194621480AF067
:101D6800B7FF07F1180320491846FEF759FA03464A
:101D7800002B2BD102233B7607F1180301221946C9
:101D880048F24000FFF70EFF07F118030122194639
:101D980048F24700FFF748FF3B7E5F2B07D83B7EA2
:101DA800194612480AF094FF0120FFF7C7FE0A20DF
:101DB800FFF7A4FC00233B7607F11803012219461C
:101DC80048F24000FFF7EEFE002300E0002318462B
:101DD8002037BD4680BD00BF001002400010014002
:101DE800B4012242A4E10008B0E10008B8E100080B
:101DF80080B586B000AF0346FB710023FB75002356
:101E0800BB75904B1B780133DAB28E4B1A708D4B31
:101E18001A788D4BA3FB0213D9080B469B000B4481
:101E28005B00D31ADBB2002B04D0864B1B78092B3E
:101E380000F2D680FB1D0122194648F24E10FFF72A
:101E4800F3FEFB795BB2002B0EDAFB7903F00F038C
:101E5800052B09DC0023FB7307F10F030122194648
:101E680048F24E10FFF79EFEFB7903F00F03002B9C
:101E780000F0B680FB7903F00F03052B00F3B08068
:101E8800FB7903F00F03FF2202FA03F3DBB2FB73C3
:101E98006E4B93F820307B75FB7B5BB2DB435BB208
:101EA80063F03F035BB2DAB2684B83F82020674BDC
:101EB8009A89664B9A82654BDA8A644BDA830023E7
:101EC800FB7559E0614B93F820301A46FB7D42FAC6
:101ED80003F303F00103002B4BD0FB7D5C4A32F87F
:101EE800133007F1100104221846FFF79DFE574BE7
:101EF80093F8303003F00103002B1ED07B7C1B02CB
:101F08009AB23B7C1946FB7D0A4491B24F4A08338A
:101F18005B0013440A46DA80FB7C1B029BB2BA7C46
:101F280013449AB2FB7DC2F5487291B2474A043312
:101F38005B0013440A469A801BE07B7C1B029AB222
:101F48003B7C1946FB7D0A4491B2404A04335B004E
:101F580013440A469A80FB7C1B029AB2BB7C194642
:101F6800FB7D0A4491B2394A08335B0013440A46A0
:101F7800DA80FB7D0133FB75FB7D042BA2D901239D
:101F8800BB75324B9A89334B1B889A4205D82F4B25
:101F9800DA8A304B5B889A421FD9FB7903F00E032B
:101FA800002B0BD0294BDA89284B9A81274B1A8BA7
:101FB800264BDA82234B00221A7011E0234B9A8AAF
:101FC800224B9A81214BDA8B204BDA828023FB71DA
:101FD8001E4A7B7D82F8203002E01A4B00221A70DC
:101FE800FB7903F08F03802B20D1184B93F8203016
:101FF8005BB2002B09DA154B93F8203003F07F030E
:10200800DAB2124B83F8202010E0104B4FF6FF7223
:102018009A810E4B4FF6FF72DA820C4B93F8203000
:1020280023F01F03DAB2094B83F82020054B1B78F5
:10203800F02B02D9034B0A221A70BB7D18461837B9
:10204800BD4680BDE9000020CDCCCCCC10000020DE
:1020580084E40008EC00002080B586B000AF1F4B78
:102068009B691E4A43F0040393611C4B9B6903F070
:1020780004037B607B68194B9B69184A43F0100383
:102088009361164B9B6903F010033B603B68012387
:10209800BB600023FB6002233B6103237B6107F1E4
:1020A800080319460E4809F087F84FF40043BB604F
:1020B80001233B6107F108031946094809F07CF838
:1020C8002023BB6001233B6107F10803194605483B
:1020D80009F072F800BF1837BD4680BD00100240F5
:1020E800000801400010014080B582B000AF0346EF
:1020F800FB71FB79012B02D12F4B01221A702E4B59
:102108001B78002B37D020212C4809F0E9F9034629
:10211800002B0ED04FF40041294809F0E1F903469D
:10212800002B06D00121264809F0DAF90346012BD5
:1021380021D10A20FFF7E2FA1F4B00221A70202152
:102148001E4809F0CDF90346002B01D101232EE0EA
:102158004FF400411A4809F0C3F90346002B01D196
:10216800022324E00121164809F0BAF90346012B9D
:102178001BD103231BE02021104809F0B1F90346C5
:10218800012B13D14FF400410D4809F0A9F903467A
:10219800012B0BD101210A4809F0A2F90346002BB3
:1021A80004D1054B01221A7000E000BF0023184635
:1021B8000837BD4680BD00BF000000200010014068
:1021C8000008014080B483B000AF0346FB800D4B8C
:1021D8004FF480725A610B4B4FF400725A610A4AED
:1021E800FB88D360074B80225A61064B80221A6114
:1021F800044B4FF400721A6100BF0C37BD4680BC17
:10220800704700BF00100140000C014080B483B04B
:1022180000AF0346FB800D4B4FF480721A610B4BE5
:102228004FF400725A610A4AFB88D360074B802238
:102238005A61064B80221A61044B4FF400721A61EE
:1022480000BF0C37BD4680BC704700BF001001407E
:10225800000C014080B483B000AF0346FB7100BF9F
:10226800FB795A1EFA71002BFAD100BF00BF0C3758
:10227800BD4680BC7047000080B582B000AF1A4BE5
:102288004FF088321A60184B4FF088325A60164B5C
:102298000022DA60154B4FF480721A61134B4FF429
:1022A80000725A61114B40225A610220FFF7D2FF97
:1022B8000D4B9B68FB800D4B40221A610B4B4FF472
:1022C80000721A61084B4FF033321A60064B4FF018
:1022D80033325A60044B4FF6FF72DA60FB881846B7
:1022E8000837BD4680BD00BF000C0140001001400A
:1022F80080B582B000AF03460A46FB801346BB8018
:10230800FB881846FFF75EFF0C4B4FF480721A618A
:102318000A4B4FF400725A61094ABB88D360074BD5
:1023280080225A61054B80221A61044B4FF40072D7
:102338001A6100BF0837BD4680BD00BF00100140CC
:10234800000C014080B500AF034B1B891846FFF70E
:1023580039FF00BF80BD00BFEC00002080B500AF92
:10236800074B9B8845F21052934204D14FF42050FA
:10237800FFF728FF02E02820FFF724FF00BF80BDF9
:10238800EC00002080B582B000AF03460A46FB800F
:102398001346BB80994B9B8841F66312934240F0E9
:1023A8003381964B9B79002B63D1944B1A88FB8819
:1023B800D31A9BB2013BFB80904B5B891846FFF711
:1023C80001FF8F4B4FF480721A618D4B4FF40072EE
:1023D8005A618C4B0022DA60894B80225A61884B03
:1023E80080221A61864B4FF400721A61844B4FF4B5
:1023F80080721A61824B4FF400725A61814B00223D
:10240800DA607F4B80225A617D4B80221A617C4BB7
:102418004FF400721A617A4B4FF480721A61784B4C
:102428004FF400725A61FB881B0A9AB2754BDA6046
:10243800734B80225A61724B80221A61704B4FF4A1
:1024480000721A616E4B4FF480721A616C4B4FF434
:1024580000725A61FB886B4ADBB2D360684B8022FA
:102468005A61674B80221A61654B4FF400721A61FA
:1024780061E0624B5B891846FFF7A4FE604B4FF49E
:1024880080721A615E4B4FF400725A61FB881B0A16
:102498009AB25C4BDA605A4B80225A61584B8022C0
:1024A8001A61574B4FF400721A61554B4FF4807202
:1024B8001A61534B4FF400725A61FB88514ADBB2E0
:1024C800D3604F4B80225A614D4B80221A614C4B8E
:1024D8004FF400721A614A4B4FF480721A61484BEC
:1024E8004FF400725A61454B1B88013B1A12454B49
:1024F800DA60434B80225A61414B80221A61404B7B
:102508004FF400721A613E4B4FF480721A613C4BD3
:102518004FF400725A61394B1B88013B394ADBB2D0
:10252800D360374B80225A61354B80221A61344B75
:102538004FF400721A61314B9B891846FFF742FE2F
:102548002F4B4FF480721A612D4B4FF400725A6171
:10255800BB881B0A9AB22B4BDA60294B80225A613E
:10256800274B80221A61264B4FF400721A61244BC4
:102578004FF480721A61224B4FF400725A61BB8883
:10258800204ADBB2D3601E4B80225A611C4B80224A
:102598001A611B4B4FF400721A61194B4FF4807289
:1025A8001A61174B4FF400725A61144B5B88013B58
:1025B8001A12144BDA60124B80225A61104B802297
:1025C8001A610F4B4FF400721A610D4B4FF4807271
:1025D8001A610B4B4FF400725A61084B5B88013B40
:1025E800084ADBB2D360064B80225A61044B802232
:1025F8001A61034B4FF400721A61E2E0EC0000200C
:1026080000100140000C0140704B9B8845F21052AD
:10261800934272D16D4B5B891846FFF7D3FD6C4B23
:102628004FF480721A616A4B4FF400725A61FB884A
:102638001B0A9AB2674BDA60654B80225A61644B79
:1026480080221A61624B4FF400721A615F4B5B89FA
:1026580001339BB21846FFF7B5FD5D4B4FF480720E
:102668001A615B4B4FF400725A61FB88594ADBB21E
:10267800D360574B80225A61554B80221A61544BC4
:102688004FF400721A61514B9B891846FFF79AFD67
:102698004F4B4FF480721A614D4B4FF400725A61E0
:1026A800BB881B0A9AB24B4BDA60494B80225A61AD
:1026B800474B80221A61464B4FF400721A61434B14
:1026C8009B8901339BB21846FFF77CFD404B4FF4C2
:1026D80080721A613E4B4FF400725A61BB883D4AC2
:1026E800DBB2D3603A4B80225A61394B80221A619F
:1026F800374B4FF400721A6163E0344B5B8918461C
:10270800FFF760FD324B4FF480721A61304B4FF483
:1027180000725A61FB881B0A9AB22E4BDA602C4B66
:1027280080225A612A4B80221A61294B4FF4007289
:102738001A61274B4FF480721A61254B4FF40072CF
:102748005A61FB88234ADBB2D360214B80225A614D
:102758001F4B80221A611E4B4FF400721A611B4BEB
:102768009B891846FFF72EFD194B4FF480721A61AA
:10277800174B4FF400725A61BB881B0A9AB2154B6B
:10278800DA60134B80225A61114B80221A61104B78
:102798004FF400721A610E4B4FF480721A610C4BA1
:1027A8004FF400725A61BB880A4ADBB2D360084B07
:1027B80080225A61064B80221A61054B4FF4007241
:1027C8001A6100BF0837BD4680BD00BFEC0000207D
:1027D80000100140000C014080B584B000AF0346F2
:1027E800FB710023FB810023BB815D4B9B79012B8F
:1027F80005D15B4B9B8841F66312934209D1584B34
:102808009B79002B34D1564B9B8841F66312934237
:102818002ED1FB79072B2BD801A252F823F000BF49
:10282800492800084F280008552800085B28000898
:1028380061280008672800086D2800087328000828
:102848000623FB7114E00723FB7111E00423FB71DD
:102858000EE00523FB710BE00123FB7108E0002368
:10286800FB7105E00323FB7102E00223FB7100BF4B
:10287800FB79072B35D801A252F823F0EB28000882
:10288800A5280008AF280008B9280008C3280008B0
:10289800CD280008D7280008E1280008FB8943F064
:1028A8008003FB811DE0FB8943F04003FB8118E0B6
:1028B800FB8943F0C003FB8113E0FB8943F020034D
:1028C800FB810EE0FB8943F06003FB8109E0FB8993
:1028D80043F0A003FB8104E0FB8943F0E003FB81A4
:1028E80000BF1F4B9B8845F21052934203D14FF40F
:1028F8005853BB8101E03623BB81194B9B8849F2B1
:102908004132934205D0164B9B8847F28972934215
:1029180003D1FB8943F00803FB81FA89BB8911467F
:102928001846FFF7E5FC0E4B9B8841F6631293426D
:1029380028D0FB8903F02003002B13D0084B1A88FA
:10294800074B5B889A421DD2054B1B887B81044B41
:102958005A88034B1A80024A7B89538012E000BFD1
:10296800EC0000207F4B1A887E4B5B889A4209D97D
:102978007C4B1B887B817B4B5A887A4B1A80794A1F
:102988007B895380774B9B8845F21052934240F0E5
:10299800EF80744B5B891846FFF714FC724B4FF4B9
:1029A80080721A61704B4FF400725A616F4B0022AB
:1029B800DA606D4B80225A616B4B80221A616A4B38
:1029C8004FF400721A61674B5B8901339BB218465A
:1029D800FFF7F8FB644B4FF480721A61624B4FF4B7
:1029E80000725A61614B0022DA605F4B80225A61A3
:1029F8005D4B80221A615C4B4FF400721A61594B8F
:102A08005B8902339BB21846FFF7DCFB564B4FF449
:102A180080721A61544B4FF400725A61514B1B88F3
:102A2800013B1A12514BDA604F4B80225A614E4BD0
:102A380080221A614C4B4FF400721A61494B5B8932
:102A480003339BB21846FFF7BDFB474B4FF4807228
:102A58001A61454B4FF400725A61424B1B88013B87
:102A6800424ADBB2D360404B80225A613E4B8022FF
:102A78001A613D4B4FF400721A613A4B9B89184614
:102A8800FFF7A0FB384B4FF480721A61364B4FF4B6
:102A980000725A61354B0022DA60334B80225A614A
:102AA800314B80221A61304B4FF400721A612D4B62
:102AB8009B8901339BB21846FFF784FB2A4B4FF4DE
:102AC80080721A61284B4FF400725A61274B00221A
:102AD800DA60254B80225A61234B80221A61224BEF
:102AE8004FF400721A611F4B9B8902339BB2184640
:102AF800FFF768FB1C4B4FF480721A611A4B4FF4B6
:102B080000725A61174B5B88013B1A12174BDA6047
:102B1800154B80225A61144B80221A61124B4FF4D4
:102B280000721A610F4B9B8903339BB21846FFF75B
:102B380049FB0D4B4FF480721A610B4B4FF4007236
:102B48005A61084B5B88013B084ADBB2D360064BED
:102B580080225A61044B80221A61034B4FF40072A1
:102B68001A61C3E0EC00002000100140000C014095
:102B7800604B5B891846FFF725FB5F4B4FF480726B
:102B88001A615D4B4FF400725A615C4B0022DA60A7
:102B9800594B80225A61584B80221A61564B4FF488
:102BA80000721A61544B4FF480721A61524B4FF401
:102BB80000725A61514B0022DA604F4B80225A61F1
:102BC8004D4B80221A614C4B4FF400721A614A4BEC
:102BD8004FF480721A61484B4FF400725A61454BAA
:102BE8001B88013B1A12454BDA60434B80225A611D
:102BF800414B80221A61404B4FF400721A613E4BE0
:102C08004FF480721A613C4B4FF400725A61394B91
:102C18001B88013B394ADBB2D360374B80225A61AB
:102C2800354B80221A61344B4FF400721A61314BD4
:102C38009B891846FFF7C6FA2F4B4FF480721A612A
:102C48002D4B4FF400725A612C4B0022DA602A4B4C
:102C580080225A61284B80221A61274B4FF4007258
:102C68001A61254B4FF480721A61234B4FF400729E
:102C78005A61224B0022DA601F4B80225A611E4B98
:102C880080221A611C4B4FF400721A611A4B4FF4E0
:102C980080721A61184B4FF400725A61154B5B88A9
:102CA800013B1A12154BDA60134B80225A61124B02
:102CB80080221A61104B4FF400721A610E4B4FF4C8
:102CC80080721A610C4B4FF400725A61094B5B8891
:102CD800013B0A4ADBB2D360074B80225A61064B9C
:102CE80080221A61044B4FF400721A6100BF10373A
:102CF800BD4680BDEC00002000100140000C0140E2
:102D080080B582B000AF03460A46FB801346BB80FD
:102D1800BA88FB8811461846FFF734FBFFF712FB09
:102D28000C4B4FF480721A610A4B4FF400725A61CF
:102D3800094B1A88094BDA60064B80225A61054B09
:102D480080221A61034B4FF400721A6100BF0837E2
:102D5800BD4680BD00100140EA000020000C014083
:102D680080B582B000AF0346FB800B46BB8013469C
:102D78007B803C4B9B8845F21052934278D1394B6B
:102D88005B891846FFF71EFA374B4FF480721A61B9
:102D9800354B4FF400725A61FB881B0A9AB2334BC9
:102DA800DA60314B80225A612F4B80221A612E4BF8
:102DB8004FF400721A612B4B5B8901339BB21846A2
:102DC800FFF700FA284B4FF480721A61264B4FF434
:102DD80000725A61FB88254ADBB2D360224B8022FD
:102DE8005A61214B80221A611F4B4FF400721A61FD
:102DF8001C4B9B891846FFF7E5F91B4B4FF4807273
:102E08001A61194B4FF400725A61BB881B0A9AB2B7
:102E1800164BDA60144B80225A61134B80221A61D8
:102E2800114B4FF400721A610E4B9B8901339BB210
:102E38001846FFF7C7F90C4B4FF480721A610A4B1A
:102E48004FF400725A61BB88084ADBB2D360064B64
:102E580080225A61044B80221A61034B4FF400729E
:102E68001A6141E1EC00002000100140000C014013
:102E7800684B9B8841F66312934240F0D180654BC2
:102E88009B79002B06D1634B1A88FB88D31A9BB217
:102E9800013BFB805F4B5B891846FFF793F95E4B5C
:102EA8004FF480721A615C4B4FF400725A61FB88D0
:102EB8001B0A9AB2594BDA60574B80225A61564B1B
:102EC80080221A61544B4FF400721A61524B4FF42E
:102ED80080721A61504B4FF400725A61FB884F4A56
:102EE800DBB2D3604C4B80225A614B4B80221A6173
:102EF800494B4FF400721A61474B4FF480721A61C4
:102F0800454B4FF400725A61FB881B0A9AB2434B37
:102F1800DA60414B80225A613F4B80221A613E4B56
:102F28004FF400721A613C4B4FF480721A613A4BAD
:102F38004FF400725A61FB88384ADBB2D360364BD3
:102F480080225A61344B80221A61334B4FF400724D
:102F58001A61304B9B891846FFF734F92E4B4FF412
:102F680080721A612C4B4FF400725A61BB881B0A9D
:102F78009AB22A4BDA60284B80225A61264B80226B
:102F88001A61254B4FF400721A61234B4FF480727B
:102F98001A61214B4FF400725A61BB881F4ADBB299
:102FA800D3601D4B80225A611B4B80221A611A4B39
:102FB8004FF400721A61184B4FF480721A61164B65
:102FC8004FF400725A61BB881B0A9AB2134BDA603D
:102FD800114B80225A61104B80221A610E4B4FF41C
:102FE80000721A610C4B4FF480721A610A4B4FF44D
:102FF80000725A61BB88094ADBB2D360064B802253
:103008005A61054B80221A61034B4FF400721A6112
:103018006AE000BFEC00002000100140000C0140F5
:10302800494B5B891846FFF7CDF8484B4FF480723F
:103038001A61464B4FF400725A61FB881B0A9AB218
:10304800434BDA60414B80225A61404B80221A611F
:103058003E4B4FF400721A613C4B4FF480721A6178
:103068003A4B4FF400725A61FB88394ADBB2D3609D
:10307800364B80225A61354B80221A61334B4FF40C
:1030880000721A61304B9B891846FFF79BF82F4B4B
:103098004FF480721A612D4B4FF400725A61BB884D
:1030A8001B0A9AB22A4BDA60284B80225A61274BB6
:1030B80080221A61254B4FF400721A61234B4FF49A
:1030C80080721A61214B4FF400725A61BB88204A02
:1030D800DBB2D3601D4B80225A611C4B80221A61DF
:1030E8001A4B4FF400721A61184B4FF480725A61F0
:1030F800164B4FF400725A61134B1A89144BDA605D
:10310800124B80225A61114B80221A610F4B4FF4E7
:1031180000721A610D4B4FF480721A610B4B4FF419
:1031280000725A610A4A7B88D360084B80225A6130
:10313800064B80221A61054B4FF400721A6100BFDA
:103148000837BD4680BD00BFEC00002000100140DC
:10315800000C01400000000090B583B000AF0346AA
:10316800FB71BE20FFF72EF84B4B4FF480721A61AB
:10317800494B4FF400725A61484B0522DA60464BBE
:1031880080225A61444B80221A61434B4FF40072EB
:103198001A61414B4FF480721A613F4B4FF4007231
:1031A8005A61FB791846FDF797F939A3D3E900234B
:1031B800FDF7FCF902460B46384C10461946FDF758
:1031C800CDFC0346E360344B80225A61324B8022A7
:1031D8001A61314B4FF400721A612F4B4FF4807211
:1031E8001A612D4B4FF400725A612C4B0122DA60A0
:1031F800294B80225A61284B80221A61264B4FF4B2
:1032080000721A61244B4FF480721A61224B4FF4FA
:1032180000725A61214BFF22DA601F4B80225A61EB
:103228001D4B80221A611C4B4FF400721A611A4B15
:103238004FF480721A61184B4FF400725A61174BA1
:103248000022DA60144B80225A61134B80221A61E3
:10325800114B4FF400721A610F4B4FF480721A61D0
:103268000D4B4FF400725A610C4B0022DA600A4B86
:1032780080225A61084B80221A61074B4FF4007272
:103288001A6100BF0C37BD4690BD00BFAFF3008088
:10329800666666666666044000100140000C0140E0
:1032A80080B582B000AF0346FB71584AFB79937131
:1032B800FB79002B51D1554BF0221A80534B4FF418
:1032C800A0725A80514B9B8845F21052934214D1F8
:1032D8004E4B4FF430521A814C4B4FF428525A81BE
:1032E8004A4B4FF42C529A81484B4FF4F0721A8093
:1032F800464B4FF448725A8020E0444B9B8841F675
:103308006312934211D1414B2C221A813F4B2B223D
:103318005A813E4B2A229A813C4B4FF4F0721A8014
:103328003A4B4FF448725A8008E0384B2C221A81E5
:10333800364B2A225A81354B2B229A81334B9B8854
:1033480045F21032934259D1304B4FF4A0721A8093
:103358002E4B4FF4F0725A8050E02C4B4FF4A07271
:103368001A802A4BF0225A80284B9B8845F210522B
:10337800934214D1254B4FF430521A81234B4FF40A
:1033880028525A81214B4FF42C529A811F4B4FF4EB
:1033980048721A801D4B4FF4F0725A8020E01B4B84
:1033A8009B8841F66312934211D1184B2C221A8143
:1033B800164B2A225A81154B2B229A81134B4FF414
:1033C80048721A80114B4FF4F0725A8008E00F4B84
:1033D8002C221A810D4B2A225A810C4B2B229A81BE
:1033E8000A4B9B8845F21032934207D1074B4FF4A2
:1033F800F0721A80054B4FF4A0725A800020FFF734
:10340800EBF900BF0837BD4680BD00BFEC000020C7
:1034180080B588B000AFA14B9B69A04A43F0080370
:1034280093619E4B9B6903F00803BB60BB689B4B91
:103438009B699A4A43F010039361984B9B6903F088
:1034480010037B607B684FF4F863FB6001233B61EA
:1034580001237B610323BB6107F10C0319469048E4
:1034680007F0AAFE4FF6FF73FB6007F10C0319463D
:103478008C4807F0A1FE8C4B5B68FB61FB6923F06D
:10348800E063FB61FB6943F08063FB61864AFB698B
:1034980053603220FEF732F901210020FEF728FFA1
:1034A8003220FEF72BF9D320FEF78CFEFEF7E4FE60
:1034B80003461A467D4B9A80FEF7DEFE03461A46FF
:1034C8007A4B9A80FEF7D8FE03461A46774B9A80C5
:1034D800764B9B881B029AB2744B9A80FEF7CCFEFF
:1034E80003461A46714B9B8813439AB26F4B9A80D6
:1034F8006E4B9B8849F24132934200F0C180042010
:10350800FEF760FEFEF7B8FE03461A46674B9A8040
:10351800FEF7B2FE03461A46644B9A80FEF7ACFEED
:1035280003461A46614B9A80604B9B881B029AB2ED
:103538005E4B9A80FEF7A0FE03461A465B4B9B88BB
:1035480013439AB2594B9A80584B9B8848F252526F
:10355800934203D1554B47F289729A80534B9B880B
:1035680047F28972934200F08B80D420FEF72AFE3E
:10357800FEF782FE03461A464C4B9A80FEF77CFE05
:1035880003461A46494B9A80FEF776FE03461A46CA
:10359800464B9A80454B9B881B029AB2434B9A80B4
:1035A800FEF76AFE03461A46404B9B8813439AB2BD
:1035B8003E4B9A803D4B9B8845F2103293425FD038
:1035C8004FF45A40FEF7FEFDFEF756FE03461A4634
:1035D800364B9A804FF45B40FEF7F4FDFEF74CFE45
:1035E80003461A46314B9A80304B9B881B029AB28D
:1035F8002E4B9A804FF45C40FEF7E4FDFEF73CFE4C
:1036080003461A46294B9B8813439AB2274B9A8044
:10361800264B9B88B3F5004F03D1244B45F210523B
:103628009A80224B9B8845F21052934228D0A120C1
:10363800FEF7C8FDFEF720FE03461A461B4B9A808C
:10364800FEF71AFE03461A46184B9A80174B9B88BA
:103658001B029AB2154B9A80FEF70EFE03461A46D5
:10366800124B9B8813439AB2104B9A800F4B9B883E
:1036780045F26172934203D10C4B41F663129A8072
:103688000A4B9B8819460A4809F022FB074B9B887E
:1036980049F24132934240F023810BE0001002408E
:1036A80000100140000C014000000140EC00002027
:1036B800CCE10008CF20FEF785FD0020FEF7A6FD2F
:1036C800C120FEF7A3FD3020FEF7A0FDED20FEF798
:1036D80079FD6420FEF79AFD0320FEF797FD12207E
:1036E800FEF794FD8120FEF791FDE820FEF76AFDC4
:1036F8008520FEF78BFD1020FEF788FD7A20FEF767
:1037080085FDCB20FEF75EFD3920FEF77FFD2C20DE
:10371800FEF77CFD0020FEF779FD3420FEF776FDEC
:103728000220FEF773FDF720FEF74CFD2020FEF780
:103738006DFDEA20FEF746FD0020FEF767FD00203C
:10374800FEF764FDC020FEF73DFD1B20FEF75EFD81
:10375800C120FEF737FD0120FEF758FDC520FEF712
:1037680031FD3020FEF752FD3020FEF74FFDC72017
:10377800FEF728FDB720FEF749FD3620FEF722FDAB
:103788004820FEF743FD3A20FEF71CFD5520FEF7C2
:103798003DFDB120FEF716FD0020FEF737FD1A208B
:1037A800FEF734FDB620FEF70DFD0A20FEF72EFDCC
:1037B800A220FEF72BFDF220FEF704FD0020FEF705
:1037C80025FD2620FEF7FEFC0120FEF71FFDE02068
:1037D800FEF7F8FC0F20FEF719FD2A20FEF716FD6C
:1037E8002820FEF713FD0820FEF710FD0E20FEF737
:1037F8000DFD0820FEF70AFD5420FEF707FDA9205D
:10380800FEF704FD4320FEF701FD0A20FEF7FEFC4B
:103818000F20FEF7FBFC0020FEF7F8FC0020FEF767
:10382800F5FC0020FEF7F2FC0020FEF7EFFCE1209B
:10383800FEF7C8FC0020FEF7E9FC1520FEF7E6FCC1
:103848001720FEF7E3FC0720FEF7E0FC1120FEF747
:10385800DDFC0620FEF7DAFC2B20FEF7D7FC56200D
:10386800FEF7D4FC3C20FEF7D1FC0520FEF7CEFC89
:103878001020FEF7CBFC0F20FEF7C8FC3F20FEF718
:10388800C5FC3F20FEF7C2FC0F20FEF7BFFC2B2033
:10389800FEF798FC0020FEF7B9FC0020FEF7B6FC06
:1038A8000120FEF7B3FC3F20FEF7B0FC2A20FEF70C
:1038B80089FC0020FEF7AAFC0020FEF7A7FC0020E8
:1038C800FEF7A4FCEF20FEF7A1FC1120FEF77AFC1E
:1038D8007820FDF713FF2920FEF774FC02F096BB51
:1038E8006D4B9B8847F28972934240F0D780112034
:1038F800FEF768FC7820FDF701FF3620FEF762FC32
:103908000020FEF783FC3A20FEF75CFC0520FEF75A
:103918007DFCB220FEF756FC0C20FEF777FC0C204D
:10392800FEF774FC0020FEF771FC3320FEF76EFCF6
:103938003320FEF76BFCB720FEF744FC3520FEF77A
:1039480065FCBB20FEF73EFC3220FEF75FFCC02082
:10395800FEF738FC0C20FEF759FCC220FEF732FCBB
:103968000120FEF753FCC320FEF72CFC1020FEF7C5
:103978004DFCC420FEF726FC2020FEF747FCC6209D
:10398800FEF720FC0F20FEF741FCD020FEF71AFCC2
:10399800A420FEF73BFCA120FEF738FCE020FEF750
:1039A80011FCD020FEF732FC0020FEF72FFC02208D
:1039B800FEF72CFC0720FEF729FC0A20FEF726FC60
:1039C8002820FEF723FC3220FEF720FC4420FEF7D7
:1039D8001DFC4220FEF71AFC0620FEF717FC0E20FD
:1039E800FEF714FC1220FEF711FC1420FEF70EFC63
:1039F8001720FEF70BFCE120FEF7E4FBD020FEF7D2
:103A080005FC0020FEF702FC0220FEF7FFFB072062
:103A1800FEF7FCFB0A20FEF7F9FB2820FEF7F6FB71
:103A28003120FEF7F3FB5420FEF7F0FB4720FEF7AA
:103A3800EDFB0E20FEF7EAFB1C20FEF7E7FB172044
:103A4800FEF7E4FB1B20FEF7E1FB1E20FEF7DEFB82
:103A58002A20FEF7B7FB0020FEF7D8FB0020FEF770
:103A6800D5FB0020FEF7D2FBEF20FEF7CFFB2B2083
:103A7800FEF7A8FB0020FEF7C9FB0020FEF7C6FBF7
:103A88000120FEF7C3FB3F20FEF7C0FB2920FEF70D
:103A980099FB02F0BBBA00BFEC000020034B9B88E7
:103AA80045F21032934240F07C8701E0EC000020A0
:103AB800ED20FEF787FB0120FEF7A8FBFE20FEF7AE
:103AC800A5FBEE20FEF77EFBDE20FEF79FFB212004
:103AD800FEF79CFBF120FEF775FB0120FEF796FB35
:103AE800DF20FEF76FFB1020FEF790FBC420FEF7E7
:103AF80069FB8F20FEF78AFBC620FEF763FB0020D8
:103B0800FEF784FBE220FEF781FBE220FEF77EFB56
:103B1800E220FEF77BFBBF20FEF754FBAA20FEF74E
:103B280075FBB020FEF74EFB0D20FEF76FFB002063
:103B3800FEF76CFB0D20FEF769FB0020FEF766FB25
:103B48001120FEF763FB0020FEF760FB1920FEF74B
:103B58005DFB0020FEF75AFB2120FEF757FB0020F3
:103B6800FEF754FB2D20FEF751FB0020FEF74EFB1D
:103B78003D20FEF74BFB0020FEF748FB5D20FEF7DB
:103B880045FB0020FEF742FB5D20FEF73FFB0020CF
:103B9800FEF73CFBB120FEF715FB8020FEF736FB55
:103BA8000020FEF733FB8B20FEF730FB0020FEF7EA
:103BB8002DFB9620FEF72AFB0020FEF727FBB220FC
:103BC800FEF700FB0020FEF721FB0020FEF71EFB9E
:103BD8000220FEF71BFB0020FEF718FB0320FEF770
:103BE80015FB0020FEF712FBB320FEF7EBFA0020CE
:103BF800FEF70CFB0020FEF709FB0020FEF706FB92
:103C08000020FEF703FB0020FEF700FB0020FEF774
:103C1800FDFA0020FEF7FAFA0020FEF7F7FA002076
:103C2800FEF7F4FA0020FEF7F1FA0020FEF7EEFAAC
:103C38000020FEF7EBFA0020FEF7E8FA0020FEF776
:103C4800E5FA0020FEF7E2FA0020FEF7DFFA00208E
:103C5800FEF7DCFA0020FEF7D9FA0020FEF7D6FAC4
:103C68000020FEF7D3FA0020FEF7D0FA0020FEF776
:103C7800CDFA0020FEF7CAFA0020FEF7C7FAB420F2
:103C8800FEF7A0FA8B20FEF7C1FA0020FEF7BEFA75
:103C98009620FEF7BBFA0020FEF7B8FAA120FEF73F
:103CA800B5FA0020FEF7B2FAB520FEF78BFA02202B
:103CB800FEF7ACFA0020FEF7A9FA0320FEF7A6FAF1
:103CC8000020FEF7A3FA0420FEF7A0FA0020FEF772
:103CD8009DFAB620FEF776FA0020FEF797FA002044
:103CE800FEF794FAB720FEF76DFA0020FEF78EFA79
:103CF8000020FEF78BFA3F20FEF788FA0020FEF737
:103D080085FA5E20FEF782FA0020FEF77FFA64202B
:103D1800FEF77CFA0020FEF779FA8C20FEF776FA97
:103D28000020FEF773FAAC20FEF770FA0020FEF7C9
:103D38006DFADC20FEF76AFA0020FEF767FA7020B9
:103D4800FEF764FA0020FEF761FA9020FEF75EFAAB
:103D58000020FEF75BFAEB20FEF758FA0020FEF78A
:103D680055FADC20FEF752FA0020FEF74FFAB82089
:103D7800FEF728FA0020FEF749FA0020FEF746FA77
:103D88000020FEF743FA0020FEF740FA0020FEF775
:103D98003DFA0020FEF73AFA0020FEF737FA002035
:103DA800FEF734FABA20FEF70DFA2420FEF72EFAB1
:103DB8000020FEF72BFA0020FEF728FA0020FEF775
:103DC80025FAC120FEF7FEF92020FEF71FFA002091
:103DD800FEF71CFA5420FEF719FA0020FEF716FA2F
:103DE800FF20FEF713FA0020FEF710FAC220FEF7B4
:103DF800E9F90A20FEF70AFA0020FEF707FA04207C
:103E0800FEF704FA0020FEF701FAC320FEF7DAF9FC
:103E18003C20FEF7FBF90020FEF7F8F93A20FEF700
:103E2800F5F90020FEF7F2F93920FEF7EFF9002046
:103E3800FEF7ECF93720FEF7E9F90020FEF7E6F97E
:103E48003C20FEF7E3F90020FEF7E0F93620FEF704
:103E5800DDF90020FEF7DAF93220FEF7D7F9002065
:103E6800FEF7D4F92F20FEF7D1F90020FEF7CEF99E
:103E78002C20FEF7CBF90020FEF7C8F92920FEF721
:103E8800C5F90020FEF7C2F92620FEF7BFF9002089
:103E9800FEF7BCF92420FEF7B9F90020FEF7B6F9C1
:103EA8002420FEF7B3F90020FEF7B0F92320FEF72F
:103EB800ADF90020FEF7AAF93C20FEF7A7F900208B
:103EC800FEF7A4F93620FEF7A1F90020FEF79EF9C7
:103ED8003220FEF79BF90020FEF798F92F20FEF715
:103EE80095F90020FEF792F92C20FEF78FF90020B3
:103EF800FEF78CF92920FEF789F90020FEF786F9EC
:103F08002620FEF783F90020FEF780F92420FEF72B
:103F18007DF90020FEF77AF92420FEF777F90020D2
:103F2800FEF774F92320FEF771F90020FEF76EF909
:103F3800C420FEF747F96220FEF768F90020FEF773
:103F480065F90520FEF762F90020FEF75FF9842085
:103F5800FEF75CF90020FEF759F9F020FEF756F954
:103F68000020FEF753F91820FEF750F90020FEF75D
:103F78004DF9A420FEF74AF90020FEF747F918206A
:103F8800FEF744F90020FEF741F95020FEF73EF90C
:103F98000020FEF73BF90C20FEF738F90020FEF769
:103FA80035F91720FEF732F90020FEF72FF9952092
:103FB800FEF72CF90020FEF729F9F320FEF726F981
:103FC8000020FEF723F9E620FEF720F90020FEF78F
:103FD8001DF9C520FEF7F6F83220FEF717F9002084
:103FE800FEF714F94420FEF711F90020FEF70EF948
:103FF8006520FEF70BF90020FEF708F97620FEF79A
:1040080005F90020FEF702F98820FEF7FFF80020E6
:10401800FEF7FCF8C620FEF7D5F82020FEF7F6F8E4
:104028000020FEF7F3F81720FEF7F0F80020FEF75F
:10403800EDF80120FEF7EAF80020FEF7E7F8C720C0
:10404800FEF7C0F80020FEF7E1F80020FEF7DEF8E2
:104058000020FEF7DBF80020FEF7D8F8C820FEF7AE
:10406800B1F80020FEF7D2F80020FEF7CFF80020C4
:10407800FEF7CCF80020FEF7C9F8C920FEF7A2F831
:104088000020FEF7C3F80020FEF7C0F80020FEF776
:10409800BDF80020FEF7BAF80020FEF7B7F80020B8
:1040A800FEF7B4F80020FEF7B1F80020FEF7AEF8EE
:1040B8000020FEF7ABF80020FEF7A8F80020FEF776
:1040C800A5F80020FEF7A2F80020FEF79FF80020D0
:1040D800FEF79CF80020FEF799F80020FEF796F806
:1040E800E020FEF76FF81620FEF790F80020FEF7A4
:1040F8008DF81C20FEF78AF80020FEF787F82120AB
:10410800FEF784F80020FEF781F83620FEF77EF8E7
:104118000020FEF77BF84620FEF778F80020FEF72F
:1041280075F85220FEF772F80020FEF76FF8642049
:10413800FEF76CF80020FEF769F87A20FEF766F8BB
:104148000020FEF763F88B20FEF760F80020FEF7EA
:104158005DF89920FEF75AF80020FEF757F8A820D6
:10416800FEF754F80020FEF751F8B920FEF74EF894
:104178000020FEF74BF8C420FEF748F80020FEF7B1
:1041880045F8CA20FEF742F80020FEF73FF8D22093
:10419800FEF73CF80020FEF739F8D920FEF736F88C
:1041A8000020FEF733F8E020FEF730F80020FEF795
:1041B8002DF8F320FEF72AF80020FEF727F8E12073
:1041C800FEF700F81620FEF721F80020FEF71EF88B
:1041D8001C20FEF71BF80020FEF718F82220FEF737
:1041E80015F80020FEF712F83620FEF70FF8002029
:1041F800FEF70CF84520FEF709F80020FEF706F850
:104208005220FEF703F80020FEF700F86420FDF7BF
:10421800FDFF0020FDF7FAFF7A20FDF7F7FF0020E9
:10422800FDF7F4FF8B20FDF7F1FF0020FDF7EEFF0F
:104238009920FDF7EBFF0020FDF7E8FFA820FDF728
:10424800E5FF0020FDF7E2FFB920FDF7DFFF0020C2
:10425800FDF7DCFFC420FDF7D9FF0020FDF7D6FFEE
:10426800CA20FDF7D3FF0020FDF7D0FFD220FDF7CD
:10427800CDFF0020FDF7CAFFD820FDF7C7FF0020BB
:10428800FDF7C4FFE020FDF7C1FF0020FDF7BEFFEA
:10429800F320FDF7BBFF0020FDF7B8FFE220FDF794
:1042A80091FF0520FDF7B2FF0020FDF7AFFF0B20BF
:1042B800FDF7ACFF0020FDF7A9FF1B20FDF7A6FFC7
:1042C8000020FDF7A3FF3420FDF7A0FF0020FDF735
:1042D8009DFF4420FDF79AFF0020FDF797FF4F2030
:1042E800FDF794FF0020FDF791FF6120FDF78EFF99
:1042F8000020FDF78BFF7920FDF788FF0020FDF7F0
:1043080085FF8820FDF782FF0020FDF77FFF9720BB
:10431800FDF77CFF0020FDF779FFA620FDF776FF6B
:104328000020FDF773FFB720FDF770FF0020FDF7B1
:104338006DFFC220FDF76AFF0020FDF767FFC72069
:10434800FDF764FF0020FDF761FFD120FDF75EFF58
:104358000020FDF75BFFD620FDF758FF0020FDF792
:1043680055FFDD20FDF752FF0020FDF74FFFF3203A
:10437800FDF74CFF0020FDF749FFE320FDF722FF82
:104388000520FDF743FF0020FDF740FF0A20FDF759
:104398003DFF0020FDF73AFF1C20FDF737FF002006
:1043A800FDF734FF3320FDF731FF0020FDF72EFF26
:1043B8004420FDF72BFF0020FDF728FF5020FDF7D4
:1043C80025FF0020FDF722FF6220FDF71FFF0020D8
:1043D800FDF71CFF7820FDF719FF0020FDF716FFF9
:1043E8008820FDF713FF0020FDF710FF9720FDF749
:1043F8000DFF0020FDF70AFFA620FDF707FF0020AC
:10440800FDF704FFB720FDF701FF0020FDF7FEFED2
:10441800C220FDF7FBFE0020FDF7F8FEC720FDF7E0
:10442800F5FE0020FDF7F2FED120FDF7EFFE00209B
:10443800FDF7ECFED520FDF7E9FE0020FDF7E6FECE
:10444800DD20FDF7E3FE0020FDF7E0FEF320FDF799
:10445800DDFE0020FDF7DAFEE420FDF7B3FE0120C3
:10446800FDF7D4FE0020FDF7D1FE0120FDF7CEFEBA
:104478000020FDF7CBFE0220FDF7C8FE0020FDF767
:10448800C5FE2A20FDF7C2FE0020FDF7BFFE3C2036
:10449800FDF7BCFE0020FDF7B9FE4B20FDF7B6FE88
:1044A8000020FDF7B3FE5D20FDF7B0FE0020FDF70C
:1044B800ADFE7420FDF7AAFE0020FDF7A7FE8420BC
:1044C800FDF7A4FE0020FDF7A1FE9320FDF79EFE58
:1044D8000020FDF79BFEA220FDF798FE0020FDF7C7
:1044E80095FEB320FDF792FE0020FDF78FFEBE205B
:1044F800FDF78CFE0020FDF789FEC420FDF786FE3F
:104508000020FDF783FECD20FDF780FE0020FDF79B
:104518007DFED320FDF77AFE0020FDF777FEDD2033
:10452800FDF774FE0020FDF771FEF320FDF76EFE27
:104538000020FDF76BFEE520FDF744FE0020FDF7A7
:1045480065FE0020FDF762FE0020FDF75FFE0020FB
:10455800FDF75CFE0220FDF759FE0020FDF756FE30
:104568002920FDF753FE0020FDF750FE3C20FDF703
:104578004DFE0020FDF74AFE4B20FDF747FE0020C8
:10458800FDF744FE5D20FDF741FE0020FDF73EFEED
:104598007420FDF73BFE0020FDF738FE8420FDF770
:1045A80035FE0020FDF732FE9320FDF72FFE002098
:1045B800FDF72CFEA220FDF729FE0020FDF726FEC0
:1045C800B320FDF723FE0020FDF720FEBE20FDF7F7
:1045D8001DFE0020FDF71AFEC420FDF717FE00207F
:1045E800FDF714FECD20FDF711FE0020FDF70EFEAD
:1045F800D320FDF70BFE0020FDF708FEDC20FDF7B9
:1046080005FE0020FDF702FEF320FDF7FFFD002068
:10461800FDF7FCFDE620FDF7D5FD1120FDF7F6FDC1
:104628000020FDF7F3FD3420FDF7F0FD0020FDF735
:10463800EDFD5620FDF7EAFD0020FDF7E7FD7620A9
:10464800FDF7E4FD0020FDF7E1FD7720FDF7DEFD35
:104658000020FDF7DBFD6620FDF7D8FD0020FDF703
:10466800D5FD8820FDF7D2FD0020FDF7CFFD99206C
:10467800FDF7CCFD0020FDF7C9FDBB20FDF7C6FD09
:104688000020FDF7C3FD9920FDF7C0FD0020FDF7D0
:10469800BDFD6620FDF7BAFD0020FDF7B7FD5520EA
:1046A800FDF7B4FD0020FDF7B1FD5520FDF7AEFD87
:1046B8000020FDF7ABFD4520FDF7A8FD0020FDF724
:1046C800A5FD4320FDF7A2FD0020FDF79FFD442036
:1046D800FDF79CFD0020FDF799FDE720FDF772FD31
:1046E8003220FDF793FD0020FDF790FD5520FDF7E2
:1046F8008DFD0020FDF78AFD7620FDF787FD00205F
:10470800FDF784FD6620FDF781FD0020FDF77EFDA5
:104718006720FDF77BFD0020FDF778FD6720FDF79A
:1047280075FD0020FDF772FD8720FDF76FFD002065
:10473800FDF76CFD9920FDF769FD0020FDF766FD8A
:10474800BB20FDF763FD0020FDF760FD9920FDF714
:104758005DFD0020FDF75AFD7720FDF757FD00208D
:10476800FDF754FD4420FDF751FD0020FDF74EFDF7
:104778005620FDF74BFD0020FDF748FD2320FDF7EF
:1047880045FD0020FDF742FD3320FDF73FFD0020E9
:10479800FDF73CFD4520FDF739FD0020FDF736FD0E
:1047A800E820FDF70FFD0020FDF730FD0020FDF7A4
:1047B8002DFD9920FDF72AFD0020FDF727FD872014
:1047C800FDF724FD0020FDF721FD8820FDF71EFDE3
:1047D8000020FDF71BFD7720FDF718FD0020FDF7F1
:1047E80015FD6620FDF712FD0020FDF70FFD88205E
:1047F800FDF70CFD0020FDF709FDAA20FDF706FDD9
:104808000020FDF703FDBB20FDF700FD0020FDF7AC
:10481800FDFC9920FDF7FAFC0020FDF7F7FC662067
:10482800FDF7F4FC0020FDF7F1FC5520FDF7EEFC48
:104838000020FDF7EBFC5520FDF7E8FC0020FDF714
:10484800E5FC4420FDF7E2FC0020FDF7DFFC4420F6
:10485800FDF7DCFC0020FDF7D9FC5520FDF7D6FC60
:104868000020FDF7D3FCE920FDF7ACFCAA20FDF7FA
:10487800CDFC0020FDF7CAFC0020FDF7C7FC002096
:10488800FDF7C4FC0020FDF79DFCAA20FDF7BEFC47
:10489800CF20FDF797FC0020FDF7B8FC0020FDF7BE
:1048A800B5FC0020FDF7B2FC0020FDF7AFFC0020AE
:1048B800FDF7ACFC0020FDF7A9FC0020FDF7A6FCE5
:1048C8000020FDF7A3FC0020FDF7A0FC0020FDF769
:1048D8009DFC0020FDF79AFC0020FDF797FC0020C6
:1048E800FDF794FC0020FDF791FC0020FDF78EFCFD
:1048F8000020FDF78BFC0020FDF788FCF020FDF779
:1049080061FC0020FDF782FC5020FDF77FFC0020B1
:10491800FDF77CFC0020FDF779FC0020FDF776FC14
:10492800F320FDF74FFC0020FDF770FCF920FDF7A0
:1049380049FC0620FDF76AFC1020FDF767FC2920DA
:10494800FDF764FC0020FDF761FC3A20FDF73AFC16
:104958005520FDF75BFC1120FDF734FC6420FCF7C3
:10496800CDFE2920FDF72EFC3520FDF72BFC00207D
:10497800FDF74CFC5120FDF725FCFF20FDF746FC18
:104988005320FDF71FFC2C20FDF740FC5520FDF7B8
:1049980019FC8220FDF73AFC2C20FDF713FC01F0EE
:1049A80035BB044B9B8845F21052934240F08187F7
:1049B80002E000BFEC00002055214FF47040FDF7E5
:1049C80097FCAA214FF20100FDF792FC52214FF209
:1049D8000200FDF78DFC08214FF20300FDF788FC6B
:1049E80001214FF20400FDF783FC0D214FF4304004
:1049F800FDF77EFC0D214BF20100FDF779FC0D213E
:104A08004BF20200FDF774FC34214FF43640FDF7F9
:104A18006FFC34214BF20160FDF76AFC34214BF244
:104A28000260FDF765FC0D214FF43140FDF760FC95
:104A38000D214BF20110FDF75BFC0D214BF202102A
:104A4800FDF756FC34214FF43740FDF751FC342173
:104A58004BF20170FDF74CFC34214BF20270FDF76C
:104A680047FC00214FF43240FDF742FC00214BF295
:104A78000120FDF73DFC00214BF20220FDF738FC38
:104A880024214FF43840FDF733FC24214BF6010074
:104A9800FDF72EFC24214BF60200FDF729FC01212D
:104AA8004FF43F40FDF724FC0F214FF43340FDF74E
:104AB8001FFC0F214BF20130FDF71AFC0F214BF2BE
:104AC8000230FDF715FC34214FF43940FDF710FC96
:104AD80034214BF60110FDF70BFC34214BF6021084
:104AE800FDF706FC08214FF43540FDF701FC0821CD
:104AF8004BF20150FDF7FCFB08214BF20250FDF789
:104B0800F7FB03214FF44240FDF7F2FB24214FF459
:104B18003A40FDF7EDFB24214BF60120FDF7E8FBB9
:104B280024214BF60220FDF7E3FB00214FF43C4023
:104B3800FDF7DEFB78214BF60140FDF7D9FB00219C
:104B48004BF60240FDF7D4FB00214FF43D40FDF742
:104B5800CFFB78214BF60150FDF7CAFB00214BF63D
:104B68000250FDF7C5FB00214FF43E40FDF7C0FBA6
:104B780064214BF60160FDF7BBFB00214FF4514067
:104B8800FDF7B6FB33214DF20110FDF7B1FB002113
:104B98004DF20210FDF7ACFB34214DF20310FDF786
:104BA800A7FB00214DF20410FDF7A2FB3A214DF2BC
:104BB8000510FDF79DFB00214DF20610FDF798FB4F
:104BC8004A214DF20710FDF793FB00214DF2081022
:104BD800FDF78EFB5C214DF20910FDF789FB0021E2
:104BE8004DF20A10FDF784FB81214DF20B10FDF701
:104BF8007FFB00214DF20C10FDF77AFBA6214DF248
:104C08000D10FDF775FB00214DF20E10FDF770FB3E
:104C1800E5214DF20F10FDF76BFB01214DF210104D
:104C2800FDF766FB13214DF21110FDF761FB012121
:104C38004DF21210FDF75CFB54214DF21310FDF7F5
:104C480057FB01214DF21410FDF752FB82214DF262
:104C58001510FDF74DFB01214DF21610FDF748FB2D
:104C6800CA214DF21710FDF743FB02214DF218102F
:104C7800FDF73EFB00214DF21910FDF739FB02212B
:104C88004DF21A10FDF734FB01214DF21B10FDF710
:104C98002FFB02214DF21C10FDF72AFB34214DF2A7
:104CA8001D10FDF725FB02214DF21E10FDF720FB1C
:104CB80067214DF21F10FDF71BFB02214DF220105A
:104CC800FDF716FB84214DF22110FDF711FB02219F
:104CD8004DF22210FDF70CFBA4214DF22310FDF735
:104CE80007FB02214DF22410FDF702FBB7214DF21C
:104CF8002510FDF7FDFA02214DF22610FDF7F8FA0E
:104D0800CF214DF22710FDF7F3FA02214DF22810BA
:104D1800FDF7EEFADE214DF22910FDF7E9FA02213E
:104D28004DF22A10FDF7E4FAF2214DF22B10FDF7AF
:104D3800DFFA02214DF22C10FDF7DAFAFE214DF2CE
:104D48002D10FDF7D5FA03214DF22E10FDF7D0FAFC
:104D580010214DF22F10FDF7CBFA03214DF2301040
:104D6800FDF7C6FA33214DF23110FDF7C1FA0321E0
:104D78004DF23210FDF7BCFA6D214DF23310FDF7FC
:104D8800B7FA00214FF45240FDF7B2FA33214DF241
:104D98000120FDF7ADFA00214DF20220FDF7A8FA37
:104DA80034214DF20320FDF7A3FA00214DF204202F
:104DB800FDF79EFA3A214DF20520FDF799FA0021F8
:104DC8004DF20620FDF794FA4A214DF20720FDF72F
:104DD8008FFA00214DF20820FDF78AFA5C214DF286
:104DE8000920FDF785FA00214DF20A20FDF780FA27
:104DF80081214DF20B20FDF77BFA00214DF20C20AA
:104E0800FDF776FAA6214DF20D20FDF771FA002183
:104E18004DF20E20FDF76CFAE5214DF20F20FDF75B
:104E280067FA01214DF21020FDF762FA13214DF2C5
:104E38001120FDF75DFA01214DF21220FDF758FA15
:104E480054214DF21320FDF753FA01214DF214209D
:104E5800FDF74EFA82214DF21520FDF749FA01219E
:104E68004DF21620FDF744FACA214DF21720FDF73E
:104E78003FFA02214DF21820FDF73AFA00214DF2CF
:104E88001920FDF735FA02214DF21A20FDF730FA04
:104E980001214DF21B20FDF72BFA02214DF21C20B7
:104EA800FDF726FA34214DF21D20FDF721FA0221E3
:104EB8004DF21E20FDF71CFA67214DF21F20FDF769
:104EC80017FA02214DF22020FDF712FA84214DF243
:104ED8002120FDF70DFA02214DF22220FDF708FAF4
:104EE800A4214DF22320FDF703FA02214DF22420DC
:104EF800FDF7FEF9B7214DF22520FDF7F9F902215A
:104F08004DF22620FDF7F4F9CF214DF22720FDF7C9
:104F1800EFF902214DF22820FDF7EAF9DE214DF2E2
:104F28002920FDF7E5F902214DF22A20FDF7E0F9E5
:104F3800F2214DF22B20FDF7DBF902214DF22C2056
:104F4800FDF7D6F9FE214DF22D20FDF7D1F9032109
:104F58004DF22E20FDF7CCF910214DF22F20FDF750
:104F6800C7F903214DF23020FDF7C2F933214DF284
:104F78003120FDF7BDF903214DF23220FDF7B8F9D4
:104F88006D214DF23320FDF7B3F900214FF4534062
:104F9800FDF7AEF933214DF20130FDF7A9F90021F3
:104FA8004DF20230FDF7A4F934214DF20330FDF73C
:104FB8009FF900214DF20430FDF79AF93A214DF29C
:104FC8000530FDF795F900214DF20630FDF790F90F
:104FD8004A214DF20730FDF78BF900214DF20830D8
:104FE800FDF786F95C214DF20930FDF781F90021C2
:104FF8004DF20A30FDF77CF981214DF20B30FDF7B7
:1050080077F900214DF20C30FDF772F9A6214DF227
:105018000D30FDF76DF900214DF20E30FDF768F9FE
:10502800E5214DF20F30FDF763F901214DF2103003
:10503800FDF75EF913214DF21130FDF759F9012101
:105048004DF21230FDF754F954214DF21330FDF7AB
:105058004FF901214DF21430FDF74AF982214DF242
:105068001530FDF745F901214DF21630FDF740F9ED
:10507800CA214DF21730FDF73BF902214DF21830E5
:10508800FDF736F900214DF21930FDF731F902210B
:105098004DF21A30FDF72CF901214DF21B30FDF7C6
:1050A80027F902214DF21C30FDF722F934214DF287
:1050B8001D30FDF71DF902214DF21E30FDF718F9DC
:1050C80067214DF21F30FDF713F902214DF2203010
:1050D800FDF70EF984214DF22130FDF709F902217F
:1050E8004DF22230FDF704F9A4214DF22330FDF7EB
:1050F800FFF802214DF22430FDF7FAF8B7214DF2FE
:105108002530FDF7F5F802214DF22630FDF7F0F8CD
:10511800CF214DF22730FDF7EBF802214DF2283070
:10512800FDF7E6F8DE214DF22930FDF7E1F802211E
:105138004DF22A30FDF7DCF8F2214DF22B30FDF765
:10514800D7F802214DF22C30FDF7D2F8FE214DF2AE
:105158002D30FDF7CDF803214DF22E30FDF7C8F8BC
:1051680010214DF22F30FDF7C3F803214DF23030F6
:10517800FDF7BEF833214DF23130FDF7B9F80321C0
:105188004DF23230FDF7B4F86D214DF23330FDF7B2
:10519800AFF800214FF45440FDF7AAF833214DF23F
:1051A8000140FDF7A5F800214DF20240FDF7A0F8F7
:1051B80034214DF20340FDF79BF800214DF20440E5
:1051C800FDF796F83A214DF20540FDF791F80021D8
:1051D8004DF20640FDF78CF84A214DF20740FDF7E5
:1051E80087F800214DF20840FDF782F85C214DF266
:1051F8000940FDF77DF800214DF20A40FDF778F8E7
:1052080081214DF20B40FDF773F800214DF20C405F
:10521800FDF76EF8A6214DF20D40FDF769F8002163
:105228004DF20E40FDF764F8E5214DF20F40FDF711
:105238005FF801214DF21040FDF75AF813214DF2A5
:105248001140FDF755F801214DF21240FDF750F8D5
:1052580054214DF21340FDF74BF801214DF2144053
:10526800FDF746F882214DF21540FDF741F801217E
:105278004DF21640FDF73CF8CA214DF21740FDF7F4
:1052880037F802214DF21840FDF732F800214DF2AF
:105298001940FDF72DF802214DF21A40FDF728F8C4
:1052A80001214DF21B40FDF723F802214DF21C406D
:1052B800FDF71EF834214DF21D40FDF719F80221C3
:1052C8004DF21E40FDF714F867214DF21F40FDF71F
:1052D8000FF802214DF22040FDF70AF884214DF223
:1052E8002140FDF705F802214DF22240FDF700F8B4
:1052F800A4214DF22340FCF7FBFF02214DF224408C
:10530800FCF7F6FFB7214DF22540FCF7F1FF02212B
:105318004DF22640FCF7ECFFCF214DF22740FCF779
:10532800E7FF02214DF22840FCF7E2FFDE214DF2B3
:105338002940FCF7DDFF02214DF22A40FCF7D8FF97
:10534800F2214DF22B40FCF7D3FF02214DF22C4005
:10535800FCF7CEFFFE214DF22D40FCF7C9FF0321DB
:105368004DF22E40FCF7C4FF10214DF22F40FCF700
:10537800BFFF03214DF23040FCF7BAFF33214DF255
:105388003140FCF7B5FF03214DF23240FCF7B0FF86
:105398006D214DF23340FCF7ABFF00214FF455402F
:1053A800FCF7A6FF33214DF20150FCF7A1FF0021C5
:1053B8004DF20250FCF79CFF34214DF20350FCF7EC
:1053C80097FF00214DF20450FCF792FF3A214DF26D
:1053D8000550FCF78DFF00214DF20650FCF788FFC1
:1053E8004A214DF20750FCF783FF00214DF2085087
:1053F800FCF77EFF5C214DF20950FCF779FF002194
:105408004DF20A50FCF774FF81214DF20B50FCF766
:105418006FFF00214DF20C50FCF76AFFA6214DF2F8
:105428000D50FCF765FF00214DF20E50FCF760FFB0
:10543800E5214DF20F50FCF75BFF01214DF21050B2
:10544800FCF756FF13214DF21150FCF751FF0121D3
:105458004DF21250FCF74CFF54214DF21350FCF75B
:1054680047FF01214DF21450FCF742FF82214DF213
:105478001550FCF73DFF01214DF21650FCF738FF9F
:10548800CA214DF21750FCF733FF02214DF2185094
:10549800FCF72EFF00214DF21950FCF729FF0221DD
:1054A8004DF21A50FCF724FF01214DF21B50FCF776
:1054B8001FFF02214DF21C50FCF71AFF34214DF258
:1054C8001D50FCF715FF02214DF21E50FCF710FF8E
:1054D80067214DF21F50FCF70BFF02214DF22050BF
:1054E800FCF706FF84214DF22150FCF701FF022151
:1054F8004DF22250FCF7FCFEA4214DF22350FCF79C
:10550800F7FE02214DF22450FCF7F2FEB7214DF2CE
:105518002550FCF7EDFE02214DF22650FCF7E8FE7F
:10552800CF214DF22750FCF7E3FE02214DF228501F
:10553800FCF7DEFEDE214DF22950FCF7D9FE0221F0
:105548004DF22A50FCF7D4FEF2214DF22B50FCF715
:10555800CFFE02214DF22C50FCF7CAFEFE214DF27F
:105568002D50FCF7C5FE03214DF22E50FCF7C0FE6E
:1055780010214DF22F50FCF7BBFE03214DF23050A5
:10558800FCF7B6FE33214DF23150FCF7B1FE032192
:105598004DF23250FCF7ACFE6D214DF23350FCF762
:1055A800A7FE00214FF45640FCF7A2FE33214DF22E
:1055B8000160FCF79DFE00214DF20260FCF798FEA9
:1055C80034214DF20360FCF793FE00214DF2046094
:1055D800FCF78EFE3A214DF20560FCF789FE0021AA
:1055E8004DF20660FCF784FE4A214DF20760FCF795
:1055F8007FFE00214DF20860FCF77AFE5C214DF237
:105608000960FCF775FE00214DF20A60FCF770FE98
:1056180081214DF20B60FCF76BFE00214DF20C600E
:10562800FCF766FEA6214DF20D60FCF761FE002135
:105638004DF20E60FCF75CFEE5214DF20F60FCF7C1
:1056480057FE01214DF21060FCF752FE13214DF276
:105658001160FCF74DFE01214DF21260FCF748FE87
:1056680054214DF21360FCF743FE01214DF2146002
:10567800FCF73EFE82214DF21560FCF739FE012150
:105688004DF21660FCF734FECA214DF21760FCF7A4
:105698002FFE02214DF21860FCF72AFE00214DF280
:1056A8001960FCF725FE02214DF21A60FCF720FE76
:1056B80001214DF21B60FCF71BFE02214DF21C601C
:1056C800FCF716FE34214DF21D60FCF711FE022195
:1056D8004DF21E60FCF70CFE67214DF21F60FCF7CF
:1056E80007FE02214DF22060FCF702FE84214DF2F4
:1056F8002160FCF7FDFD02214DF22260FCF7F8FD68
:10570800A4214DF22360FCF7F3FD02214DF2246041
:10571800FCF7EEFDB7214DF22560FCF7E9FD02210B
:105728004DF22660FCF7E4FDCF214DF22760FCF72F
:10573800DFFD02214DF22860FCF7DAFDDE214DF293
:105748002960FCF7D5FD02214DF22A60FCF7D0FD57
:10575800F2214DF22B60FCF7CBFD02214DF22C60BB
:10576800FCF7C6FDFE214DF22D60FCF7C1FD0321BB
:105778004DF22E60FCF7BCFD10214DF22F60FCF7B6
:10578800B7FD03214DF23060FCF7B2FD33214DF235
:105798003160FCF7ADFD03214DF23260FCF7A8FD46
:1057A8006D214DF23360FCF7A3FD55214FF4704095
:1057B800FCF79EFDAA214FF20100FCF799FD52214A
:1057C8004FF20200FCF794FD08214FF20300FCF7AA
:1057D8008FFD00214FF20400FCF78AFDCC214FF425
:1057E8003140FCF785FD00214BF20110FCF780FDEC
:1057F80005214FF43640FCF77BFD70214FF437400C
:10580800FCF776FD70214BF20170FCF771FD012168
:105818004FF43840FCF76CFD03214BF60100FCF710
:1058280067FD03214BF60200FCF762FD03214BF6EE
:105838000300FCF75DFD02214FF43C40FCF758FDE6
:1058480000214BF60140FCF753FD00214BF60240C6
:10585800FCF74EFDD0214FF44940FCF749FD0221E9
:105868004CF60110FCF744FD50214CF60210FCF7F1
:105878003FFD50214CF60310FCF73AFD50214CF641
:105888000410FCF735FD00214FF45450FCF730FDAF
:1058980055214FF46850FCF72BFD4FF48850FCF766
:1058A80091FC7820FBF7ECFE4FF42450FCF78AFCBF
:1058B800ACE3A84B9B8841F66312934240F0A68361
:1058C800E220FCF77FFCA44B4FF480721A61A24BD4
:1058D8004FF400725A61A14B1D22DA609E4B802260
:1058E8005A619D4B80221A619B4B4FF400721A61DA
:1058F800994B4FF480721A61974B4FF400725A61BA
:10590800964B0222DA60944B80225A61924B802295
:105918001A61914B4FF400721A618F4B4FF48072E9
:105928001A618D4B4FF400725A618C4B0422DA6075
:10593800894B80225A61884B80221A61864B4FF42A
:1059480000721A616420FBF79BFEE020FCF73AFC2A
:10595800814B4FF480721A617F4B4FF400725A6189
:105968007E4B0122DA607C4B80225A617A4B80227E
:105978001A61794B4FF400721A610A20FBF7BEFED8
:10598800E020FCF71FFC744B4FF480721A61724BD5
:105998004FF400725A61714B0322DA606E4B802219
:1059A8005A616D4B80221A616B4B4FF400721A6179
:1059B8000C20FBF7A3FE0120FCF704FC0A20FBF7F0
:1059C8009DFEE620FCF7FEFB634B4FF480721A61E4
:1059D800614B4FF400725A61604B2F22DA605E4BC4
:1059E80080225A615C4B80221A615B4B4FF4007233
:1059F8001A61594B4FF480721A61574B4FF4007279
:105A08005A61564BFF22DA60534B80225A61524B3F
:105A180080221A61504B4FF400721A614E4B4FF4BA
:105A280080721A614C4B4FF400725A614B4BFF2243
:105A3800DA60494B80225A61474B80221A61464BF3
:105A48004FF400721A61B020FCF7BCFB424B4FF4D4
:105A580080721A61404B4FF400725A613F4B20220A
:105A6800DA603D4B80225A613B4B80221A613A4BE7
:105A78004FF400721A61384B4FF480721A61364B3A
:105A88004FF400725A61354B0022DA60324B8022A3
:105A98005A61314B80221A612F4B4FF400721A6100
:105AA8002D4B4FF480721A612B4B4FF400725A61E0
:105AB8002A4B0322DA60284B80225A61264B802227
:105AC8001A61254B4FF400721A61234B4FF4807210
