:020000040800F2
:1000000000C00020FD8700084D85000855850008C8
:100010005D850008658500086D850008000000000A
:1000200000000000000000000000000075850008CE
:1000300081850008000000008D8500089985000872
:10004000458800084588000845880008458800085C
:10005000458800084588000845880008458800084C
:10006000458800084588000845880008458800083C
:10007000458800084588000845880008458800082C
:10008000458800084588000845880008458800081C
:10009000458800084588000845880008458800080C
:1000A00045880008458800084588000845880008FC
:1000B000A58500084588000845880008458800088F
:1000C00045880008458800084588000845880008DC
:1000D00045880008458800084588000845880008CC
:1000E00045880008458800084588000845880008BC
:1000F00045880008458800084588000845880008AC
:10010000458800084588000845880008458800089B
:10011000458800084588000845880008458800088B
:10012000458800084588000845880008458800087B
:1001300000000000000000000000000000000000BF
:1001400000000000000000000000000000000000AF
:10015000000000000000000000000000000000009F
:10016000000000000000000000000000000000008F
:10017000000000000000000000000000000000007F
:10018000000000000000000000000000000000006F
:10019000000000000000000000000000000000005F
:1001A000000000000000000000000000000000004F
:1001B000000000000000000000000000000000003F
:1001C000000000000000000000000000000000002F
:1001D000000000000000000000000000000000001F
:0401E0005FF8E0F1F3
:1001E80010B5054C237833B9044B13B10448AFF369
:1001F80000800123237010BD64000020000000006F
:10020800E0AA000808B5034B1BB103490348AFF344
:10021800008008BD0000000068000020E0AA000877
:10022800034613F8012B002AFBD1181A013870472E
:1002380070B54FF0FF0C4CF4E06C1CEA11541DBF74
:100248001CEA135594EA0C0F95EA0C0F00F0DEF83F
:100258002C4481EA030621EA4C5123EA4C5350EA24
:10026800013518BF52EA033541F4801143F4801375
:1002780038D0A0FB02CE4FF00005E1FB02E506F006
:100288000042E0FB03E54FF00006E1FB03569CF05B
:10029800000F18BF4EF0010EA4F1FF04B6F5007F61
:1002A80064F5407404D25FEA4E0E6D4146EB0606D3
:1002B80042EAC62141EA55514FEAC52040EA5E505C
:1002C8004FEACE2EB4F1FD0C88BFBCF5E06F1ED806
:1002D800BEF1004F08BF5FEA500E50F1000041EB3D
:1002E800045170BD06F0004646EA010140EA0200EA
:1002F80081EA0301B4EB5C04C2BFD4EB0C0541EA0C
:10030800045170BD41F480114FF0000E013C00F320
:10031800AB8014F1360FDEBF002001F0004170BD44
:10032800C4F10004203C35DA0C341BDC04F114045D
:10033800C4F1200500FA05F320FA04F001FA05F2E9
:1003480040EA020001F0004221F0004110EBD370B6
:1003580021FA04F642EB06015EEA430E08BF20EAE2
:10036800D37070BDC4F10C04C4F1200500FA04F385
:1003780020FA05F001FA04F240EA020001F0004117
:1003880010EBD37041F100015EEA430E08BF20EA8A
:10039800D37070BDC4F1200500FA05F24EEA020ED2
:1003A80020FA04F301FA05F243EA020321FA04F001
:1003B80001F0004121FA04F220EA020000EBD370B8
:1003C8005EEA430E08BF20EAD37070BD94F0000FB8
:1003D8000FD101F00046400041EB010111F4801FEC
:1003E80008BF013CF7D041EA060195F0000F18BF9D
:1003F800704703F00046520043EB030313F4801FD9
:1004080008BF013DF7D043EA0603704794EA0C0F92
:100418000CEA135518BF95EA0C0F0CD050EA4106A8
:1004280018BF52EA4306D1D181EA030101F0004125
:100438004FF0000070BD50EA410606BF104619464D
:1004480052EA430619D094EA0C0F02D150EA013659
:1004580013D195EA0C0F05D152EA03361CBF10469A
:1004680019460AD181EA030101F0004141F0FE4139
:1004780041F470014FF0000070BD41F0FE4141F4BD
:10048800780170BD81F0004102E000BF83F00043B5
:1004980030B54FEA41044FEA430594EA050F08BF17
:1004A80090EA020F1FBF54EA000C55EA020C7FEADB
:1004B800645C7FEA655C00F0E2804FEA5454D4EB58
:1004C8005555B8BF6D420CDD2C4480EA020281EA22
:1004D800030382EA000083EA010180EA020281EA5A
:1004E8000303362D88BF30BD11F0004F4FEA0131AC
:1004F8004FF4801C4CEA113102D0404261EB4101BB
:1005080013F0004F4FEA03334CEA133302D0524240
:1005180063EB430394EA050F00F0A780A4F10104FC
:10052800D5F1200E0DDB02FA0EFC22FA05F2801836
:1005380041F1000103FA0EF2801843FA05F359411C
:100548000EE0A5F120050EF1200E012A03FA0EFC9B
:1005580028BF4CF0020C43FA05F3C01851EBE371C5
:1005680001F0004507D54FF0000EDCF1000C7EEBE2
:1005780000006EEB0101B1F5801F1BD3B1F5001F20
:100588000CD349085FEA30004FEA3C0C04F101043F
:100598004FEA445212F5800F80F09A80BCF1004F68
:1005A80008BF5FEA500C50F1000041EB045141EAEA
:1005B800050130BD5FEA4C0C404141EB0101013CB3
:1005C80028BFB1F5801FE9D291F0000F04BF0146A2
:1005D8000020B1FA81F308BF2033A3F10B03B3F174
:1005E80020020CDA0C3208DD02F1140CC2F10C0204
:1005F80001FA0CF021FA02F10CE002F11402D8BF62
:10060800C2F1200C01FA02F120FA0CFCDCBF41EA2D
:100618000C019040E41AA2BF01EB0451294330BDFC
:100628006FEA04041F3C1CDA0C340EDC04F11404D9
:10063800C4F1200220FA04F001FA02F340EA0300B0
:1006480021FA04F345EA030130BDC4F10C04C4F1F6
:10065800200220FA02F001FA04F340EA03002946D6
:1006680030BD21FA04F0294630BD94F0000F83F420
:10067800801306BF81F480110134013D4EE77FEA03
:10068800645C18BF7FEA655C29D094EA050F08BF4F
:1006980090EA020F05D054EA000C04BF1946104630
:1006A80030BD91EA030F1EBF0021002030BD5FEA74
:1006B800545C05D14000494128BF41F0004130BD9C
:1006C80014F580043CBF01F5801130BD01F00045F0
:1006D80045F0FE4141F470014FF0000030BD7FEA63
:1006E800645C1ABF194610467FEA655C1CBF0B465E
:1006F800024650EA013406BF52EA033591EA030F75
:1007080041F4002130BD00BF90F0000F04BF00216C
:10071800704730B54FF4806404F132044FF000059F
:100728004FF0000150E700BF90F0000F04BF002118
:10073800704730B54FF4806404F1320410F000457E
:1007480048BF40424FF000013EE700BF42004FEA79
:10075800E2014FEA31014FEA02701FBF12F07F43F6
:1007680093F07F4F81F06051704732F07F4208BFAD
:10077800704793F07F4F04BF41F40021704730B5B4
:100788004FF4607401F0004521F000411CE700BF00
:1007980050EA010208BF704730B54FF000050AE083
:1007A80050EA010208BF704730B511F0004502D584
:1007B800404261EB41014FF4806404F132045FEA86
:1007C800915C3FF4D8AE4FF003025FEADC0C18BF2F
:1007D80003325FEADC0C18BF033202EBDC02C2F121
:1007E800200300FA03FC20FA02F001FA03FE40EAB3
:1007F8000E0021FA02F11444BDE600BF4A0011D2EE
:1008080012F5001211D20DD56FF47873B3EB625262
:100818000ED44FEAC12343F0004343EA505323FA6E
:1008280002F070474FF00000704750EA013002D1E3
:100838004FF0FF3070474FF00000704780B400AFB2
:100848000B4B0C4A1A600A4B20229A80084B0A4A22
:100858001A61074B4FF400429A82054B064A1A6206
:10086800034B01229A8400BFBD4680BC704700BF7D
:1008780080000020001001400008014080B483B0CF
:1008880000AF78607B6800225A817B6800221A8159
:100898007B6800221A737B6800225A7300BF0C37EA
:1008A800BD4680BC7047000080B582B000AF78605C
:1008B8007B689B79032B00F2058101A252F823F093
:1008C800D9080008ED0900080D0A0008A50A000863
:1008D8007B689B88012B1DD17B681A687B689B8885
:1008E8001946104608F0D4FA0346012B03D17B6859
:1008F80001229A712BE07B681A687B689B881946ED
:10090800104608F0C5FA0346002B20D17B68002268
:100918009A711CE07B681A687B689B8819461046A8
:1009280008F0B6FA0346002B03D17B6801229A71BE
:100938000DE07B681A687B689B881946104608F0AA
:10094800A7FA0346012B02D17B6800229A717B68C3
:100958005B7B012B05D17B685B8901339AB27B688D
:100968005A817B681B89642B06D97B6804229A7399
:100978007868FFF783FFA7E07B681B89632B07D89C
:100988007B681B89142B03D97868FFF777FF9BE0F6
:100998007B685B89142B40F297807B681B89052B49
:1009A80040F292807B681B89132B00F28D807B6854
:1009B8001B7B012B03D17B6801229A730EE07B68B5
:1009C8001B7B022B03D17B6802229A7306E07B68AB
:1009D8001B7B032B02D17B6803229A737868FFF78D
:1009E8004DFF71E07B6802229A717B681B7B0133A3
:1009F800DAB27B681A737B6800225A737B6800221C
:100A08001A8166E07B689B88012B23D17B681A6872
:100A18007B689B881946104608F03AFA0346012B72
:100A280009D17B6802229A717B681B8901339AB2CB
:100A38007B681A814AE07B681A687B689B8819463C
:100A4800104608F025FA0346002B3FD17B680322A5
:100A58009A713BE07B681A687B689B881946104648
:100A680008F016FA0346002B09D17B6802229A7116
:100A78007B681B8901339AB27B681A8126E07B6800
:100A88001A687B689B881946104608F001FA0346E5
:100A9800012B1BD17B6803229A7117E07B68002227
:100AA8009A717B6801225A737B6800225A817B689D
:100AB8001B89642B0CD97B681B7B013BDAB27B68F2
:100AC8001A7305E000BF04E000BF02E000BF00E0C9
:100AD80000BF00BF0837BD4680BD00BF90B583B0DA
:100AE80002AF2B4B5B882B4AA2FB03239B0899B2CE
:100AF800274B1A88264B5B882648A0FB03039B08D4
:100B08009BB200200090002006F0E4FA204B5B889E
:100B18005B00214A82FB03125210DB17D31A99B2E9
:100B28001B4B18881A4B5B885B001B4A82FB0342ED
:100B38005210DB17D31A9BB2002200920246002003
:100B480006F0C8FA124B5B881A4613465B0013443A
:100B5800114A82FB03125210DB17D31A99B20C4BBD
:100B680018880B4B5B881A4613465B0013440A4AE5
:100B780082FB03425210DB17D31A9BB20022009269
:100B88000246002006F0A6FA00BF0437BD4690BD15
:100B9800B0000020CDCCCCCC6766666680B586B048
:100BA80004AF0346FB71FB79002B52D0494B5B889D
:100BB800494AA2FB0323DB0899B200230293474B5F
:100BC8000193182300931823C8220A2006F0CEFBAD
:100BD800404B5B88404AA2FB0323DB089BB22833C7
:100BE80099B2002302933E4B0193102300931023E4
:100BF80064220A2006F0BAFB364B5B885B00394A50
:100C080082FB03125210DB17D31A9BB20A3399B234
:100C180000230293344B0193102300931023642282
:100C28000A2006F0A3FB2B4B5B889B002D4A82FB16
:100C380003125210DB17D31A99B2002302932B4BDD
:100C48000193182300931823C8220A2006F08EFB6C
:100C58003CE0204B5B88204AA2FB0323DB0899B2C7
:100C680000230293224B0193182300931823C822D0
:100C78000A2006F07BFB174B5B88174AA2FB03236D
:100C8800DB089BB2283399B200230293144B0193DB
:100C980010230093102364220A2006F067FB0D4BF3
:100CA8005B885B000F4A82FB03125210DB17D31AD2
:100CB8009BB20A3399B2002302930B4B0193102382
:100CC8000093102364220A2006F050FB00BF083767
:100CD800BD4680BDB0000020CDCCCCCCF8AA000821
:100CE80008AB00086766666618AB000828AB000802
:100CF80034AB000890B585B000AF044608461146ED
:100D08001A462346FB800346BB800B467B8013466E
:100D18003B800023FB603B883A8C02FB03F3BB60FB
:100D28007A88BB881146184600F096F900F06AF9EF
:100D3800114B4FF480721A610F4B4FF000721A6119
:100D48000023FB600CE00D4AFB88D3600A4B4FF48C
:100D580000021A61084B80221A61FB680133FB60AC
:100D6800FA68BB689A42EED3034B4FF400721A61DB
:100D780000BF1437BD4690BD00100140000C014073
:100D880080B588B000AF07F1100300221A605A60DE
:100D98009A60DA603A4B9B69394A43F020039361C1
:100DA800374B9B6903F02003FB60FB68344B9B695E
:100DB800334A43F004039361314B9B6903F0040306
:100DC800BB60BB682E4B9B692D4A43F010039361AF
:100DD8002B4B9B6903F010037B607B6801224FF467
:100DE8008071284808F06BF801220421264808F091
:100DF80066F801233B6100237B610223BB6107F195
:100E0800100319461F4807F0AFFE20233B6100235B
:100E18007B610123BB6107F1100319461B4807F0EA
:100E2800A3FE4FF480733B6101237B610023BB6108
:100E38000223FB6107F110031946124807F094FEDC
:100E48004FF400433B6100237B610123BB6107F141
:100E5800100319460B4807F087FE04233B61012362
:100E68007B610023BB610223FB6107F11003194674
:100E7800054807F079FE00BF2037BD4680BD00BF9A
:100E88000010024000080140001401400010014019
:100E980080B483B000AF0346FB800D4B4FF48072E3
:100EA8001A610B4B4FF000721A610A4AFB88D36033
:100EB800074B4FF400021A61054B80221A61044B5C
:100EC8004FF400721A6100BF0C37BD4680BC7047F2
:100ED80000100140000C014080B485B000AF03460B
:100EE8000A46FB801346BB80FB88FB81194B4FF0F9
:100EF80080721A61174B4FF000721A61FB899AB21F
:100F0800154BDA60134B4FF400021A61114B802223
:100F18001A61104B4FF400721A6100BF0D4B4FF469
:100F280080721A610B4B4FF000721A610A4ABB8833
:100F3800D360084B4FF400021A61064B80221A61F5
:100F4800044B4FF400721A6100BF1437BD4680BCD1
:100F5800704700BF00100140000C014080B483B00E
:100F680000AF786000BF7B685A1E7A60002BFAD108
:100F780000BF00BF0C37BD4680BC704780B586B047
:100F880000AF4FF6FF737B600023BB600123FB605B
:100F980003233B613B1D1946184807F0E5FD184B34
:100FA8004FF480721A61164B4FF000721A61144B9D
:100FB8004FF480021A610220FFF7D0FF0F4B9B68A5
:100FC8009BB2FB820E4B40221A610D4B4FF400720C
:100FD8001A614FF6FF737B600123BB600123FB603E
:100FE80003233B613B1D1946044807F0BDFDFB8AFE
:100FF8009BB218461837BD4680BD00BF000C0140A3
:101008000010014080B483B000AF104B1B89FB80F7
:101018000F4B4FF080721A610D4B4FF000721A613E
:10102800FB889AB20B4BDA60094B4FF400021A6145
:10103800074B80221A61064B4FF400721A6100BFF9
:1010480000BF0C37BD4680BC704700BFB000002011
:1010580000100140000C014080B489B000AF034685
:101068000A46FB801346BB80444B9B8841F66312BB
:10107800934240F08981414B9B79002B40F084805A
:101088003E4B1A88FB88D31A9BB2013BFB803B4B33
:101098005B89FB813A4B4FF080721A61384B4FF0F5
:1010A80000721A61FB899AB2364BDA60344B4FF4FE
:1010B80000021A61324B80221A61314B4FF40072E0
:1010C8001A6100BF2E4B4FF480721A612C4B4FF0FF
:1010D80000721A612B4B0022DA60294B4FF4000290
:1010E8001A61274B80221A61254B4FF400721A614E
:1010F800234B4FF480721A61214B4FF000721A6132
:10110800204B0022DA601E4B4FF400021A611C4B80
:1011180080221A611A4B4FF400721A61184B4FF46F
:1011280080721A61164B4FF000721A61FB881B0A15
:101138009AB2144BDA60124B4FF400021A61104B4A
:1011480080221A610E4B4FF400721A610C4B4FF457
:1011580080721A610A4B4FF000721A61FB88094AC3
:10116800DBB2D360064B4FF400021A61044B8022B5
:101178001A61034B4FF400721A6181E0B00000203D
:1011880000100140000C01407C4B5B893B827C4B8A
:101198004FF080721A617A4B4FF000721A613B8AE5
:1011A8009AB2784BDA60764B4FF400021A61744BAE
:1011B80080221A61724B4FF400721A6100BF704BA3
:1011C8004FF480721A616E4B4FF000721A61FB88FF
:1011D8001B0A9AB26B4BDA60694B4FF400021A6132
:1011E800674B80221A61664B4FF400721A61644B98
:1011F8004FF480721A61624B4FF000721A61FB88DB
:10120800604ADBB2D3605E4B4FF400021A615C4B5C
:1012180080221A615A4B4FF400721A61584B4FF4EE
:1012280080721A61564B4FF000721A61534B1B883B
:10123800013B1A12534BDA60514B4FF400021A610A
:101248004F4B80221A614E4B4FF400721A614C4B7F
:101258004FF480721A614A4B4FF000721A61474B83
:101268001B88013B474ADBB2D360454B4FF4000271
:101278001A61434B80221A61414B4FF400721A6184
:101288003E4B9B897B823E4B4FF080721A613C4BF0
:101298004FF000721A617B8A9AB23A4BDA60384B87
:1012A8004FF400021A61364B80221A61344B4FF416
:1012B80000721A6100BF324B4FF480721A61304BD2
:1012C8004FF000721A61BB881B0A9AB22D4BDA6084
:1012D8002B4B4FF400021A61294B80221A61284BCC
:1012E8004FF400721A61264B4FF480721A61244B36
:1012F8004FF000721A61BB88224ADBB2D360204BE0
:101308004FF400021A611E4B80221A611C4B4FF4E5
:1013180000721A611A4B4FF480721A61184B4FF021
:1013280000721A61154B5B88013B1A12154BDA6083
:10133800134B4FF400021A61114B80221A61104BB3
:101348004FF400721A610E4B4FF480721A610C4B05
:101358004FF000721A61094B5B88013B094ADBB206
:10136800D360074B4FF400021A61054B80221A61C3
:10137800034B4FF400721A6176E100BFB000002001
:1013880000100140000C01406A4B9B8845F2105246
:10139800934240F0D580674B5B897B83664B4FF067
:1013A80080721A61644B4FF000721A617B8B9AB29B
:1013B800624BDA60604B4FF400021A615E4B802288
:1013C8001A615D4B4FF400721A6100BF5A4B4FF41B
:1013D80080721A61584B4FF000721A61FB881B0A21
:1013E8009AB2564BDA60544B4FF400021A61524BD2
:1013F80080221A61504B4FF400721A614D4B5B8981
:1014080001339BB23B834C4B4FF080721A614A4BBD
:101418004FF000721A613B8B9AB2484BDA60464B28
:101428004FF400021A61444B80221A61424B4FF478
:1014380000721A6100BF404B4FF480721A613E4B34
:101448004FF000721A61FB883C4ADBB2D3603A4B1A
:101458004FF400021A61384B80221A61364B4FF460
:1014680000721A61334B9B89FB82334B4FF08072B9
:101478001A61314B4FF000721A61FB8A9AB22F4BF6
:10148800DA602D4B4FF400021A612B4B80221A614F
:10149800294B4FF400721A6100BF274B4FF480723A
:1014A8001A61254B4FF000721A61BB881B0A9AB269
:1014B800224BDA60204B4FF400021A611E4B802247
:1014C8001A611D4B4FF400721A611A4B9B89013344
:1014D8009BB2BB82184B4FF080721A61164B4FF0CB
:1014E80000721A61BB8A9AB2144BDA60124B4FF43D
:1014F80000021A61104B80221A610F4B4FF40072E0
:101508001A6100BF0C4B4FF480721A610A4B4FF0FE
:1015180000721A61BB88094ADBB2D360064B4FF4EC
:1015280000021A61044B80221A61034B4FF40072C7
:101538001A6199E0B000002000100140000C014041
:101548004C4B5B89FB834C4B4FF080721A614A4BC2
:101558004FF000721A61FB8B9AB2484BDA60464B27
:101568004FF400021A61444B80221A61424B4FF437
:1015780000721A6100BF404B4FF480721A613E4BF3
:101588004FF000721A61FB881B0A9AB23B4BDA6073
:10159800394B4FF400021A61374B80221A61364BDF
:1015A8004FF400721A61344B4FF480721A61324B57
:1015B8004FF000721A61FB88304ADBB2D3602E4BC1
:1015C8004FF400021A612C4B80221A612A4B4FF407
:1015D80000721A61274B9B89BB83274B4FF080729F
:1015E8001A61254B4FF000721A61BB8B9AB2234BDC
:1015F800DA60214B4FF400021A611F4B80221A61F6
:101608001D4B4FF400721A6100BF1B4B4FF48072E0
:101618001A61194B4FF000721A61BB881B0A9AB203
:10162800164BDA60144B4FF400021A61124B8022F9
:101638001A61114B4FF400721A610F4B4FF480720C
:101648001A610D4B4FF000721A61BB880B4ADBB26E
:10165800D360094B4FF400021A61074B80221A61CC
:10166800054B4FF400721A6100BF2437BD4680BC99
:10167800704700BFB000002000100140000C01407E
:1016880080B58AB000AF0346FB710023FB840023BA
:10169800BB845F4B9B79012B05D15D4B9B8841F641
:1016A8006312934209D15A4B9B79002B34D1584B82
:1016B8009B8841F6631293422ED1FB79072B2BD8D6
:1016C80001A252F823F000BFF1160008F71600082F
:1016D800FD16000803170008091700080F1700086F
:1016E800151700081B1700080623FB7114E00723D1
:1016F800FB7111E00423FB710EE00523FB710BE085
:101708000123FB7108E00023FB7105E00323FB7153
:1017180002E00223FB7100BFFB79072B35D801A239
:1017280052F823F0931700084D17000857170008C0
:10173800611700086B170008751700087F17000865
:1017480089170008FB8C43F08003FB841DE0FB8CA9
:1017580043F04003FB8418E0FB8C43F0C003FB8498
:1017680013E0FB8C43F02003FB840EE0FB8C43F07A
:101778006003FB8409E0FB8C43F0A003FB8404E0D6
:10178800FB8C43F0E003FB8400BF3623BB84204B73
:101798009B8845F21052934202D14FF45853BB84B0
:1017A8001B4B9B8849F2413293420BD0184B9B88C4
:1017B80047F28972934205D0154B9B8847F296727F
:1017C800934203D1FB8C43F00803FB84FA8CBB8C57
:1017D80011461846FFF780FB0D4B9B8841F66312B4
:1017E800934227D0FB8C03F02003002B12D0084B28
:1017F8001A88074B5B889A421CD2054B1B887B844E
:10180800034B5A88024B1A80014A7B8C538011E0A3
:10181800B00000209C4B1A889B4B5B889A4209D9E0
:10182800994B1B887B84984B5A88974B1A80964A09
:101838007B8C5380944B9B8845F21052934240F026
:10184800AF81914B5B89BB83904B4FF080721A61DB
:101858008E4B4FF000721A61BB8B9AB28C4BDA60D8
:101868008A4B4FF400021A61884B80221A61874B19
:101878004FF400721A6100BF844B4FF480721A61F2
:10188800824B4FF000721A61814B0022DA607F4B65
:101898004FF400021A617D4B80221A617B4B4FF492
:1018A80000721A61784B5B8901339BB27B83774B5B
:1018B8004FF080721A61754B4FF000721A617B8B82
:1018C8009AB2734BDA60714B4FF400021A616F4B96
:1018D80080221A616D4B4FF400721A6100BF6B4B86
:1018E8004FF480721A61694B4FF000721A61684BAD
:1018F8000022DA60654B4FF400021A61634B8022C4
:101908001A61624B4FF400721A615F4B5B890233B4
:101918009BB23B835D4B4FF080721A615B4B4FF07B
:1019280000721A613B8B9AB2594BDA60574B4FF4ED
:1019380000021A61554B80221A61544B4FF4007211
:101948001A6100BF514B4FF480721A614F4B4FF030
:1019580000721A614C4B1B88013B1A124C4BDA601F
:101968004A4B4FF400021A61484B80221A61474BD8
:101978004FF400721A61444B5B8903339BB2FB82BC
:10198800424B4FF080721A61404B4FF000721A615F
:10199800FB8A9AB23E4BDA603C4B4FF400021A6164
:1019A8003A4B80221A61394B4FF400721A6100BF1A
:1019B800364B4FF480721A61344B4FF000721A6143
:1019C800314B1B88013B324ADBB2D3602F4B4FF4BB
:1019D80000021A612D4B80221A612C4B4FF40072C1
:1019E8001A61294B9B89BB82284B4FF080721A6180
:1019F800264B4FF000721A61BB8A9AB2244BDA6008
:101A0800224B4FF400021A61204B80221A611F4BAF
:101A18004FF400721A6100BF1C4B4FF480721A61B8
:101A28001A4B4FF000721A61194B0022DA60174BFB
:101A38004FF400021A61154B80221A61134B4FF4C0
:101A480000721A61104B9B8901339BB27B820F4B4A
:101A58004FF080721A610D4B4FF000721A617B8A49
:101A68009AB20B4BDA60094B4FF400021A61074B2C
:101A780080221A61054B4FF400721A6100BF034BB4
:101A88004FF480721A6105E0B00000200010014098
:101A9800000C01403F4B4FF000721A613E4B002290
:101AA800DA603C4B4FF400021A613A4B80221A610B
:101AB800384B4FF400721A61384B9B8902339BB242
:101AC8003B82344B4FF080721A61324B4FF00072F8
:101AD8001A613B8A9AB2304BDA602E4B4FF40002FF
:101AE8001A612C4B80221A612A4B4FF400721A613A
:101AF80000BF284B4FF480721A61264B4FF00072DA
:101B08001A61264B5B88013B1A12234BDA60214B82
:101B18004FF400021A611F4B80221A611D4B4FF4CB
:101B280000721A611D4B9B8903339BB2FB81194BD1
:101B38004FF080721A61174B4FF000721A61FB89DF
:101B48009AB2154BDA60134B4FF400021A61114B2D
:101B580080221A610F4B4FF400721A6100BF0D4BBF
:101B68004FF480721A610B4B4FF000721A610B4BE5
:101B78005B88013B084ADBB2D360064B4FF4000296
:101B88001A61044B80221A61024B4FF400721A61E9
:101B9800F8E000BF00100140000C0140B000002038
:101BA8007A4B5B893B847A4B4FF080721A61784B91
:101BB8004FF000721A613B8C9AB2764BDA60744B24
:101BC8004FF400021A61724B80221A61704B4FF475
:101BD80000721A6100BF6E4B4FF480721A616C4B31
:101BE8004FF000721A616B4B0022DA60684B4FF4B9
:101BF80000021A61664B80221A61654B4FF400722D
:101C08001A61634B4FF480721A61614B4FF0007296
:101C18001A61604B0022DA605D4B4FF400021A61D2
:101C28005B4B80221A615A4B4FF400721A61584B71
:101C38004FF480721A61564B4FF000721A61534B81
:101C48001B88013B1A12534BDA60514B4FF40002C8
:101C58001A614F4B80221A614D4B4FF400721A6182
:101C68004B4B4FF480721A61494B4FF000721A6166
:101C7800464B1B88013B474ADBB2D360444B4FF4C9
:101C880000021A61424B80221A61414B4FF40072E4
:101C98001A613E4B9B89FB833D4B4FF080721A6162
:101CA8003B4B4FF000721A61FB8B9AB2394BDA60EA
:101CB800374B4FF400021A61354B80221A61344BBE
:101CC8004FF400721A6100BF314B4FF480721A61F1
:101CD8002F4B4FF000721A612E4B0022DA602C4B0A
:101CE8004FF400021A612A4B80221A61284B4FF4E4
:101CF80000721A61264B4FF480721A61244B4FF020
:101D080000721A61234B0022DA60214B4FF4000263
:101D18001A611F4B80221A611D4B4FF400721A6121
:101D28001B4B4FF480721A61194B4FF000721A6105
:101D3800164B5B88013B1A12164BDA60144B4FF4B2
:101D480000021A61124B80221A61114B4FF4007283
:101D58001A610F4B4FF480721A610D4B4FF00072ED
:101D68001A610A4B5B88013B0A4ADBB2D360084B15
:101D78004FF400021A61064B80221A61044B4FF49B
:101D880000721A6100BF2837BD4680BDB000002030
:101D980000100140000C014080B584B000AF03463C
:101DA8003A60FB800B46BB80BA88FB881146184610
:101DB800FFF752F91A4B1B89FB811A4B4FF08072BF
:101DC8001A61184B4FF000721A61FB899AB2164BD0
:101DD800DA60144B4FF400021A61124B80221A6128
:101DE800104B4FF400721A6100BF00BF0D4B4FF447
:101DF80080721A610B4B4FF000721A610A4A3B68F5
:101E0800D360084B4FF400021A61064B80221A6116
:101E1800044B4FF400721A6100BF1037BD4680BDF5
:101E2800B000002000100140000C0140000000003C
:101E380090B585B000AF0346FB71BE23FB815A4BBA
:101E48004FF080721A61584B4FF000721A61FB898B
:101E58009AB2564BDA60544B4FF400021A61524B57
:101E680080221A61504B4FF400721A6100BF4E4B2A
:101E78004FF480721A614C4B4FF000721A614B4B51
:101E88000522DA60484B4FF400021A61464B802263
:101E98001A61454B4FF400721A61434B4FF480723C
:101EA8001A61414B4FF000721A61FB791846FEF730
:101EB8003BFC3BA3D3E90023FEF7BAF902460B46E5
:101EC8003A4C10461946FEF799FC0346E360364B38
:101ED8004FF400021A61344B80221A61324B4FF4DE
:101EE80000721A61304B4FF480721A612E4B4FF01A
:101EF80000721A612D4B0122DA602B4B4FF400025D
:101F08001A61294B80221A61274B4FF400721A611B
:101F1800254B4FF480721A61234B4FF000721A61FF
:101F2800224BFF22DA60204B4FF400021A611E4B4D
:101F380080221A611C4B4FF400721A611A4B4FF43D
:101F480080721A61184B4FF000721A61174B002209
:101F5800DA60154B4FF400021A61134B80221A61A4
:101F6800114B4FF400721A610F4B4FF480721A61D3
:101F78000D4B4FF000721A610C4B0022DA600A4BCD
:101F88004FF400021A61084B80221A61064B4FF485
:101F980000721A6100BF1437BD4690BDAFF30080D0
:101FA800666666666666044000100140000C0140E3
:101FB80080B582B000AF0346FB71684AFB79937124
:101FC800FB79002B65D1654BF0221A80634B4FF4E7
:101FD800A0725A80614B9B8845F21052934214D1EB
:101FE8005E4B4FF430521A815C4B4FF428525A81A1
:101FF8005A4B4FF42C529A81584B4FF4F0721A8076
:10200800564B4FF448725A8020E0544B9B8841F657
:102018006312934211D1514B2C221A814F4B2B2220
:102028005A814E4B2A229A814C4B4FF4F0721A80F7
:102038004A4B4FF448725A8008E0484B2C221A81C8
:10204800464B2A225A81454B2B229A81434B9B8827
:1020580045F21032934205D0404B9B8847F2967266
:10206800934207D13D4B4FF4A0721A803B4B4FF47B
:10207800F0725A80394B9B8849F60602934265D123
:10208800364B4FF4F0721A80344B4FF448725A8032
:102098005CE0324B4FF4A0721A80304BF0225A8029
:1020A8002E4B9B8845F21052934214D12B4B4FF480
:1020B80030521A81294B4FF428525A81274B4FF43A
:1020C8002C529A81254B4FF448721A80234B4FF4B7
:1020D800F0725A8026E0214B9B8841F663129342A6
:1020E80005D01E4B9B8849F60602934211D11B4B23
:1020F8002C221A81194B2A225A81184B2B229A8199
:10210800164B4FF448721A80144B4FF4F0725A80F1
:1021180008E0124B2C221A81104B2A225A810F4BAD
:102128002B229A810D4B9B8845F21032934205D0A1
:102138000A4B9B8847F29672934207D1074B4FF49C
:10214800F0721A80054B4FF4A0725A800020FFF7F6
:1021580097FA00BF0837BD4680BD00BFB000002019
:1021680080B5DAB000AFBE4B9B69BD4A43F010039F
:102178009361BB4B9B6903F0100207F5B473A3F599
:10218800A8731A6007F5B473A3F5A8731B68B44B5A
:102198009B69B34A43F010039361B14B9B6903F009
:1021A800100207F5B473A3F5AA731A6007F5B473A0
:1021B800A3F5AA731B68AA4B9B69A94A43F01003AD
:1021C8009361A74B9B6903F0100207F5B473A3F55D
:1021D800AC731A6007F5B473A3F5AC731B68A04B16
:1021E8009B699F4A43F0100393619D4B9B6903F0E1
:1021F800100207F5B473A3F5AE731A6007F5B4734C
:10220800A3F5AE731B68964B9B69954A43F0100380
:102218009361934B9B6903F0100207F5B473A3F520
:10222800B0731A6007F5B473A3F5B0731B688C4BD1
:102238009B698B4A43F008039361894B9B6903F0C0
:10224800080207F5B473A3F5B2731A6007F5B473FF
:10225800A3F5B2731B68824B9B69814A43F0010363
:1022680093617F4B9B6903F0010207F5B473A3F5F3
:10227800B4731A6007F5B473A3F5B4731B68794B8C
:102288005B68C7F86431D7F8643123F0E063C7F8B6
:102298006431D7F8643143F00073C7F86431714A88
:1022A800D7F8643153604FF48063C7F85431012381
:1022B800C7F858310123C7F85C310323C7F86031E8
:1022C80007F5AA731946684806F04EFC4FF40073E8
:1022D800C7F854310123C7F858310123C7F85C31D6
:1022E8000323C7F8603107F5AA7319465E4806F05C
:1022F8003BFC8023C7F8543107F5AA7319465A489E
:1023080006F032FC4023C7F8543107F5AA73194682
:10231800554806F029FC4FF48073C7F8543107F587
:10232800AA731946504806F01FFC4FF6FF73C7F80A
:1023380054310123C7F8583107F5AA7319464B4899
:1023480006F012FC484B80221A61474B40221A6162
:10235800454B4FF400721A61434B4FF480721A6177
:10236800424B4FF6FF72DA604148FEF7F7FD07F57A
:10237800B473A3F5A673D3221A803B4B4FF0807237
:102388001A61394B4FF000721A6107F5B473A3F55F
:10239800A6731B889AB2354BDA60334B4FF40002B0
:1023A8001A61314B80221A612F4B4FF400721A6167
:1023B80000BFFEF7E3FD03461A462E4B9A80FEF750
:1023C800DDFD03461A462B4B9A80FEF7D7FD0346E0
:1023D8001A46284B9A80274B9B881B029AB2254B9A
:1023E8009A80FEF7CBFD03461A46224B9B8813437F
:1023F8009AB2204B9A801F4B9B8849F241329342F4
:1024080000F00E8207F5B473A3F5A57304221A80B1
:10241800154B4FF080721A61134B4FF000721A611E
:1024280007F5B473A3F5A5731B889AB20F4BDA604E
:102438000D4B4FF400021A610B4B80221A610A4BB4
:102448004FF400721A6100BFFEF798FD03461A4662
:10245800084B9A80FEF792FD03461A460CE000BF2F
:10246800001002400000014000100140000C014033
:10247800FFFF0100B0000020B14B9A80FEF77EFDFF
:1024880003461A46AE4B9A80AD4B9B881B029AB204
:10249800AB4B9A80FEF772FD03461A46A84B9B8801
:1024A80013439AB2A64B9A80A54B9B8848F2525286
:1024B800934203D1A24B47F289729A80A04B9B8822
:1024C80047F28972934200F0AB8107F5B473A3F524
:1024D800A473D4221A809B4B4FF080721A61994BD7
:1024E8004FF000721A6107F5B473A3F5A4731B8843
:1024F8009AB2954BDA60934B4FF400021A61914BF4
:1025080080221A618F4B4FF400721A6100BFFEF7E8
:1025180035FD03461A468A4B9A80FEF72FFD03467F
:102528001A46874B9A80FEF729FD03461A46844BC4
:102538009A80834B9B881B029AB2814B9A80FEF744
:102548001DFD03461A467E4B9B8813439AB27C4B6B
:102558009A807B4B9B8845F21032934200F0608151
:1025680007F5B473A3F5A373D3221A80754B4FF004
:1025780080721A61734B4FF000721A6107F5B473D9
:10258800A3F5A3731B889AB26F4BDA606D4B4FF4B7
:1025980000021A616B4B80221A616A4B4FF4007279
:1025A8001A6100BFFEF7EAFC03461A46644B9A809C
:1025B800FEF7E4FC03461A46614B9A80FEF7DEFC00
:1025C80003461A465E4B9A805D4B9B881B029AB263
:1025D8005B4B9A80FEF7D2FC03461A46584B9B8801
:1025E80013439AB2564B9A80554B9B8847F2967282
:1025F800934200F0158155214FF47040FEF76CFCB2
:10260800AA214FF20100FEF767FC52214FF20200A7
:10261800FEF762FC08214FF20300FEF75DFC012182
:102628004FF20400FEF758FC07F5B473A3F5A17345
:102638004FF445421A80434B4FF080721A61414B68
:102648004FF000721A6107F5B473A3F5A1731B88E4
:102658009AB23D4BDA603B4B4FF400021A61394B9A
:1026680080221A61374B4FF400721A6100BFFEF7DF
:1026780085FC03461A46324B9A80314B9B881B02D5
:102688009AB22F4B9A8007F5B473A3F5A2734CF254
:1026980001521A802B4B4FF080721A61294B4FF070
:1026A80000721A6107F5B473A3F5A2731B889AB276
:1026B800254BDA60234B4FF400021A61214B80222C
:1026C8001A61204B4FF400721A6100BFFEF756FCE6
:1026D80003461A461A4B9B8813439AB2184B9A80A2
:1026E800174B9B8845F21052934200F0998007F5EA
:1026F800B473A3F5A073D3221A80124B4FF08072E3
:102708001A61104B4FF000721A6107F5B473A3F504
:10271800A0731B889AB20C4BDA600A4B4FF4000284
:102728001A61084B80221A61064B4FF400721A6135
:1027380000BFFEF723FC03461A46014B9A8005E0CA
:10274800B000002000100140000C0140FEF716FC0C
:1027580003461A46B24B9A80FEF710FC03461A4607
:10276800AF4B9A80AE4B9B881B029AB2AC4B9A80B7
:10277800FEF704FC03461A46A94B9B8813439AB2FA
:10278800A74B9A80A64B9B8849F60602934247D0EE
:1027980007F5B473A3F59F73A1221A80A14B4FF0DC
:1027A80080721A619F4B4FF000721A6107F5B4737B
:1027B800A3F59F731B889AB29B4BDA60994B4FF431
:1027C80000021A61974B80221A61964B4FF40072EF
:1027D8001A6100BFFEF7D2FB03461A46904B9A8057
:1027E800FEF7CCFB03461A468D4B9A808C4B9B8890
:1027F8001B029AB28A4B9A80FEF7C0FB03461A4620
:10280800874B9B8813439AB2854B9A80844B9B884D
:1028180045F26172934203D1814B41F663129A806B
:102828007F4B9B8847F28972934240F0F38207F509
:10283800B473A3F58E7311221A807A4B4FF080720D
:102848001A61784B4FF000721A6107F5B473A3F55B
:102858008E731B889AB2744BDA60724B4FF4000285
:102868001A61704B80221A616E4B4FF400721A6124
:1028780000BF782006F046F807F5B473A3F58F7308
:1028880036221A80674B4FF080721A61654B4FF001
:1028980000721A6107F5B473A3F58F731B889AB297
:1028A800614BDA605F4B4FF400021A615D4B802286
:1028B8001A615C4B4FF400721A6100BF0020FEF7EA
:1028C800E7FA07F5B473A3F590733A221A80554BCB
:1028D8004FF080721A61534B4FF000721A6107F57E
:1028E800B473A3F590731B889AB24F4BDA604D4BC3
:1028F8004FF400021A614B4B80221A61494B4FF486
:1029080000721A6100BF0520FEF7C2FA07F5B4731A
:10291800A3F59173B2221A80424B4FF080721A616C
:10292800404B4FF000721A6107F5B473A3F5917329
:102938001B889AB23C4BDA603A4B4FF400021A619A
:10294800384B80221A61374B4FF400721A6100BF6E
:102958000C20FEF79DFA0C20FEF79AFA0020FEF7ED
:1029680097FA3320FEF794FA3320FEF791FA07F529
:10297800B473A3F59273B7221A802A4B4FF0807272
:102988001A61284B4FF000721A6107F5B473A3F56A
:1029980092731B889AB2244BDA60224B4FF40002E0
:1029A8001A61204B80221A611E4B4FF400721A6183
:1029B80000BF3520FEF76CFA07F5B473A3F59373DF
:1029C800BB221A80174B4FF080721A61154B4FF0DB
:1029D80000721A6107F5B473A3F593731B889AB252
:1029E800114BDA600F4B4FF400021A610D4B802235
:1029F8001A610C4B4FF400721A6100BF3220FEF7C7
:102A080047FA07F5B473A3F59473C0221A80054BEF
:102A18004FF080721A61034B4FF000721A6105E0A3
:102A2800B000002000100140000C014007F5B4730D
:102A3800A3F594731B889AB2BF4BDA60BF4B4FF46F
:102A480000021A61BD4B80221A61BC4B4FF4007220
:102A58001A6100BF0C20FEF71BFA07F5B473A3F543
:102A68009573C2221A80B54B4FF080721A61B34B2E
:102A78004FF000721A6107F5B473A3F595731B88BC
:102A88009AB2AD4BDA60AD4B4FF400021A61AB4B12
:102A980080221A61A94B4FF400721A6100BF01200D
:102AA800FEF7F6F907F5B473A3F59673C3221A80F7
:102AB800A24B4FF080721A61A04B4FF000721A615E
:102AC80007F5B473A3F596731B889AB29A4BDA602C
:102AD8009A4B4FF400021A61984B80221A61974B67
:102AE8004FF400721A6100BF1020FEF7D1F907F504
:102AF800B473A3F59773C4221A80904B4FF0807279
:102B08001A618E4B4FF000721A6107F5B473A3F582
:102B180097731B889AB2884BDA60884B4FF400028F
:102B28001A61864B80221A61844B4FF400721A6135
:102B380000BF2020FEF7ACF907F5B473A3F598732E
:102B4800C6221A807D4B4FF080721A617B4B4FF082
:102B580000721A6107F5B473A3F598731B889AB2CB
:102B6800754BDA60754B4FF400021A61734B802283
:102B78001A61724B4FF400721A6100BF0F20FEF702
:102B880087F907F5B473A3F59973D0221A806B4BB4
:102B98004FF080721A61694B4FF000721A6107F5A5
:102BA800B473A3F599731B889AB2634BDA60634BCD
:102BB8004FF400021A61614B80221A615F4B4FF497
:102BC80000721A6100BFA420FEF762F9A120FEF787
:102BD8005FF907F5B473A3F59A73E0221A80574B8F
:102BE8004FF080721A61554B4FF000721A6107F569
:102BF800B473A3F59A731B889AB24F4BDA604F4BA4
:102C08004FF400021A614D4B80221A614B4B4FF46E
:102C180000721A6100BFD020FEF73AF90020FEF7D3
:102C280037F90220FEF734F90720FEF731F90A20B8
:102C3800FEF72EF92820FEF72BF93220FEF728F9A7
:102C48004420FEF725F94220FEF722F90620FEF778
:102C58001FF90E20FEF71CF91220FEF719F91420AF
:102C6800FEF716F91720FEF713F907F5B473A3F565
:102C78009B73E1221A80314B4FF080721A612F4BFF
:102C88004FF000721A6107F5B473A3F59B731B88A4
:102C98009AB2294BDA60294B4FF400021A61274B8C
:102CA80080221A61254B4FF400721A6100BFD020B0
:102CB800FEF7EEF80020FEF7EBF80220FEF7E8F842
:102CC8000720FEF7E5F80A20FEF7E2F82820FEF7CD
:102CD800DFF83120FEF7DCF85420FEF7D9F847205A
:102CE800FEF7D6F80E20FEF7D3F81C20FEF7D0F832
:102CF8001720FEF7CDF81B20FEF7CAF81E20FEF7B6
:102D0800C7F807F5B473A3F59C732A221A800B4BF6
:102D18004FF080721A61094B4FF000721A6107F583
:102D2800B473A3F59C731B889AB2034BDA60034B08
:102D38004FF400021A6103E0000C0140001001404A
:102D4800324B80221A61314B4FF400721A6100BF76
:102D58000020FEF79DF80020FEF79AF80020FEF705
:102D680097F8EF20FEF794F807F5B473A3F59D7371
:102D78002B221A80254B4FF080721A61234B4FF09B
:102D880000721A6107F5B473A3F59D731B889AB294
:102D98001F4BDA601D4B4FF400021A611B4B802257
:102DA8001A611A4B4FF400721A6100BF0020FEF737
:102DB8006FF80020FEF76CF80120FEF769F83F2055
:102DC800FEF766F807F5B473A3F59E7329221A80F7
:102DD8000E4B4FF080721A610C4B4FF000721A6163
:102DE80007F5B473A3F59E731B889AB2084BDA6093
:102DF800064B4FF400021A61044B80221A61034B00
:102E08004FF400721A6104F0F4B800BF00100140DA
:102E1800000C0140B94B9B8849F24132934240F083
:102E2800A183CF23A7F87830B54B4FF080721A6191
:102E3800B34B4FF000721A61B7F878309AB2B14BC1
:102E4800DA60AF4B4FF400021A61AD4B80221A6171
:102E5800AB4B4FF400721A6100BF0020FEF718F860
:102E6800C120FEF715F83020FEF712F8ED23A7F879
:102E78007630A34B4FF080721A61A14B4FF000726D
:102E88001A61B7F876309AB29E4BDA609C4B4FF4D1
:102E980000021A619A4B80221A61994B4FF4007212
:102EA8001A6100BF6420FDF7F3FF0320FDF7F0FF70
:102EB8001220FDF7EDFF8120FDF7EAFFE823A7F8D0
:102EC80074308F4B4FF080721A618D4B4FF0007247
:102ED8001A61B7F874309AB28A4BDA60884B4FF4AB
:102EE80000021A61864B80221A61854B4FF40072EA
:102EF8001A6100BF8520FDF7CBFF1020FDF7C8FF42
:102F08007A20FDF7C5FFCB23A7F872307C4B4FF032
:102F180080721A617A4B4FF000721A61B7F87230FA
:102F28009AB2784BDA60764B4FF400021A61744B10
:102F380080221A61724B4FF400721A6100BF392067
:102F4800FDF7A6FF2C20FDF7A3FF0020FDF7A0FF4B
:102F58003420FDF79DFF0220FDF79AFFF723A7F81D
:102F68007030674B4FF080721A61654B4FF00072FA
:102F78001A61B7F870309AB2624BDA60604B4FF45E
:102F880000021A615E4B80221A615D4B4FF4007299
:102F98001A6100BF2020FDF77BFFEA23A7F86E30F7
:102FA800574B4FF080721A61554B4FF000721A61FF
:102FB800B7F86E309AB2534BDA60514B4FF40002B7
:102FC8001A614F4B80221A614D4B4FF400721A61FF
:102FD80000BF0020FDF75CFF0020FDF759FFC0236C
:102FE800A7F86C30464B4FF080721A61444B4FF093
:102FF80000721A61B7F86C309AB2424BDA60404BF3
:103008004FF400021A613E4B80221A613C4B4FF488
:1030180000721A6100BF1B20FDF73AFFC123A7F811
:103028006A30374B4FF080721A61354B4FF000729F
:103038001A61B7F86A309AB2324BDA60304B4FF403
:1030480000021A612E4B80221A612D4B4FF4007238
:103058001A6100BF0120FDF71BFF07F5B473A3F544
:103068008073C5221A80264B4FF080721A61244B58
:103078004FF000721A6107F5B473A3F580731B88CB
:103088009AB2204BDA601E4B4FF400021A611C4BB7
:1030980080221A611A4B4FF400721A6100BF302067
:1030A800FDF7F6FE3020FDF7F3FE07F5B473A3F540
:1030B8008173C7221A80124B4FF080721A61104B2D
:1030C8004FF000721A6107F5B473A3F581731B887A
:1030D8009AB20C4BDA600A4B4FF400021A61084BA3
:1030E80080221A61064B4FF400721A6100BFB720A4
:1030F800FDF7CEFE07F5B47306E000BFB000002070
:1031080000100140000C0140A3F5827336221A809A
:10311800C14B4FF080721A61BF4B4FF000721A61B9
:1031280007F5B473A3F582731B889AB2BB4BDA60B8
:10313800B94B4FF400021A61B74B80221A61B64BA3
:103148004FF400721A6100BF4820FDF7A1FE07F591
:10315800B473A3F583733A221A80AF4B4FF0807291
:103168001A61AD4B4FF000721A6107F5B473A3F5FD
:1031780083731B889AB2A94BDA60A74B4FF40002FD
:103188001A61A54B80221A61A34B4FF400721A6191
:1031980000BF5520FDF77CFE07F5B473A3F58473D3
:1031A800B1221A809C4B4FF080721A619A4B4FF0F3
:1031B80000721A6107F5B473A3F584731B889AB279
:1031C800964BDA60944B4FF400021A61924B8022BE
:1031D8001A61914B4FF400721A6100BF0020FDF78D
:1031E80057FE1A20FDF754FE07F5B473A3F585734F
:1031F800B6221A80884B4FF080721A61864B4FF0C6
:1032080000721A6107F5B473A3F585731B889AB227
:10321800824BDA60804B4FF400021A617E4B8022A9
:103228001A617D4B4FF400721A6100BF0A20FDF746
:103238002FFEA220FDF72CFE07F5B473A3F58673C5
:10324800F2221A80744B4FF080721A61724B4FF061
:1032580000721A6107F5B473A3F586731B889AB2D6
:103268006E4BDA606C4B4FF400021A616A4B802295
:103278001A61694B4FF400721A6100BF0020FDF714
:1032880007FE07F5B473A3F5877326221A80624BED
:103298004FF080721A61604B4FF000721A6107F5A7
:1032A800B473A3F587731B889AB25C4BDA605A4BE8
:1032B8004FF400021A61584B80221A61564B4FF4A2
:1032C80000721A6100BF0120FDF7E2FD07F5B47333
:1032D800A3F58873E0221A804F4B4FF080721A6171
:1032E8004D4B4FF000721A6107F5B473A3F588735C
:1032F8001B889AB2494BDA60474B4FF400021A61B7
:10330800454B80221A61444B4FF400721A6100BF8A
:103318000F20FDF7BDFD2A20FDF7BAFD2820FDF797
:10332800B7FD0820FDF7B4FD0E20FDF7B1FD08201C
:10333800FDF7AEFD5420FDF7ABFDA920FDF7A8FD74
:103348004320FDF7A5FD0A20FDF7A2FD0F20FDF79C
:103358009FFD0020FDF79CFD0020FDF799FD002052
:10336800FDF796FD0020FDF793FD07F5B473A3F56F
:103378008973E1221A80284B4FF080721A61264B1C
:103388004FF000721A6107F5B473A3F589731B88AF
:103398009AB2224BDA60204B4FF400021A611E4B9E
:1033A80080221A611C4B4FF400721A6100BF002082
:1033B800FDF76EFD1520FDF76BFD1720FDF768FD85
:1033C8000720FDF765FD1120FDF762FD0620FDF7DA
:1033D8005FFD2B20FDF75CFD5620FDF759FD3C20D5
:1033E800FDF756FD0520FDF753FD1020FDF750FDB4
:1033F8000F20FDF74DFD3F20FDF74AFD3F20FDF76B
:1034080047FD0F20FDF744FD07F5B473A3F58A7354
:103418002B221A8004E000BF00100140000C01407C
:103428004E4B4FF080721A614C4B4FF000721A618C
:1034380007F5B473A3F58A731B889AB2484BDA6010
:10344800464B4FF400021A61444B80221A61434BE9
:103458004FF400721A6100BF0020FDF719FD00202B
:10346800FDF716FD0120FDF713FD3F20FDF710FDC8
:1034780007F5B473A3F58B732A221A80374B4FF0E4
:1034880080721A61354B4FF000721A6107F5B473F8
:10349800A3F58B731B889AB2314BDA602F4B4FF42C
:1034A80000021A612D4B80221A612C4B4FF40072D6
:1034B8001A6100BF0020FDF7EBFC0020FDF7E8FCD7
:1034C8000020FDF7E5FCEF20FDF7E2FC07F5B473FB
:1034D800A3F58C7311221A80204B4FF080721A6169
:1034E8001E4B4FF000721A6107F5B473A3F58C7385
:1034F8001B889AB21A4BDA60184B4FF400021A6113
:10350800164B80221A61154B4FF400721A6100BFE6
:10351800782005F0F7F907F5B473A3F58D73292220
:103528001A800E4B4FF080721A610C4B4FF00072EC
:103538001A6107F5B473A3F58D731B889AB2084B0B
:10354800DA60064B4FF400021A61044B80221A61BC
:10355800024B4FF400721A6103F04BBD001001409A
:10356800000C0140BE4B9B8845F21032934241F05B
:103578006D84ED23A7F8DA30BA4B4FF080721A61E8
:10358800B84B4FF000721A61B7F8DA309AB2B64BFE
:10359800DA60B44B4FF400021A61B24B80221A6110
:1035A800B04B4FF400721A6100BF0120FDF770FCA8
:1035B800FE20FDF76DFCEE23A7F8D830A94B4FF09D
:1035C80080721A61A74B4FF000721A61B7F8D830B1
:1035D8009AB2A54BDA60A34B4FF400021A61A14BD3
:1035E80080221A619F4B4FF400721A6100BFDE20DF
:1035F800FDF74EFC2120FDF74BFCF123A7F8D63050
:10360800984B4FF080721A61964B4FF000721A6116
:10361800B7F8D6309AB2944BDA60924B4FF4000266
:103628001A61904B80221A618E4B4FF400721A6116
:1036380000BF0120FDF72CFCDF23A7F8D430894B0D
:103648004FF080721A61874B4FF000721A61B7F819
:10365800D4309AB2844BDA60824B4FF400021A617C
:10366800804B80221A617F4B4FF400721A6100BFB1
:103678001020FDF70DFCC423A7F8D230794B4FF08A
:1036880080721A61774B4FF000721A61B7F8D23026
:103698009AB2754BDA60734B4FF400021A61714BA2
:1036A80080221A616F4B4FF400721A6100BF8F209D
:1036B800FDF7EEFBC623A7F8D0306A4B4FF08072B7
:1036C8001A61684B4FF000721A61B7F8D0309AB29D
:1036D800654BDA60634B4FF400021A61614B80223C
:1036E8001A61604B4FF400721A6100BF0020FDF7A9
:1036F800CFFBE220FDF7CCFBE220FDF7C9FBE2207F
:10370800FDF7C6FBBF23A7F8CE30564B4FF08072AB
:103718001A61544B4FF000721A61B7F8CE309AB262
:10372800514BDA604F4B4FF400021A614D4B802227
:103738001A614C4B4FF400721A6100BFAA20FDF7C2
:10374800A7FBB023A7F8CC30464B4FF080721A6124
:10375800444B4FF000721A61B7F8CC309AB2424B22
:10376800DA60404B4FF400021A613E4B80221A6126
:103778003C4B4FF400721A6100BF0D20FDF788FB27
:103788000020FDF785FB0D20FDF782FB0020FDF7EB
:103798007FFB1120FDF77CFB0020FDF779FB19204A
:1037A800FDF776FB0020FDF773FB2120FDF770FB8A
:1037B8000020FDF76DFB2D20FDF76AFB0020FDF7CB
:1037C80067FB3D20FDF764FB0020FDF761FB5D20F2
:1037D800FDF75EFB0020FDF75BFB5D20FDF758FB66
:1037E8000020FDF755FBB123A7F8CA301D4B4FF059
:1037F80080721A611B4B4FF000721A61B7F8CA3019
:103808009AB2194BDA60174B4FF400021A61154B44
:1038180080221A61134B4FF400721A6100BF802096
:10382800FDF736FB0020FDF733FB8B20FDF730FB5F
:103838000020FDF72DFB9620FDF72AFB0020FDF761
:1038480027FBB223A7F8C830064B4FF080721A61E5
:10385800044B4FF000721A61B7F8C8309AB205E00D
:10386800B000002000100140000C0140D04BDA608D
:10387800D04B4FF400021A61CE4B80221A61CD4B17
:103888004FF400721A6100BF0020FDF701FB002011
:10389800FDF7FEFA0220FDF7FBFA0020FDF7F8FA23
:1038A8000320FDF7F5FA0020FDF7F2FAB323A7F895
:1038B800C630C04B4FF080721A61BE4B4FF0007299
:1038C8001A61B7F8C6309AB2B94BDA60B94B4FF4FF
:1038D80000021A61B74B80221A61B64B4FF400728E
:1038E8001A6100BF0020FDF7D3FA0020FDF7D0FAD7
:1038F8000020FDF7CDFA0020FDF7CAFA0020FDF7F9
:10390800C7FA0020FDF7C4FA0020FDF7C1FA00202D
:10391800FDF7BEFA0020FDF7BBFA0020FDF7B8FA64
:103928000020FDF7B5FA0020FDF7B2FA0020FDF7F8
:10393800AFFA0020FDF7ACFA0020FDF7A9FA002045
:10394800FDF7A6FA0020FDF7A3FA0020FDF7A0FA7C
:103958000020FDF79DFA0020FDF79AFA0020FDF7F8
:1039680097FA0020FDF794FA0020FDF791FA00205D
:10397800FDF78EFAB423A7F8C4308E4B4FF080724F
:103988001A618C4B4FF000721A61B7F8C4309AB2C2
:10399800874BDA60874B4FF400021A61854B80220F
:1039A8001A61844B4FF400721A6100BF8B20FDF737
:1039B8006FFA0020FDF76CFA9620FDF769FA0020EF
:1039C800FDF766FAA120FDF763FA0020FDF760FA1B
:1039D800B523A7F8C230774B4FF080721A61754B48
:1039E8004FF000721A61B7F8C2309AB2704BDA60C1
:1039F800704B4FF400021A616E4B80221A616D4BB6
:103A08004FF400721A6100BF0220FDF741FA00204E
:103A1800FDF73EFA0320FDF73BFA0020FDF738FAE0
:103A28000420FDF735FA0020FDF732FAB623A7F88F
:103A3800C030604B4FF080721A615E4B4FF00072DD
:103A48001A61B7F8C0309AB2594BDA60594B4FF443
:103A580000021A61574B80221A61564B4FF40072CC
:103A68001A6100BF0020FDF713FA0020FDF710FAD5
:103A7800B723A7F8BE304F4B4FF080721A614D4BF9
:103A88004FF000721A61B7F8BE309AB2484BDA604C
:103A9800484B4FF400021A61464B80221A61454B8D
:103AA8004FF400721A6100BF0020FDF7F1F9002001
:103AB800FDF7EEF93F20FDF7EBF90020FDF7E8F9F7
:103AC8005E20FDF7E5F90020FDF7E2F96420FDF737
:103AD800DFF90020FDF7DCF98C20FDF7D9F900208B
:103AE800FDF7D6F9AC20FDF7D3F90020FDF7D0F9A2
:103AF800DC20FDF7CDF90020FDF7CAF97020FDF7AD
:103B0800C7F90020FDF7C4F99020FDF7C1F900209E
:103B1800FDF7BEF9EB20FDF7BBF90020FDF7B8F97A
:103B2800DC20FDF7B5F90020FDF7B2F9B823A7F8B6
:103B3800BC30204B4FF080721A611E4B4FF0007260
:103B48001A61B7F8BC309AB2194BDA60194B4FF4C6
:103B580000021A61174B80221A61164B4FF400724B
:103B68001A6100BF0020FDF793F90020FDF790F9D6
:103B78000020FDF78DF90020FDF78AF90020FDF7F8
:103B880087F90020FDF784F90020FDF781F900206E
:103B9800FDF77EF9BA23A7F8BA30064B4FF08072CA
:103BA8001A61044B4FF000721A61B7F8BA3003E09B
:103BB800000C0140001001409AB2D94BDA60D94B91
:103BC8004FF400021A61D74B80221A61D54B4FF48B
:103BD80000721A6100BF2420FDF75AF90020FDF792
:103BE80057F90020FDF754F90020FDF751F9C123DA
:103BF800A7F8B830CB4B4FF080721A61C94B4FF021
:103C080000721A61B7F8B8309AB2C54BDA60C54B82
:103C18004FF400021A61C34B80221A61C14B4FF462
:103C280000721A6100BF2020FDF732F90020FDF76D
:103C38002FF95420FDF72CF90020FDF729F9FF2072
:103C4800FDF726F90020FDF723F9C223A7F8B630BF
:103C5800B44B4FF080721A61B24B4FF000721A6188
:103C6800B7F8B6309AB2AE4BDA60AE4B4FF40002FA
:103C78001A61AC4B80221A61AA4B4FF400721A6188
:103C880000BF0A20FDF704F90020FDF701F9042020
:103C9800FDF7FEF80020FDF7FBF8C323A7F8B430C2
:103CA800A04B4FF080721A619E4B4FF000721A6160
:103CB800B7F8B4309AB29A4BDA609A4B4FF40002D4
:103CC8001A61984B80221A61964B4FF400721A6160
:103CD80000BF3C20FDF7DCF80020FDF7D9F83A20BA
:103CE800FDF7D6F80020FDF7D3F83920FDF7D0F816
:103CF8000020FDF7CDF83720FDF7CAF80020FDF7C2
:103D0800C7F83C20FDF7C4F80020FDF7C1F83620BD
:103D1800FDF7BEF80020FDF7BBF83220FDF7B8F834
:103D28000020FDF7B5F82F20FDF7B2F80020FDF7C9
:103D3800AFF82C20FDF7ACF80020FDF7A9F82920F2
:103D4800FDF7A6F80020FDF7A3F82620FDF7A0F858
:103D58000020FDF79DF82420FDF79AF80020FDF7D4
:103D680097F82420FDF794F80020FDF791F8232018
:103D7800FDF78EF80020FDF78BF83C20FDF788F85A
:103D88000020FDF785F83620FDF782F80020FDF7C2
:103D98007FF83220FDF77CF80020FDF779F82F2016
:103DA800FDF776F80020FDF773F82C20FDF770F882
:103DB8000020FDF76DF82920FDF76AF80020FDF7CF
:103DC80067F82620FDF764F80020FDF761F8242045
:103DD800FDF75EF80020FDF75BF82420FDF758F8A2
:103DE8000020FDF755F82320FDF752F80020FDF7D5
:103DF8004FF8C423A7F8B2304A4B4FF080721A61CB
:103E0800484B4FF000721A61B7F8B2309AB2444B7F
:103E1800DA60444B4FF400021A61424B80221A6167
:103E2800404B4FF400721A6100BF6220FDF730F872
:103E38000020FDF72DF80520FDF72AF80020FDF7F2
:103E480027F88420FDF724F80020FDF721F8F0205A
:103E5800FDF71EF80020FDF71BF81820FDF718F8ED
:103E68000020FDF715F8A420FDF712F80020FDF753
:103E78000FF81820FDF70CF80020FDF709F850207E
:103E8800FDF706F80020FDF703F80C20FDF700F811
:103E98000020FCF7FDFF1720FCF7FAFF0020FCF7D5
:103EA800F7FF9520FCF7F4FF0020FCF7F1FFF32063
:103EB800FCF7EEFF0020FCF7EBFFE620FCF7E8FF3D
:103EC8000020FCF7E5FFC523A7F8B030154B4FF0ED
:103ED80080721A61134B4FF000721A61B7F8B03054
:103EE8009AB20F4BDA600F4B4FF400021A610D4B78
:103EF80080221A610B4B4FF400721A6100BF322006
:103F0800FCF7C6FF0020FCF7C3FF4420FCF7C0FF06
:103F18000020FCF7BDFF6520FCF7BAFF002003E096
:103F2800000C014000100140FCF7B2FF7620FCF7BE
:103F3800AFFF0020FCF7ACFF8820FCF7A9FF0020AA
:103F4800FCF7A6FFC623A7F8AE30D74B4FF0807218
:103F58001A61D54B4FF000721A61B7F8AE309AB2B9
:103F6800D24BDA60D04B4FF400021A61CE4B80225C
:103F78001A61CD4B4FF400721A6100BF2020FCF784
:103F880087FF0020FCF784FF1720FCF781FF002043
:103F9800FCF77EFF0120FCF77BFF0020FCF778FF91
:103FA800C723A7F8AC30C04B4FF080721A61BE4BE4
:103FB8004FF000721A61B7F8AC309AB2BB4BDA60B6
:103FC800B94B4FF400021A61B74B80221A61B64B05
:103FD8004FF400721A6100BF0020FCF759FF00205F
:103FE800FCF756FF0020FCF753FF0020FCF750FFBA
:103FF800C823A7F8AA30AC4B4FF080721A61AA4BBD
:104008004FF000721A61B7F8AA309AB2A74BDA607B
:10401800A54B4FF400021A61A34B80221A61A24BF0
:104028004FF400721A6100BF0020FCF731FF002036
:10403800FCF72EFF0020FCF72BFF0020FCF728FFE1
:10404800C923A7F8A830984B4FF080721A61964B95
:104058004FF000721A61B7F8A8309AB2934BDA6041
:10406800914B4FF400021A618F4B80221A618E4BDC
:104078004FF400721A6100BF0020FCF709FF00200E
:10408800FCF706FF0020FCF703FF0020FCF700FF09
:104098000020FCF7FDFE0020FCF7FAFE0020FCF7EC
:1040A800F7FE0020FCF7F4FE0020FCF7F1FE0020EC
:1040B800FCF7EEFE0020FCF7EBFE0020FCF7E8FE24
:1040C8000020FCF7E5FE0020FCF7E2FE0020FCF7EC
:1040D800DFFE0020FCF7DCFEE023A7F8A630724BD9
:1040E8004FF080721A61704B4FF000721A61B7F886
:1040F800A6309AB26D4BDA606B4B4FF400021A612E
:10410800694B80221A61684B4FF400721A6100BF34
:104118001620FCF7BDFE0020FCF7BAFE1C20FCF7B9
:10412800B7FE0020FCF7B4FE2120FCF7B1FE00200A
:10413800FCF7AEFE3620FCF7ABFE0020FCF7A8FE2D
:104148004620FCF7A5FE0020FCF7A2FE5220FCF753
:104158009FFE0020FCF79CFE6420FCF799FE0020DF
:10416800FCF796FE7A20FCF793FE0020FCF790FE01
:104178008B20FCF78DFE0020FCF78AFE9920FCF7C7
:1041880087FE0020FCF784FEA820FCF781FE0020B3
:10419800FCF77EFEB920FCF77BFE0020FCF778FEDA
:1041A800C420FCF775FE0020FCF772FECA20FCF75D
:1041B8006FFE0020FCF76CFED220FCF769FE0020A1
:1041C800FCF766FED920FCF763FE0020FCF760FED2
:1041D800E020FCF75DFE0020FCF75AFEF320FCF718
:1041E80057FE0020FCF754FEE123A7F8A4302E4B1D
:1041F8004FF080721A612C4B4FF000721A61B7F8B9
:10420800A4309AB2294BDA60274B4FF400021A61A6
:10421800254B80221A61244B4FF400721A6100BFAB
:104228001620FCF735FE0020FCF732FE1C20FCF7B8
:104238002FFE0020FCF72CFE2220FCF729FE002090
:10424800FCF726FE3620FCF723FE0020FCF720FEB4
:104258004520FCF71DFE0020FCF71AFE5220FCF753
:1042680017FE0020FCF714FE6420FCF711FE002066
:10427800FCF70EFE7A20FCF70BFE0020FCF708FE88
:104288008B20FCF705FE0020FCF702FE9920FCF7C6
:10429800FFFD0020FCF7FCFDA820FCF7F9FD00203D
:1042A800FCF7F6FDB92003E000100140000C0140C6
:1042B800FCF7EEFD0020FCF7EBFDC420FCF7E8FD61
:1042C8000020FCF7E5FDCA20FCF7E2FD0020FCF722
:1042D800DFFDD220FCF7DCFD0020FCF7D9FDD8205B
:1042E800FCF7D6FD0020FCF7D3FDE020FCF7D0FD5D
:1042F8000020FCF7CDFDF320FCF7CAFD0020FCF7F9
:10430800C7FDE223A7F8A230E34B4FF080721A6191
:10431800E14B4FF000721A61B7F8A2309AB2DF4B46
:10432800DA60DD4B4FF400021A61DB4B80221A6120
:10433800D94B4FF400721A6100BF0520FCF7A8FDA5
:104348000020FCF7A5FD0B20FCF7A2FD0020FCF7E0
:104358009FFD1B20FCF79CFD0020FCF799FD3420F5
:10436800FCF796FD0020FCF793FD4420FCF790FD38
:104378000020FCF78DFD4F20FCF78AFD0020FCF79C
:1043880087FD6120FCF784FD0020FCF781FD792082
:10439800FCF77EFD0020FCF77BFD8820FCF778FD0C
:1043A8000020FCF775FD9720FCF772FD0020FCF754
:1043B8006FFDA620FCF76CFD0020FCF769FDB72017
:1043C800FCF766FD0020FCF763FDC220FCF760FDEA
:1043D8000020FCF75DFDC720FCF75AFD0020FCF724
:1043E80057FDD120FCF754FD0020FCF751FDD620E5
:1043F800FCF74EFD0020FCF74BFDDD20FCF748FDE7
:104408000020FCF745FDF320FCF742FD0020FCF7F7
:104418003FFDE323A7F8A0309F4B4FF080721A614D
:104428009D4B4FF000721A61B7F8A0309AB29B4BBF
:10443800DA60994B4FF400021A61974B80221A6197
:10444800954B4FF400721A6100BF0520FCF720FD60
:104458000020FCF71DFD0A20FCF71AFD0020FCF7E0
:1044680017FD1C20FCF714FD0020FCF711FD33207C
:10447800FCF70EFD0020FCF70BFD4420FCF708FDBF
:104488000020FCF705FD5020FCF702FD0020FCF79A
:10449800FFFC6220FCF7FCFC0020FCF7F9FC78200C
:1044A800FCF7F6FC0020FCF7F3FC8820FCF7F0FC96
:1044B8000020FCF7EDFC9720FCF7EAFC0020FCF755
:1044C800E7FCA620FCF7E4FC0020FCF7E1FCB720A1
:1044D800FCF7DEFC0020FCF7DBFCC220FCF7D8FC74
:1044E8000020FCF7D5FCC720FCF7D2FC0020FCF725
:1044F800CFFCD120FCF7CCFC0020FCF7C9FCD52070
:10450800FCF7C6FC0020FCF7C3FCDD20FCF7C0FC70
:104518000020FCF7BDFCF320FCF7BAFC0020FCF7F8
:10452800B7FCE423A7F89E305B4B4FF080721A610A
:10453800594B4FF000721A61B7F89E309AB2574B38
:10454800DA60554B4FF400021A61534B80221A610E
:10455800514B4FF400721A6100BF0120FCF798FC20
:104568000020FCF795FC0120FCF792FC0020FCF7EA
:104578008FFC0220FCF78CFC0020FCF789FC2A2029
:10458800FCF786FC0020FCF783FC3C20FCF780FC51
:104598000020FCF77DFC4B20FCF77AFC0020FCF7A0
:1045A80077FC5D20FCF774FC0020FCF771FC74209C
:1045B800FCF76EFC0020FCF76BFC8420FCF768FC21
:1045C8000020FCF765FC9320FCF762FC0020FCF758
:1045D8005FFCA220FCF75CFC0020FCF759FCB32030
:1045E800FCF756FC0020FCF753FCBE20FCF750FCFF
:1045F8000020FCF74DFCC420FCF74AFC0020FCF727
:1046080047FCCD20FCF744FC0020FCF741FCD320FC
:10461800FCF73EFC0020FCF73BFCDD20FCF738FCF7
:104628000020FCF735FCF320FCF732FC0020FCF7F7
:104638002FFCE523A7F89C30174B4FF080721A61C6
:10464800154B4FF000721A61B7F89C309AB2134BB1
:10465800DA60114B4FF400021A610F4B80221A6185
:104668000D4B4FF400721A6100BF0020FCF710FCDC
:104678000020FCF70DFC0020FCF70AFC0020FCF7EA
:1046880007FC0220FCF704FC0020FCF701FC2920B1
:10469800FCF7FEFB002003E000100140000C014085
:1046A800FCF7F6FB3C20FCF7F3FB0020FCF7F0FBE3
:1046B8004B20FCF7EDFB0020FCF7EAFB5D20FCF744
:1046C800E7FB0020FCF7E4FB7420FCF7E1FB00208B
:1046D800FCF7DEFB8420FCF7DBFB0020FCF7D8FBB3
:1046E8009320FCF7D5FB0020FCF7D2FBA220FCF7B7
:1046F800CFFB0020FCF7CCFBB320FCF7C9FB002064
:10470800FCF7C6FBBE20FCF7C3FB0020FCF7C0FB90
:10471800C420FCF7BDFB0020FCF7BAFBCD20FCF75A
:10472800B7FB0020FCF7B4FBD320FCF7B1FB00205B
:10473800FCF7AEFBDC20FCF7ABFB0020FCF7A8FB8A
:10474800F320FCF7A5FB0020FCF7A2FBE623A7F863
:104758009A30DE4B4FF080721A61DC4B4FF00072DA
:104768001A61B7F89A309AB2D94BDA60D74B4FF43E
:1047780000021A61D54B80221A61D44B4FF40072A3
:104788001A6100BF1120FCF783FB0020FCF780FBB7
:104798003420FCF77DFB0020FCF77AFB5620FCF761
:1047A80077FB0020FCF774FB7620FCF771FB0020F8
:1047B800FCF76EFB7720FCF76BFB0020FCF768FB2F
:1047C8006620FCF765FB0020FCF762FB8820FCF7FD
:1047D8005FFB0020FCF75CFB9920FCF759FB0020ED
:1047E800FCF756FBBB20FCF753FB0020FCF750FB03
:1047F8009920FCF74DFB0020FCF74AFB6620FCF7EC
:1048080047FB0020FCF744FB5520FCF741FB002048
:10481800FCF73EFB5520FCF73BFB0020FCF738FB80
:104828004520FCF735FB0020FCF732FB4320FCF762
:104838002FFB0020FCF72CFB4420FCF729FB002071
:10484800FCF726FBE723A7F89830A04B4FF08072BF
:104858001A619E4B4FF000721A61B7F898309AB2FD
:104868009B4BDA60994B4FF400021A61974B8022F8
:104878001A61964B4FF400721A6100BF3220FCF7A0
:1048880007FB0020FCF704FB5520FCF701FB002088
:10489800FCF7FEFA7620FCF7FBFA0020FCF7F8FAA2
:1048A8006620FCF7F5FA0020FCF7F2FA6720FCF71F
:1048B800EFFA0020FCF7ECFA6720FCF7E9FA002091
:1048C800FCF7E6FA8720FCF7E3FA0020FCF7E0FAA9
:1048D8009920FCF7DDFA0020FCF7DAFABB20FCF798
:1048E800D7FA0020FCF7D4FA9920FCF7D1FA002077
:1048F800FCF7CEFA7720FCF7CBFA0020FCF7C8FAD1
:104908004420FCF7C5FA0020FCF7C2FA5620FCF751
:10491800BFFA0020FCF7BCFA2320FCF7B9FA002004
:10492800FCF7B6FA3320FCF7B3FA0020FCF7B0FA2C
:104938004520FCF7ADFA0020FCF7AAFAE823A7F80F
:104948009630624B4FF080721A61604B4FF00072E4
:104958001A61B7F896309AB25D4BDA605B4B4FF448
:1049680000021A61594B80221A61584B4FF40072A9
:104978001A6100BF0020FCF78BFA0020FCF788FAC8
:104988009920FCF785FA0020FCF782FA8720FCF7CB
:104998007FFA0020FCF77CFA8820FCF779FA0020DF
:1049A800FCF776FA7720FCF773FA0020FCF770FA28
:1049B8006620FCF76DFA0020FCF76AFA8820FCF7FD
:1049C80067FA0020FCF764FAAA20FCF761FA0020D5
:1049D800FCF75EFABB20FCF75BFA0020FCF758FAFC
:1049E8009920FCF755FA0020FCF752FA6620FCF7EC
:1049F8004FFA0020FCF74CFA5520FCF749FA002042
:104A0800FCF746FA5520FCF743FA0020FCF740FA79
:104A18004420FCF73DFA0020FCF73AFA4420FCF762
:104A280037FA0020FCF734FA5520FCF731FA002059
:104A3800FCF72EFAE923A7F89430244B4FF0807244
:104A48001A61224B4FF000721A61B7F894309AB28B
:104A58001F4BDA601D4B4FF400021A611B4B80227A
:104A68001A611A4B4FF400721A6100BFAA20FCF7B2
:104A78000FFA0020FCF70CFA0020FCF709FA0020D6
:104A8800FCF706FA0023A7F89230104B4FF080721B
:104A98001A610E4B4FF000721A61B7F892309AB251
:104AA8000B4BDA60094B4FF400021A61074B802266
:104AB8001A61064B4FF400721A6100BFAA20FCF776
:104AC800E7F9CF23A7F8903004E000BF00100140B9
:104AD800000C0140BC4B4FF080721A61BA4B4FF08A
:104AE80000721A61B7F890309AB2B84BDA60B64BD8
:104AF8004FF400021A61B44B80221A61B24B4FF492
:104B080000721A6100BF0020FCF7C2F90020FCF710
:104B1800BFF90020FCF7BCF90020FCF7B9F9002028
:104B2800FCF7B6F90020FCF7B3F90020FCF7B0F960
:104B38000020FCF7ADF90020FCF7AAF90020FCF7EB
:104B4800A7F90020FCF7A4F90020FCF7A1F9002040
:104B5800FCF79EF90020FCF79BF90020FCF798F978
:104B68000020FCF795F90020FCF792F9F023A7F84C
:104B78008E30954B4FF080721A61934B4FF0007254
:104B88001A61B7F88E309AB2904BDA608E4B4FF4B8
:104B980000021A618C4B80221A618B4B4FF4007211
:104BA8001A6100BF0020FCF773F95020FCF770F978
:104BB8000020FCF76DF90020FCF76AF90020FCF7EB
:104BC80067F9F323A7F88C307F4B4FF080721A6196
:104BD8007D4B4FF000721A61B7F88C309AB27B4B5C
:104BE800DA60794B4FF400021A61774B80221A6120
:104BF800754B4FF400721A6100BF0020FCF748F9AA
:104C0800F923A7F88A30704B4FF080721A616E4B07
:104C18004FF000721A61B7F88A309AB26B4BDA60BB
:104C2800694B4FF400021A61674B80221A61664B88
:104C38004FF400721A6100BF0620FCF729F9102012
:104C4800FCF726F92920FCF723F90020FCF720F9C6
:104C58003A23A7F888305C4B4FF080721A615A4BA0
:104C68004FF000721A61B7F888309AB2574BDA6081
:104C7800554B4FF400021A61534B80221A61524B74
:104C88004FF400721A6100BF5520FCF701F9112397
:104C9800A7F886304C4B4FF080721A614A4B4FF0A0
:104CA80000721A61B7F886309AB2484BDA60464B00
:104CB8004FF400021A61444B80221A61424B4FF4B0
:104CC80000721A6100BF642003F01CFE2923A7F8B4
:104CD80084303D4B4FF080721A613B4B4FF00072AD
:104CE8001A61B7F884309AB2384BDA60364B4FF411
:104CF80000021A61344B80221A61334B4FF4007260
:104D08001A6100BF3523A7F882302F4B4FF080720D
:104D18001A612D4B4FF000721A61B7F882309AB2BF
:104D28002A4BDA60284B4FF400021A61264B802286
:104D38001A61254B4FF400721A6100BF0020FCF77E
:104D4800A7F85123A7F880301F4B4FF080721A61E3
:104D58001D4B4FF000721A61B7F880309AB21B4BA6
:104D6800DA60194B4FF400021A61174B80221A615E
:104D7800154B4FF400721A6100BFFF20FCF788F84A
:104D88005323A7F87E30104B4FF080721A610E4BF8
:104D98004FF000721A61B7F87E309AB20B4BDA60A6
:104DA800094B4FF400021A61074B80221A61064B27
:104DB8004FF400721A6100BF2C20FCF769F85523E4
:104DC800A7F87C3004E000BF00100140000C01404F
:104DD8001C4B4FF080721A611A4B4FF000721A6127
:104DE800B7F87C309AB2184BDA60164B4FF40002D1
:104DF8001A61144B80221A61124B4FF400721A6127
:104E080000BF8220FCF744F82C23A7F87A300D4B1A
:104E18004FF080721A610B4B4FF000721A61B7F8AD
:104E28007A309AB2084BDA60064B4FF400021A61E6
:104E3800044B80221A61034B4FF400721A6102F08E
:104E4800D8B800BF00100140000C0140B44B9B884B
:104E580047F29672934240F0E3821123A7F8023199
:104E6800B04B4FF080721A61AE4B4FF000721A616E
:104E7800B7F802319AB2AC4BDA60AA4B4FF4000291
:104E88001A61A84B80221A61A64B4FF400721A616E
:104E980000BF782003F036FD3623A7F80031A14B78
:104EA8004FF080721A619F4B4FF000721A61B7F889
:104EB80000319AB29C4BDA609A4B4FF400021A61A7
:104EC800984B80221A61974B4FF400721A6100BF09
:104ED8004820FBF7DDFF3A23A7F8FE30914B4FF04F
:104EE80080721A618F4B4FF000721A61B7F8FE306A
:104EF8009AB28D4BDA608B4B4FF400021A61894BE2
:104F080080221A61874B4FF400721A6100BF552046
:104F1800FBF7BEFFF023A7F8FC30824B4FF08072FE
:104F28001A61804B4FF000721A61B7F8FC309AB2E0
:104F38007D4BDA607B4B4FF400021A61794B80227B
:104F48001A61784B4FF400721A6100BFC320FBF757
:104F58009FFFF023A7F8FA30724B4FF080721A6166
:104F6800704B4FF000721A61B7F8FA309AB26E4B74
:104F7800DA606C4B4FF400021A616A4B80221A61A6
:104F8800684B4FF400721A6100BF9620FBF780FF50
:104F9800B423A7F8F830634B4FF080721A61614B65
:104FA8004FF000721A61B7F8F8309AB25E4BDA60C7
:104FB8005C4B4FF400021A615A4B80221A61594B1C
:104FC8004FF400721A6100BF0120FBF761FFB6239E
:104FD800A7F8F630534B4FF080721A61514B4FF0DF
:104FE80000721A61B7F8F6309AB24F4BDA604D4B3F
:104FF8004FF400021A614B4B80221A61494B4FF45F
:1050080000721A6100BF0A20FBF742FFA220FBF7DB
:105018003FFFB723A7F8F430424B4FF080721A6174
:10502800404B4FF000721A61B7F8F4309AB23E4B19
:10503800DA603C4B4FF400021A613A4B80221A6145
:10504800384B4FF400721A6100BFC620FBF720FFEF
:10505800B923A7F8F230334B4FF080721A61314B05
:105068004FF000721A61B7F8F2309AB22E4BDA603C
:105078002C4B4FF400021A612A4B80221A61294BEB
:105088004FF400721A6100BF0220FBF701FFE02015
:10509800FBF7FEFEC023A7F8F030224B4FF08072DA
:1050A8001A61204B4FF000721A61B7F8F0309AB2CB
:1050B8001D4BDA601B4B4FF400021A61194B80221A
:1050C8001A61184B4FF400721A6100BF8020FBF779
:1050D800DFFE1620FBF7DCFEC123A7F8EE30114BEC
:1050E8004FF080721A610F4B4FF000721A61B7F8D7
:1050F800EE309AB20C4BDA600A4B4FF400021A6198
:10510800084B80221A61074B4FF400721A6100BFE6
:105118001920FBF7BDFEC223A7F8EC3006E000BF5C
:10512800B000002000100140000C0140BA4B4FF0C5
:1051380080721A61B84B4FF000721A61B7F8EC3000
:105148009AB2B64BDA60B44B4FF400021A61B24B14
:1051580080221A61B04B4FF400721A6100BFA72079
:10516800FBF796FEC523A7F8EA30AB4B4FF08072E9
:105178001A61A94B4FF000721A61B7F8EA309AB277
:10518800A64BDA60A44B4FF400021A61A24B8022AE
:105198001A61A14B4FF400721A6100BF1620FBF789
:1051A80077FEE823A7F8E8309B4B4FF080721A612E
:1051B800994B4FF000721A61B7F8E8309AB2974BE2
:1051C800DA60954B4FF400021A61934B80221A6102
:1051D800914B4FF400721A6100BF4020FBF758FE54
:1051E8008A20FBF755FE0020FBF752FE0020FBF754
:1051F8004FFE2920FBF74CFE1920FBF749FEA5209E
:10520800FBF746FE3320FBF743FEE023A7F8E63022
:10521800814B4FF080721A617F4B4FF000721A6118
:10522800B7F8E6309AB27D4BDA607B4B4FF4000258
:105238001A61794B80221A61774B4FF400721A6118
:1052480000BFF020FBF724FE0720FBF721FE0D200E
:10525800FBF71EFE0420FBF71BFE0520FBF718FEDC
:105268001420FBF715FE3620FBF712FE5420FBF73F
:105278000FFE4C20FBF70CFE3820FBF709FE13202D
:10528800FBF706FE1420FBF703FE2E20FBF700FEBB
:105298003420FBF7FDFDE123A7F8E4305E4B4FF027
:1052A80080721A615C4B4FF000721A61B7F8E430F3
:1052B8009AB25A4BDA60584B4FF400021A61564BB7
:1052C80080221A61544B4FF400721A6100BFF0201B
:1052D800FBF7DEFD1020FBF7DBFD1420FBF7D8FD04
:1052E8000E20FBF7D5FD0C20FBF7D2FD0820FBF7BD
:1052F800CFFD3520FBF7CCFD4420FBF7C9FD4C2042
:10530800FBF7C6FD2620FBF7C3FD1020FBF7C0FD09
:105318001220FBF7BDFD2C20FBF7BAFD3220FBF76E
:10532800B7FDF023A7F8E2303B4B4FF080721A61CB
:10533800394B4FF000721A61B7F8E2309AB2374B26
:10534800DA60354B4FF400021A61334B80221A6140
:10535800314B4FF400721A6100BF3C20FBF798FDF7
:10536800F023A7F8E0302C4B4FF080721A612A4BDB
:105378004FF000721A61B7F8E0309AB2274BDA6042
:10538800254B4FF400021A61234B80221A61224BED
:105398004FF400721A6100BF6920FBF779FD78208D
:1053A80003F0B0FA2123A7F8DE301B4B4FF08072D0
:1053B8001A61194B4FF000721A61B7F8DE309AB2D1
:1053C800164BDA60144B4FF400021A61124B80221C
:1053D8001A61114B4FF400721A6100BF2923A7F814
:1053E800DC300D4B4FF080721A610B4B4FF000729E
:1053F8001A61B7F8DC309AB2084BDA60064B4FF402
:1054080000021A61044B80221A61034B4FF40072A8
:105418001A6101F0EEBD00BF00100140000C014010
:10542800034B9B8845F21052934240F0B38701E04A
:10543800B000002055214FF47040FBF74DFDAA2124
:105448004FF20100FBF748FD52214FF20200FBF733
:1054580043FD08214FF20300FBF73EFD01214FF207
:105468000400FBF739FD0D214FF43040FBF734FD04
:105478000D214BF20100FBF72FFD0D214BF202002D
:10548800FBF72AFD34214FF43640FBF725FD342184
:105498004BF20160FBF720FD34214BF20260FBF771
:1054A8001BFD0D214FF43140FBF716FD0D214BF28A
:1054B8000110FBF711FD0D214BF20210FBF70CFD5B
:1054C80034214FF43740FBF707FD34214BF20170CC
:1054D800FBF702FD34214BF20270FBF7FDFC0021C3
:1054E8004FF43240FBF7F8FC00214BF20120FBF7A8
:1054F800F3FC00214BF20220FBF7EEFC24214FF4D1
:105508003840FBF7E9FC24214BF60100FBF7E4FCEB
:1055180024214BF60200FBF7DFFC01214FF43F404A
:10552800FBF7DAFC0F214FF43340FBF7D5FC0F21D2
:105538004BF20130FBF7D0FC0F214BF20230FBF7A6
:10554800CBFC34214FF43940FBF7C6FC34214BF631
:105558000110FBF7C1FC34214BF60210FBF7BCFC31
:1055680008214FF43540FBF7B7FC08214BF20150F6
:10557800FBF7B2FC08214BF20250FBF7ADFC03210C
:105588004FF44240FBF7A8FC24214FF43A40FBF7C4
:10559800A3FC24214BF60120FBF79EFC24214BF6AB
:1055A8000220FBF799FC00214FF43C40FBF794FCE8
:1055B80078214BF60140FBF78FFC00214BF60240A7
:1055C800FBF78AFC00214FF43D40FBF785FC78216E
:1055D8004BF60150FBF780FC00214BF60250FBF71D
:1055E8007BFC00214FF43E40FBF776FC64214BF630
:1055F8000160FBF771FC00214FF45140FBF76CFC94
:1056080033214DF20110FBF767FC00214DF2021027
:10561800FBF762FC34214DF20310FBF75DFC00211F
:105628004DF20410FBF758FC3A214DF20510FBF738
:1056380053FC00214DF20610FBF74EFC4A214DF2B7
:105648000710FBF749FC00214DF20810FBF744FC5A
:105658005C214DF20910FBF73FFC00214DF20A10C6
:10566800FBF73AFC81214DF20B10FBF735FC0021CA
:105678004DF20C10FBF730FCA6214DF20D10FBF794
:105688002BFC00214DF20E10FBF726FCE5214DF214
:105698000F10FBF721FC01214DF21010FBF71CFC49
:1056A80013214DF21110FBF717FC01214DF21210D6
:1056B800FBF712FC54214DF21310FBF70DFC0121EE
:1056C8004DF21410FBF708FC82214DF21510FBF780
:1056D80003FC01214DF21610FBF7FEFBCA214DF227
:1056E8001710FBF7F9FB02214DF21810FBF7F4FB3A
:1056F80000214DF21910FBF7EFFB02214DF21A10B1
:10570800FBF7EAFB01214DF21B10FBF7E5FB022139
:105718004DF21C10FBF7E0FB34214DF21D10FBF796
:10572800DBFB02214DF21E10FBF7D6FB67214DF281
:105738001F10FBF7D1FB02214DF22010FBF7CCFB29
:1057480084214DF22110FBF7C7FB02214DF22210F4
:10575800FBF7C2FBA4214DF22310FBF7BDFB02218E
:105768004DF22410FBF7B8FBB7214DF22510FBF7DB
:10577800B3FB02214DF22610FBF7AEFBCF214DF211
:105788002710FBF7A9FB02214DF22810FBF7A4FB19
:10579800DE214DF22910FBF79FFB02214DF22A1062
:1057A800FBF79AFBF2214DF22B10FBF795FB022138
:1057B8004DF22C10FBF790FBFE214DF22D10FBF75C
:1057C8008BFB03214DF22E10FBF786FB10214DF2C7
:1057D8002F10FBF781FB03214DF23010FBF77CFB08
:1057E80033214DF23110FBF777FB03214DF23210D4
:1057F800FBF772FB6D214DF23310FBF76DFB0021B7
:105808004FF45240FBF768FB33214DF20120FBF7C0
:1058180063FB00214DF20220FBF75EFB34214DF2C1
:105828000320FBF759FB00214DF20420FBF754FB42
:105838003A214DF20520FBF74FFB00214DF20620DF
:10584800FBF74AFB4A214DF20720FBF745FB0021F5
:105858004DF20820FBF740FB5C214DF20920FBF7D5
:105868003BFB00214DF20A20FBF736FB81214DF26C
:105878000B20FBF731FB00214DF20C20FBF72CFB32
:10588800A6214DF20D20FBF727FB00214DF20E203B
:10589800FBF722FBE5214DF20F20FBF71DFB012151
:1058A8004DF21020FBF718FB13214DF21120FBF7E6
:1058B80013FB01214DF21220FBF70EFB54214DF290
:1058C8001320FBF709FB01214DF21420FBF704FB21
:1058D80082214DF21520FBF7FFFA01214DF2162027
:1058E800FBF7FAFACA214DF21720FBF7F5FA022165
:1058F8004DF21820FBF7F0FA00214DF21920FBF7C2
:10590800EBFA02214DF21A20FBF7E6FA01214DF2DB
:105918001B20FBF7E1FA02214DF21C20FBF7DCFA11
:1059280034214DF21D20FBF7D7FA02214DF21E203B
:10593800FBF7D2FA67214DF21F20FBF7CDFA0221BF
:105948004DF22020FBF7C8FA84214DF22120FBF705
:10595800C3FA02214DF22220FBF7BEFAA4214DF230
:105968002320FBF7B9FA02214DF22420FBF7B4FA01
:10597800B7214DF22520FBF7AFFA02214DF2262080
:10598800FBF7AAFACF214DF22720FBF7A5FA02214F
:105998004DF22820FBF7A0FADE214DF22920FBF773
:1059A8009BFA02214DF22A20FBF796FAF2214DF2DA
:1059B8002B20FBF791FA02214DF22C20FBF78CFAF1
:1059C800FE214DF22D20FBF787FA03214DF22E2000
:1059D800FBF782FA10214DF22F20FBF77DFA032105
:1059E8004DF23020FBF778FA33214DF23120FBF7E6
:1059F80073FA03214DF23220FBF76EFA6D214DF256
:105A08003320FBF769FA00214FF45340FBF764FA9F
:105A180033214DF20130FBF75FFA00214DF20230DD
:105A2800FBF75AFA34214DF20330FBF755FA0021FF
:105A38004DF20430FBF750FA3A214DF20530FBF7EE
:105A48004BFA00214DF20630FBF746FA4A214DF297
:105A58000730FBF741FA00214DF20830FBF73CFA1A
:105A68005C214DF20930FBF737FA00214DF20A307C
:105A7800FBF732FA81214DF20B30FBF72DFA0021AA
:105A88004DF20C30FBF728FAA6214DF20D30FBF74A
:105A980023FA00214DF20E30FBF71EFAE5214DF2F4
:105AA8000F30FBF719FA01214DF21030FBF714FA09
:105AB80013214DF21130FBF70FFA01214DF212308C
:105AC800FBF70AFA54214DF21330FBF705FA0121CE
